:1000000000800020BD01000079550000315500003E
:1000100031550000315500003155000031550000C8
:100020003155000031550000315500007955000070
:100030007955000031550000896A00008D6B000081
:100040007955000079550000795500007955000078
:100050007955000079550000795500007955000068
:100060007955000079550000795500007955000058
:100070007955000079550000795500007955000048
:100080007955000079550000795500007955000038
:100090007955000079550000795500007955000028
:1000A000B14D0000BD4D00007955000079550000AC
:1000B0007955000079550000795500007955000008
:1000C00079550000795500007955000079550000F8
:1000D00079550000795500007955000079550000E8
:1000E00079550000795500007955000079550000D8
:1000F00079550000415A0000795500006D5B000001
:1001000079550000995C0000795500007955000090
:1001100079550000795500007955000079550000A7
:100120007955000079550000795500007955000097
:100130007955000079550000795500007955000087
:100140007955000079550000795500007955000077
:100150007955000079550000795500007955000067
:1001600079550000795E000079550000795500004E
:100170007955000079550000795500007955000047
:100180007955000079550000795500007955000037
:100190007955000079550000795500007955000027
:1001A0007955000079550000795500007955000017
:1001B000795500007955000081520000564B4CF2F1
:1001C000205210B51A804DF628121A8000BF00BFC9
:1001D00005F0D6F9514B4FF010621A60504A9A6000
:1001E000504ADA60504A136813F4807304D14F49BF
:1001F0000B604FF4A85313604D4B1A78110703D5C9
:100200001A7842F008021A704A4B4B492A221A7097
:100210004A4A4B4B8B4204D252F8040F43F8040B6A
:10022000F8E7484B484900228B4202D243F8042B9E
:10023000FAE74649464A002352F8230041F82300D2
:1002400001336F2BF8D1434B434A802103F8011B44
:100250009342FBD1414B3D4A1A60414B8A221A70AE
:10026000A3F5805324225A70A0221A709A7992071B
:10027000FCD59A79D406FCD43A4A937903F00C035E
:10028000082B384BF9D103221A7140225A719A79FE
:100290009006FCD5334A9179324B4906FBD5324A58
:1002A000324911600221516020221A709A7902F0BD
:1002B0000C020C2AFAD12E4B2E4A1A602E4B2F4AD2
:1002C0001A6000225A60072243F8042C2C4AC3F813
:1002D0000C2D62B605F034FB144B1B68DA0705D50C
:1002E000284805F08DFA284B284A1A60284B1B78BD
:1002F0005B0609D5244C254B22689A4204D121483B
:1003000005F07EFA002323600AF0E4FD05F03EF9D3
:1003100005F076F8FEE700BF0E200540308004406F
:10032000823F04000100002B10D0034014D0034092
:1003300002D0074000E0074064A8FF1FC0CB0000C8
:10034000209BFF1F64A8FF1FC8D2FF1F0096FF1F3E
:100350000000000000E400E05FE400E008ED00E0E1
:100360000050064000400640448004400000030165
:1003700004800440C010050014E000E0FF76010096
:10038000000020201A0EEB5B1CE00340A5C3945A2A
:1003900000F00740FFFFFFFFFFFFFFFFFFFFFFFF32
:1003A000FFFFFFFFFFFFFFFFFFFFFFFFFFFFFFFF5D
:1003B000FFFFFFFFFFFFFFFFFFFFFFFFFFFFFFFF4D
:1003C000FFFFFFFFFFFFFFFFFFFFFFFFFFFFFFFF3D
:1003D000FFFFFFFFFFFFFFFFFFFFFFFFFFFFFFFF2D
:1003E000FFFFFFFFFFFFFFFFFFFFFFFFFFFFFFFF1D
:1003F000FFFFFFFFFFFFFFFFFFFFFFFFFFFFFFFF0D
:10040000FFFFFFFFFFFFFFFFFFFFFFFFDEF9FFFF23
:1004100010B5054C237833B9044B13B10448AFF33E
:1004200000800123237010BD64A8FF1F000000009E
:10043000C4CB0000084B10B51BB108490848AFF306
:1004400000800848036803B910BD074B002BFBD0A0
:10045000BDE81040184700BF0000000068A8FF1F5B
:10046000C4CB000064A8FF1F0000000010B50446C4
:1004700004F0BEFE204610BD1F4B10B45A6C13682A
:10048000506819780478507A137A044201EA03011B
:100490001AD0937A03F0030309B143F0040343F045
:1004A00008039910013B91720D2B0BD8DFE803F084
:1004B0001E0719070A141E1E140A0719071ED368FF
:1004C000013BD36010BC7047937A03F0030300290B
:1004D000E7D043F00403E4E7D36810BC023BD360E9
:1004E0007047D36810BC0233D3607047D36810BC28
:1004F0000133D360704700BF10CFFF1F1F4B10B4F4
:100500001A6D1368506819780478507A137A044287
:1005100001EA03011AD0937A03F0030309B143F00F
:10052000040343F008039910013B91720D2B0BD883
:10053000DFE803F01E0719070A141E1E140A071924
:10054000071ED368013BD36010BC7047937A03F059
:1005500003030029E7D043F00403E4E7D36810BCA9
:10056000023BD3607047D36810BC0233D36070473E
:10057000D36810BC0133D360704700BF10CFFF1F9A
:10058000002310B4104C4172026104600372C36016
:1005900041B1194600E0026942F82310427A013362
:1005A0009A42F8DC094B1A680AB90BE01A465369FB
:1005B000002BFBD15061002343618380C380837291
:1005C00010BC70471860F6E7BCB8000098CFFF1F5A
:1005D0000A7AF0B48D88CC88C480858002724A7A09
:1005E00042728A7A8272CF680E694D698A690F4CAD
:1005F000C76006614561046082610A7F0277CA8B29
:100600000F6A4E6A0D8D4C8DC2838A8D07624662D9
:1006100005854485CE8D0D6B8C8E8285CA8EC286F3
:10062000C68505638486F0BC704700BF94BE000099
:100630002DE9F0411021AA48AA4EAB4DDFF898836E
:10064000AA4F04F0ABFCAA4802F096FE5A21A84833
:1006500002F02EFFA749A84AA84BA948886243F692
:10066000FF740C8314831C83A648A74C90629C6281
:100670000024DFF868E3F4610326A4488E85CC618A
:10068000DC61A3499E85A34BEB61CEF81C304FF48F
:100690008A73DFF84CE343858385C38583864B8566
:1006A0008B85CB858B864CF6CC439B4DCEF8183092
:1006B0009A4B9685D4614FF080420263AB619848B3
:1006C0000A63A3F55A63EB61C5F824809549964DFA
:1006D000C561964B9648DFF80CC3964DC8619649A4
:1006E0009648D96142F25003ACF82A309449DFF8B9
:1006F000F8E26B852A63AB86924D4385026383865D
:100700009148CCF830204B850A638B86AEF82A30AE
:100710008E49CEF83020AEF834302A63DFF8CCE2D0
:100720008B4A6B85AB864FF480358561C561056268
:100730004FF40040ACF834308D61CD610D629561AD
:10074000D561CEF82C0008234FF40062814982481D
:1007500002F05CFF814BDFF898E28148C3F818E0B3
:10076000AEF5DA7E7F49C3F81CE0C3F82480DFF8D9
:1007700084E2C0F828E047F6FF787B4AC4618685AA
:10078000A0F8188079488862CC618E857848A1F8F5
:1007900018807849916278498561C56146F2666042
:1007A000086200F15B7000F6E200A2F81880D461E4
:1007B0009685C861714A72499161A1F5B731714B53
:1007C000DFF834C29E85A1F5F871D1614FF0005178
:1007D00051626D4E6D4ACCF81C20A3F81880DC6184
:1007E0009E626B4A6B4B6C4E9A61A2F57C52183A32
:1007F000DA616A4ADFF804E25A626949694D6A4A75
:10080000F2616A4B6A486B4ECEF81C304FF40062BE
:10081000C8610123EE614F49674802F0F7FE674B5C
:1008200067491D68284609F0EFFF0021A7F81880E6
:1008300006460AF08FFA002840F0438161493046AD
:100840000AF0A6FA002840F02B815F4930460AF0F2
:10085000E3F84FF07C5109F0D7FF0AF0C9FA022300
:100860000026B862BB855949FE61284609F0CCFFD5
:10087000574C47F6FF730021238307460AF06AFAB4
:10088000002840F022814F4938460AF081FA0028BA
:1008900040F00A814C4938460AF0BEF84FF07C51CE
:1008A00009F0B2FF0AF0A4FA4A4EA06247F6FF72BE
:1008B00000270223002128463283E761A3850AF03E
:1008C00049FA002840F0FF803E4928460AF060FAC5
:1008D000002840F0E7803C4928460AF09DF88FE068
:1008E0000082FF1FC4CCFF1F7CB1FF1F58C5FF1F34
:1008F00004B4FF1FC0C9FF1FF4C9FF1F28CAFF1F90
:10090000D72E6D00D0FA8100080FAD00A8B4FF1FEC
:1009100014AAFF1FC09C8D02E0B4FF1F6804BC0234
:10092000F4C8FF1F18C9FF1F2599C2003CC9FF1F4B
:100930005A13F80034CDFF1F922723018CAAFF1F02
:100940004CACFF1F70CAFF1F58A9FF1FE8CDFF1F47
:1009500018CCFF1F58B5FF1FFCB2FF1F50C6FF1F6A
:1009600080CDFF1FB4CDFF1FA4CBFF1FCF65330089
:1009700038B4FF1FAF333D00C0CEFF1F88ABFF1F51
:10098000400D340820CEFF1F586B3B0080391B05FB
:1009900000B28E04B0B3FF1F54CEFF1F00B76D5BD3
:1009A0009CCEFF1F64ABFF1FA011DA00825D030124
:1009B000B98881006F319A00E4B1FF1F989DFF1F35
:1009C0006666EE41A655AC464B243E47CDCC2E4242
:1009D0008CC5FF1FC0C5FF1FD0CCCC0CD4A9FF1FF6
:1009E00074B4FF1F80C8FF1F50CCFF1FDCCAFF1F5D
:1009F00034025E01CCD9280064AAFF1F78CEFF1F05
:100A00004FF07C5109F000FF0AF0F2F9B0620223C6
:100A100028460025B3852F49F56109F0F5FE2E4CD7
:100A200047F6FF730021238306460AF093F9002856
:100A30004DD12A4930460AF0ABF9002836D0284873
:100A4000284A294DDFF8BCE0284B294EA062C2F8A5
:100A500018E0284FDFF8B0E02748C5F818E000217B
:100A6000D76156626E624FF48032E86146F2666783
:100A7000022610205F62E1619A61DA611A62A6853E
:100A800004F0E4FE0121102004F0CCFE10211B48EC
:100A900004F02CFA0A211948BDE8F04104F040BAEC
:100AA0000F48DCE60E48B1E70D48FDE63046144934
:100AB00009F0B2FF4FF07C5109F0A6FE0AF098F958
:100AC000BEE72046CBE63846A0E73046ECE62846AF
:100AD000B6E700BFCDCC0441F4C5FF1FA655AC4618
:100AE000C0FFFF3FDCC6FF1F1CB5FF1F14ABFF1F7D
:100AF00000B76D5B509D3208E43AA503D0CAFF1FD2
:100B00004B243E47400D3408345BA5032DE9F047E4
:100B1000964C2378002B39D195490B7C012B40F260
:100B20009F8072B6CB6862B6924EDFF874E232688C
:100B3000002BB8BF03339B10002A47D00322CEF806
:100B40000C208D488D4D0268934204D02F78002FE1
:100B500047D103601A46002A04DD72B60023CB6039
:100B600062B603602B78002B34D1854D00682A686B
:100B7000814F5EF82230DFF8FC81DFF824C2C0F13B
:100B8000000E46F822E05E42B04248DB7D4804F0A9
:100B9000C9F908B9BDE8F0877A4804F0FBF90028E4
:100BA000F8D12378714A002B47D172B6704AD360CE
:100BB00062B673490A68032A00F0C2806F480132A6
:100BC000052A037075D00A60BDE8F0870722CEF8C9
:100BD0000C20B6E76C4B6D491A688A421ADD196021
:100BE000D4E76B4FDFF8BCC1D7F80080DCF80070A9
:100BF000C7EB0807322F47D8DFF88C91D9F800707F
:100C0000D21A4FF0640A0AFB0277C9F80070CCF8D8
:100C100000809EE7002ABCBF00221A60B6E748F8B1
:100C2000223072B6C3EB83739B00CB6062B62B6835
:100C30005CF823305B423B60A8E74E4B504F554E6B
:100C4000554D564C50491070386030602860206017
:100C50000860186058609860D8601861BDE8F08737
:100C600072B60B6848681A780578487A0B7A05429C
:100C700002EA030229D08B7A03F003030AB143F09E
:100C8000040343F0080325E0B7F5C87F08D83E4FBA
:100C9000D21A02EB82093A6802EB49023A60B6E7DF
:100CA000DFF8E490D9F80070D21A1744C9F8007040
:100CB000ADE7304A0B6002F1140152F8043B002BFF
:100CC00049D19142F9D1BDE8F0878B7A03F0030353
:100CD000002A48D19A10013B8A720D2B3FF622AFB1
:100CE00001A252F823F000BF390D0000310D0000C1
:100CF000290D0000310D0000250B0000210D000022
:100D0000390D0000390D0000210D0000250B0000F9
:100D1000310D0000290D0000310D0000390D0000DB
:100D2000CB68023BCB60FEE6CB680233CB60FAE6D1
:100D3000CB68013BCB60F6E6CB680133CB60F2E6D3
:100D40000E4D2B785BB90B4BDB68012B07D90123C8
:100D50002B70BDE8F08701232370BDE8F0870023E6
:100D60002B7004222FE743F00403B3E730B2FF1FD8
:100D70004CAAFF1FB0ACFF1F009CFF1F8CCBFF1FB6
:100D800088C9FF1FD0CAFF1FF8A9FF1F9F86010057
:100D9000FCA9FF1F70B4FF1F14CCFF1FA0B1FF1FE1
:100DA000A89DFF1F10ADFF1F2DE9F04F6D4B1B7865
:100DB00083B0002B7CD1DFF8E8A1DFF8E8B19846DA
:100DC0001F46694BCDF8048083FB08234FEAE87285
:100DD000C2EBA313654A03F5FA7382FB0326DB43D8
:100DE000DB0FC3EB6616BB00F6004FEAC709002510
:100DF00098460CE058F802305D48C3EBC3032B441F
:100E000001351BF8232004F02DF8072D2DD09AF87A
:100E10000030584A09F1010138462944002BE9D035
:100E200009F05EF9544C02460B46002053492468F1
:100E300006F016F809F06AFC514B94FBF0F083FBC6
:100E40000034C317C3EBA40404EB8404A0EB4400F8
:100E5000C0EBC0002844711C1BF8202044482944E2
:100E6000013503F0FFFF072DD1D1DDF80480454B9C
:100E7000A8F51B48A8F1DC08984507F10107A0D1A7
:100E80000025414E2C46336839489C4229464FF094
:100E9000000203D19AF80030002B5FD003F0E2FF8C
:100EA0000134052C05F10805EDD103B0BDE8F08F44
:100EB0000024214600222E48083403F0D3FF282CBA
:100EC000F7D1324B324A3348196813680068CB1A9D
:100ED0008342EAD34FF00008DFF8CCB0DFF8BC90D3
:100EE000DFF8C0A01160464647467C1C07F10805A4
:100EF000DFF8B880FF4308E098F80020013403F0E1
:100F0000B1FFAC4208F1040815D0DBF800301848F6
:100F1000B3422146F0D1D9F800300A33C3EBC30302
:100F200023443B4401341AF8232003F09BFFAC42D6
:100F300008F10408E9D10136052E2746D5D1164A15
:100F4000D9F800301268154901339342C9F80030CE
:100F500004BF00230B6003B0BDE8F08F012203F053
:100F600081FF9DE730B2FF1F699CDB281F85EB5195
:100F700034B2FF1FB0ACFF1FF8A9FF1F00002440D0
:100F800067666666B4F4FCFF88C9FF1FFCA9FF1FF3
:100F900088AAFF1F8C9DFF1FA49DFF1F14CCFF1F5D
:100FA0008CCBFF1F049CFF1F70B4FF1F709DFF1FA1
:100FB0002DE9F041584C2368302B3EDC574A584904
:100FC000584D10680A682D68821AAA4233D3564DCC
:100FD00008602A78002A40F088805448DC1780FB9B
:100FE0000320C4EB600404EB44022146B3EB82040B
:100FF0006BD1CBB14E4B53F8210009F0B9FC002165
:10100000064609F0A7FE002840F081804949304695
:1010100009F0BEFE00287CD14749304609F0FCFCAF
:1010200009F0E6FE454BD861454802F0F6FB012386
:101030002B70BDE8F081BDE8F081424C2368012BA4
:1010400010D0364A3649374D10680A682D68821A22
:10105000AA420DD23C4A1268023B3C4951F8233067
:101060009342E8DC3A4A136801331360BDE8F0812B
:101070002D4D08602E7876BB334F36483A68023BD8
:1010800003EB830102EB011150F82110D1B10139BA
:10109000274B53F8210009F06BFC0021804609F032
:1010A00059FE28B92349404609F072FE38B32A4E4A
:1010B000224B2348DE6102F0B0FB23683A6801212D
:1010C000023B297001323A60C7E7012CACD1012301
:1010D0002B70BDE8F0811A4802F0C5FB1A4A23685C
:1010E00012680021023B2970B7E7154802F0BBFBEC
:1010F00023680022013323602A70BDE8F0810E4985
:10110000404609F089FC09F073FE0646D0E7204608
:1011100088E7114886E700BFA0B1FF1FFCA9FF1FA9
:1011200060ABFF1F909DFF1F60AAFF1FABAAAA2AFA
:1011300038B90000A655AC464B24BE47D4A9FF1FC2
:10114000A8B4FF1FB0ACFF1FECB3FF1F54BE0000DC
:1011500070B4FF1F54B9000080FFFF7F2DE9F041FC
:10116000364F374A3C78374B002C41D014681B6807
:10117000E41A354B5D68012D0AD06B1F012B07D98E
:10118000022D42D0EB1F012B3FD9304B1E6823E0CC
:101190002E4B1E68B6F57A7F2FDC4FF47A7000FB79
:1011A00004F090FBF6F009F0E3FB294909F0E8FCB4
:1011B0002849804609F0ECFD002833D126494046F5
:1011C00009F0C8FD80BB4FF08F41404609F024FC78
:1011D00009F0E8FD214BD861B44207D3042D03DCAC
:1011E0001F4A13680133136000233B70BDE8F08190
:1011F00012681A6001233B70BBE740F2E93000FB44
:1012000004F3701C93FBF0F0CDE7104A154B166801
:101210009E420BDB03FB04F3701C93FBF0F000F524
:101220007A70C0E71048D5E71048D3E7104800FBB4
:1012300004F090FBF6F000F57A70B4E77CC8FF1F6D
:10124000FCA9FF1F98B2FF1FB0ACFF1F949DFF1FAA
:1012500000007A4400FEFF4600FEFFC6C4CCFF1F1C
:1012600070B4FF1F19FCFFFF0000FF7F000001802A
:1012700018FCFFFFF8B53D4D2B78002B61D03C4E9C
:101280003C4C3D4B5B6823F00402032A0DD0052B38
:101290000BD023F00202042A3ED0082B3CD0326847
:1012A0002468364BA41A1E6822E0344A3368166854
:1012B0002468DC2EA4EB030426DCDC2000FB04F015
:1012C00090FBF6F0DC3009F053FB0021074609F0F3
:1012D00041FD00283FD12A49384609F059FD70BB2D
:1012E0002849384609F098FB09F082FD264BD86161
:1012F000B44208D3254802F0B6FA254A1368002103
:10130000013313602970F8BDDD2000FB04F3701C6D
:1013100093FBF0F0DC30D6E7184A3368166824688F
:1013200016F1DB0FA4EB030417DB6FF0DA0000FB10
:1013300004F3701C93FBF0F000F5DC70C3E7154874
:10134000D4E70C4C0A4E23681048336002F065FA6B
:1013500001232B7095E70020C8E76FF0DB0000FB4E
:1013600004F090FBF6F000F5DC70ACE731B2FF1F43
:101370002CA9FF1FFCA9FF1FB0ACFF1F9C9DFF1FE6
:10138000A655AC464B24BE477CB1FF1F14AAFF1FD5
:1013900070B4FF1F80FFFF7F08B50C4B5B685BB12B
:1013A0005A1E012A0DD9033B012B01D9FFF7D6FEA6
:1013B000BDE80840FFF75EBF054A136801331360BC
:1013C00008BDBDE80840FFF7C9BE00BFB0ACFF1FB5
:1013D00070B4FF1F2DE9F843A64AA74BA748196828
:1013E00013680068CB1A8342C0F09B80A44D116043
:1013F0002E78002E7DD1A34B9B68042B00F39380A5
:101400005C1E4FEA440808EB04029F4F9F4B57F8BD
:1014100022009E614FF48032DA6109F0A9FA0021BE
:10142000814609F097FC002840F0E780984948463B
:1014300009F0AEFC002840F0E6809649484609F0E5
:10144000EBFA4FF07C5109F0DFF909F0D1FC08EB21
:101450000403914A07EB83039062586809F088FA05
:101460000021064609F076FC002840F0D08088492B
:10147000304609F08DFC002840F0C3808549304695
:1014800009F0CAFA4FF07C5109F0BEF909F0B0FC3E
:1014900008EB0403814A07EB83039062986809F024
:1014A00067FA0021044609F055FC002840F0AD80A1
:1014B0007749204609F06CFC002840F0A08075496F
:1014C000204609F0A9FA4FF07C5109F09DF909F086
:1014D0008FFC0246724B73489A6202F09EF9724882
:1014E00002F09BF9714802F098F901232B70BDE8D6
:1014F000F8836F4802F0B7F96E4802F0B4F96E480D
:1015000002F0B1F9674802F0AEF9674802F0ABF9B2
:10151000664802F0A8F9694A136800210133136094
:101520002970BDE8F883052B75D09C1F4FEA44084D
:1015300008EB0402624F554B57F82200DE614FF46E
:1015400080329A6109F014FA0021814609F002FC08
:10155000002840F08A804E49484609F019FC0028CE
:1015600057D15849484609F057FA09F041FC08EBB1
:101570000403554A07EB8303D061586809F0F8F972
:101580000021064609F0E6FB00286CD140493046B0
:1015900009F0FEFB002864D14A49304609F03CFAC4
:1015A00009F026FC08EB0403484A07EB8303D061EB
:1015B000986809F0DDF90021044609F0CBFB00280A
:1015C00055D13349204609F0E3FB002847D13D4976
:1015D000204609F021FA09F00BFC02463C4B344846
:1015E000DA6102F01AF9334802F017F9324802F0D2
:1015F00014F901232B70BDE8F883304627E7354AFC
:1016000068E7344844E7334821E7002262E70020D6
:101610003EE73148ABE72049204A304F8F621B4BF1
:101620002F4F2B4997621E48274E284CDFF8C0E009
:101630002C4FC0F828E04BF233329A61DA612A4A23
:101640002A4BE261CB611A48F76102F0E6F81948CB
:1016500002F0E3F8184802F0E0F812483DE71E4AAD
:10166000BCE71D489EE700209CE730467FE700224C
:10167000B4E700BFD0A9FF1FFCA9FF1FA09DFF1F5B
:1016800098ACFF1FB0ACFF1FC0B8000018CCFF1F04
:10169000A655AC464B243E47C0C9FF1FF4C9FF1FE7
:1016A00028CAFF1F4CACFF1F50CCFF1F70CAFF1F82
:1016B00080C8FF1F34CDFF1F8CAAFF1F70B4FF1F0F
:1016C000FCB800004B24BE47F4C8FF1F18C9FF1F19
:1016D0003CC9FF1FC0FFFF3F80FFFF7FD72E6D007B
:1016E000D0FA81002599C2005A13F80092272301ED
:1016F000080FAD00FFFFFFFF5D4B70B5186809F0E4
:1017000033F95C4909F088F95B4909F039FA5B491A
:10171000044609F035FA08F0F5FC05F01FFB4AA372
:10172000D3E9002308F042FD49A3D3E9002308F0E0
:101730008BFB09F013F80021054609F00BFB00288C
:101740006DD14FF07E51284609F022FB002872D05F
:101750004FF480304A4B4B49D862204609F010FACA
:1017600008F0D0FC05F0FAFA0022474B08F01EFD05
:1017700039A3D3E9002308F067FB08F0EFFF4349E2
:10178000054609F0E7FA002842D14149284609F008
:10179000FFFA30B33F4A404D404B41499D61DA6109
:1017A000204609F0EDF908F0ADFC05F0D7FA2CA3BE
:1017B000D3E9002308F0FAFC2BA3D3E9002308F0B7
:1017C00043FB08F0CBFF3749044609F0E1FA10BBB0
:1017D0003549204609F0BEFA18B3344B34489861B5
:1017E00070BD2846334909F017F94FF09E4106466F
:1017F00009F012F909F0D6FA0546304605F0F2FA7A
:101800004FF09E4109F008F909F0CCFA0246C3E70F
:10181000294A2A4DC0E7254B2948986170BD002010
:1018200098E74FF08F41204609F0F6F809F0BAFA30
:101830001E4B986170BD4FF08F41284609F0ECF8BF
:1018400009F0B0FA86E700BF000000809999C93F0F
:10185000000000606666E63F0000000000C07240C5
:10186000000000A09999A93F000000403333C33F16
:10187000FCA9FF1F00007A4400D05F470000304100
:10188000DCCAFF1F0000F041000059400000A041E9
:101890001EDE8946008C3C4B00BE6C5050C6FF1FBC
:1018A0000000A04000FEFF4600FEFFC638B4FF1F48
:1018B00000000180465615387A5517007B551700F1
:1018C0000000FF7FFFFFFFFF674B70B5186809F04E
:1018D0004BF8664909F0A0F8654909F051F96549E6
:1018E000064609F04DF908F00DFC05F037FA5CA347
:1018F000D3E9002308F05AFC00225F4B08F0A4FA59
:1019000008F02CFF5D4B5E491860044608F07CFF30
:101910000021054609F01EFA002840F0958059493B
:10192000284609F035FA00287BD15749284609F0A6
:1019300073F84FF07C5108F067FF09F059FA534BE8
:1019400053499862204608F05FFF0021054609F0E0
:1019500001FA002876D14B49284609F019FA0028E7
:1019600065D14949284609F057F84FF07C5108F0F5
:101970004BFF09F03DFA474B00219862204609F0E1
:10198000E9F9002864D13F49204609F001FA00280E
:101990004BD13D49204609F03FF84FF07C5108F00B
:1019A00033FF09F025FA3C4B3C499862204608F089
:1019B0002BFF0021044609F0CDF9002846D131491A
:1019C000204609F0E5F970BB2F49204609F024F8BC
:1019D0004FF07C5108F018FF09F00AFA304B4FF035
:1019E00074519862304609F017F808F08BFB05F047
:1019F000B5F900222B4B08F0D9FB00222A4B08F046
:101A000023FA08F0ABFE0021044609F0A3F908BB55
:101A10001C49204609F0BCF958B1244B2448D86130
:101A200070BD24488BE72348D8E72248BBE721480C
:101A3000A1E72149204608F0EFFF09F0D9F91B4B37
:101A4000D86170BD002096E7002078E70020C5E748
:101A50000020A8E7154B0020D86170BDAFF30080CF
:101A6000000000009A991540FCA9FF1F00007A446D
:101A700000D05F470000204100804840989DFF1F34
:101A80006666EE41A655AC464B243E4758C5FF1F3F
:101A9000CDCC2E428CC5FF1FC0C5FF1FCDCC04414D
:101AA000F4C5FF1F00003E4000708C4064AAFF1F79
:101AB00080FFFF7FC0FFFF3F4B24BE470E4B1B69DB
:101AC00013B90E4AD36170470C4A10B5012B4FF47D
:101AD0008034D46108D0022B05D1FFF7F5FE084B06
:101AE0000022DC619A6110BDFFF706FE044B002264
:101AF0009C61DA6110BD00BFB0ACFF1FFCCCFF1FC2
:101B0000D8ACFF1F10B5364A364B126882B001922E
:101B1000019A1A60FEF7FAFFFFF746F9324B1C787C
:101B2000C4B1324C2368002B07D1314B1B68002B0A
:101B300039D10123236002B010BDFCDDFFF7BEFFE9
:101B40002368012B33D0022B3BD0032B3FD0032B38
:101B5000EFDCF0E7274A284B2848D461DC6101F02C
:101B600082FE274B27481C7001F07DFE264A274B3A
:101B7000274814701C7001F076FE264801F073FEB1
:101B8000254801F070FE254801F06DFE244801F063
:101B90006AFE244801F067FE234B244A9C611470BE
:101BA000DC6102B010BDFFF703FA2368CFE7104BEA
:101BB0005B6813B902232360BDE7FFF7EDFB2368E1
:101BC000C5E70B4B9B683BB903232360B3E7084B86
:101BD000DB68002BAFD1ACE7FFF7FCFB2368B6E76F
:101BE000D4CFFF1FFCA9FF1F30B2FF1F70B4FF1F2F
:101BF000B0ACFF1FC4CCFF1FFCCCFF1FA8B4FF1F5D
:101C000060AAFF1F14AAFF1F7CC8FF1F31B2FF1F6D
:101C100080C8FF1F34CDFF1F8CAAFF1F4CACFF1FD5
:101C200050CCFF1F70CAFF1F18CCFF1F98ACFF1FBE
:101C30002DE9F04F85B004230222009305210323F0
:101C40007D487E4C03F0DCF80221142003F0FEFDF9
:101C50000221112003F0FAFD794BD3F8A010D3F83C
:101C60008820012001F5007702F5007600254FF469
:101C70007A4327606660E56020726072013BFDD1A7
:101C800091F8003292F800226E4D6F492C65D20710
:101C900003EA000344BF43F00203DBB20422142032
:101CA000A37203F0EDFC0123042268496C64112047
:101CB000237403F0E5FC237C6548664D654E0133D3
:101CC000237403F00BF9644A644B12681A60644B86
:101CD000042103F128021846FEF752FC614B03F180
:101CE000280218465E4B4FF4803404219C61DC616D
:101CF0001C625C621D60FEF743FC5B4B03F1280233
:101D00001846584B04219C61DC611C625C621D60BA
:101D1000FEF736FC554B544D03F11802AC61EC61F3
:101D20002C626C620220A2F11804002102F80F0C50
:101D3000204622612172E1604D4C04600B462E600A
:101D4000044600E0226942F82310484A4748527A84
:101D500001339A42F6DC474B1A6812B901F0A8BA6F
:101D60001A465369002BFBD1404B53613F48424B0D
:101D7000424F0360002444618480C480847201F077
:101D800073FF3F4B3F4A404D1A60214622460A26C8
:101D900038461E72FEF7F4FB4FF4804305F118023B
:101DA000012128463B62394B3B60FEF7E9FB3A22B2
:101DB0000E23DFF8F0806A85AB85C1224FF0005317
:101DC000EA852B6340F277621C23314EAA86EB86AC
:101DD0002C85304B2B6040462C77C8F80450C8F84F
:101DE000007088F8084088F80940C8F80C4088F866
:101DF000104003F0C9F9284A2849404609F020F864
:101E0000174B73603046356034727472F46034740A
:101E100003F0BAF9204A2149214D304609F010F863
:101E2000144B6C721A68124B2B602C612C72EC6094
:101E3000104BD2BB01F03FBA34B2FF1F4CAAFF1FB8
:101E400078C4000010CFFF1FFD04000079040000DB
:101E5000D0CAFF1FB8BE0000909DFF1FD8CAFF1F49
:101E6000C4CCFF1FFCCCFF1F9CB2FF1F0CCBFF1F7D
:101E7000BCB8000098CFFF1FC4BE0000D4A9FF1F4C
:101E800004B4FF1F6CBE0000A8B4FF1FF4C1000023
:101E90009CCCFF1F94BE0000FC9BFF1F6D04000044
:101EA00074B4FF1F88CCFF1F1A465369002BFBD167
:101EB0005561DFF850E3BA4A2A60BA4ABEF80030EA
:101EC000B84FDFF844B3B84EDFF840A3DFF84093D3
:101ED000DFF840830024343201336C61AC80EC8045
:101EE000AC72A2F134000221AEF80030EB61AC61BB
:101EF000FEF746FBAB4ADFF820C3AC4BC7F81CC06B
:101F00004FF4805EC7F820E0946221462246C7F86D
:101F100018B07B62A648A74BFC623C633B60FEF7AF
:101F20002FFBA34BA44F1F6006F118024FF480470C
:101F3000012130461F62FEF723FBA04B33604FF0B8
:101F40000E03B3854FF0C103F3854FF000533363A5
:101F500040F277634FF03A0BB3864FF01C035046C4
:101F60003485A6F82AB0F3868E4BCAF8043034774D
:101F7000CAF800508AF808408AF80940CAF80C40AC
:101F80008AF8104003F000F98D4A8E498A4D504678
:101F900008F056FF834BC9F800308B4BC9F804306A
:101FA00048464FF0010389F8083089F80930C9F82C
:101FB0000C4089F8104003F0E7F8814A8149DFF8C6
:101FC0005CA2484608F03CFF794B88F80840404640
:101FD00088E8480088F80940C8F80C4088F81040A4
:101FE00003F0D2F8794B7749754A0393404608F0DD
:101FF00027FF7748744A42604FF00202066004727D
:10200000C4600474427203F0BFF86D4A6D497048B1
:10201000DFF80C92DFF80C8208F012FF224621460E
:102020006C48FEF7ADFA6C4B03F118021846694B89
:1020300001211D601F62FEF7A3FA674B5F4D1D6013
:102040004FF00E059D854FF0C105DD854FF0005521
:102050001D6340F277659D864FF01C0522462146A0
:102060001C85A3F82AB0DD865C481C77FEF788FA49
:102070005B4B514D03F118021846584B01211D606E
:102080001F62FEF77DFA564B4C4D1D604FF00E055A
:102090009D854FF0C105DD854FF000551D6340F271
:1020A00077659D864FF01C05224621461C85A3F8C6
:1020B0002AB0DD864B481C77FEF762FA4A4B3E4D4C
:1020C00003F118021846474B01211F621D60FEF7FD
:1020D00057FA454B394D1D604FF00E059D854FF069
:1020E000C105DD854FF000551D6340F277659D8683
:1020F0004FF01C05224621461C85A3F82AB0DD8638
:102100003A481C77FEF73CFA394B3A4D3A4F03F107
:1021100018021846354B01211C835C83DC611C626C
:102120009C629C85DC851C631D60FEF729FA304BA0
:10213000224D1D604FF00E059D854FF0C105DD85D8
:102140004FF000551D6340F277659D864FF01C05EA
:10215000224621461C85A3F82AB0DD8627481C7735
:10216000FEF70EFA264B234D03F118021846234BB7
:1021700001211D601C835C83DC611C629C629C8568
:10218000DC851C63FEF7FCF9039B0C4D18461C4BC9
:102190001D604FF00E059D854FF0C10544E000BF66
:1021A0000CC20000E0B4FF1F14AAFF1F80F9855A7B
:1021B0007CB1FF1FACBE0000F4C1000094BE000063
:1021C000FC9BFF1F6D040000C4CCFF1F28CAFF1F2B
:1021D000A0C6FF1FF4C8FF1F80C8FF1F18C9FF1F3C
:1021E00034CDFF1F3CC9FF1F8CAAFF1FC0C9FF1FB2
:1021F0004CACFF1F00C2000028C6FF1FF4C9FF1F20
:1022000050CCFF1F0ACFFF1F00B28E0470B2FF1F19
:10221000B4C6FF1FC4ACFF1FE8728E04D8AAFF1F0C
:102220008CC6FF1F4CABFF1FDD854FF000551D63B3
:1022300040F277659D864FF01C05224621461C859D
:10224000A3F82AB0DD861C77FEF79AF9BC4BBD4D8A
:1022500003F118021846039B01211D601C835C8357
:10226000DC611C629C629C85DC851C63FEF788F93E
:10227000B34BB54A1A604FF00E029A854FF0C10277
:10228000DA854FF000521A6340F277629A864FF077
:102290001C02A3F82AB01C85DA86AC49AC481C772E
:1022A000FEF796F9AB49AC48DFF818B3AB4DFEF733
:1022B0008FF9AB49AB48FEF78BF9AB49AB48FEF75A
:1022C00087F9AB49AB48FEF783F99D49AA48FEF769
:1022D0007FF9AA4B042103F128021846FEF750F9B2
:1022E000A64B4FF4803604210BF1280258461D609E
:1022F0009E61DE611E625E62FEF742F9A04BCBF882
:10230000005003F1280204211846CBF81860CBF8DE
:102310001C60CBF82060CBF82460FEF731F9984BB5
:102320003C721D609E61DE611E625E62954B3B6089
:102330003846864B7B607C72FC603C7402F024FF64
:10234000914A9249924E934D384608F079FD924851
:10235000924B03607F4B436004724472C460047408
:1023600002F012FF884A89498B488D4F08F068FDBA
:102370008C4BCAF800305046794BCAF804308AF8C2
:1023800008408AF80940CAF80C408AF8104002F068
:10239000FBFE7D4A7D49504608F052FD824BC9F84C
:1023A00000304846704BC9F8043089F8084089F875
:1023B0000940C9F80C4089F8104002F0E5FE724A65
:1023C0007249DFF804A2484608F03AFD774BC8F896
:1023D00000304046664BC8F8043088F8084088F85A
:1023E0000940C8F80C4088F8104002F0CDFE664A5B
:1023F0006649DFF8D891404608F022FD039B3B6018
:1024000038464F4B7B603C727C72FC603C7402F03F
:10241000BBFE5D4A5D49DFF8B881384608F010FD23
:102420004A4B33603046554B736034727472F460BB
:10243000347402F0A9FE544A54495D4F304608F006
:10244000FFFC444B2B604D4B6B6028464FF0010363
:102450006B722C72EC602C7402F096FE4B494A4A67
:10246000544E284608F0ECFC53483D4A0260434A6B
:1024700042604FF0020242720472C460047402F0BF
:1024800083FE4249404A4C484C4D08F0D9FC4C4828
:10249000354A047280E804084472C460047402F08F
:1024A00073FE394A3949464808F0CAFC304B8AF86D
:1024B000084050468AE808084FF001038AF80930BE
:1024C000CAF80C408AF8104002F05EFE2E4A2F49EE
:1024D000504608F0B5FC1A4B89F80840484689E890
:1024E00008084FF0020389F80930C9F80C4089F850
:1024F000104002F049FE244A2449484608F0A0FC56
:102500001E4BC8F8003040461D4BC8F8043088F810
:10251000084088F80940C8F80C4088F8104002F0DC
:1025200033FE194A1949404608F08AFC144B7B6077
:1025300038464FF001037B723C72FC603C7449E00A
:1025400070CAFF1F00C2000094BE000080C8FF1FB9
:1025500018C7FF1F34CDFF1F50C7FF1FB8BE0000B4
:102560008CAAFF1F88C7FF1F4CACFF1FC0C7FF1FEF
:1025700050CCFF1FF8C7FF1F30C8FF1F58A9FF1F0F
:1025800018CCFF1FF4C8FF1FFC9BFF1F6D04000049
:10259000C4ABFF1FECABFF1F3CC6FF1F18C9FF1FDA
:1025A000C8C6FF1F3CC9FF1FC0C9FF1FF4C9FF1FDA
:1025B00000CCFF1F68B1FF1F38ACFF1FF4A8FF1F3E
:1025C00084ACFF1FE8CDFF1F84B2FF1FD8CBFF1FD5
:1025D000ECCBFF1FC7F800B002F0D6FD4049414ADE
:1025E000384608F02DFC404A326003233F4A73729C
:1025F000304672603472F460347402F0C5FD394ABA
:102600003749304608F01CFC4FF0010105F1180273
:1026100069723749296023462C72EC6021462A6191
:102620002C4600E0226942F823106A7A31480133CF
:102630009A42F7DC304B1A6812B900F03FBE1A46D6
:102640005369002BFBD155612C4C2D4F2D4A2E4B3D
:102650002C6000242A622B634FF0884125486C616E
:10266000AC80EC80AC72294E01F0B8FE22462146C7
:1026700047F6FF733846AB85EC85FDF781FF244BA9
:102680003B603046234B736035603C763472747225
:10269000F460347402F078FD124A11491E4D304640
:1026A00008F0CEFB1D4B042103F128021846FDF76C
:1026B00067FF114B1A491A68184B6C721960174959
:1026C0002C614FF480338B61CB610B624B62084B02
:1026D0002B602C72EC60084B2ABB00F0F2BD00BFEF
:1026E0006D040000FC9BFF1F18CCFF1FC4CCFF1F14
:1026F000BCB80000F4A8FF1F98CFFF1FE8C100007E
:1027000014ADFF1FE63C010082902C00D8ABFF1FE8
:10271000D0BE0000FCCCFF1FDCCAFF1FD8ACFF1FDF
:10272000B8BE00001A465369002BFBD15561DFF893
:1027300050E3B64BBEF90020B5492960002402F1F0
:10274000010C13442146224640F6CC476C61AC8014
:10275000EC80AC72AF48AEF800C0AB616C6285F83B
:102760002840EF612F62FDF70BFFAB4BAB4FAC4E38
:10277000DFF81093DFF81083DFF810B3DFF810A351
:1027800003F118021846A34B1F604FF480471F62E5
:102790000121A44B0393FDF7F3FE9F4BA24F1F6053
:1027A000022106F1340230460F465962FDF7E8FE79
:1027B0009E4B33609E4BB361A3F57C53183BF36192
:1027C0004FF4805333629B4B7362394609F13402F4
:1027D0004846B462F4623463FDF7D2FE934BC9F805
:1027E0000030934BC9F81830A3F57C53183BC9F857
:1027F0001C304FF48053C9F820308E4BC9F8243078
:1028000008F1280204214046C9F82840C9F82C40A4
:10281000C9F83040FDF7B4FE039B874AC8F8002092
:102820004FF48037184683E86000C8F81870C8F87D
:102830001C70C8F82070C8F824701C725C72DC60D0
:102840001C7402F0A1FC039B7C4A7D49734D184621
:1028500008F0F6FA6F4B8BF8084058468BE80802F0
:102860008BF80940CBF80C408BF8104002F08CFC40
:10287000724A7349584608F0E3FA674BCAF80430C5
:102880005046CAF800908AF808408AF80940CAF809
:102890000C408AF8104002F077FC6949674ADFF87B
:1028A000F4B1DFF8F491504608F0CAFA65485A4A84
:1028B000047280E804014472C460047402F064FC91
:1028C0005F495E4A5F48DFF8D4A108F0B9FA5E4874
:1028D0004FF0010280E840010472C4600474427247
:1028E00002F052FC5649554A5748584E08F0A8FA8B
:1028F0005748584AC0F80080426004724472C4606D
:10290000047402F041FC4D4A4D495148DFF8908172
:1029100008F096FA224621464F48FDF731FE4F4B0C
:1029200003F1340218464C4B02211D604FF48045E0
:102930001D62FDF725FE4A4B3C4D03F12802184667
:10294000464B1D603A4D9D61A5F57C55183DDD61F6
:102950004FF480551D62374D5D6204219C62DC623C
:102960001C63FDF70DFE3E4B334D3E481D60224675
:1029700021469F61DF611F625F62FDF701FE394BF7
:10298000394D3A481D60224621461C835C83DC6138
:102990001C629C629C85DC851C63FDF7F1FD334B5A
:1029A00033481D60224621461C835C83DC611C6227
:1029B0009C629C85DC851C63FDF7E2FD2C4B2D4859
:1029C0001D60224621461C835C83DC611C629C6284
:1029D0009C85DC851C63FDF7D3FD274B03F11802B2
:1029E0001846244B02211D601C835C83DC611C6241
:1029F0009C629C85DC851C63FDF7C2FD1F4B134D5B
:102A000003F1180218461C4B02214BE0F541ED5E24
:102A1000DCBE0000C0CEFF1FFCB2FF1FF4C10000EF
:102A200050C6FF1F64CBFF1F88BE0000ACBE000075
:102A300000B28E0480F9855AB8BE0000FC9BFF1FCF
:102A40006D04000090CBFF1F44A9FF1FA0BE000033
:102A5000B0CCFF1FD8ACFF1F64AAFF1FB0B3FF1F8D
:102A600000ACFF1F80CDFF1F00C20000B4CDFF1FD0
:102A7000A4CBFF1F20CEFF1FC4B1FF1FB0A9FF1FB3
:102A800008CFFF1F88ABFF1F38B4FF1F78CBFF1F95
:102A9000B8A8FF1F68C8FF1FCCC8FF1F00AAFF1FF0
:102AA000E0C8FF1F1D60FDF76BFDA54B03F1180289
:102AB0001846A44B02211D60FDF762FDA24B03F1F5
:102AC000280218469E4B04211D60FDF759FD9E4BC0
:102AD0009E4D9F481D60224621469F61DF611F6217
:102AE0005F62FDF74DFD9A4B9A4D1D6022462146CF
:102AF0004FF4804598481D62FDF742FD964B954D79
:102B00001D60224621464FF4804594481D62FDF722
:102B100037FD924B8F4D1D60224621464FF4804574
:102B20008F481D62FDF72CFD8E4B03F118021846ED
:102B30008B4B01211D62874D1D60FDF721FD8A4BE6
:102B40008A4D03F128021846864B04211D60022598
:102B50005D62FDF715FD844B7C4D85481D60224666
:102B600021469F61DF611F625F62FDF709FD804BB7
:102B7000804D81481D60224621461C835C83DC61B8
:102B80001C629C629C85DC851C63FDF7F9FC7A4B1A
:102B90007A481D60224621461C835C83DC611C62EE
:102BA0009C629C85DC851C63FDF7EAFC734B7448D2
:102BB0001D60224621461C835C83DC611C629C6292
:102BC0009C85DC851C63FDF7DBFC6E4B03F1180272
:102BD00018466B4B02211D601C835C83DC611C6208
:102BE0009C629C85DC851C63FDF7CAFC664B674DC7
:102BF00003F118021846634B02211D60FDF7C0FC6B
:102C0000634B644D03F1180218465F4B02211E60AE
:102C1000FDF7B6FC604B03F1340218465C4B022111
:102C20001E60FDF7ADFC5C4B5C4E1E605C4E9E6111
:102C3000A6F57C56183EDE614FF480561E62594E52
:102C40005E6205F12802284604219C62DC621C6356
:102C5000FDF796FC3D4B2B60534BAF6103F1340203
:102C600002211846EF612F626F62FDF789FC4E4B1F
:102C70004B4A9A614D4B494D4D4E03F1280218467F
:102C8000494B1D604B4DDD614FF480551D62454D34
:102C90005D6204219C62DC621C63474B0393FDF779
:102CA0006FFC424B294A1A609F61DF611F625F62BD
:102CB000424B33603046424B424D73603472747203
:102CC000F460347402F060FA3F4A4049404F3046A5
:102CD00008F0B6F83A4B2B6028463E4B6B602C72DE
:102CE0006C72EC602C7402F04FFA3849364A3A4E56
:102CF000284608F0A5F8039B364A1A6018462B4A66
:102D00005A601C725C72DC601C7402F03DFA039B1A
:102D10002D4A2E49314D1846314B039308F090F857
:102D2000304BCBF8003058462F4BCBF804308BF8A3
:102D300008408BF80940CBF80C408BF8104055E068
:102D400010B2FF1FB0A9FF1F50B3FF1FB8BE000095
:102D500054CEFF1FF4C1000078CEFF1F9CCEFF1F92
:102D600064ABFF1FE4B1FF1F2CCBFF1F88BE000028
:102D700058C5FF1F00C200008CC5FF1FC0C5FF1F44
:102D8000F4C5FF1F90A9FF1FA4B1FF1FA0BE000044
:102D90008CC9FF1F80A8FF1FDCC6FF1FACBE000050
:102DA00000B28E0480F9855A1CB5FF1F14ABFF1FBB
:102DB000C4AAFF1FE8728E0400ABFF1F64AAFF1FA6
:102DC000B0B3FF1FECAAFF1FFC9BFF1F6D040000A8
:102DD0006CCDFF1F00ACFF1F3CB3FF1FD4B2FF1F21
:102DE0009CB3FF1F80CDFF1FC4B1FF1F02F0CCF9C1
:102DF000BC4ABD49584608F023F8BC4BCAF800301D
:102E0000BB4BCAF8043050464FF001038AF8093032
:102E10008AF80840CAF80C408AF8104002F0B4F969
:102E2000B04AB149DFF840B3504608F009F8B14B59
:102E3000C9F80030B04BC9F8043048464FF00203DF
:102E400089F8093089F80840C9F80C4089F8104021
:102E500002F09AF9A34AA449DFF810A3484607F004
:102E6000EFFFA64BC8F80030A34BC8F8043040462B
:102E70004FF0030388F8093088F80840C8F80C4080
:102E800088F8104002F080F9964A9749DFF8E092FE
:102E9000404607F0D5FF964B3B603846984B7B6029
:102EA0003C727C72FC603C7402F06EF98D4A8E4973
:102EB000DFF8C082384607F0C3FF8F4B3360904B7A
:102EC000736030464FF0010373723472F4603474EF
:102ED00002F05AF9834A84498A4F304607F0B0FF1E
:102EE000874B2B60884B6B6028464FF001036B7259
:102EF0002C72EC602C7402F047F97B49794A834EBE
:102F0000284607F09DFF8248824A0260824A42605A
:102F100004724472C460047402F036F97249714A52
:102F20007B487E4D07F08CFF039B7D4A1A607A4AEE
:102F30005A6018464FF001021C725A72DC601C7411
:102F400002F022F9039B6849664A1846754B0393C1
:102F500007F076FF7448754A02606F4A42604FF08E
:102F6000020204724272C460047402F00DF95D4AF8
:102F70005D496D4807F064FF6D4BCBF80030664B40
:102F8000CBF8043058464FF003038BF809308BF828
:102F90000840CBF80C408BF8104002F0F5F852498D
:102FA000504A584607F04CFF62485B4A0260624A4A
:102FB000426004724472C460047402F0E5F8494A45
:102FC00049495C4807F03CFF5B4BCAF800304E4B68
:102FD000CAF8043050464FF002038AF809308AF8E4
:102FE0000840CAF80C408AF8104002F0CDF83E497B
:102FF0003C4A504607F024FF5048514A0260514A6B
:10300000426004724472C460047402F0BDF8354A30
:1030100035494A4807F014FF4B4BC9F80030494B7B
:10302000C9F8043048464FF0010389F8093089F89F
:103030000840C9F80C4089F8104002F0A5F82A4968
:10304000284A484607F0FCFE4048414A0260414A8F
:10305000426004724472C460047402F095F8214A1C
:1030600021493A4807F0ECFE3B4BC8F80030394B99
:10307000C8F8043040464FF0010388F8093088F85A
:103080000840C8F80C4088F8104002F07DF8154A56
:103090001549404607F0D4FE2A4B3B6038462F4B7B
:1030A0007B603C727C72FC603C7402F06DF80E49EF
:1030B0000C4A384607F0C4FE2948264A0260274ACF
:1030C00042604FF0010242720472C460047402F064
:1030D0005BF80549034A224807F0B2FE21481F4A1F
:1030E000026049E0FC9BFF1F6D040000B4CDFF1F90
:1030F000C4B1FF1FA4CBFF1FB0A9FF1F20CEFF1F2D
:1031000010B2FF1F60C9FF1F14ABFF1FA8CAFF1F2B
:1031100088B3FF1F54CEFF1F2CCBFF1FBCCAFF1F5D
:1031200078CEFF1F5CB2FF1F28B3FF1F9CCEFF1F8E
:1031300064ABFF1FF0B3FF1FE4B1FF1F10B4FF1F0C
:1031400058C5FF1F90A9FF1F8CC5FF1F74C9FF1F23
:10315000C0C5FF1FA4B1FF1FF4C5FF1F8CC9FF1F0F
:10316000ACC9FF1FCCA8FF1F48B2FF1FE8B2FF1F6A
:1031700024B4FF1FB8C8FF1F534A42600472447250
:10318000C460047402F000F85049514A514807F0F5
:1031900057FE51484C4A0260504A42604FF00302C9
:1031A00042720472C460047401F0EEFF4749484A59
:1031B000494807F045FE4A48484A0260494A426089
:1031C00004724472C460047401F0DEFF3F49404A57
:1031D000434807F035FE4448424A0260434A426091
:1031E0004FF0010242720472C460047401F0CCFF1B
:1031F0003649374A3C4807F023FE3D484FF001026C
:1032000042723A4A02603B4A42600472C4600474EB
:1032100001F0BAFF2D492E4A354807F011FE364815
:10322000364A0260364A047242604472C4600474D2
:1032300001F0AAFF264A25492F4807F001FE4FF06A
:10324000010373722B4B336030462D4B7360347225
:10325000F460347401F098FF1C491D4A304607F0B1
:10326000EFFD039B264A1A601846264A1C725A60D4
:103270005C72DC601C7401F087FF039B144A1349E5
:10328000184607F0DDFD4FF001036B721C4B2B60FD
:1032900028461C4B6B602C72EC602C7401F074FFA0
:1032A0000B4A0A49284605B0BDE8F04F07F0C8BDF3
:1032B0001860FEF75BBD1D60FEF7FBBD1860FFF7F1
:1032C000C3B91D60FFF733BADCC6FF1F6D040000F1
:1032D000FC9BFF1FCCA8FF1FE0A8FF1F14ABFF1F24
:1032E0009CACFF1F1CB5FF1F5CCAFF1FD8ACFF1FA3
:1032F00094B4FF1FFCCCFF1F30A9FF1FC4CCFF1FDD
:103300009CB2FF1F0CCBFF1F0020704700207047AE
:1033100010B50368C9B21B68984710BDF8B50F0017
:103320001600242900D1C280124C037A22005B00CF
:103330003B321370230001255E331D702300390AD0
:103340005D3320001D70FFF7E3FF39002000FFF719
:10335000DFFF310A2000FFF7DBFF31002000FFF71D
:10336000D7FF2900200001F099FC43425841C0B228
:10337000F8BDC046C09DFF1F70B501250400057152
:103380002F4801F0FBFA052002F08CFA2D4A30217B
:103390002000FFF7C3FF6C2226212000FFF7BEFFAD
:1033A000F922282152002000FFF7B8FF264A2C21DD
:1033B0002000FFF7B3FF254A3C212000FFF7AEFFB6
:1033C00038222421FF322000FFF7A8FF204A3021B5
:1033D0002000FFF7A3FF732202212000FFF79EFFCA
:1033E000C820400002F05EFA1A4A2E212000FFF7A2
:1033F00095FF042220001100FFF790FF982206217C
:1034000052002000FFF78AFF10220A212000FFF758
:1034100085FF00220E212000FFF780FF0E4A1021B9
:103420002000FFF77BFF0D4A22212000FFF776FFE7
:10343000362224212000FFF771FF2800657270BD3D
:10344000C09DFF1F60400000220F000046440000A6
:10345000FF4000001D1D00003C3C00007F7F00007D
:1034600010B5040000290BD155222031FFF756FF7B
:10347000002801D100201AE00422E3881A4312E058
:103480000129F7D174222931FF32FFF747FF0028C5
:10349000F0D0882220212000FFF740FF0028E9D04B
:1034A0000423E2889A4324212000FFF737FF10BD50
:1034B00070B5040000290AD10123114A0371223199
:1034C000FFF72CFF1022E38824211A4313E0002584
:1034D000802901D880356D1A2379002B08D000236C
:1034E000E288237110339A4324212000FFF716FF4E
:1034F00022212A022A432000FFF710FF70BDC04698
:103500007F7F000010B50400081C064907F084FA0C
:10351000054907F079F907F06BFC01002000FFF77F
:10352000C7FF10BD00000143EE7CFF3EF0B5C3694C
:1035300085B00400002B67D0436A0021012B1CDCFE
:1035400001F000FE051E5FD02900A66AE0692A1D71
:103550008431238C01331BB22384B34201DB00236B
:1035600023840027D35F02329C462027E35F67460F
:103570005B001F529142ECD13EE001F0E3FD051EDD
:1035800042D0A36A676A1800791E009306F03EFCD9
:10359000431E0393E3692E1D01932B008433029392
:1035A000238C009A01331BB29A4200DC002323844F
:1035B0000023F25E2021635E01995B005A522022B3
:1035C000A35E0022944697420DDD01985900095EE2
:1035D0008C44012F01D003995B1A002B01DA00996A
:1035E0005B180132EFE73900604606F00FFC029BE2
:1035F00030800236B342D3D120000022290001F0EE
:103600007BFD280001F04EFD05B0F0BD30B5002473
:103610000D00C46184620484A14209D02500092AF6
:1036200006DDA34204DD5210C161826243620135AE
:10363000280030BDF0B500218DB0040001F082FDFE
:103640000090002800D1E6E0237F002B00D1E0E0CD
:10365000009B1F1D84330593059B9F4200D3D2E03E
:10366000E38B002B55D1227F022A0AD1A28DE2835F
:10367000002A08D0032222778022D20522626362C8
:10368000EAE7032A08D10423C0222377E18D236BC4
:103690001206E183981838E0042A06D10132227715
:1036A000063AE283226B22621BE0052A03D1012342
:1036B0005B42E3832DE0062A0AD13A00237705997D
:1036C000136053609360D36010329142F7D89AE050
:1036D000072A12D1228D2362E283002A03D001221D
:1036E0002277636215E002238020618D2377E183D6
:1036F000C00506F08BFB60620BE0012A09D10223B2
:103700008020618D2377E183C00506F07FFB606236
:10371000A2E7236A9D13636A5E143B68AD190693A2
:103720007B6872190793BB680893FB680993B31809
:103730000A93F3180193F3180293F3180393F31801
:103740000493069B1814C117D31707F071FB030CE1
:103750001B040B936B4618229A5EE917D3172800B7
:1037600007F066FB0B9B000C03433B60079B019A31
:103770001814019BC117DB1707F05AFB0A9B050CB5
:10378000D9176B461C229A5E0A98D31707F050FB94
:10379000089B000C2D0405431814039B7D60039ABD
:1037A000DB17C11707F044FB029B050CD9176B46CA
:1037B00020229A5E0298D31707F03AFB099B000C6F
:1037C0002D0405431814049BBD60F218D317C117CC
:1037D00007F02EFB049B060CD9176B4624229A5E39
:1037E0000498D31707F024FB3D003604000C064371
:1037F000FE60236A626A10359B182362E38B2F00F8
:10380000013BE38328E720000022009901F074FCCB
:10381000009801F047FC0DB0F0BD10B5040072B681
:10382000037F012B02D9C18E002910D10023228DE4
:103830002362E2839A4203D001226362227710E07E
:1038400002238020618D2377E183C00506E0072BEA
:1038500007D007230377036AC183584206F0D6FADC
:10386000606262B610BD10B5040072B6037F002B13
:103870000AD0072B08D00623818E0377036AC18301
:10388000584206F0C3FA606262B610BD10B500215E
:10389000040001F04BFC002801D001F003FC0121E1
:1038A000200001F043FC002801D001F0FBFB10BD1B
:1038B00010B50021040001F039FC002801D001F00E
:1038C000F1FB0121200001F031FC002801D001F0C2
:1038D000E9FB10BD2DE9F8434FF00008064600F162
:1038E0001805474641463046002F4FD001F01EFCD8
:1038F000F0B12C68B4F5803F07F1040100F1040E2B
:1039000007F5827C27D05EF8042B34FB02F334FBEE
:1039100012F903F30F0209F30F03C2EA03430A6823
:1039200093FA12F341F8043B8C45ECD801F0BAFB52
:1039300008F10108B8F1040F05F10405D2D1002FF8
:1039400040D030463946002201F0D6FB3846BDE86B
:10395000F84301F0A7BB07F10C0100F10C0451F88A
:10396000083C54F8082C93FA12F341F8083C54F838
:10397000042C51F8043C93FA12F38C4541F8043CB2
:1039800004F1080401F10801E9D8CFE701F0DAFBFE
:1039900007460028CCD02868B0F5803FC8D0391D34
:1039A00007F582740B6830FB03F230FB13F302F36C
:1039B0000F0203F30F03C2EA034341F8043B8C42B6
:1039C000F0D8B5E7BDE8F8832DE9F84F344B35481A
:1039D0001A68354912681B790B70824229D2334B21
:1039E0001B784BBBDFF8D4A0DFF8D490DFF8D4808D
:1039F000DFF8D4B0DAF80060D9F80070B8F8004009
:103A0000BBF80050002E3CD0A7B33A1D311D02EB8D
:103A1000450201EB440100F0DDFE403540347F2CCF
:103A20001CD8A8F800407F2D0BD8ABF80050BDE89B
:103A3000F88FA0F58070D5E71D4B4FF080421A60DB
:103A4000D0E700243846ABF8004001F02BFB194BBF
:103A50001A68C9F800201C60BDE8F88F00243046C1
:103A6000A8F8004001F01EFB134B1A68CAF80020AA
:103A70001C60D8E7311D01EB440100F0CAFE403460
:103A8000CDE737B1391D01EB450100F0E2FE4035CD
:103A9000C5E739464FF48072BDE8F84F07F0FABC2D
:103AA000E8CEFF1F4093FF1F1F80004000CFFF1F85
:103AB00008E200E0FCCEFF1F04CFFF1FF8CEFF1F7F
:103AC000F0CEFF1FE4CEFF1FF4CEFF1F70B5002124
:103AD000044601F02BFB80B172B61C4A1368002B20
:103AE00029D01B490D6805B31A4E156000220860E5
:103AF000328062B6184601F0D5FA2046012101F065
:103B000015FB88B172B6144A1368CBB113490C681F
:103B100074B1134D1460002208602A8062B6184602
:103B2000BDE8704001F0BEBA70BD086062B6E4E75F
:103B3000086062B670BD074910600B8062B6DCE7B2
:103B4000074910600B8062B670BD00BFF8CEFF1F42
:103B500004CFFF1FE4CEFF1FF0CEFF1FFCCEFF1FE0
:103B6000F4CEFF1F10B5044601F030FC204610BD16
:103B7000284B29491A68294842F400421A600A6809
:103B800042F002020A601A6842F002021A600368F8
:103B9000002B3EDB224B1B68002B3ADB214A4FF007
:103BA000864313601368002BFCDBF0B51E4C1F48E6
:103BB000DFF8A8E01E491F4B1F4A204F204E214D21
:103BC00041F2100CC4F800C0002404600120CEF8BB
:103BD0000000DFF88CE0C1F800E04FF4803119609C
:103BE000194B1360DFF87CE0184A3A6034602860B3
:103BF00000F18E40CEF80000154CB9671548164903
:103C000046F8503C4FF4C0632A61236003600B60A8
:103C1000F0BD70473C8004404080044000F002400A
:103C200080F0024000F1024004F1024060F00240E6
:103C300008F002400CF0024010F0024014F0024084
:103C4000E0F0024084F002401B1F0100001F1F1F14
:103C500008B004400CB0044018B0044004F0024026
:103C60000100000788F00240F8B5274C274E204697
:103C7000012101F047FB264A264B002515601D60F7
:103C8000FFF776FF244B254A25494FF4C0601860A2
:103C9000236802201A6098802279196102F180421B
:103CA00002F5043240F20117DF80DE604FF48071CC
:103CB00006278F26D9829D82D9839D619F83986034
:103CC0001570167001F0C4FA2279164B1649187057
:103CD00053119B00174603F160430F70134D144EB0
:103CE000144C02F11000012103F5614302F01F02A0
:103CF00001FA02F24FF080770F492F602C6046F8EE
:103D000020101A60F8BD00BFE8CEFF1F00FEFFFFC5
:103D1000F8CEFF1FF0CEFF1F04B004404092FF1FFB
:103D200022F0024000CFFF1F1B80004000F0024045
:103D30000096FF1F01000090C9390000024A0349A4
:103D4000034807F07DB800BFFC9BFF1F653B0000E8
:103D5000E8CEFF1F037E002B41D0012B2DE9F0415F
:103D60003ED0044601F04AF9054600285DD0A28BFA
:103D700082BB638B04EB4303B3F92230291D05F5A5
:103D8000827647F6AE70002701E0A28B734604EB03
:103D90004202B2F924E0734400FB03F31B1421F840
:103DA000023BA28BB4F81AC004EB4208013292B273
:103DB0009445A8F82430A28398BFA783B142E4D1E8
:103DC00020462946002201F097F92846BDE8F04137
:103DD00001F068B904EB4203B3F92230CEE7704733
:103DE000134C428B2368E2B11132D0F820C000EBB3
:103DF000420E00F1220644F2A71717FB13F10D4DF6
:103E00009AB2CB0B090407FB02330D402B4423F07D
:103E1000004202EBD3733CFB03F226F8022FB645B7
:103E2000EBD10222236002769BE72076BDE8F08189
:103E3000BC9DFF1F0000FF7F2DE9F04FC56A83B0D6
:103E400015B903B0BDE8F08F064601F0D7F801467A
:103E500001900028F5D006F11C0292E8041401F14B
:103E6000040EB369F44FF54801F58271009196F89C
:103E70002810F34CDFF8CC9314F80180DC1704EA27
:103E8000090989EA430382EA0A0909EA080908EAF2
:103E9000040403F03F0862408AEA090AC3F3851468
:103EA00057F8288050F82440CAEB0209CC4401316D
:103EB000E04486F82810A04435FB08F8E149DC17F7
:103EC000214081EA430302F4006903F03F0104F456
:103ED00000642AF4006A624049EA0A0AC3F3851BB7
:103EE00057F8214050F82B10CAEB0209CC44644427
:103EF000214435FB01F1C8EA0144D249CEF8004023
:103F0000DC17214081EA430302F4806803F03F019B
:103F100004F480642AF4806A624048EA0A0AC3F31F
:103F20008519CAEB020857F8214050F82910C444FB
:103F30000CEB0408884435FB08F8C249DC17214023
:103F400081EA430302F4006903F03F0104F40064D2
:103F50002AF4006A624049EA0A0AC3F3851B57F84B
:103F6000214050F82B10CAEB0209CC446444214490
:103F700035FB01F1C8EA0144B249CEF80440DC1730
:103F8000214081EA430302F4007803F03F0104F486
:103F900000742AF4007A624048EA0A0AC3F38519D9
:103FA000CAEB020857F8214050F82910C4440CEB22
:103FB0000408884435FB08F8A249DC17214081EA4F
:103FC000430302F4006903F03F012AF4006A04F499
:103FD0000064544049EA0A0AC3F38512CAEB040993
:103FE00057F8211050F82220CC4461440A4435FB94
:103FF00002F2C8EA0241934ACEF80810D9170A40E3
:1040000082EA430304F4806803F03F0201F4806114
:104010002AF4806A4C4048EA0A0AC3F38519CAEBBD
:10402000040857F8221050F82920C4440CEB01086A
:10403000904435FB08F8834AD9170A4082EA4303C3
:1040400004F4006903F03F022AF4006A01F40061FD
:10405000614049EA0A0AC3F3851B57F8224050F829
:104060002B20CAEB0109CC446444224435FB02F204
:10407000C8EA0242734CCEF80C20DA17144084EAE6
:10408000430301F4807802F4807203F03F042AF4C1
:10409000807A514048EA0A0AC3F38512CAEB010844
:1040A00057F8244050F82220C4440CEB04089044F4
:1040B00035FB08F8634CDA17144084EA430301F433
:1040C000006903F03F042AF4006A02F400624A40E7
:1040D00049EA0A0AC3F38511CAEB020957F82440DA
:1040E00050F82110CC446444214435FB01F1C8EA66
:1040F00001445449CEF81040DC17214081EA4303C3
:1041000002F4806803F03F0104F480642AF4806ABA
:10411000624048EA0A0AC3F38519CAEB020857F855
:10412000214050F82910C4440CEB0408884435FBA6
:1041300008F84449DC17214081EA430302F400698E
:1041400003F03F012AF4006A04F40064544049EA91
:104150000A0AC3F38512CAEB040957F8211050F874
:104160002220CC4461440A4435FB02F2C8EA0241F1
:10417000344ACEF81410D9170A4082EA430304F4F3
:10418000007803F03F0201F400712AF4007A4C40F9
:1041900048EA0A0AC3F38519CAEB040857F8221043
:1041A00050F82920C4440CEB0108904435FB08F872
:1041B000244AD9170A4082EA430304F4006903F051
:1041C0003F022AF4006A01F40061614049EA0A0AE8
:1041D000C3F3851B57F8224050F82B20CAEB010986
:1041E000CC446444224435FB02F2C8EA0242154C36
:1041F000CEF81820DA17144084EA430301F48068EB
:1042000002F4806203F03F042AF4806A514048EAD5
:104210000A0AC3F38512CAEB010857F8244050F884
:104220002220C4440CEB0408904435FB08F8054AEE
:10423000DC17224008E000BFE0BF0000E0C0000043
:10424000E0BE00000100004682EA430301F4006979
:1042500004F400622AF4006A03F03F044A4049EA89
:104260000A0AC3F38511CAEB020957F8244050F833
:104270002110CC446444214435FB01F10EF1200EA1
:10428000C8EA01414EF8041C009971453FF6EFADB4
:10429000019CF2613046C6F820A0C6F824C0B36184
:1042A0000022214600F028FF204603B0BDE8F04F71
:1042B00000F0F8BE2DE9F04F83B0064600F09EFEF8
:1042C0000190002800F0848000F58279031DB6F982
:1042D0002E100091994565D9871DDFF8FCE008E0B4
:1042E0004FF0000327F8023C3B46994507F10207CF
:1042F00058D9F3694FF6FE729342F1DD326A9B1A88
:10430000F36113FB33F3716B306B491033FB01F135
:104310008913C20032FB01F1726A02440A4422F09E
:1043200000424FEAD25CC2F3CF147262009A322A82
:104330000CF1010A42DDB26A3EF91C503EF91AC086
:10434000024402EB5000084400EB610121F00041FF
:10435000CA0D02F101083EF912003EF91820B162BF
:10436000121AC1F3CF1101FB02F2C5EB0C0CB6F926
:104370002E10B6F92C8004FB0CFC00EB224205EB5E
:104380002C4C01FB02F208FB0CFCD21302EBEC38C4
:1043900033FB08F3DB1327F8023C3B46994507F152
:1043A0000207A6D8019C30460022214600F0A4FE58
:1043B000204603B0BDE8F04F00F074BE3EF91C206B
:1043C0003EF91A10891A04FB01F802EB2848DFE7CE
:1043D00003B0BDE8F08F00BF10C2000038B50D4635
:1043E00004460021284606F0B5FC48B94FF07E513E
:1043F000284606F0CDFC30B14BF6FD73636338BD43
:104400000D4B636338BD0D49284606F005FB06F0E9
:10441000C9FCB0F5804F08DAC0F5804000EB4000E1
:1044200040F391035B42636338BDA0F5804000EB2D
:10443000400040F31103E1E700D0FFFF00FEFF461C
:10444000036A2DE9F04780464BB9D8F81830D8F800
:104450001C2003EBC213C8F81830BDE8F08700F049
:10446000CDFD06460028F0D0D8F81890D8F81C707A
:10447000D8F820C0134D4946841C00F5817E0B0EF0
:104480005A1C35F9130035F91220C1F30F2ACAF569
:10449000803300FB03F30AFB023353FB0CF324F8D5
:1044A000023FA6453944EAD109EBC7174046C8F890
:1044B00018703146002200F01FFE3046BDE8F0477C
:1044C00000F0F0BD10C200002DE9F84FB0F918302F
:1044D0000BB9BDE8F88F044600F090FD05460028B2
:1044E000F7D0B4F92C30061D072B32D8DFE813F0D3
:1044F00066009000A700B9000800D600E9004C0053
:10450000D4F830C0BCF1000F39D0E06905F58278ED
:10451000B646C10D4A1CC0F3CF13D2B23CF911A06C
:104520003CF91210B4F91820A76AC3F57F4909F1C4
:10453000FF0909FB0AF903FB01931B1402FB03F3B8
:10454000DB132EF8023B3844C64520F00040E0D192
:10455000E061B4F92E206AB105F5827101E0B4F989
:104560002E20B6F90030134403F30F0326F8023B64
:10457000B142F4D820460022294600F0BDFD28466D
:10458000BDE8F84F00F08EBDE36900F5827837464C
:1045900008E0B4F92400A26A27F8020B1344474547
:1045A000E361D6D0A26A9A42F3D9B4F9181048420E
:1045B00000F066FF00B2E369A084ECE74A4F00F523
:1045C000827E3046E369B4F91810D4F828804FEAA7
:1045D000D35CC3F3CF1B37F91C900CF1010CCBF566
:1045E0007F4A0AF1FF0A37F91CC009FB0AF20BFBEC
:1045F0000C22121401FB02F2D21320F8022B13EB4F
:10460000080348BF23F000437045E361DAD1A0E717
:10461000E26900F5827E3146B4F91870A06A42F36F
:10462000CF3303FB07F3DB1321F8023B7145024450
:10463000F2D1E261B4F92E20002A8DD19AE7E26925
:10464000831D00F5837051004ABF218BB4F9181007
:10465000494223F8021CA16A023398420A44F2D16B
:10466000E7E7E16900F5827E30460029B7BF238B7A
:10467000B4F918205B421AB24F004FEA810348BFD9
:104680005B425B0C02FB03F3DB13A76A20F8023BDF
:10469000704501EB4701E8D1E1615AE7E269276A19
:1046A000831D00F58370BA4236BF218BB4F9181010
:1046B000494223F8021CA16A023398420A44F2D10B
:1046C000B7E7E26900F5827E3146B4F91870A06A56
:1046D00042F3CF3303FB07F3DB1321F8023B7145B1
:1046E000A2EB0002F1D1A4E710C200002DE9F843CB
:1046F00085690DB9BDE8F883064600F07FFC0446E5
:104700000028F7D0F369043004F5827744F2A7114A
:1047100011FB13FEDFF8B8C09AB24FEADE334FEA5E
:104720000E4E01FB02330EEA0C0C634423F00042F0
:1047300002EBD37335FB03FE11FB13FC244A4FEA53
:104740000C4808EA020202EBDC329BB201FB0323B5
:1047500023F0004202EBD37335FB03F2CEEA024EA4
:1047600011FB13FC1A4A4FEA0C4808EA02029BB2FA
:1047700002EBDC3201FB032222F0004303EBD27296
:1047800035FB02FC11FB12F8114B4FEA084909EA0C
:10479000030303EBD83392B201FB023222F0004351
:1047A00003EBD27335FB03F2CCEA024240F808EB8C
:1047B000874240F8042CABD83046F36121460022F2
:1047C00000F09AFC2046BDE8F84300F06BBC00BF47
:1047D0000000FF7F2DE9F04F00F5807EB1E8A00AD0
:1047E000B2E84015C5EA0643C6EA2544C7EA0845CB
:1047F000C8EA2746C9EA0A47CAEA2948CBEA0C4967
:10480000CCEA2B4AA0E8F8078645E7D1BDE8F04F8F
:1048100070474FF000022DE9F00F00F5807C00BFDB
:10482000B1E8A00AC5EA0203C2EA2544C7EA0205C4
:10483000C2EA2746C9EA0207C2EA2948CBEA0209C6
:10484000C2EA2B4AA0E8F8078445E9D1BDE8F00F99
:1048500070474FF000022DE9F00F00F5807C00BF9B
:10486000B1E8A00AC2EA0543C2EA0504C2EA074564
:10487000C2EA0706C2EA0947C2EA0908C2EA0B49C6
:10488000C2EA0B0AA0E8F8078445E9D1BDE8F00FB9
:1048900070472DE9F00F089C00F5007B51F8045B90
:1048A00053F8046BC5EA0647C6EA254952F8045B8B
:1048B00054F8046BC5EA0648C6EA254AA0E8800712
:1048C0008345EBD1BDE8F00F704700BF0020704773
:1048D00090F8392090F83800101A704790F8383066
:1048E00090F839209A4205D95A1C034480F83820A0
:1048F000187E70474FF0FF30704700BF90F8383097
:1049000090F839209A4286BF1B18187E4FF0FF306E
:10491000704700BF704700BF38B50546B0F85E006D
:1049200090B195F85D301446C3F1210294420CD841
:1049300005F13B001844224601F09EFF95F85D30DA
:10494000234485F85D30204638BD01201446287187
:10495000EEE700BFB0F85E306BB190F85D30202B11
:1049600007D8C218013380F85D30012082F83B106F
:104970007047012303710020704700BF0023426984
:1049800080F8383080F8393080F85C3080F85D305D
:1049900080F85E3080F85F3006CA30B40D68046974
:1049A00043662A4383660A60A370426990F86130C7
:1049B0001649146813441D7A5B7B01EBC5051B0285
:1049C0006D6803F4E06343F064032B6090F8623099
:1049D00013449D7CDB7D01EBC5011B02496803F498
:1049E000E06343F064030B6021685368194205D00B
:1049F000036927225A70036904229A7103692022ED
:104A00005A71036980229A7030BC704778C40000E4
:104A100010B50269D378DBB2D90604463DD5102122
:104A20005806D17038D503F0040303F0FF02002BC1
:104A300051D03D49626E00230B7084F85D30002A2E
:104A40005BD0904794F85D30002B56D02369D0227C
:104A50009A70236994F83B201A712369012284F823
:104A60005C200222DA7010BD304B84F860009C425A
:104A70004AD02F4B9C4252D094F8391013791F29F9
:104A8000DBB207D82848007820B16018013184F8DB
:104A9000391003760223D37010BD5906C3D4917820
:104AA00001F0100101F0FF000029DDD013F0010337
:104AB0001ED194F85C1094F85D00884281BF4B1CB5
:104AC000091984F85C3091F83B3013712369D022C6
:104AD0009A702269DEE7236984F83920C0229A702F
:104AE0002369114A1979012111700222DA7010BD6F
:104AF000C023937022691379CCE70122002384F844
:104B00005D2084F83B30A1E7626994F8613009497F
:104B100013440322187A00F0B3FD2269ACE76269FE
:104B200094F861300449F3E70CCFFF1FC09DFF1FCD
:104B30002C9EFF1F994B0000A54B00000369DB78FA
:104B400003F0200373B190F860300133DBB2012B26
:104B500080F860301AD9426990F861301344187AAD
:104B600000F00ABE70B5426903F0FF0590F86130AD
:104B700013440446187A00F0FFFDA36E5BB184F87D
:104B8000385094F83900BDE87040184790F85F300D
:104B9000002BE0D0704770BD0148FFF7CFBF00BFCA
:104BA000C09DFF1F0148FFF7C9BF00BF2C9EFF1F1C
:104BB0002DE9F047374FDFF8E0903B68026982B09B
:104BC00006460093DDF800800021A025D3789B06DF
:104BD0005BD53B680193019BC8EB03030F2BF5D911
:104BE00049B1102BF2D000209070336980229A7066
:104BF00002B0BDE8F087726996F861301344052170
:104C0000187A00F023FE726996F86130134401218E
:104C100093F812A0504600F019FE092400215046D6
:104C200000F000FE2B46013BFDD10121504600F073
:104C3000F9FD2B46013BFDD1013CEFD1706996F89F
:104C4000611001444FF4A0720C7A4B7B09EBC40154
:104C50001B02496803F4E06343F064030B6096F8B9
:104C600062300344997CDB7D09EBC1011B0249687A
:104C700003F4E06343F064030B60013AFDD1326951
:104C8000D3789B064FF00101A3D4012002B0BDE808
:104C9000F08700BFD4CFFF1F78C40000F0B50369D0
:104CA0001222DA700269937803F0200385B004467B
:104CB0000D46002B5ED0B42393703C4922690B68EB
:104CC0000093009E05E00B680193019B9B1B042B46
:104CD00042D8D37803F0200303F0FF00002BF2D07A
:104CE00094F85D30002B31D04FF0000E4FF0020CE5
:104CF00004EB0E0393F83B3013710B680393039F8F
:104D0000206907E09B060DD50B680293029BDB1B15
:104D1000052B28D8C378DBB203F0020202F0FF06AD
:104D2000002AEFD080F803C02669F378DBB2DF06F3
:104D300032462DD49F062BD5DB0731D40EF1010E60
:104D400094F85D305FFA8EFE7345D1D800201DBB0C
:104D5000002384F85E3004E09070236980229A700A
:104D6000042005B0F0BD86702369802204209A706B
:104D700005B0F0BD03F0FF06FFF71AFF10B90420DD
:104D800005B0F0BD236984F85F60B0229A7094E7A3
:104D90008023B3700420DAE726698023B370D7E755
:104DA000BEF1000F0CBF02200320F6E7D4CFFF1F97
:104DB0000148FFF72DBE00BFC09DFF1F0148FFF750
:104DC00027BE00BF2C9EFF1F70B50468002C05464F
:104DD0000E46C8BF641807DD14F8012D2979287A1A
:104DE00000F03AFDA642F7D1287B2E61012100F0A8
:104DF00019FD287B0021BDE8704000F013BD00BF05
:104E00002DE9F04104465FFA83F8069D4360D6B26F
:104E100021600F46826001214046E56000F016FDEA
:104E2000EDB23046012100F011FD2846012100F0CD
:104E30000DFD4046002100F0F5FC3046002100F059
:104E4000F1FC2846002100F0EDFC3846012105F078
:104E5000FDFF014620612046FFF7B6FF2046BDE872
:104E6000F08100BF012A30B40A4615D01A4B0569FB
:104E7000002903EA0103B8BFCA1D002B4FEAE20272
:104E80001FDBA95C012404FA03F321EA0303AB54FA
:104E9000016930BCFFF798BF0F4B0569002903EA91
:104EA0000103B8BFCA1D002B4FEAE2020EDBA95C6A
:104EB000012404FA03F30B43AB54016930BCFFF740
:104EC00083BF013B63F007030133DAE7013B63F083
:104ED00007030133EBE700BF0700008000220A212F
:104EE000818002608271C271704700BF30B5CDB25F
:104EF00083B00446C571284600F09AFC002328467A
:104F0000A37100F095FC08B10323A371034B1B6848
:104F10000193019B236003B030BD00BFD4CFFF1FBE
:104F200081807047F0B5044685B0C07900F080FC00
:104F3000A279003018BF0120C2F3400102F0F7034C
:104F40008842A3710BD0124A1268019283F00203C7
:104F5000019AA3712260C3F3C00005B0F0BD0C4DEF
:104F60002768296802910299A688C91BB142F2D329
:104F700002F001029042EED02A68039283F0090306
:104F8000039AA371C3F3C000226005B0F0BD00BF57
:104F9000D4CFFF1F807900F001007047C029F0B422
:104FA00028BFC02172B6124B124E134A186000235C
:104FB000138033607360B360F36033617361012702
:104FC00099B15D0903F01F0456F8252007FA04F48F
:104FD000013322438B4246F82520F2D1002343803F
:104FE00001338B4200F58270F9D162B6F0BC704794
:104FF000A0CFFF1FA8CFFF1FC2CFFF1FF0B472B614
:10500000234F244E3C8806F1180306EB8400984297
:1050100012D256F8241099B9021D06F11B05631C23
:10502000AD1A03EB950503E052F8041B41B90133B7
:10503000AB421C461046F7D162B60020F0BC704768
:10504000B1FA81F34FF00042DA4021EA0201016037
:1050500001B9013410493C800A88013294B20C80B5
:1050600062B6801B8010C3EB401000EB8010830001
:105070000A480B49006803F5FB531C330125C5544E
:105080000D88AA42184488BF0C80F0BC704700BF4E
:10509000C2CFFF1FA8CFFF1FC4CFFF1FA0CFFF1F8E
:1050A0009CCFFF1F428872B60378012B03D9013BC6
:1050B000037062B67047531170B40C4C0C4D54F829
:1050C00023102E88D2434FF0004002F01F0220FA36
:1050D00002F21143074A44F82310B34238BF2B8031
:1050E0001388013B138062B670BC7047A8CFFF1FC6
:1050F000C2CFFF1FC4CFFF1FC368B3B130B401E0FC
:10510000DB688BB1187A9042FAD158685C7A0069F2
:1051100050F82450002DF3D140F8241008780130C5
:105120000870DB68002BEDD130BC7047437A8B42AE
:1051300006D90369002253F8210043F82120704763
:105140000020704738B5437A8B421AD9036953F867
:105150002140002243F821209CB12378012B0ED955
:10516000FFF74CFF054628B14FF48072211D043033
:1051700001F082FB2378013B2370284638BD20468E
:1051800038BD002038BD00BF037C23BB4368427A92
:105190005B7A9A421FD830B472B60468E3682BB3C6
:1051A000DA6832B119688C4216D01346DA68002AE0
:1051B000F8D1D8600023C360A37A0133A3720268D8
:1051C0004168012313728A7A1A448A724268137200
:1051D000037462B630BC70475D6841688D42E4D1AB
:1051E000198903899942F4D01346DFE7E060E1E7CB
:1051F000037C4BB34368427A5B7A9A4224D872B6F6
:105200000268D36803B3984202D11EE0984202D0EC
:10521000DB68002BFAD14368427A1B69002143F80E
:1052200022100268937A013B937203689A7A02B95A
:105230001A724268937A013B937243689A7A02B970
:105240001A720023037462B67047C368D360E2E742
:10525000084B1A7862B930B407480849D025057060
:105260004FF0804401220C6010461A7030BC704729
:1052700000207047A4CFFF1F5EE400E008E100E0DB
:105280001A491B4A1B48F8B50B681B4D046843F0CC
:1052900080730B60136843F0010313602E6814B928
:1052A00015E064699CB1237A002BFAD023682F683B
:1052B0001B68204698472B68E188DB1B1B099AB2C4
:1052C0008B42A28088BFE2806469002CEBD10A4B3C
:1052D0000A4A1B6810880A4C9B1B1B0999B283421F
:1052E000218001D91180F8BDF8BD00BFFCED00E0C0
:1052F000001000E098CFFF1F041000E0C0CFFF1F98
:10530000C6CFFF1FF0B572B699B902688AB10379AA
:105310000F2B0ED8274C218841FA03F5ED070AD54B
:1053200003F1007303F59063B2EB431F03D162B640
:10533000F0BD204C2188002341FA03F212F0010253
:1053400007D00133102BF7D162B60022037102603F
:10535000F0BD01259D402943218062B6164E174DB0
:10536000174FDFF864E0D9B20171346844F00204E9
:1053700034602C6844F002042C60A6F58026822458
:10538000A5F5802503F100733C6003F59063223E90
:10539000243D0C4C8EF800105B0131702970217097
:1053A00003601A605A609A60DA601A615A619A6101
:1053B000DA61F0BDC8CFFF1F408004403C8004404C
:1053C000008000401F8000401A80004003790F2BAE
:1053D00011D8094A10B4137072B6084904790A88C2
:1053E0000123A34022EA03030B8062B610220023AC
:1053F00010BC0271036070471A800040C8CFFF1FC5
:1054000008B5FBF715F9FCF77DFB00F043F8FAE768
:10541000F0B5164D2A680AB31549164BDFF85CE063
:1054200082FB016781FB0214D617D1191444C6EB25
:105430002141C6EB244403FB04F40EFB112244F289
:10544000A71303FB0243002B02DA03F10043013BE5
:10545000B3FBF0F22B6000FB1230F0BD064B2B606B
:10546000B3FBF0F200FB1230F0BD00BFCCCFFF1F4A
:105470005F0B4E83ECF4FFFF42CE0C1F1DF30100C7
:10548000884206DA10B50446081AFFF7C1FF204427
:1054900010BD704738B5224C237803B138BD0123C5
:1054A000237001F0B7F970BB00F0BAFA40BB00F00E
:1054B0004DFB10BB00F0E0FBE0B900232370EFF3DD
:1054C0000583002BEAD1EFF3108172B6154B1868F3
:1054D000E0B1154C2278CAB945691D6001232370DB
:1054E000C5B1AA6101B962B60025457783689847BE
:1054F0002570D3E701F056FBDFE701F051FBD9E758
:1055000001F04CFBD3E701F04FFBCDE70029C5D1FB
:1055100062B638BD054B1D600029E5D1E3E700BF49
:10552000D0CFFF1F6CD2FF1F70D2FF1F68D2FF1FAA
:1055300008B5104C08E0236859050DD423681A05F6
:105540000FD42368DB0411D423685803F3D500F08B
:1055500093FC23685905F1D500F072FA23681A0507
:10556000EFD500F003FB2368DB04EDD500F094FBDE
:10557000EAE700BF3480044008B5FFF7D9FF00BF59
:10558000014B10221A80704700200540704700BF71
:10559000094908B50B6830B16A461844A2F5805233
:1055A000904202D20860184608BD05F08DFC0C231D
:1055B00003604FF0FF3008BD989EFF1FFEE700BF5D
:1055C000704700BF10B40F4B53F8302092F8804260
:1055D0002CB1012369B182F8803010BC704703EB15
:1055E000C0035B681A6841B922F002021A6010BC5D
:1055F000704782F8003110BC704742F003021A6015
:1056000010BC704778C400001C4A02EBC00301299B
:105610005B6811D004291BD052F83000002280F8BA
:10562000802229B1022920D0032922D01A60704794
:105630004FF480721A60704752F830004FF4A27233
:1056400080F880121A601A6822F020021A607047EF
:1056500052F830104FF4A272012081F880021A60D3
:105660001A6842F020021A60704740F203121A6072
:1056700070474FF481721A60704700BF78C4000011
:10568000212817D8F8B5042A13D8DFE802F0494CCE
:105690004F1446002C4872B6236823F4702343F05D
:1056A0008072C4F384011643236040F821502660C1
:1056B00062B6F8BD70474FF41026244B03EBC003CD
:1056C0000D465C68216811F4E06134D0204B214A1A
:1056D0002149C3F89C2104F140422048C3F8A41199
:1056E000A2F592211E4FC3F8A0017C291D48C3F8E2
:1056F000A871C3F8AC01CDD9A2F594237C2B18D99D
:10570000A2F596237C2B19D9A2F598237C2B17D9C7
:10571000A2F59A227C2A15D9F8BD4FF43026CCE7A1
:105720004FF40026C9E74FF44026C6E74FF4202681
:10573000C3E70D48AFE7FFF767FFC7E70B48AAE7E6
:105740000B48A8E70B48A6E79C9EFF1F78C4000003
:105750000096FF1FD19BFF1F799BFF1FA59BFF1F7B
:105760004D9BFF1F219BFF1FD49EFF1F249FFF1FE8
:10577000549FFF1F749FFF1F1A4B03EBC00010B410
:10578000426802F14043A3F592217C2905D9A3F593
:1057900094217C2913D8144900E0144972B6136887
:1057A000134C23F08773C2F3840023F4803343F057
:1057B0008073136041F8204062B610BC7047A3F5B7
:1057C00096217C2909D9A3F598217C2907D9A3F52D
:1057D0009A237C2BF1D80749E0E70749DEE7074920
:1057E000DCE700BF78C40000D49EFF1F9C9EFF1F13
:1057F000C1550000749FFF1F249FFF1F549FFF1F70
:1058000030B4054B054D064C002210211A602A6069
:105810002060196030BC704714D0034004D00340AE
:1058200000D00340212801D8FFF7CCBE704700BF4D
:10583000212806D8044B53F8303093F80002C0B248
:1058400070470020704700BF78C40000212801D8AD
:10585000FFF7DABE704700BF2DE9F04107460E465C
:1058600090460824802505E0212E4FEA55050CD9E5
:10587000013C14D0212FF7D808EA05013846FFF77C
:10588000A1FE212E4FEA5505F2D801213046FFF73F
:1058900099FE00213046FFF795FE013CEAD1BDE8B4
:1058A000F08100BF2DE9F843054672B6204F214B29
:1058B000214A1B683C68126862B6520102D5322B3D
:1058C00088BF013495B3C3F5BB331C4EDFF8649039
:1058D000DFF86480FF334FF47A72A6FB031302FBF8
:1058E00004F404EB931472B6D9F800103A68D8F8AF
:1058F00000E062B6C1F5BB33FF33A6FB03031EF025
:10590000806FC4EB93134FF47A7002D0322988BFB2
:10591000013200FB0233B3F57A7F04D3013D05D099
:1059200004F57A74DFE7FFF7B5FDDCE7BDE8F8833F
:10593000D4CFFF1F18E000E004ED00E0ABAAAAAA54
:10594000F8B52D4B2D49DFF8D0E0DFF8D0C02C4E54
:105950002C4D2D4C2D4A2E4F4FF4000018604FF067
:10596000807018604FF0007018604FF08060186011
:105970004FF0006018600020086028234BF6FF718C
:10598000CCF80010CEF80030336013602B60236039
:105990003B60B3629362092245F8242CC4F8D80F07
:1059A00005F57F65C7F8D41F07F5FF2707F5FA67E8
:1059B000C6F8F83F2B6006F5FF26C4F8D42F05F58E
:1059C000FD2504F5FF24386006F2F47611483160B5
:1059D00005F5FF6504F5FD642B602360026001F0AE
:1059E000E5F83220FFF75EFF00F072FE4FF4AF7073
:1059F000BDE8F840FFF756BF08E100E0048003402F
:105A000014800340248003402C8003401C8003400A
:105A10003480034000800B400C800340088003402A
:105A2000054A064B10781B78C0B2DBB2984238BFEB
:105A30004030C01A704700BFDCCFFF1FDDCFFF1F13
:105A4000F0B4384B1A7912F0300F2CD072B6997D21
:105A500001F0FF0200293DD062B6334F3349387858
:105A60000D78334E1C46C0B2EDB2431C402BE17999
:105A700028BF0023AB4202F1FF32C9B21CBFF15470
:105A8000184612F0FF02F0D12A4B1B68C2B23A70DE
:105A90004BB1A84236BFC5F14005401B401927282D
:105AA000C4BF01221A701F49CA78D2B2150616D493
:105AB00052060DD51B4B1B795B0609D51E4B1F49A2
:105AC0001B6800220A7003B11A70164B3C22DA7070
:105AD000F0BC70474022D9795A7462B6E3E70B797B
