:1000000000800020BD010000A15A0000595A0000E4
:10001000595A0000595A0000595A0000595A000014
:10002000595A0000595A0000595A0000A15A0000BC
:10003000A15A0000595A0000D5720000D97300007F
:10004000A15A0000A15A0000A15A0000A15A0000C4
:10005000A15A0000A15A0000A15A0000A15A0000B4
:10006000A15A0000A15A0000A15A0000A15A0000A4
:10007000A15A0000A15A0000A15A0000A15A000094
:10008000A15A0000A15A0000A15A0000A15A000084
:10009000A15A0000A15A0000A15A0000A15A000074
:1000A000FD51000009520000A15A0000A15A0000B1
:1000B000A15A0000A15A0000A15A0000A15A000054
:1000C000A15A0000A15A0000A15A0000A15A000044
:1000D000A15A0000A15A0000A15A0000A15A000034
:1000E000A15A0000A15A0000A15A0000A15A000024
:1000F000A15A0000B55F0000A15A0000E1600000B5
:10010000A15A00000D620000A15A0000A15A00008F
:10011000A15A0000A15A0000A15A0000A15A0000F3
:10012000A15A0000A15A0000A15A0000A15A0000E3
:10013000A15A0000A15A0000A15A0000A15A0000D3
:10014000A15A0000A15A0000A15A0000A15A0000C3
:10015000A15A0000A15A0000A15A0000A15A0000B3
:10016000A15A000055640000A15A0000A15A0000E5
:10017000A15A0000A15A0000A15A0000A15A000093
:10018000A15A0000A15A0000A15A0000A15A000083
:10019000A15A0000A15A0000A15A0000A15A000073
:1001A000A15A0000A15A0000A15A0000A15A000063
:1001B000A15A0000A15A0000CD560000564B4CF247
:1001C000205210B51A804DF628121A8000BF00BFC9
:1001D00005F06AFC514B4FF010621A60504A9A6069
:1001E000504ADA60504A136813F4807304D14F49BF
:1001F0000B604FF4A85313604D4B1A78110703D5C9
:100200001A7842F008021A704A4B4B492A221A7097
:100210004A4A4B4B8B4204D252F8040F43F8040B6A
:10022000F8E7484B484900228B4202D243F8042B9E
:10023000FAE74649464A002352F8230041F82300D2
:1002400001336F2BF8D1434B434A802103F8011B44
:100250009342FBD1414B3D4A1A60414B8A221A70AE
:10026000A3F5805324225A70A0221A709A7992071B
:10027000FCD59A79D406FCD43A4A937903F00C035E
:10028000082B384BF9D103221A7140225A719A79FE
:100290009006FCD5334A9179324B4906FBD5324A58
:1002A000324911600221516020221A709A7902F0BD
:1002B0000C020C2AFAD12E4B2E4A1A602E4B2F4AD2
:1002C0001A6000225A60072243F8042C2C4AC3F813
:1002D0000C2D62B605F0EEFD144B1B68DA0705D550
:1002E000284805F047FD284B284A1A60284B1B7800
:1002F0005B0609D5244C254B22689A4204D121483B
:1003000005F038FD002323600BF0C4F905F0D2FBA3
:1003100005F09CFAFEE700BF0E2005403080044047
:10032000823F04000100002B10D0034014D0034092
:1003300002D0074000E0074064A8FF1FD0D30000B0
:10034000209BFF1F64A8FF1FDCD2FF1F0096FF1F2A
:100350000000000000E400E05FE400E008ED00E0E1
:100360000050064000400640448004400000030165
:1003700004800440C010050014E000E0FF76010096
:1003800000002020E187E05B1CE00340A5C3945AF5
:1003900000F00740FFFFFFFFFFFFFFFFFFFFFFFF32
:1003A000FFFFFFFFFFFFFFFFFFFFFFFFFFFFFFFF5D
:1003B000FFFFFFFFFFFFFFFFFFFFFFFFFFFFFFFF4D
:1003C000FFFFFFFFFFFFFFFFFFFFFFFFFFFFFFFF3D
:1003D000FFFFFFFFFFFFFFFFFFFFFFFFFFFFFFFF2D
:1003E000FFFFFFFFFFFFFFFFFFFFFFFFFFFFFFFF1D
:1003F000FFFFFFFFFFFFFFFFFFFFFFFFFFFFFFFF0D
:10040000FFFFFFFFFFFFFFFFFFFFFFFFDEF9FFFF23
:1004100010B5054C237833B9044B13B10448AFF33E
:1004200000800123237010BD64A8FF1F000000009E
:10043000D4D30000084B10B51BB108490848AFF3EE
:1004400000800848036803B910BD074B002BFBD0A0
:10045000BDE81040184700BF0000000068A8FF1F5B
:10046000D4D3000064A8FF1F0000000010B50446AC
:1004700005F0E4F8204610BD1F4B10B45A6C136809
:10048000506819780478507A137A044201EA03011B
:100490001AD0937A03F0030309B143F0040343F045
:1004A00008039910013B91720D2B0BD8DFE803F084
:1004B0001E0719070A141E1E140A0719071ED368FF
:1004C000013BD36010BC7047937A03F0030300290B
:1004D000E7D043F00403E4E7D36810BC023BD360E9
:1004E0007047D36810BC0233D3607047D36810BC28
:1004F0000133D360704700BF20CFFF1F1F4B10B4E4
:100500001A6D1368506819780478507A137A044287
:1005100001EA03011AD0937A03F0030309B143F00F
:10052000040343F008039910013B91720D2B0BD883
:10053000DFE803F01E0719070A141E1E140A071924
:10054000071ED368013BD36010BC7047937A03F059
:1005500003030029E7D043F00403E4E7D36810BCA9
:10056000023BD3607047D36810BC0233D36070473E
:10057000D36810BC0133D360704700BF20CFFF1F8A
:10058000002310B4104C4172026104600372C36016
:1005900041B1194600E0026942F82310427A013362
:1005A0009A42F8DC094B1A680AB90BE01A465369FB
:1005B000002BFBD15061002343618380C380837291
:1005C00010BC70471860F6E78CC00000A8CFFF1F72
:1005D0000A7AF0B48D88CC88C480858002724A7A09
:1005E00042728A7A8272CF680E694D698A690F4CAD
:1005F000C76006614561046082610A7F0277CA8B29
:100600000F6A4E6A0D8D4C8DC2838A8D07624662D9
:1006100005854485CE8D0D6B8C8E8285CA8EC286F3
:10062000C68505638486F0BC704700BF78C60000AD
:100630002DE9F0411021AA48AA4EAB4DDFF898836E
:10064000AA4F04F0D1FEAA4802F002FF5A21A8489E
:1006500002F09AFFA749A84AA84BA948886243F626
:10066000FF740C8314831C83A648A74C90629C6281
:100670000024DFF868E3F4610326A4488E85CC618A
:10068000DC61A3499E85A34BEB61CEF81C304FF48F
:100690008A73DFF84CE343858385C38583864B8566
:1006A0008B85CB858B864CF6CC439B4DCEF8183092
:1006B0009A4B9685D4614FF080420263AB619848B3
:1006C0000A63A3F55A63EB61C5F824809549964DFA
:1006D000C561964B9648DFF80CC3964DC8619649A4
:1006E0009648D96142F25003ACF82A309449DFF8B9
:1006F000F8E26B852A63AB86924D4385026383865D
:100700009148CCF830204B850A638B86AEF82A30AE
:100710008E49CEF83020AEF834302A63DFF8CCE2D0
:100720008B4A6B85AB864FF480358561C561056268
:100730004FF40040ACF834308D61CD610D629561AD
:10074000D561CEF82C0008234FF40062814982481D
:1007500002F0EAFF814BDFF898E28148C3F818E025
:10076000AEF5DA7E7F49C3F81CE0C3F82480DFF8D9
:1007700084E2C0F828E047F6FF787B4AC4618685AA
:10078000A0F8188079488862CC618E857848A1F8F5
:1007900018807849916278498561C56146F2666042
:1007A000086200F15B7000F6E200A2F81880D461E4
:1007B0009685C861714A72499161A1F5B731714B53
:1007C000DFF834C29E85A1F5F871D1614FF0005178
:1007D00051626D4E6D4ACCF81C20A3F81880DC6184
:1007E0009E626B4A6B4B6C4E9A61A2F57C52183A32
:1007F000DA616A4ADFF804E25A626949694D6A4A75
:10080000F2616A4B6A486B4ECEF81C304FF40062BE
:10081000C8610123EE614F49674802F085FF674BCD
:1008200067491D6828460AF0D7FB0021A7F8188001
:1008300006460AF077FE002840F0438161493046C1
:100840000AF08EFE002840F02B815F4930460AF006
:10085000CBFC4FF07C510AF0BFFB0AF0B1FE022343
:100860000026B862BB855949FE6128460AF0B4FBF0
:10087000574C47F6FF730021238307460AF052FEC8
:10088000002840F022814F4938460AF069FE0028CE
:1008900040F00A814C4938460AF0A6FC4FF07C51E2
:1008A0000AF09AFB0AF08CFE4A4EA06247F6FF72ED
:1008B00000270223002128463283E761A3850AF03E
:1008C00031FE002840F0FF803E4928460AF048FEED
:1008D000002840F0E7803C4928460AF085FC8FE07C
:1008E0000082FF1FD4CCFF1F60B1FF1FA4C5FF1FF4
:1008F0008CCCFF1FD4C9FF1F08CAFF1F3CCAFF1FB3
:10090000D72E6D00D0FA8100080FAD00F4B4FF1FA0
:10091000E4A9FF1FC09C8D022CB5FF1F6804BC0218
:100920002CC9FF1F50C9FF1F2599C20074C9FF1FA2
:100930005A13F80044CDFF1F922723015CAAFF1F22
:100940001CACFF1F84CAFF1FA8B4FF1FF8CDFF1FF8
:100950001CCCFF1FA4B5FF1FCCB2FF1F9CC6FF1FFE
:1009600090CDFF1FC4CDFF1FA8CBFF1FCF65330065
:1009700034B4FF1FAF333D00D0CEFF1F58ABFF1F75
:10098000400D340830CEFF1F586B3B0080391B05EB
:1009900000B28E0480B3FF1F64CEFF1F00B76D5BF3
:1009A000ACCEFF1F34ABFF1FA011DA00825D030144
:1009B000B98881006F319A00C8B1FF1F949DFF1F55
:1009C0006666EE41A655AC464B243E47CDCC2E4242
:1009D000D8C5FF1F0CC6FF1FD0CCCC0C90A9FF1FA1
:1009E00070B2FF1FB8C8FF1F54CCFF1FE0CAFF1F23
:1009F00034025E01CCD9280034AAFF1F88CEFF1F25
:100A00004FF07C510AF0E8FA0AF0DAFDB0620223F6
:100A100028460025B3852F49F5610AF0DDFA2E4CF2
:100A200047F6FF730021238306460AF07BFD00286A
:100A30004DD12A4930460AF093FD002836D0284887
:100A4000284A294DDFF8BCE0284B294EA062C2F8A5
:100A500018E0284FDFF8B0E02748C5F818E000217B
:100A6000D76156626E624FF48032E86146F2666783
:100A7000022610205F62E1619A61DA611A62A6853E
:100A800005F09EF90121102005F086F910211B4880
:100A900004F052FC0A211948BDE8F04104F066BC9C
:100AA0000F48DCE60E48B1E70D48FDE63046144934
:100AB0000AF09AFB4FF07C510AF08EFA0AF080FDA2
:100AC000BEE72046CBE63846A0E73046ECE62846AF
:100AD000B6E700BFCDCC044140C6FF1FA655AC46CB
:100AE000C0FFFF3F14C7FF1F68B5FF1FE4AAFF1F29
:100AF00000B76D5B509D3208E43AA503D4CAFF1FCE
:100B00004B243E47400D3408345BA5032DE9F041EA
:100B10008D4C2378002B33D18C490B7C012B40F278
:100B20008F8072B6CB6862B68948DFF838E2026817
:100B3000002BB8BF03339B10934205D09EF80050A2
:100B4000002D44D103601A46002A04DD72B600234A
:100B5000CB6062B603609EF80030002B30D17D4E32
:100B60007D4D3268006855F822307C4FDFF8E0C1D7
:100B7000C3F1000EC0F10008704547F822803FDB4A
:100B8000774804F0F5FB08B9BDE8F081744804F03B
:100B900027FC0028F8D123786B4A002B3FD172B68E
:100BA0006A4AD36062B66B490A68032A00F0B280D1
:100BB0006C480132052A037066D00A60BDE8F081F6
:100BC000694B6A491A688A4215DD1960D8E7684D91
:100BD000DFF8A8C12E68DCF80050634F751B322D7A
:100BE00042D8D51A3A684FF0640808FB05223A60EB
:100BF000CCF80060A6E7002ABCBF00221A60BFE75D
:100C000047F8223072B6C3EB83739B00CB6062B6A9
:100C1000336855F823305B42CCF80030B0E74F4BD7
:100C20004C4E544D544C5049107030602860206038
:100C30000860186058609860D8601861BDE8F0815D
:100C400072B60B6848681A780578487A0B7A0542BC
:100C500002EA030224D08B7A03F003030AB143F0C3
:100C6000040343F0080320E0B5F5C87F07D83D68CA
:100C7000D21A02EB820205EB42023A60B8E73D6805
:100C8000D21A15443D60B3E7344A0B6002F11401F7
:100C900052F8043B002B4BD19142F9D1BDE8F081D1
:100CA0008B7A03F00303002A4BD19A10013B8A721E
:100CB0000D2B3FF637AF01A252F823F00D0D0000C7
:100CC000050D0000FD0C0000050D0000250B0000C7
:100CD000F50C00000D0D00000D0D0000F50C0000DE
:100CE000250B0000050D0000FD0C0000050D0000A7
:100CF0000D0D0000CB68023BCB6014E7CB680233DC
:100D0000CB6010E7CB68013BCB600CE7CB680133CD
:100D1000CB6008E7DFF84CE09EF8003063B90F4B7A
:100D2000DB68012B08D901238EF80030BDE8F08183
:100D300001232370BDE8F08100238EF800300422E7
:100D40003BE743F00403B0E714B2FF1F1CAAFF1FE8
:100D5000009CFF1F9CC9FF1F90C0000094ACFF1FA8
:100D6000D4CAFF1F90CBFF1FB4A9FF1F9F860100AD
:100D7000B8A9FF1F6CB4FF1F18CCFF1FF4ACFF1FF6
:100D80002DE9F04F6D4B1B7883B0002B7CD1DFF841
:100D9000E8A1DFF8E8B198461F46694BCDF804801A
:100DA00083FB08234FEAE872C2EBA313654A03F5FD
:100DB000FA7382FB0326DB43DB0FC3EB6616BB0033
:100DC000F6004FEAC709002598460CE058F80230B3
:100DD0005D48C3EBC3032B4401351BF8232004F00B
:100DE00067FA072D2DD09AF80030584A09F1010111
:100DF00038462944002BE9D009F05AFD544C0246EC
:100E00000B4600205349246806F028FC0AF066F8D7
:100E1000514B94FBF0F083FB0034C317C3EBA404E5
:100E200004EB8404A0EB4400C0EBC0002844711C18
:100E30001BF8202044482944013504F039FA072DD5
:100E4000D1D1DDF80480454BA8F51B48A8F1DC089A
:100E5000984507F10107A0D10025414E2C46336883
:100E600039489C4229464FF0000203D19AF80030DD
:100E7000002B5FD004F01CFA0134052C05F10805A5
:100E8000EDD103B0BDE8F08F0024214600222E48AA
:100E9000083404F00DFA282CF7D1324B324A33488B
:100EA000196813680068CB1A8342EAD34FF0000830
:100EB000DFF8CCB0DFF8BC90DFF8C0A01160464688
:100EC00047467C1C07F10805DFF8B880FF4308E0BF
:100ED00098F80020013404F0EBF9AC4208F1040862
:100EE00015D0DBF800301848B3422146F0D1D9F8CC
:100EF00000300A33C3EBC30323443B4401341AF8E4
:100F0000232004F0D5F9AC4208F10408E9D10136F8
:100F1000052E2746D5D1164AD9F800301268154952
:100F200001339342C9F8003004BF00230B6003B0C3
:100F3000BDE8F08F012204F0BBF99DE714B2FF1F5A
:100F4000699CDB281F85EB5118B2FF1F94ACFF1F73
:100F5000B4A9FF1F0000244067666666B4F4FCFF76
:100F60009CC9FF1FB8A9FF1F58AAFF1F8C9DFF1F18
:100F7000A49DFF1F18CCFF1F90CBFF1F049CFF1FD9
:100F80006CB4FF1F709DFF1F2DE9F041684E316862
:100F9000482965DC674B684A684C18681368246800
:100FA000C31AA34275D3664D10602B78002B40F016
:100FB000A0806448644C04F0A1FC624804F04EFC3C
:100FC0003268D31784FB0214C3EB640404EB4403BC
:100FD0002146B2EB83042DD172B35C4B53F82170E0
:100FE00038460AF0ADF8002180460AF09BFA68B94D
:100FF000574940460AF0B4FA002840F09680554917
:1010000040460AF0F1F80AF0DBFA0446524B4D482C
:10101000DC61394604F072FC4A484B4C04F01EFC7B
:101020003268D31784FB0214C3EB640404EB44045A
:10103000A2EB8404012C0FD0484802F0A7FC3368CF
:101040004149404881FB0321DB17C3EB610104F0F8
:1010500055FC3C4804F002FC01232B70BDE8F081F4
:101060003F4C2368012B10D0324A3349334D10686E
:101070000A682D68821AAA420DD23A4A1268023BC7
:10108000394951F82330934203DC384A136801335D
:101090001360BDE8F0812A4D08602E78002E32D111
:1010A000304F33483A68023B03EB830102EB0111F6
:1010B00050F82110D1B10139244B53F821000AF026
:1010C0003FF8002180460AF02DFA28B92049404611
:1010D0000AF046FA08B3274E1F4B2048DE6102F0A3
:1010E00055FC23683A680121023B297001323A60BD
:1010F000C6E71A4802F072FC3368002201333360FD
:101100002A70BDE8F081154802F068FC154A236892
:1011100012680021023B2970B2E70E4940460AF0EE
:1011200063F80AF04DFA0646D6E7124C6EE700BFA8
:1011300084B1FF1FB8A9FF1F30ABFF1F909DFF1F99
:1011400030AAFF1F849EFF1FABAAAA2A1CC1000061
:10115000A655AC464B24BE4790A9FF1FF4B4FF1F11
:1011600094ACFF1FBCB3FF1F38C600006CB4FF1F58
:1011700038C1000080FFFF7F2DE9F041364F374A2C
:101180003C78374B002C41D014681B68E41A354B6F
:101190005D68012D0AD06B1F012B07D9022D42D0AB
:1011A000EB1F012B3FD9304B1E6823E02E4B1E68EE
:1011B000B6F57A7F2FDC4FF47A7000FB04F090FBD9
:1011C000F6F009F0BDFF29490AF0C2F82849804627
:1011D0000AF0C6F9002833D1264940460AF0A2F9A0
:1011E00080BB4FF08F41404609F0FEFF0AF0C2F984
:1011F000214BD861B44207D3042D03DC1F4A136886
:101200000133136000233B70BDE8F08112681A605F
:1012100001233B70BBE740F2E93000FB04F3701C94
:1012200093FBF0F0CDE7104A154B16689E420BDB9E
:1012300003FB04F3701C93FBF0F000F57A70C0E739
:101240001048D5E71048D3E7104800FB04F090FBA6
:10125000F6F000F57A70B4E7B4C8FF1FB8A9FF1F15
:101260006CB2FF1F94ACFF1F989DFF1F00007A44D3
:1012700000FEFF4600FEFFC6D4CCFF1F6CB4FF1F6C
:1012800019FCFFFF0000FF7F0000018018FCFFFF3A
:10129000F8B53D4D2B78002B61D03C4E3C4C3D4B7E
:1012A0005B6823F00402032A0DD0052B0BD023F03A
:1012B0000202042A3ED0082B3CD032682468364B08
:1012C000A41A1E6822E0344A336816682468DC2EAB
:1012D000A4EB030426DCDC2000FB04F090FBF6F01A
:1012E000DC3009F02DFF002107460AF01BF9002829
:1012F0003FD12A4938460AF033F970BB28493846AD
:1013000009F072FF0AF05CF9264BD861B44208D3A9
:10131000254802F063FB254A13680021013313605E
:101320002970F8BDDD2000FB04F3701C93FBF0F086
:10133000DC30D6E7184A33681668246816F1DB0FEC
:10134000A4EB030417DB6FF0DA0000FB04F3701C5E
:1013500093FBF0F000F5DC70C3E71548D4E70C4CC4
:101360000A4E23681048336002F010FB01232B70F3
:1013700095E70020C8E76FF0DB0000FB04F090FB6E
:10138000F6F000F5DC70ACE715B2FF1F0CA9FF1FEB
:10139000B8A9FF1F94ACFF1F9C9DFF1FA655AC462C
:1013A0004B24BE4760B1FF1FE4A9FF1F6CB4FF1FB1
:1013B00080FFFF7F08B50C4B5B685BB15A1E012AAA
:1013C0000DD9033B012B01D9FFF7D6FEBDE808403C
:1013D000FFF75EBF054A13680133136008BDBDE81F
:1013E0000840FFF7C9BE00BF94ACFF1F6CB4FF1FDD
:1013F0002DE9F843A64AA74BA74819681368006867
:10140000CB1A8342C0F09B80A44D11602E78002E31
:101410007DD1A34B9B68042B00F393805C1E4FEAA5
:10142000440808EB04029F4F9F4B57F822009E612F
:101430004FF48032DA6109F083FE002181460AF020
:1014400071F8002840F0E780984948460AF088F88B
:10145000002840F0E6809649484609F0C5FE4FF066
:101460007C5109F0B9FD0AF0ABF808EB0403914A8E
:1014700007EB83039062586809F062FE002106467C
:101480000AF050F8002840F0D080884930460AF031
:1014900067F8002840F0C3808549304609F0A4FE73
:1014A0004FF07C5109F098FD0AF08AF808EB04032C
:1014B000814A07EB83039062986809F041FE00219E
:1014C00004460AF02FF8002840F0AD807749204606
:1014D0000AF046F8002840F0A0807549204609F03F
:1014E00083FE4FF07C5109F077FD0AF069F802465F
:1014F000724B73489A6202F049FA724802F046FA57
:10150000714802F043FA01232B70BDE8F8836F485D
:1015100002F064FA6E4802F061FA6E4802F05EFA78
:10152000674802F05BFA674802F058FA664802F032
:1015300055FA694A13680021013313602970BDE828
:10154000F883052B75D09C1F4FEA440808EB040272
:10155000624F554B57F82200DE614FF480329A619A
:1015600009F0EEFD0021814609F0DCFF002840F083
:101570008A804E49484609F0F3FF002857D1584960
:10158000484609F031FE0AF01BF808EB0403554AFF
:1015900007EB8303D061586809F0D2FD00210646AD
:1015A00009F0C0FF00286CD14049304609F0D8FF4F
:1015B000002864D14A49304609F016FE0AF000F8C6
:1015C00008EB0403484A07EB8303D061986809F0ED
:1015D000B7FD0021044609F0A5FF002855D1334985
:1015E000204609F0BDFF002847D13D49204609F0BB
:1015F000FBFD09F0E5FF02463C4B3448DA6102F09E
:10160000C5F9334802F0C2F9324802F0BFF90123AC
:101610002B70BDE8F883304627E7354A68E7344841
:1016200044E7334821E7002262E700203EE73148E3
:10163000ABE72049204A304F8F621B4B2F4F2B497D
:1016400097621E48274E284CDFF8C0E02C4FC0F8A8
:1016500028E04BF233329A61DA612A4A2A4BE2617E
:10166000CB611A48F76102F091F9194802F08EF93E
:10167000184802F08BF912483DE71E4ABCE71D48A6
:101680009EE700209CE730467FE70022B4E700BFDA
:101690008CA9FF1FB8A9FF1FA09DFF1F7CACFF1FD7
:1016A00094ACFF1FA4C000001CCCFF1FA655AC4685
:1016B0004B243E47D4C9FF1F08CAFF1F3CCAFF1F67
:1016C0001CACFF1F54CCFF1F84CAFF1FB8C8FF1FEC
:1016D00044CDFF1F5CAAFF1F6CB4FF1FE0C00000D9
:1016E0004B24BE472CC9FF1F50C9FF1F74C9FF1FE1
:1016F000C0FFFF3F80FFFF7FD72E6D00D0FA810033
:101700002599C2005A13F80092272301080FAD0053
:10171000284B294A2948196813680068CB1A834264
:101720001CD330B4264D11602B68042B17DD254BDC
:101730001C68254B1A784ABB244A0120116818708E
:10174000002CB8BF1F34B1EB641F06DB20480368D0
:101750000021013303602960116030BC7047194AD1
:101760001C481468204000281FDB40FA03F2D2070F
:10177000DFD4013340FA03F1C9071A4603F101032C
:10178000F8D5114B2A601A78002AD5D029680C4860
:10179000002204291A700D4A03DD1168013111601D
:1017A000CEE74B1C03601168CAE7013860F01F00E8
:1017B0000130DAE7B8A9FF1FA8A8FF1FDCCAFF1F86
:1017C00098C9FF1FB4A9FF1F68B2FF1FBCCAFF1F43
:1017D0006CB4FF1F1F0000805D4B70B5186809F0E6
:1017E000ABFC5C4909F000FD5B4909F0B1FD5B49C8
:1017F000044609F0ADFD09F06DF805F0ADFE4AA311
:10180000D3E9002309F0BAF849A3D3E9002308F08B
:1018100003FF09F08BFB0021054609F083FE002839
:101820006DD14FF07E51284609F09AFE002872D003
:101830004FF480304A4B4B49D862204609F088FD6E
:1018400009F048F805F088FE0022474B09F096F8A9
:1018500039A3D3E9002308F0DFFE09F067FB434911
:10186000054609F05FFE002842D14149284609F0AB
:1018700077FE30B33F4A404D404B41499D61DA61AC
:10188000204609F065FD09F025F805F065FE2CA35A
:10189000D3E9002309F072F82BA3D3E9002308F061
:1018A000BBFE09F043FB3749044609F059FE10BB63
:1018B0003549204609F036FE18B3344B3448986158
:1018C00070BD2846334909F08FFC4FF09E41064613
:1018D00009F08AFC09F04EFE0546304605F080FE10
:1018E0004FF09E4109F080FC09F044FE0246C3E738
:1018F000294A2A4DC0E7254B2948986170BD002030
:1019000098E74FF08F41204609F06EFC09F032FE57
:101910001E4B986170BD4FF08F41284609F064FC62
:1019200009F028FE86E700BF000000809999C93FB2
:10193000000000606666E63F0000000000C07240E4
:10194000000000A09999A93F000000403333C33F35
:10195000B8A9FF1F00007A4400D05F470000304163
:10196000E0CAFF1F0000F041000059400000A04104
:101970001EDE8946008C3C4B00BE6C509CC6FF1F8F
:101980000000A04000FEFF4600FEFFC634B4FF1F6B
:1019900000000180465615387A5517007B55170010
:1019A0000000FF7FFFFFFFFF674B70B5186809F06D
:1019B000C3FB664909F018FC654909F0C9FC654993
:1019C000064609F0C5FC08F085FF05F0C5FD5CA3DF
:1019D000D3E9002308F0D2FF00225F4B08F01CFE81
:1019E00009F0A4FA5D4B5E491860044609F0F4FA68
:1019F0000021054609F096FD002840F095805949E0
:101A0000284609F0ADFD00287BD15749284609F04A
:101A1000EBFB4FF07C5109F0DFFA09F0D1FD534B9D
:101A200053499862204609F0D7FA0021054609F08B
:101A300079FD002876D14B49284609F091FD002810
:101A400065D14949284609F0CFFB4FF07C5109F098
:101A5000C3FA09F0B5FD474B00219862204609F012
:101A600061FD002864D13F49204609F079FD002836
:101A70004BD13D49204609F0B7FB4FF07C5109F0AE
:101A8000ABFA09F09DFD3C4B3C499862204609F0B9
:101A9000A3FA0021044609F045FD002846D131494A
:101AA000204609F05DFD70BB2F49204609F09CFBE4
:101AB0004FF07C5109F090FA09F082FD304B4FF065
:101AC00074519862304609F08FFB08F003FF05F06F
:101AD00043FD00222B4B08F051FF00222A4B08F057
:101AE0009BFD09F023FA0021044609F01BFD08BB09
:101AF0001C49204609F034FD58B1244B2448D861D4
:101B000070BD24488BE72348D8E72248BBE721482B
:101B1000A1E72149204609F067FB09F051FD1B4B65
:101B2000D86170BD002096E7002078E70020C5E767
:101B30000020A8E7154B0020D86170BDAFF30080EE
:101B4000000000009A991540B8A9FF1F00007A44D0
:101B500000D05F470000204100804840949DFF1F57
:101B60006666EE41A655AC464B243E47A4C5FF1F12
:101B7000CDCC2E42D8C5FF1F0CC6FF1FCDCC0441D3
:101B800040C6FF1F00003E4000708C4034AAFF1F7B
:101B900080FFFF7FC0FFFF3F4B24BE470E4B1B69FA
:101BA00013B90E4AD36170470C4A10B5012B4FF49C
:101BB0008034D46108D0022B05D1FFF7F5FE084B25
:101BC0000022DC619A6110BDFFF706FE044B002283
:101BD0009C61DA6110BD00BF94ACFF1F0CCDFF1FEC
:101BE000BCACFF1F10B5384A384B126882B0019266
:101BF000019A1A60FEF78AFFFFF7C2F8344B1C788F
:101C0000C4B1344C2368002B07D1334B1B68002B25
:101C100039D10123236002B010BDFCDDFFF7BEFF08
:101C20002368012B33D0022B3BD0032B3FD0032B57
:101C3000EFDCF0E7294A2A4B2A48D461DC6101F045
:101C4000CDFE294B29481C7001F0C8FE284A294BBB
:101C5000294814701C7001F0C1FE284801F0BEFE36
:101C6000274801F0BBFE274801F0B8FE264801F0E6
:101C7000B5FE264801F0B2FE254B264A9C61147041
:101C8000DC6102B010BDFFF77FF92368CFE7124B8C
:101C90005B6813B902232360BDE7FFF78BFB236862
:101CA000C5E70D4B9B6853B903232360B3E70A4B89
:101CB000DB68002BADD0FFF72BFD2368B7E7FFF7FC
:101CC00097FB2368B3E700BFE4CFFF1FB8A9FF1F4E
:101CD00014B2FF1F6CB4FF1F94ACFF1FD4CCFF1FC6
:101CE0000CCDFF1FF4B4FF1F30AAFF1FE4A9FF1F94
:101CF000B4C8FF1F15B2FF1FB8C8FF1F44CDFF1F98
:101D00005CAAFF1F1CACFF1F54CCFF1F84CAFF1F1F
:101D10001CCCFF1F7CACFF1F2DE9F04F85B00423C6
:101D200002220093052103237D487E4C03F08EFAA6
:101D30000221142004F044F80221112004F040F89C
:101D4000794BD3F8A010D3F88820012001F5007753
:101D500002F5007600254FF47A4327606660E5605F
:101D600020726072013BFDD191F8003292F800229E
:101D70006E4D6F492C65D20703EA000344BF43F060
:101D80000203DBB204221420A37203F033FF012309
:101D9000042268496C641120237403F02BFF237C18
:101DA0006548664D654E0133237403F0BDFA644AFD
:101DB000644B12681A60644B042103F12802184630
:101DC000FEF7DEFB614B03F1280218465E4B4FF431
:101DD000803404219C61DC611C625C621D60FEF742
:101DE000CFFB5B4B03F128021846584B04219C6142
:101DF000DC611C625C621D60FEF7C2FB554B544DFA
:101E000003F11802AC61EC612C626C620220A2F159
:101E10001804002102F80F0C204622612172E160B3
:101E20004D4C04600B462E60044600E0226942F8E7
:101E30002310484A4748527A01339A42F6DC474B0E
:101E40001A6812B901F0A8BA1A465369002BFBD1DF
:101E5000404B53613F48424B424F03600024446172
:101E60008480C480847202F025F93F4B3F4A404D84
:101E70001A60214622460A2638461E72FEF780FB6B
:101E80004FF4804305F11802012128463B62394B8B
:101E90003B60FEF775FB3A220E23DFF8F0806A857F
:101EA000AB85C1224FF00053EA852B6340F2776285
:101EB0001C23314EAA86EB862C85304B2B60404686
:101EC0002C77C8F80450C8F8007088F8084088F8E3
:101ED0000940C8F80C4088F8104003F07BFB284A02
:101EE0002849404609F08CFB174B7360304635603B
:101EF00034727472F460347403F06CFB204A21492C
:101F0000214D304609F07CFB144B6C721A68124B61
:101F10002B602C612C72EC60104BD2BB01F03FBAED
:101F200018B2FF1F1CAAFF1F88CC000020CFFF1F84
:101F3000FD04000079040000D4CAFF1F9CC6000005
:101F4000909DFF1FDCCAFF1FD4CCFF1F0CCDFF1FCD
:101F500070B4FF1F10CBFF1F8CC00000A8CFFF1F65
:101F6000A8C6000090A9FF1F8CCCFF1F50C6000020
:101F7000F4B4FF1FD8C9000098CCFF1F78C600003A
:101F8000FC9BFF1F6D04000070B2FF1FC0CCFF1F41
:101F90001A465369002BFBD15561DFF850E3BA4A6A
:101FA0002A60BA4ABEF80030B84FDFF844B3B84EE2
:101FB000DFF840A3DFF84093DFF840830024343299
:101FC00001336C61AC80EC80AC72A2F13400022170
:101FD000AEF80030EB61AC61FEF7D2FAAB4ADFF845
:101FE00020C3AC4BC7F81CC04FF4805EC7F820E09C
:101FF000946221462246C7F818B07B62A648A74BD8
:10200000FC623C633B60FEF7BBFAA34BA44F1F602E
:1020100006F118024FF48047012130461F62FEF797
:10202000AFFAA04B33604FF00E03B3854FF0C103FE
:10203000F3854FF00053336340F277634FF03A0B70
:10204000B3864FF01C0350463485A6F82AB0F386B9
:102050008E4BCAF804303477CAF800508AF808402A
:102060008AF80940CAF80C408AF8104003F0B2FA26
:102070008D4A8E498A4D504609F0C2FA834BC9F801
:1020800000308B4BC9F8043048464FF0010389F803
:10209000083089F80930C9F80C4089F8104003F07D
:1020A00099FA814A8149DFF85CA2484609F0A8FA0A
:1020B000794B88F80840404688E8480088F809408D
:1020C000C8F80C4088F8104003F084FA794B77493F
:1020D000754A0393404609F093FA7748744A426080
:1020E0004FF0020206600472C4600474427203F08E
:1020F00071FA6D4A6D497048DFF80C92DFF80C8276
:1021000009F07EFA224621466C48FEF739FA6C4BFC
:1021100003F118021846694B01211D601F62FEF78A
:102120002FFA674B5F4D1D604FF00E059D854FF0F8
:10213000C105DD854FF000551D6340F277659D8632
:102140004FF01C05224621461C85A3F82AB0DD86E7
:102150005C481C77FEF714FA5B4B514D03F11802F3
:102160001846584B01211D601F62FEF709FA564BB5
:102170004C4D1D604FF00E059D854FF0C105DD856E
:102180004FF000551D6340F277659D864FF01C05AA
:10219000224621461C85A3F82AB0DD864B481C77D1
:1021A000FEF7EEF94A4B3E4D03F118021846474B35
:1021B00001211F621D60FEF7E3F9454B394D1D609B
:1021C0004FF00E059D854FF0C105DD854FF00055A0
:1021D0001D6340F277659D864FF01C05224621461F
:1021E0001C85A3F82AB0DD863A481C77FEF7C8F9AB
:1021F000394B3A4D3A4F03F118021846354B01213D
:102200001C835C83DC611C629C629C85DC851C6396
:102210001D60FEF7B5F9304B224D1D604FF00E05E5
:102220009D854FF0C105DD854FF000551D6340F2DF
:1022300077659D864FF01C05224621461C85A3F834
:102240002AB0DD8627481C77FEF79AF9264B234DE6
:1022500003F118021846234B01211D601C835C8387
:10226000DC611C629C629C85DC851C63FEF788F93E
:10227000039B0C4D18461C4B1D604FF00E059D85B1
:102280004FF0C10544E000BFF0C900002CB5FF1FAE
:10229000E4A9FF1F80F9855A60B1FF1F90C60000B6
:1022A000D8C9000078C60000FC9BFF1F6D04000029
:1022B000D4CCFF1F3CCAFF1FD8C6FF1F2CC9FF1F6D
:1022C000B8C8FF1F50C9FF1F44CDFF1F74C9FF1FAF
:1022D0005CAAFF1FD4C9FF1F1CACFF1FE4C900008C
:1022E00074C6FF1F08CAFF1F54CCFF1F1ACFFF1F61
:1022F00000B28E0454B2FF1FECC6FF1FA8ACFF1F34
:10230000E8728E04A8AAFF1FD0AAFF1F1CABFF1FF4
:10231000DD854FF000551D6340F277659D864FF0D7
:102320001C05224621461C85A3F82AB0DD861C77B1
:10233000FEF726F9BC4BBD4D03F118021846039B6E
:1023400001211D601C835C83DC611C629C629C8596
:10235000DC851C63FEF714F9B34BB54A1A604FF0E5
:102360000E029A854FF0C102DA854FF000521A63CF
:1023700040F277629A864FF01C02A3F82AB01C85BF
:10238000DA86AC49AC481C77FEF722F9AB49AC4879
:10239000DFF818B3AB4DFEF71BF9AB49AB48FEF7BE
:1023A00017F9AB49AB48FEF713F9AB49AB48FEF759
:1023B0000FF99D49AA48FEF70BF9AA4B042103F136
:1023C00028021846FEF7DCF8A64B4FF480360421AD
:1023D0000BF1280258461D609E61DE611E625E623E
:1023E000FEF7CEF8A04BCBF8005003F128020421F1
:1023F0001846CBF81860CBF81C60CBF82060CBF8FF
:102400002460FEF7BDF8984B3C721D609E61DE6152
:102410001E625E62954B3B603846864B7B607C72E9
:10242000FC603C7403F0D6F8914A9249924E934D69
:10243000384609F0E5F89248924B03607F4B4360C1
:1024400004724472C460047403F0C4F8884A894971
:102450008B488D4F09F0D4F88C4BCAF800305046A9
:10246000794BCAF804308AF808408AF80940CAF85B
:102470000C408AF8104003F0ADF87D4A7D49504683
:1024800009F0BEF8824BC9F800304846704BC9F8D5
:10249000043089F8084089F80940C9F80C4089F8E7
:1024A000104003F097F8724A7249DFF804A24846D8
:1024B00009F0A6F8774BC8F800304046664BC8F8DC
:1024C000043088F8084088F80940C8F80C4088F8BB
:1024D000104003F07FF8664A6649DFF8D89140461D
:1024E00009F08EF8039B3B6038464F4B7B603C7293
:1024F0007C72FC603C7403F06DF85D4A5D49DFF866
:10250000B881384609F07CF84A4B33603046554B69
:10251000736034727472F460347403F05BF8544A7C
:1025200054495D4F304609F06BF8444B2B604D4BDE
:102530006B6028464FF001036B722C72EC602C74B8
:1025400003F048F84B494A4A544E284609F058F8D7
:1025500053483D4A0260434A42604FF002024272D1
:102560000472C460047403F035F84249404A4C4890
:102570004C4D09F045F84C48354A047280E804088F
:102580004472C460047403F025F8394A3949464856
:1025900009F036F8304B8AF8084050468AE80808B7
:1025A0004FF001038AF80930CAF80C408AF810404D
:1025B00003F010F82E4A2F49504609F021F81A4B23
:1025C00089F80840484689E808084FF0020389F86E
:1025D0000930C9F80C4089F8104002F0FBFF244A8A
:1025E0002449484609F00CF81E4BC8F80030404614
:1025F0001D4BC8F8043088F8084088F80940C8F82E
:102600000C4088F8104002F0E5FF194A194940468D
:1026100008F0F6FF144B7B6038464FF001037B72E5
:102620003C72FC603C7449E084CAFF1FE4C90000AE
:1026300078C60000B8C8FF1F50C7FF1F44CDFF1F5A
:1026400088C7FF1F9CC600005CAAFF1FC0C7FF1FF2
:102650001CACFF1FF8C7FF1F54CCFF1F30C8FF1F63
:1026600068C8FF1FA8B4FF1F1CCCFF1F2CC9FF1F89
:10267000FC9BFF1F6D04000094ABFF1FBCABFF1F52
:1026800088C6FF1F50C9FF1F00C7FF1F74C9FF1F67
:10269000D4C9FF1F08CAFF1F04CCFF1F4CB1FF1F86
:1026A00008ACFF1FD4A8FF1F54ACFF1FF8CDFF1FBD
:1026B00068ACFF1FDCCBFF1FF0CBFF1FC7F800B0DB
:1026C00002F088FF4049414A384608F099FF404AE5
:1026D000326003233F4A7372304672603472F46092
:1026E000347402F077FF394A3749304608F088FFE2
:1026F0004FF0010105F1180269723749296023463C
:102700002C72EC6021462A612C4600E0226942F8D6
:1027100023106A7A314801339A42F7DC304B1A6849
:1027200012B900F03FBE1A465369002BFBD1556128
:102730002C4C2D4F2D4A2E4B2C6000242A622B63EB
:102740004FF0884125486C61AC80EC80AC72294E1A
:1027500002F06AF82246214647F6FF733846AB85F9
:10276000EC85FDF70DFF244B3B603046234B736037
:1027700035603C7634727472F460347402F02AFF6F
:10278000124A11491E4D304608F03AFF1D4B0421F4
:1027900003F128021846FDF7F3FE114B1A491A6897
:1027A000184B6C72196017492C614FF480338B61A0
:1027B000CB610B624B62084B2B602C72EC60084BB8
:1027C0002ABB00F0F2BD00BF6D040000FC9BFF1FA0
:1027D0001CCCFF1FD4CCFF1F8CC00000D4A8FF1F4F
:1027E000A8CFFF1FCCC90000F8ACFF1FE63C0100DA
:1027F00082902C00A8ABFF1FB4C600000CCDFF1FB9
:10280000E0CAFF1FBCACFF1F9CC600001A465369FC
:10281000002BFBD15561DFF850E3B64BBEF9002029
:10282000B5492960002402F1010C134421462246D7
:1028300040F6CC476C61AC80EC80AC72AF48AEF82F
:1028400000C0AB616C6285F82840EF612F62FDF734
:1028500097FEAB4BAB4FAC4EDFF81093DFF8108315
:10286000DFF810B3DFF810A303F118021846A34BEA
:102870001F604FF480471F620121A44B0393FDF7B3
:102880007FFE9F4BA24F1F60022106F134023046AB
:102890000F465962FDF774FE9E4B33609E4BB36149
:1028A000A3F57C53183BF3614FF4805333629B4B89
:1028B0007362394609F134024846B462F462346303
:1028C000FDF75EFE934BC9F80030934BC9F8183002
:1028D000A3F57C53183BC9F81C304FF48053C9F85A
:1028E00020308E4BC9F8243008F1280204214046DC
:1028F000C9F82840C9F82C40C9F83040FDF740FE1F
:10290000039B874AC8F800204FF48037184683E8B5
:102910006000C8F81870C8F81C70C8F82070C8F8B3
:1029200024701C725C72DC601C7402F053FE039B0A
:102930007C4A7D49734D184608F062FE6F4B8BF858
:10294000084058468BE808028BF80940CBF80C4049
:102950008BF8104002F03EFE724A7349584608F068
:102960004FFE674BCAF804305046CAF800908AF808
:1029700008408AF80940CAF80C408AF8104002F072
:1029800029FE6949674ADFF8F4B1DFF8F49150464F
:1029900008F036FE65485A4A047280E80401447221
:1029A000C460047402F016FE5F495E4A5F48DFF8B7
:1029B000D4A108F025FE5E484FF0010280E84001F6
:1029C0000472C4600474427202F004FE5649554A0F
:1029D0005748584E08F014FE5748584AC0F800802F
:1029E000426004724472C460047402F0F3FD4D4A04
:1029F0004D495148DFF8908108F002FE22462146F9
:102A00004F48FDF7BDFD4F4B03F1340218464C4BC8
:102A100002211D604FF480451D62FDF7B1FD4A4B58
:102A20003C4D03F128021846464B1D603A4D9D610E
:102A3000A5F57C55183DDD614FF480551D62374D7D
:102A40005D6204219C62DC621C63FDF799FD3E4BD4
:102A5000334D3E481D60224621469F61DF611F6263
:102A60005F62FDF78DFD394B394D3A481D602246B6
:102A700021461C835C83DC611C629C629C85DC8536
:102A80001C63FDF77DFD334B33481D602246214614
:102A90001C835C83DC611C629C629C85DC851C63FE
:102AA000FDF76EFD2C4B2D481D60224621461C83F0
:102AB0005C83DC611C629C629C85DC851C63FDF789
:102AC0005FFD274B03F118021846244B02211D60BD
:102AD0001C835C83DC611C629C629C85DC851C63BE
:102AE000FDF74EFD1F4B134D03F1180218461C4B0A
:102AF00002214BE0F541ED5EC0C60000D0CEFF1FC5
:102B0000CCB2FF1FD8C900009CC6FF1F68CBFF1FB7
:102B10006CC6000090C6000000B28E0480F9855A91
:102B20009CC60000FC9BFF1F6D04000094CBFF1FA0
:102B300024A9FF1F84C60000ACCCFF1FBCACFF1F44
:102B400034AAFF1F80B3FF1FD0ABFF1F90CDFF1F24
:102B5000E4C90000C4CDFF1FA8CBFF1F30CEFF1F6C
:102B6000A8B1FF1F6CA9FF1F18CFFF1F58ABFF1F95
:102B700034B4FF1F7CCBFF1F94A8FF1FA0C8FF1F0A
:102B800004C9FF1FBCA9FF1F18C9FF1F1D60FDF767
:102B9000F7FCA54B03F118021846A44B02211D6057
:102BA000FDF7EEFCA24B03F1280218469E4B0421D0
:102BB0001D60FDF7E5FC9E4B9E4D9F481D60224623
:102BC00021469F61DF611F625F62FDF7D9FC9A4B6E
:102BD0009A4D1D60224621464FF4804598481D625B
:102BE000FDF7CEFC964B954D1D60224621464FF4D5
:102BF000804594481D62FDF7C3FC924B8F4D1D60CC
:102C0000224621464FF480458F481D62FDF7B8FCEF
:102C10008E4B03F1180218468B4B01211D62874D24
:102C20001D60FDF7ADFC8A4B8A4D03F12802184662
:102C3000864B04211D6002255D62FDF7A1FC844BDB
:102C40007C4D85481D60224621469F61DF611F62E1
:102C50005F62FDF795FC804B804D81481D602246E8
:102C600021461C835C83DC611C629C629C85DC8544
:102C70001C63FDF785FC7A4B7A481D60224621468D
:102C80001C835C83DC611C629C629C85DC851C630C
:102C9000FDF776FC734B74481D60224621461C8369
:102CA0005C83DC611C629C629C85DC851C63FDF797
:102CB00067FC6E4B03F1180218466B4B02211D6036
:102CC0001C835C83DC611C629C629C85DC851C63CC
:102CD000FDF756FC664B674D03F118021846634B2F
:102CE00002211D60FDF74CFC634B644D03F118029B
:102CF00018465F4B02211E60FDF742FC604B03F15A
:102D0000340218465C4B02211E60FDF739FC5C4B17
:102D10005C4E1E605C4E9E61A6F57C56183EDE61E0
:102D20004FF480561E62594E5E6205F12802284615
:102D300004219C62DC621C63FDF722FC3D4B2B608E
:102D4000534BAF6103F1340202211846EF612F6249
:102D50006F62FDF715FC4E4B4B4A9A614D4B494D46
:102D60004D4E03F128021846494B1D604B4DDD6165
:102D70004FF480551D62454D5D6204219C62DC620A
:102D80001C63474B0393FDF7FBFB424B294A1A6038
:102D90009F61DF611F625F62424B33603046424B8E
:102DA000424D736034727472F460347402F012FC39
:102DB0003F4A4049404F304608F022FC3A4B2B60D6
:102DC00028463E4B6B602C726C72EC602C7402F0E7
:102DD00001FC3849364A3A4E284608F011FC039B5C
:102DE000364A1A6018462B4A5A601C725C72DC60C4
:102DF0001C7402F0EFFB039B2D4A2E49314D1846FF
:102E0000314B039308F0FCFB304BCBF800305846B5
:102E10002F4BCBF804308BF808408BF80940CBF8E7
:102E20000C408BF8104055E0F4B1FF1F6CA9FF1F58
:102E300020B3FF1F9CC6000064CEFF1FD8C900004E
:102E400088CEFF1FACCEFF1F34ABFF1FC8B1FF1FE2
:102E500030CBFF1F6CC60000A4C5FF1FE4C90000F3
:102E6000D8C5FF1F0CC6FF1F40C6FF1F38A9FF1F94
:102E700088B1FF1F84C60000A0C9FF1FD4B3FF1F85
:102E800014C7FF1F90C6000000B28E0480F9855A57
:102E900068B5FF1FE4AAFF1F94AAFF1FE8728E0403
:102EA00058A9FF1F34AAFF1F80B3FF1FBCAAFF1F32
:102EB000FC9BFF1F6D0400007CCDFF1FD0ABFF1FEC
:102EC0000CB3FF1F90B2FF1F6CB3FF1F90CDFF1F0D
:102ED000A8B1FF1F02F07EFBBC4ABD49584608F06E
:102EE0008FFBBC4BCAF80030BB4BCAF804305046CD
:102EF0004FF001038AF809308AF80840CAF80C40FC
:102F00008AF8104002F066FBB04AB149DFF840B3DE
:102F1000504608F075FBB14BC9F80030B04BC9F80A
:102F2000043048464FF0020389F8093089F8084018
:102F3000C9F80C4089F8104002F04CFBA34AA449A0
:102F4000DFF810A3484608F05BFBA64BC8F800303A
:102F5000A34BC8F8043040464FF0030388F809300B
:102F600088F80840C8F80C4088F8104002F032FB9E
:102F7000964A9749DFF8E092404608F041FB964BAD
:102F80003B603846984B7B603C727C72FC603C74C2
:102F900002F020FB8D4A8E49DFF8C082384608F0E7
:102FA0002FFB8F4B3360904B736030464FF0010323
:102FB00073723472F460347402F00CFB834A8449F7
:102FC0008A4F304608F01CFB874B2B60884B6B60A8
:102FD00028464FF001036B722C72EC602C7402F0E7
:102FE000F9FA7B49794A834E284608F009FB824862
:102FF000824A0260824A426004724472C46004746D
:1030000002F0E8FA7249714A7B487E4D08F0F8FAFE
:10301000039B7D4A1A607A4A5A6018464FF00102B3
:103020001C725A72DC601C7402F0D4FA039B68496B
:10303000664A1846754B039308F0E2FA7448754ADD
:1030400002606F4A42604FF0020204724272C46032
:10305000047402F0BFFA5D4A5D496D4808F0D0FA89
:103060006D4BCBF80030664BCBF8043058464FF030
:1030700003038BF809308BF80840CBF80C408BF831
:10308000104002F0A7FA5249504A584608F0B8FAE0
:1030900062485B4A0260624A426004724472C460E1
:1030A000047402F097FA494A49495C4808F0A8FAC2
:1030B0005B4BCAF800304E4BCAF8043050464FF014
:1030C00002038AF809308AF80840CAF80C408AF8E6
:1030D000104002F07FFA3E493C4A504608F090FA10
:1030E0005048514A0260514A426004724472C460BE
:1030F000047402F06FFA354A35494A4808F080FAFC
:103100004B4BC9F80030494BC9F8043048464FF0E2
:10311000010389F8093089F80840C9F80C4089F89A
:10312000104002F057FA2A49284A484608F068FA3F
:103130004048414A0260414A426004724472C4609D
:10314000047402F047FA214A21493A4808F058FA33
:103150003B4BC8F80030394BC8F8043040464FF0BC
:10316000010388F8093088F80840C8F80C4088F84E
:10317000104002F02FFA154A1549404608F040FA6F
:103180002A4B3B6038462F4B7B603C727C72FC6064
:103190003C7402F01FFA0E490C4A384608F030FA27
:1031A0002948264A0260274A42604FF001024272D3
:1031B0000472C460047402F00DFA0549034A2248FF
:1031C00008F01EFA21481F4A026049E0FC9BFF1FDD
:1031D0006D040000C4CDFF1FA8B1FF1FA8CBFF1FC7
:1031E0006CA9FF1F30CEFF1FF4B1FF1F80A8FF1F87
:1031F000E4AAFF1FD0A9FF1F58B3FF1F64CEFF1F13
:1032000030CBFF1FC0CAFF1F88CEFF1F40B2FF1F79
:10321000F8B2FF1FACCEFF1F34ABFF1FC0B3FF1FC0
:10322000C8B1FF1F0CB4FF1FA4C5FF1F38A9FF1FA3
:10323000D8C5FF1FB8B2FF1F0CC6FF1F88B1FF1F04
:1032400040C6FF1FA0C9FF1FC0C9FF1FACA8FF1FBA
:103250002CB2FF1FA4B2FF1F20B4FF1FF0C8FF1F36
:10326000534A426004724472C460047402F0B2F9BA
:103270005049514A514808F0C3F951484C4A02603C
:10328000504A42604FF0030242720472C4600474F8
:1032900002F0A0F94749484A494808F0B1F94A48BC
:1032A000484A0260494A426004724472C46004742D
:1032B00002F090F93F49404A434808F0A1F94448D8
:1032C000424A0260434A42604FF001024272047275
:1032D000C460047402F07EF93649374A3C4808F06D
:1032E0008FF93D484FF0010242723A4A02603B4A70
:1032F00042600472C460047402F06CF92D492E4AD5
:10330000354808F07DF93648364A0260364A04727C
:1033100042604472C460047402F05CF9264A254994
:103320002F4808F06DF94FF0010373722B4B336097
:1033300030462D4B73603472F460347402F04AF9F5
:103340001C491D4A304608F05BF9039B264A1A6067
:103350001846264A1C725A605C72DC601C7402F0CB
:1033600039F9039B144A1349184608F049F94FF0FC
:1033700001036B721C4B2B6028461C4B6B602C723C
:10338000EC602C7402F026F90B4A0A49284605B075
:10339000BDE8F04F08F034B91860FEF75BBD1D6062
:1033A000FEF7FBBD1860FFF7C3B91D60FFF733BA26
:1033B00014C7FF1F6D040000FC9BFF1FACA8FF1F7C
:1033C000C0A8FF1FE4AAFF1F80ACFF1F68B5FF1F46
:1033D00070CAFF1FBCACFF1FE0B4FF1F0CCDFF1F66
:1033E00010A9FF1FD4CCFF1F70B4FF1F10CBFF1F0D
:1033F0000020704700207047F8B5144C037A242948
:1034000008BFC2805B0001250E462046C1F307219C
:10341000174684F83B3084F85E5084F85D5001F024
:10342000BFFCF1B2204601F0BBFCC7F307212046E8
:1034300001F0B6FCF9B2204601F0B2FC2946204664
:1034400001F052FEB0FA80F04009F8BDAC9DFF1FBC
:1034500038B5012504460571334801F0B5FC052057
:1034600002F0DAFC204644F260023021FFF7C4FF8C
:1034700020466C222621FFF7BFFF20464FF4F97249
:103480002821FFF7B9FF204640F622722C21FFF7D2
:10349000B3FF204644F246423C21FFF7ADFF2046F1
:1034A00040F237122421FFF7A7FF204644F2FF0223
:1034B0003021FFF7A1FF732202212046FFF79CFF76
:1034C0004FF4C87002F0A8FC204641F61D522E2190
:1034D000FFF792FF042211462046FFF78DFF20469A
:1034E0004FF498720621FFF787FF204610220A2129
:1034F000FFF782FF204600220E21FFF77DFF2046C6
:1035000043F63C421021FFF777FF204647F67F72D3
:103510002221FFF771FF204636222421FFF76CFF9E
:103520006572284638BD00BFAC9DFF1F10B504462C
:1035300019B1012911D0002010BD55222021FFF71B
:103540005BFF0028F7D0E28842F00402204692B2E6
:103550002421BDE81040FFF74FBF40F273122A212B
:10356000FFF74AFF0028E6D0882220212046FFF7F7
:1035700043FF0028DFD0E288204622F00402242105
:10358000BDE81040FFF738BF38B50546F1B18029D6
:1035900003799ABFC1F1800444EA0424002433B9BA
:1035A000224628462221BDE83840FFF725BFC288C1
:1035B000002322F0100203712421FFF71DFF224691
:1035C00028462221BDE83840FFF716BF01230371CA
:1035D00047F67F722221FFF70FFFEA8842F01002C0
:1035E000284692B22421BDE83840FFF705BF00BF4E
:1035F0000B4610B507490446184607F0F5FD064985
:1036000007F0EAFC07F0DCFF01462046BDE8104069
:10361000FFF7BABF00000143EE7CFF3EC369002BF9
:103620007ED0436A012B2DE9F0474FF00001804620
:103630004EDD01F0ADFF0746002872D0D8F8240017
:10364000D8F81C50D8F828C0461E07F1040E9CFB81
:10365000F6F607F58279013E4FF0000AB8F82030FF
:1036600001331BB29C45CBBFA8F82030A8F820A09E
:103670005B000023BEF90020EA520028B8F9203090
:103680001EDD00221146012835F9134018BF9B1B8F
:10369000002B02F10102B8BF634490422144F2D1F1
:1036A00091FBF0F12EF8021BCE45D7D140463946AA
:1036B000002201F047FF3846BDE8F04701F018BF8F
:1036C000002191FBF0F12EF8021BCE45C6D1EDE7AB
:1036D00001F05EFF044620B3D8F82860D8F81C50EB
:1036E000021D002700F58270B8F8203001331BB2AC
:1036F000B342B4BFA8F82030A8F8207032F9021BFA
:10370000B4BF5B0000238242E952EDD1404621461E
:10371000002201F017FF2046BDE8F04701F0E8BEA7
:103720007047BDE8F08700BF10B40024C461846214
:10373000048469B1092A08DDA34206DD52108262C1
:10374000C161436210BC01207047204610BC704725
:10375000084610BC704700BF2DE9F04F002183B030
:10376000054601F015FF0090002800F0FB802B7F3C
:10377000002B00F08C80009A02F5827302F1040A9B
:103780009A4501937CD2DDF804E056E02B7F022BB2
:1037900000F08280032B66D0042B00F08880052B7C
:1037A00000F09680062B00F0E080072B00F0A1804F
:1037B000012B00F0B2806B6A2A6A5B1403EBA23221
:1037C0009C1818191F1803EB070C03EB0C0699192A
:1037D0000B444FF6FF7BDAF80090DAF8048032FBF6
:1037E00009F234FB19F4C2EA044230FB08F037FB5B
:1037F00018F7C0EA0747DAF808003CFB00F0DAF8EF
:10380000084036FB14F6C0EA0646DAF80C0031FB35
:1038100000F133FB10F3C1EA03438AE88400CAF8DD
:103820000860CAF80C302A6A6B6AA5F81EB0134407
:103830000AF1100A2B62D64522D9E98B0029A5D0BE
:103840006B6A2A6A5B1403EBA2329C1818191F18C2
:1038500003EB070C03EB0C0601F1FF3B99191FFA70
:103860008BFB0B44B7E72B6BEA8DEA834FF0040127
:10387000D64503F14043297793FBF2F36B62DCD822
:10388000009C28460022214601F05CFE204603B041
:10389000BDE8F04F01F02CBEAB8DEB83002BE2D0E6
:1038A00003234FF080422A6269622B77C3E72B6BB8
:1038B00069624FF005022A779A132B62114613466C
:1038C000164694461746104614464FF6FE7B82E78E
:1038D0006B6A2A6A5B1403EBA2329C1818191F1832
:1038E00003EB070C03EB0C0699190B444FF6FE7B18
:1038F00071E72B8D2962EB83D3B103F1FF3B4FF0CE
:1039000001022A770B461FFA8BFB69620E468C4632
:103910000F4608460C460A465DE76B8DEB834FF079
:1039200002022A774FF0804292FBF3F36B6282E748
:10393000B5F82AB04FF0804393FBFBF35A145400C0
:103940001019171802EB070C02EB0C060BF1FF3BEA
:1039500091194FF002086B6285F81C801FFA8BFBEF
:10396000531838E703B0BDE8F08F019B2977534522
:1039700086D9CAF80010CAF80410CAF808100AF16B
:10398000100A53454AF8041CF3D879E772B6037F4E
:10399000012B0DD9C28E5AB1072B07D0036AC283FF
:1039A00007215B42017793FBF2F2426262B67047F5
:1039B000038DC3830022026223B101234262037795
:1039C00062B67047428DC28302214FF08043017777
:1039D00093FBF2F3436262B6704700BF72B6037F97
:1039E00053B1072B08D0036A828EC28306215B4243
:1039F000017793FBF2F3436262B670472DE9F84317
:103A00000021054601F0C4FD01210446284601F0CD
:103A1000B3FD0646BCB3D0B304F5827E231D9E459C
:103A200024D90C3004F10C0111E90C0050F8089C69
:103A300050F8048C12FB39FC2CF3CF3C12FB09F23A
:103A400022F3CF32C2EA0C4213FB38FC2CF3CF3CFA
:103A500013FB08F323F3CF33C3EA0C438E4501E98C
:103A60000C0000F1080001F10801DDD82846002211
:103A7000214601F067FD204601F03AFD3046BDE8E1
:103A8000F84301F035BD0028F9D1BDE8F8832046A0
:103A9000BDE8F84301F02CBD2DE9F04F83B0884616
:103AA000846A0190D0F81CC0D0F824A0C16A076BCA
:103AB000DDF8309008F580702646834638F902EB31
:103AC0004FEA0E3E5CFB17F401EB84045AFB17F53A
:103AD0007644C4EB6606A6EB85065CFB16F007EBA6
:103AE00080005CFB10F104EB81015AFB10F5C1EB87
:103AF0000E07A7EB85055CFB15F700EB87070C4469
:103B000024F34F34384420F34F30354425F34F35F8
:103B1000C34522F8024B764623F8020B29F8025BD4
:103B2000CCD1019A1346C3F828E0D162176303B0E1
:103B3000BDE8F08F2DE9F04F85B08846816901918D
:103B400001460C460390006A0290D1F824B08F6AB7
:103B5000206BC96ADDF838A0DDF83C9008F5807468
:103B6000009432F9026B029C06FB04F626F07845BD
:103B700005F10065ED0055FB15F5284C55FB14F5D6
:103B8000ED00013CF616C6F106062C443441019DB9
:103B900055FB14F4224D38F902CBAC42A8BF2C4699
:103BA00024024FEA0C3C54FB10F601EB86065BFB4B
:103BB00010F107EB0C0EC6EB6E0EAEEB810E54FB54
:103BC0001EF500EB850554FB15F106EB81015BFB4F
:103BD00015F0C1EB0C07A7EB800754FB17F405EBBE
:103BE00084000E4426F34F36054425F34F35BE447A
:103BF0002EF34F3E009C23F8026B44452AF8025BEB
:103C0000674629F802EBACD1039A1346C3F828C0E3
:103C1000D162106305B0BDE8F08F00BFABAAAA2A3D
:103C2000E71052002DE9F043002183B0044601F073
:103C3000A3FC01210546204601F09EFC0646002D0E
:103C40003CD001F001FC074600283CD001F0FCFB11
:103C50008046002842D001F0F7FB8146002851D071
:103C6000002E45D0021D08F1040301920093204666
:103C70003B1D321D291DFFF75DFF304601F038FC6A
:103C8000284601F035FC00223946204601F05AFC56
:103C9000384601F02DFC01224146204601F052FC3D
:103CA000404601F025FC20460222494601F04AFC2C
:103CB000484603B0BDE8F04301F01ABC0028F8D133
:103CC00003B0BDE8F083284601F012FC002EF7D0C7
:103CD000304603B0BDE8F04301F00ABC284601F0CD
:103CE00007FC384601F004FC002EE9D03046F0E72E
:103CF000031D00933A1D08F10403291D2046FFF718
:103D0000CBFEBDE7284601F0F3FB384601F0F0FB9F
:103D1000404601F0EDFB002ED2D03046D9E700BF7F
:103D20002DE9F8434FF00008064600F11805474614
:103D300041463046002F4FD001F01EFCF0B12C68F8
:103D4000B4F5803F07F1040100F1040E07F5827C11
:103D500027D05EF8042B34FB02F334FB12F903F393
:103D60000F0209F30F03C2EA03430A6893FA12F33E
:103D700041F8043B8C45ECD801F0BAFB08F101088E
:103D8000B8F1040F05F10405D2D1002F40D0304620
:103D90003946002201F0D6FB3846BDE8F84301F071
:103DA000A7BB07F10C0100F10C0451F8083C54F8D2
:103DB000082C93FA12F341F8083C54F8042C51F8FB
:103DC000043C93FA12F38C4541F8043C04F10804D6
:103DD00001F10801E9D8CFE701F0DAFB0746002836
:103DE000CCD02868B0F5803FC8D0391D07F5827463
:103DF0000B6830FB03F230FB13F302F30F0203F303
:103E00000F03C2EA034341F8043B8C42F0D8B5E704
:103E1000BDE8F8832DE9F84F344B35481A68354929
:103E200012681B790B70824229D2334B1B784BBB33
:103E3000DFF8D4A0DFF8D490DFF8D480DFF8D4B076
:103E4000DAF80060D9F80070B8F80040BBF800500C
:103E5000002E3CD0A7B33A1D311D02EB450201EB09
:103E6000440100F0DDFE403540347F2C1CD8A8F81A
:103E700000407F2D0BD8ABF80050BDE8F88FA0F5BF
:103E80008070D5E71D4B4FF080421A60D0E70024C8
:103E90003846ABF8004001F02BFB194B1A68C9F803
:103EA00000201C60BDE8F88F00243046A8F80040D0
:103EB00001F01EFB134B1A68CAF800201C60D8E7FB
:103EC000311D01EB440100F0CAFE4034CDE737B1AB
:103ED000391D01EB450100F0E2FE4035C5E73946EA
:103EE0004FF48072BDE8F84F07F0BCBEF8CEFF1F5C
:103EF0004093FF1F1F80004010CFFF1F08E200E02B
:103F00000CCFFF1F14CFFF1F08CFFF1F00CFFF1FD5
:103F1000F4CEFF1F04CFFF1F70B50021044601F04F
:103F20002BFB80B172B61C4A1368002B29D01B49A9
:103F30000D6805B31A4E156000220860328062B623
:103F4000184601F0D5FA2046012101F015FB88B191
:103F500072B6144A1368CBB113490C6874B1134D8F
:103F60001460002208602A8062B61846BDE87040DE
:103F700001F0BEBA70BD086062B6E4E7086062B6E0
:103F800070BD074910600B8062B6DCE7074910601E
:103F90000B8062B670BD00BF08CFFF1F14CFFF1F9C
:103FA000F4CEFF1F00CFFF1F0CCFFF1F04CFFF1F5A
:103FB00010B5044601F030FC204610BD284B2949BD
:103FC0001A68294842F400421A600A6842F0020264
:103FD0000A601A6842F002021A600368002B3EDB96
:103FE000224B1B68002B3ADB214A4FF086431360BB
:103FF0001368002BFCDBF0B51E4C1F48DFF8A8E06F
:104000001E491F4B1F4A204F204E214D41F2100CDC
:10401000C4F800C0002404600120CEF80000DFF8DE
:104020008CE0C1F800E04FF480311960194B136047
:10403000DFF87CE0184A3A603460286000F18E4076
:10404000CEF80000154CB9671548164946F8503CA3
:104050004FF4C0632A61236003600B60F0BD7047BA
:104060003C8004404080044000F0024080F0024068
:1040700000F1024004F1024060F0024008F002400A
:104080000CF0024010F0024014F00240E0F0024058
:1040900084F002401B1F0100001F1F1F08B00440D6
:1040A0000CB0044018B0044004F0024001000007C6
:1040B00088F00240F8B5274C274E2046012101F038
:1040C00047FB264A264B002515601D60FFF776FF4B
:1040D000244B254A25494FF4C0601860236802200C
:1040E0001A6098802279196102F1804202F5043247
:1040F00040F20117DF80DE604FF4807106278F26C3
:10410000D9829D82D9839D619F83986015701670B6
:1041100001F0C4FA2279164B1649187053119B000E
:10412000174603F160430F70134D144E144C02F107
:104130001000012103F5614302F01F0201FA02F2AF
:104140004FF080770F492F602C6046F820101A60DE
:10415000F8BD00BFF8CEFF1F00FEFFFF08CFFF1F16
:1041600000CFFF1F04B004404092FF1F22F0024026
:1041700010CFFF1F1B80004000F002400096FF1F81
:1041800001000090153E0000024A0349034807F071
:1041900037BA00BFFC9BFF1FB13F0000F8CEFF1FE6
:1041A000037E002B41D0012B2DE9F0413ED0044687
:1041B00001F04AF9054600285DD0A28B82BB638BD3
:1041C00004EB4303B3F92230291D05F5827647F647
:1041D000AE70002701E0A28B734604EB4202B2F9F5
:1041E00024E0734400FB03F31B1421F8023BA28B71
:1041F000B4F81AC004EB4208013292B29445A8F810
:104200002430A28398BFA783B142E4D12046294637
:10421000002201F097F92846BDE8F04101F068B9A5
:1042200004EB4203B3F92230CEE77047134C428BC4
:104230002368E2B11132D0F820C000EB420E00F149
:10424000220644F2A71717FB13F10D4D9AB2CB0BC0
:10425000090407FB02330D402B4423F0004202EB1C
:10426000D3733CFB03F226F8022FB645EBD10222B2
:10427000236002769BE72076BDE8F081A89DFF1FB2
:104280000000FF7F2DE9F04FC56A83B015B903B078
:10429000BDE8F08F064601F0D7F8014601900028EE
:1042A000F5D006F11C0292E8041401F1040EB36982
:1042B000F44FF54801F58271009196F82810F34CFF
:1042C000DFF8CC9314F80180DC1704EA090989EAC5
:1042D000430382EA0A0909EA080908EA040403F028
:1042E0003F0862408AEA090AC3F3851457F8288018
:1042F00050F82440CAEB0209CC440131E04486F86E
:104300002810A04435FB08F8E149DC17214081EA78
:10431000430302F4006903F03F0104F400642AF44B
:10432000006A624049EA0A0AC3F3851B57F8214034
:1043300050F82B10CAEB0209CC446444214435FBED
:1043400001F1C8EA0144D249CEF80040DC1721400F
:1043500081EA430302F4806803F03F0104F48064BF
:104360002AF4806A624048EA0A0AC3F38519CAEB54
:10437000020857F8214050F82910C4440CEB0408F7
:10438000884435FB08F8C249DC17214081EA430321
:1043900002F4006903F03F0104F400642AF4006AA7
:1043A000624049EA0A0AC3F3851B57F8214050F8D6
:1043B0002B10CAEB0209CC446444214435FB01F1C3
:1043C000C8EA0144B249CEF80440DC17214081EA32
:1043D000430302F4007803F03F0104F400742AF46C
:1043E000007A624048EA0A0AC3F38519CAEB020858
:1043F00057F8214050F82910C4440CEB04088844B5
:1044000035FB08F8A249DC17214081EA430302F496
:10441000006903F03F012AF4006A04F40064544088
:1044200049EA0A0AC3F38512CAEB040957F82110B6
:1044300050F82220CC4461440A4435FB02F2C8EA19
:104440000241934ACEF80810D9170A4082EA430382
:1044500004F4806803F03F0201F480612AF4806A6A
:104460004C4048EA0A0AC3F38519CAEB040857F816
:10447000221050F82920C4440CEB0108904435FB6D
:1044800008F8834AD9170A4082EA430304F4006912
:1044900003F03F022AF4006A01F40061614049EA36
:1044A0000A0AC3F3851B57F8224050F82B20CAEBA9
:1044B0000109CC446444224435FB02F2C8EA0242BA
:1044C000734CCEF80C20DA17144084EA430301F44D
:1044D000807802F4807203F03F042AF4807A51401D
:1044E00048EA0A0AC3F38512CAEB010857F82440C8
:1044F00050F82220C4440CEB0408904435FB08F823
:10450000634CDA17144084EA430301F4006903F0B2
:104510003F042AF4006A02F400624A4049EA0A0AA7
:10452000C3F38511CAEB020957F8244050F8211053
:10453000CC446444214435FB01F1C8EA01445449A8
:10454000CEF81040DC17214081EA430302F4806872
:1045500003F03F0104F480642AF4806A624048EA70
:104560000A0AC3F38519CAEB020857F8214050F82C
:104570002910C4440CEB0408884435FB08F844496E
:10458000DC17214081EA430302F4006903F03F0194
:104590002AF4006A04F40064544049EA0A0AC3F3A6
:1045A0008512CAEB040957F8211050F82220CC4498
:1045B00061440A4435FB02F2C8EA0241344ACEF8AB
:1045C0001410D9170A4082EA430304F4007803F078
:1045D0003F0201F400712AF4007A4C4048EA0A0ACA
:1045E000C3F38519CAEB040857F8221050F82920A4
:1045F000C4440CEB0108904435FB08F8244AD91751
:104600000A4082EA430304F4006903F03F022AF4FB
:10461000006A01F40061614049EA0A0AC3F3851B9C
:1046200057F8224050F82B20CAEB0109CC446444CF
:10463000224435FB02F2C8EA0242154CCEF818209B
:10464000DA17144084EA430301F4806802F48062BC
:1046500003F03F042AF4806A514048EA0A0AC3F38F
:104660008512CAEB010857F8244050F82220C444B0
:104670000CEB0408904435FB08F8054ADC1722408F
:1046800008E000BFC4C70000C4C80000C4C60000E2
:104690000100004682EA430301F4006904F4006269
:1046A0002AF4006A03F03F044A4049EA0A0AC3F3C5
:1046B0008511CAEB020957F8244050F82110CC4468
:1046C0006444214435FB01F10EF1200EC8EA01419A
:1046D0004EF8041C009971453FF6EFAD019CF26164
:1046E0003046C6F820A0C6F824C0B3610022214697
:1046F00000F028FF204603B0BDE8F04F00F0F8BE00
:104700002DE9F04F83B0064600F09EFE0190002890
:1047100000F0848000F58279031DB6F92E10009117
:10472000994565D9871DDFF8FCE008E04FF00003EC
:1047300027F8023C3B46994507F1020758D9F3692F
:104740004FF6FE729342F1DD326A9B1AF36113FB5E
:1047500033F3716B306B491033FB01F18913C200E5
:1047600032FB01F1726A02440A4422F000424FEA2D
:10477000D25CC2F3CF147262009A322A0CF1010AA1
:1047800042DDB26A3EF91C503EF91AC0024402EB07
:104790005000084400EB610121F00041CA0D02F114
:1047A00001083EF912003EF91820B162121AC1F355
:1047B000CF1101FB02F2C5EB0C0CB6F92E10B6F9C5
:1047C0002C8004FB0CFC00EB224205EB2C4C01FB83
:1047D00002F208FB0CFCD21302EBEC3833FB08F3BB
:1047E000DB1327F8023C3B46994507F10207A6D8A0
:1047F000019C30460022214600F0A4FE204603B072
:10480000BDE8F04F00F074BE3EF91C203EF91A10CE
:10481000891A04FB01F802EB2848DFE703B0BDE882
:10482000F08F00BFF4C9000038B50D4604460021E2
:10483000284606F077FE48B94FF07E51284606F02C
:104840008FFE30B14BF6FD73636338BD0D4B636370
:1048500038BD0D49284606F0C7FC06F08BFEB0F5C2
:10486000804F08DAC0F5804000EB400040F3910330
:104870005B42636338BDA0F5804000EB400040F32D
:104880001103E1E700D0FFFF00FEFF46036A2DE9B8
:10489000F04780464BB9D8F81830D8F81C2003EB05
:1048A000C213C8F81830BDE8F08700F0CDFD064609
:1048B0000028F0D0D8F81890D8F81C70D8F820C08C
:1048C000134D4946841C00F5817E0B0E5A1C35F9A8
:1048D000130035F91220C1F30F2ACAF5803300FB0B
:1048E00003F30AFB023353FB0CF324F8023FA64503
:1048F0003944EAD109EBC7174046C8F81870314669
:10490000002200F01FFE3046BDE8F04700F0F0BD89
:10491000F4C900002DE9F84FB0F918300BB9BDE823
:10492000F88F044600F090FD05460028F7D0B4F952
:104930002C30061D072B32D8DFE813F066009000FC
:10494000A700B9000800D600E9004C00D4F830C038
:10495000BCF1000F39D0E06905F58278B646C10D8B
:104960004A1CC0F3CF13D2B23CF911A03CF912108B
:10497000B4F91820A76AC3F57F4909F1FF0909FBBB
:104980000AF903FB01931B1402FB03F3DB132EF85C
:10499000023B3844C64520F00040E0D1E061B4F964
:1049A0002E206AB105F5827101E0B4F92E20B6F926
:1049B0000030134403F30F0326F8023BB142F4D84E
:1049C00020460022294600F0BDFD2846BDE8F84FEC
:1049D00000F08EBDE36900F58278374608E0B4F94F
:1049E0002400A26A27F8020B13444745E361D6D09E
:1049F000A26A9A42F3D9B4F91810484200F0D4FFE1
:104A000000B2E369A084ECE74A4F00F5827E3046AD
:104A1000E369B4F91810D4F828804FEAD35CC3F3E3
:104A2000CF1B37F91C900CF1010CCBF57F4A0AF132
:104A3000FF0A37F91CC009FB0AF20BFB0C22121407
:104A400001FB02F2D21320F8022B13EB080348BF3C
:104A500023F000437045E361DAD1A0E7E26900F595
:104A6000827E3146B4F91870A06A42F3CF3303FB5B
:104A700007F3DB1321F8023B71450244F2D1E261F6
:104A8000B4F92E20002A8DD19AE7E269831D00F542
:104A9000837051004ABF218BB4F91810494223F8A2
:104AA000021CA16A023398420A44F2D1E7E7E169A5
:104AB00000F5827E30460029B7BF238BB4F9182059
:104AC0005B421AB24F004FEA810348BF5B425B0C66
:104AD00002FB03F3DB13A76A20F8023B704501EBEE
:104AE0004701E8D1E1615AE7E269276A831D00F5D1
:104AF0008370BA4236BF218BB4F91810494223F8AB
:104B0000021CA16A023398420A44F2D1B7E7E26973
:104B100000F5827E3146B4F91870A06A42F3CF33B3
:104B200003FB07F3DB1321F8023B7145A2EB000204
:104B3000F1D1A4E7F4C900002DE9F84385690DB966
:104B4000BDE8F883064600F07FFC04460028F7D055
:104B5000F369043004F5827744F2A71111FB13FEC8
:104B6000DFF8B8C09AB24FEADE334FEA0E4E01FBCF
:104B700002330EEA0C0C634423F0004202EBD373C1
:104B800035FB03FE11FB13FC244A4FEA0C4808EAEC
:104B9000020202EBDC329BB201FB032323F0004252
:104BA00002EBD37335FB03F2CEEA024E11FB13FC8A
:104BB0001A4A4FEA0C4808EA02029BB202EBDC32C6
:104BC00001FB032222F0004303EBD27235FB02FC0F
:104BD00011FB12F8114B4FEA084909EA030303EBF2
:104BE000D83392B201FB023222F0004303EBD273BE
:104BF00035FB03F2CCEA024240F808EB874240F86A
:104C0000042CABD83046F3612146002200F09AFC18
:104C10002046BDE8F84300F06BBC00BF0000FF7FFA
:104C20002DE9F04F00F5807EB1E8A00AB2E840150A
:104C3000C5EA0643C6EA2544C7EA0845C8EA274646
:104C4000C9EA0A47CAEA2948CBEA0C49CCEA2B4A06
:104C5000A0E8F8078645E7D1BDE8F04F70474FF070
:104C600000022DE9F00F00F5807C00BFB1E8A00A3A
:104C7000C5EA0203C2EA2544C7EA0205C2EA27469A
:104C8000C9EA0207C2EA2948CBEA0209C2EA2B4A6A
:104C9000A0E8F8078445E9D1BDE8F00F70474FF070
:104CA00000022DE9F00F00F5807C00BFB1E8A00AFA
:104CB000C2EA0543C2EA0504C2EA0745C2EA07069A
:104CC000C2EA0947C2EA0908C2EA0B49C2EA0B0A6A
:104CD000A0E8F8078445E9D1BDE8F00F70472DE959
:104CE000F00F089C00F5007B51F8045B53F8046B4F
:104CF000C5EA0647C6EA254952F8045B54F8046B36
:104D0000C5EA0648C6EA254AA0E880078345EBD1F4
:104D1000BDE8F00F704700BF0020704790F83920C1
:104D200090F83800101A704790F8383090F8392011
:104D30009A4205D95A1C034480F83820187E7047DF
:104D40004FF0FF30704700BF90F8383090F83920AE
:104D50009A4286BF1B18187E4FF0FF30704700BF85
:104D6000704700BF38B50546B0F85E0090B195F8C1
:104D70005D301446C3F1210294420CD805F13B008A
:104D80001844224602F09EF995F85D30234485F8D8
:104D90005D30204638BD012014462871EEE700BF83
:104DA000B0F85E306BB190F85D30202B07D8C21898
:104DB000013380F85D30012082F83B1070470123F9
:104DC00003710020704700BF0023426980F838302B
:104DD00080F8393080F85C3080F85D3080F85E30E3
:104DE00080F85F3006CA30B40D68046943662A4310
:104DF00083660A60A370426990F8613016491468AE
:104E000013441D7A5B7B01EBC5051B026D6803F43F
:104E1000E06343F064032B6090F8623013449D7CA0
:104E2000DB7D01EBC5011B02496803F4E06343F03D
:104E300064030B6021685368194205D00369272277
:104E40005A70036904229A71036920225A71036916
:104E500080229A7030BC704788CC000010B502697F
:104E6000D378DBB2D90604463DD510215806D1705F
:104E700038D503F0040303F0FF02002B51D03D4965
:104E8000626E00230B7084F85D30002A5BD090477F
:104E900094F85D30002B56D02369D0229A70236994
:104EA00094F83B201A712369012284F85C200222C5
:104EB000DA7010BD304B84F860009C424AD02F4B12
:104EC0009C4252D094F8391013791F29DBB207D8CD
:104ED0002848007820B16018013184F83910037631
:104EE0000223D37010BD5906C3D4917801F010018C
:104EF00001F0FF000029DDD013F001031ED194F86A
:104F00005C1094F85D00884281BF4B1C091984F83D
:104F10005C3091F83B3013712369D0229A7022697A
:104F2000DEE7236984F83920C0229A702369114A88
:104F30001979012111700222DA7010BDC02393701B
:104F400022691379CCE70122002384F85D2084F8DC
:104F50003B30A1E7626994F86130094913440322A8
:104F6000187A00F047FE2269ACE7626994F8613074
:104F70000449F3E71CCFFF1FAC9DFF1F189EFF1FC6
:104F8000E54F0000F14F00000369DB7803F02003D8
:104F900073B190F860300133DBB2012B80F86030E0
:104FA0001AD9426990F861301344187A00F09EBE15
:104FB00070B5426903F0FF0590F861301344044670
:104FC000187A00F093FEA36E5BB184F8385094F821
:104FD0003900BDE87040184790F85F30002BE0D0F2
:104FE000704770BD0148FFF7CFBF00BFAC9DFF1FEA
:104FF0000148FFF7C9BF00BF189EFF1F2DE9F0470A
:10500000374FDFF8E0903B68026982B006460093B4
:10501000DDF800800021A025D3789B065BD53B6896
:105020000193019BC8EB03030F2BF5D949B1102B5A
:10503000F2D000209070336980229A7002B0BDE8EF
:10504000F087726996F8613013440521187A00F0F0
:10505000B7FE726996F861301344012193F812A0EB
:10506000504600F0ADFE09240021504600F094FEA9
:105070002B46013BFDD10121504600F08DFE2B4611
:10508000013BFDD1013CEFD1706996F861100144FC
:105090004FF4A0720C7A4B7B09EBC4011B024968E8
:1050A00003F4E06343F064030B6096F8623003445A
:1050B000997CDB7D09EBC1011B02496803F4E063C5
:1050C00043F064030B60013AFDD13269D3789B064B
:1050D0004FF00101A3D4012002B0BDE8F08700BF6A
:1050E000E4CFFF1F88CC0000F0B503691222DA700C
:1050F0000269937803F0200385B004460D46002B27
:105100005ED0B42393703C4922690B680093009EE3
:1051100005E00B680193019B9B1B042B42D8D378BD
:1051200003F0200303F0FF00002BF2D094F85D3071
:10513000002B31D04FF0000E4FF0020C04EB0E03A9
:1051400093F83B3013710B680393039F206907E0CA
:105150009B060DD50B680293029BDB1B052B28D801
:10516000C378DBB203F0020202F0FF06002AEFD0A0
:1051700080F803C02669F378DBB2DF0632462DD40F
:105180009F062BD5DB0731D40EF1010E94F85D306C
:105190005FFA8EFE7345D1D800201DBB002384F832
:1051A0005E3004E09070236980229A70042005B07C
:1051B000F0BD86702369802204209A7005B0F0BD8E
:1051C00003F0FF06FFF71AFF10B9042005B0F0BD89
:1051D000236984F85F60B0229A7094E78023B370EB
:1051E0000420DAE726698023B370D7E7BEF1000F09
:1051F0000CBF02200320F6E7E4CFFF1F0148FFF7B2
:105200002DBE00BFAC9DFF1F0148FFF727BE00BFAA
:10521000189EFF1F70B50468002C05460E46C8BFD7
:10522000641807DD14F8012D2979287A00F0CEFDE5
:10523000A642F7D1287B2E61012100F0ADFD287B2D
:105240000021BDE8704000F0A7BD00BF2DE9F0418E
:1052500004465FFA83F8069D4360D6B221600F468C
:10526000826001214046E56000F0AAFDEDB23046C3
:10527000012100F0A5FD2846012100F0A1FD4046D6
:10528000002100F089FD3046002100F085FD284610
:10529000002100F081FD3846012106F0B7F90146F2
:1052A00020612046FFF7B6FF2046BDE8F08100BF31
:1052B000012A30B40A4615D01A4B0569002903EAC1
:1052C0000103B8BFCA1D002B4FEAE2021FDBA95C35
:1052D000012404FA03F321EA0303AB54016930BC4F
:1052E000FFF798BF0F4B0569002903EA0103B8BF18
:1052F000CA1D002B4FEAE2020EDBA95C012404FA6E
:1053000003F30B43AB54016930BCFFF783BF013B90
:1053100063F007030133DAE7013B63F0070301336E
:10532000EBE700BF0700008000220A2181800260B5
:105330008271C271704700BF30B5CDB283B00446F0
:10534000C571284600F02EFD00232846A37100F009
:1053500029FD08B10323A371034B1B680193019B33
:10536000236003B030BD00BFE4CFFF1F81807047D2
:10537000F0B5044685B0C07900F014FDA279003084
:1053800018BF0120C2F3400102F0F7038842A37165
:105390000BD0124A1268019283F00203019AA371A2
:1053A0002260C3F3C00005B0F0BD0C4D276829682A
:1053B00002910299A688C91BB142F2D302F0010200
:1053C0009042EED02A68039283F00903039AA371F6
:1053D000C3F3C000226005B0F0BD00BFE4CFFF1FE3
:1053E000807900F001007047C029F0B428BFC021C7
:1053F00072B6124B124E134A1860002313803360AA
:105400007360B360F36033617361012799B15D0923
:1054100003F01F0456F8252007FA04F40133224351
:105420008B4246F82520F2D10023438001338B4282
:1054300000F58270F9D162B6F0BC7047B0CFFF1FA3
:10544000B8CFFF1FD2CFFF1FF0B472B6234F244E48
:105450003C8806F1180306EB8400984212D256F8F5
:10546000241099B9021D06F11B05631CAD1A03EB4C
:10547000950503E052F8041B41B90133AB421C46C9
:105480001046F7D162B60020F0BC7047B1FA81F344
:105490004FF00042DA4021EA0201016001B9013413
:1054A00010493C800A88013294B20C8062B6801B9D
:1054B0008010C3EB401000EB801083000A480B49BA
:1054C000006803F5FB531C330125C5540D88AA421F
:1054D000184488BF0C80F0BC704700BFD2CFFF1FBC
:1054E000B8CFFF1FD4CFFF1FB0CFFF1FACCFFF1F20
:1054F000428872B60378012B03D9013B037062B670
:105500007047531170B40C4C0C4D54F823102E8876
:10551000D2434FF0004002F01F0220FA02F2114382
:10552000074A44F82310B34238BF2B801388013B4D
:10553000138062B670BC7047B8CFFF1FD2CFFF1F79
:10554000D4CFFF1FC368B3B130B401E0DB688BB1C7
:10555000187A9042FAD158685C7A006950F8245061
:10556000002DF3D140F82410087801300870DB6872
:10557000002BEDD130BC7047437A8B4206D90369CA
:10558000002253F8210043F8212070470020704783
:1055900038B5437A8B421AD9036953F82140002267
:1055A00043F821209CB12378012B0ED9FFF74CFF43
:1055B000054628B14FF48072211D043001F082FDB0
:1055C0002378013B2370284638BD204638BD002093
:1055D00038BD00BF037C23BB4368427A5B7A9A42A2
:1055E0001FD830B472B60468E3682BB3DA6832B1FE
:1055F00019688C4216D01346DA68002AF8D1D860B0
:105600000023C360A37A0133A372026841680123B7
:1056100013728A7A1A448A7242681372037462B6E9
:1056200030BC70475D6841688D42E4D119890389B7
:105630009942F4D01346DFE7E060E1E7037C4BB327
:105640004368427A5B7A9A4224D872B60268D36879
:1056500003B3984202D11EE0984202D0DB68002BCF
:10566000FAD14368427A1B69002143F8221002688C
:10567000937A013B937203689A7A02B91A7242686C
:10568000937A013B937243689A7A02B91A720023A3
:10569000037462B67047C368D360E2E7084B1A78B8
:1056A00062B930B407480849D02505704FF08044EE
:1056B00001220C6010461A7030BC70470020704701
:1056C000B4CFFF1F5EE400E008E100E01A491B4A86
:1056D0001B48F8B50B681B4D046843F080730B60E2
:1056E000136843F0010313602E6814B915E0646970
:1056F0009CB1237A002BFAD023682F681B682046C0
:1057000098472B68E188DB1B1B099AB28B42A28069
:1057100088BFE2806469002CEBD10A4B0A4A1B68FF
:1057200010880A4C9B1B1B0999B28342218001D926
:105730001180F8BDF8BD00BFFCED00E0001000E0F6
:10574000A8CFFF1F041000E0D0CFFF1FD6CFFF1F50
:10575000F0B572B699B902688AB103790F2B0ED8E9
:10576000274C218841FA03F5ED070AD503F10073B0
:1057700003F59063B2EB431F03D162B6F0BD204C3A
:105780002188002341FA03F212F0010207D001330D
:10579000102BF7D162B6002203710260F0BD012523
:1057A0009D402943218062B6164E174D174FDFF8F2
:1057B00064E0D9B20171346844F0020434602C68AA
:1057C00044F002042C60A6F580268224A5F58025ED
:1057D00003F100733C6003F59063223E243D0C4CC2
:1057E0008EF800105B0131702970217003601A601F
:1057F0005A609A60DA601A615A619A61DA61F0BDA2
:10580000D8CFFF1F408004403C800440008000400F
:105810001F8000401A80004003790F2B11D8094ADD
:1058200010B4137072B6084904790A880123A340A2
:1058300022EA03030B8062B61022002310BC02711F
:10584000036070471A800040D8CFFF1F08B5FAF7F1
:10585000EFFEFCF7C7F900F0B1F8FAE700B5064A29
:10586000036812885B6883B001A9ADF804200222A6
:10587000984703B05DF804FB5CCC0000F0B5074628
:105880008BB0002A33D0012A08BF0A2251B3212449
:1058900000E0F4B2B1FBF2F502FB1511C8B2092920
:1058A00000F1300198BFC8B20AA988BF373021443F
:1058B00088BFC0B201F8240C661E2946002DE8D12D
:1058C00033B1013CE4B20AAB23442D2203F8242C6B
:1058D0003B6801AA11195B683846C4F12202984757
:1058E0000BB0F0BD30228DF825202124E8E70368B5
:1058F000C9B21B6898470BB0F0BD00BF0029BABF02
:1059000049422D2300230A22FFF7B8BF01F0BABA9B
:1059100001F092BA01F06CBA01F0A6BA01F082BBB4
:1059200001F05CBB0846114601F0C8BA084601F018
:1059300049BB00BF704700BFF0B5164D2A680AB3D7
:105940001549164BDFF85CE082FB016781FB02140E
:10595000D617D1191444C6EB2141C6EB244403FBEE
:1059600004F40EFB112244F2A71303FB0243002BA5
:1059700002DA03F10043013BB3FBF0F22B6000FBC2
:105980001230F0BD064B2B60B3FBF0F200FB12307F
:10599000F0BD00BFDCCFFF1F5F0B4E83ECF4FFFFB9
:1059A00042CE0C1F1DF30100884206DA10B50446F2
:1059B000081AFFF7C1FF204410BD704738B5224CCC
:1059C000237803B138BD0123237001F04DFA70BB79
:1059D00000F0E0FA40BB00F073FB10BB00F006FCE7
:1059E000E0B900232370EFF30583002BEAD1EFF336
:1059F000108172B6154B1868E0B1154C2278CAB9FF
:105A000045691D6001232370C5B1AA6101B962B661
:105A100000254577836898472570D3E701F0E8FCB7
:105A2000DFE701F0E3FCD9E701F0DEFCD3E7FFF7A5
:105A300081FFCDE70029C5D162B638BD054B1D6099
:105A40000029E5D1E3E700BFE0CFFF1F80D2FF1FB1
:105A500084D2FF1F7CD2FF1F08B5104C08E02368DA
:105A600059050DD423681A050FD42368DB0411D41B
:105A700023685803F3D500F0EDFC23685905F1D5F0
:105A800000F098FA23681A05EFD500F029FB236887
:105A9000DB04EDD500F0BAFBEAE700BF3480044038
:105AA00008B5FFF7D9FF00BF014B10221A807047DD
:105AB00000200540704700BF094908B50B6830B1A8
:105AC0006A461844A2F58052904202D208601846F5
:105AD00008BD05F0D9FD0C2303604FF0FF3008BD71
