:1000000000800020BD010000655900001D5900005E
:100010001D5900001D5900001D5900001D59000008
:100020001D5900001D5900001D59000065590000B0
:10003000655900001D590000C16E0000C56F000029
:1000400065590000655900006559000065590000B8
:1000500065590000655900006559000065590000A8
:100060006559000065590000655900006559000098
:100070006559000065590000655900006559000088
:100080006559000065590000655900006559000078
:100090006559000065590000655900006559000068
:1000A00015500000215000006559000065590000FE
:1000B0006559000065590000655900006559000048
:1000C0006559000065590000655900006559000038
:1000D0006559000065590000655900006559000028
:1000E0006559000065590000655900006559000018
:1000F00065590000795E000065590000A55F0000A9
:1001000065590000D1600000655900006559000084
:1001100065590000655900006559000065590000E7
:1001200065590000655900006559000065590000D7
:1001300065590000655900006559000065590000C7
:1001400065590000655900006559000065590000B7
:1001500065590000655900006559000065590000A7
:1001600065590000B1620000655900006559000042
:100170006559000065590000655900006559000087
:100180006559000065590000655900006559000077
:100190006559000065590000655900006559000067
:1001A0006559000065590000655900006559000057
:1001B0006559000065590000E5540000564B4CF2AB
:1001C000205210B51A804DF628121A8000BF00BFC9
:1001D00005F0CCFB514B4FF010621A60504A9A6008
:1001E000504ADA60504A136813F4807304D14F49BF
:1001F0000B604FF4A85313604D4B1A78110703D5C9
:100200001A7842F008021A704A4B4B492A221A7097
:100210004A4A4B4B8B4204D252F8040F43F8040B6A
:10022000F8E7484B484900228B4202D243F8042B9E
:10023000FAE74649464A002352F8230041F82300D2
:1002400001336F2BF8D1434B434A802103F8011B44
:100250009342FBD1414B3D4A1A60414B8A221A70AE
:10026000A3F5805324225A70A0221A709A7992071B
:10027000FCD59A79D406FCD43A4A937903F00C035E
:10028000082B384BF9D103221A7140225A719A79FE
:100290009006FCD5334A9179324B4906FBD5324A58
:1002A000324911600221516020221A709A7902F0BD
:1002B0000C020C2AFAD12E4B2E4A1A602E4B2F4AD2
:1002C0001A6000225A60072243F8042C2C4AC3F813
:1002D0000C2D62B605F050FD144B1B68DA0705D5EE
:1002E000284805F0A9FC284B284A1A60284B1B789F
:1002F0005B0609D5244C254B22689A4204D121483B
:1003000005F09AFC002323600AF0E0FF05F034FBBF
:1003100005F0A8F9FEE700BF0E200540308004403C
:10032000823F04000100002B10D0034014D0034092
:1003300002D0074000E00740D8A9FF1FFCD9000009
:10034000209BFF1FD8A9FF1FC4D4FF1F0096FF1FCB
:100350000000000000E400E05FE400E008ED00E0E1
:100360000050064000400640448004400000030165
:1003700004800440C010050014E000E0FF76010096
:10038000000020202106EB5B1CE00340A5C3945A2B
:1003900000F00740FFFFFFFFFFFFFFFFFFFFFFFF32
:1003A000FFFFFFFFFFFFFFFFFFFFFFFFFFFFFFFF5D
:1003B000FFFFFFFFFFFFFFFFFFFFFFFFFFFFFFFF4D
:1003C000FFFFFFFFFFFFFFFFFFFFFFFFFFFFFFFF3D
:1003D000FFFFFFFFFFFFFFFFFFFFFFFFFFFFFFFF2D
:1003E000FFFFFFFFFFFFFFFFFFFFFFFFFFFFFFFF1D
:1003F000FFFFFFFFFFFFFFFFFFFFFFFFFFFFFFFF0D
:10040000FFFFFFFFFFFFFFFFFFFFFFFFDEF9FFFF23
:1004100010B5054C237833B9044B13B10448AFF33E
:1004200000800123237010BDD8A9FF1F0000000029
:1004300000DA0000084B10B51BB108490848AFF3BB
:1004400000800848036803B910BD074B002BFBD0A0
:10045000BDE81040184700BF00000000DCA9FF1FE6
:1004600000DA0000D8A9FF1F0000000010B5044604
:1004700004F0F0FF204610BD1F4B10B45A6C1368F7
:10048000506819780478507A137A044201EA03011B
:100490001AD0937A03F0030309B143F0040343F045
:1004A00008039910013B91720D2B0BD8DFE803F084
:1004B0001E0719070A141E1E140A0719071ED368FF
:1004C000013BD36010BC7047937A03F0030300290B
:1004D000E7D043F00403E4E7D36810BC023BD360E9
:1004E0007047D36810BC0233D3607047D36810BC28
:1004F0000133D360704700BF0CD1FF1F1F4B10B4F6
:100500001A6D1368506819780478507A137A044287
:1005100001EA03011AD0937A03F0030309B143F00F
:10052000040343F008039910013B91720D2B0BD883
:10053000DFE803F01E0719070A141E1E140A071924
:10054000071ED368013BD36010BC7047937A03F059
:1005500003030029E7D043F00403E4E7D36810BCA9
:10056000023BD3607047D36810BC0233D36070473E
:10057000D36810BC0133D360704700BF0CD1FF1F9C
:10058000002310B4104C4172026104600372C36016
:1005900041B1194600E0026942F82310427A013362
:1005A0009A42F8DC094B1A680AB90BE01A465369FB
:1005B000002BFBD15061002343618380C380837291
:1005C00010BC70471860F6E7BCC5000094D1FF1F4F
:1005D0000A7AF0B48D88CC88C480858002724A7A09
:1005E00042728A7A8272CF680E694D698A690F4CAD
:1005F000C76006614561046082610A7F0277CA8B29
:100600000F6A4E6A0D8D4C8DC2838A8D07624662D9
:1006100005854485CE8D0D6B8C8E8285CA8EC286F3
:10062000C68505638486F0BC704700BF94CB00008C
:100630002DE9F0411021AA48AA4EAB4DDFF898836E
:10064000AA4F04F0DDFDAA4802F0C8FF5A21A848CD
:1006500003F060F8A749A84AA84BA948886243F666
:10066000FF740C8314831C83A648A74C90629C6281
:100670000024DFF868E3F4610326A4488E85CC618A
:10068000DC61A3499E85A34BEB61CEF81C304FF48F
:100690008A73DFF84CE343858385C38583864B8566
:1006A0008B85CB858B864CF6CC439B4DCEF8183092
:1006B0009A4B9685D4614FF080420263AB619848B3
:1006C0000A63A3F55A63EB61C5F824809549964DFA
:1006D000C561964B9648DFF80CC3964DC8619649A4
:1006E0009648D96142F25003ACF82A309449DFF8B9
:1006F000F8E26B852A63AB86924D4385026383865D
:100700009148CCF830204B850A638B86AEF82A30AE
:100710008E49CEF83020AEF834302A63DFF8CCE2D0
:100720008B4A6B85AB864FF480358561C561056268
:100730004FF40040ACF834308D61CD610D629561AD
:10074000D561CEF82C0008234FF40062814982481D
:1007500003F08EF8814BDFF898E28148C3F818E087
:10076000AEF5DA7E7F49C3F81CE0C3F82480DFF8D9
:1007700084E2C0F828E047F6FF787B4AC4618685AA
:10078000A0F8188079488862CC618E857848A1F8F5
:1007900018807849916278498561C56146F2666042
:1007A000086200F15B7000F6E200A2F81880D461E4
:1007B0009685C861714A72499161A1F5B731714B53
:1007C000DFF834C29E85A1F5F871D1614FF0005178
:1007D00051626D4E6D4ACCF81C20A3F81880DC6184
:1007E0009E626B4A6B4B6C4E9A61A2F57C52183A32
:1007F000DA616A4ADFF804E25A626949694D6A4A75
:10080000F2616A4B6A486B4ECEF81C304FF40062BE
:10081000C8610123EE614F49674803F029F8674B2F
:1008200067491D6828460AF0E7F90021A7F81880F3
:1008300006460AF087FC002840F0438161493046B3
:100840000AF09EFC002840F02B815F4930460AF0F8
:10085000DBFA4FF07C510AF0CFF90AF0C1FC022319
:100860000026B862BB855949FE6128460AF0C4F9E2
:10087000574C47F6FF730021238307460AF062FCBA
:10088000002840F022814F4938460AF079FC0028C0
:1008900040F00A814C4938460AF0B6FA4FF07C51D4
:1008A0000AF0AAF90AF09CFC4A4EA06247F6FF72D1
:1008B00000270223002128463283E761A3850AF03E
:1008C00041FC002840F0FF803E4928460AF058FCD1
:1008D000002840F0E7803C4928460AF095FA8FE06E
:1008E0000082FF1FC0CEFF1F18B3FF1F48C7FF1FA6
:1008F00078CEFF1F9CCBFF1FD0CBFF1F04CCFF1F68
:10090000D72E6D00D0FA8100080FAD0060B6FF1F32
:100910008CABFF1FC09C8D0298B6FF1F6804BC0201
:10092000E4CAFF1F08CBFF1F2599C2002CCBFF1F75
:100930005A13F80030CFFF1F9227230104ACFF1F8A
:10094000C4ADFF1F70CCFF1FACAAFF1FE4CFFF1F79
:1009500008CEFF1F48B7FF1F70B4FF1F40C8FF1F1E
:100960007CCFFF1FB0CFFF1F94CDFF1FCF6533009B
:10097000D8B5FF1FAF333D00BCD0FF1F00ADFF1F38
:10098000400D34081CD0FF1F586B3B0080391B05FD
:1009900000B28E0424B5FF1F50D0FF1F00B76D5B5F
:1009A00098D0FF1FDCACFF1FA011DA00825D0301AD
:1009B000B98881006F319A0080B3FF1F9C9DFF1F93
:1009C0006666EE41A655AC464B243E47CDCC2E4242
:1009D0007CC7FF1FB0C7FF1FD0CCCC0C50ABFF1F94
:1009E00028B4FF1F70CAFF1F40CEFF1FCCCCFF1FD3
:1009F00034025E01CCD92800DCABFF1F74D0FF1F8E
:100A00004FF07C510AF0F8F80AF0EAFBB0620223DA
:100A100028460025B3852F49F5610AF0EDF82E4CE4
:100A200047F6FF730021238306460AF08BFB00285C
:100A30004DD12A4930460AF0A3FB002836D0284879
:100A4000284A294DDFF8BCE0284B294EA062C2F8A5
:100A500018E0284FDFF8B0E02748C5F818E000217B
:100A6000D76156626E624FF48032E86146F2666783
:100A7000022610205F62E1619A61DA611A62A6853E
:100A800005F000F90121102005F0E8F810211B48BD
:100A900004F05EFB0A211948BDE8F04104F072BB86
:100AA0000F48DCE60E48B1E70D48FDE63046144934
:100AB0000AF0AAF94FF07C510AF09EF80AF090FB78
:100AC000BEE72046CBE63846A0E73046ECE62846AF
:100AD000B6E700BFCDCC0441E4C7FF1FA655AC4626
:100AE000C0FFFF3FCCC8FF1FD4B6FF1F8CACFF1F59
:100AF00000B76D5B509D3208E43AA503C0CCFF1FE0
:100B00004B243E47400D3408345BA5032DE9F047E4
:100B1000964C2378002B39D195490B7C012B40F260
:100B20009F8072B6CB6862B6924EDFF874E232688C
:100B3000002BB8BF03339B10002A47D00322CEF806
:100B40000C208D488D4D0268934204D02F78002FE1
:100B500047D103601A46002A04DD72B60023CB6039
:100B600062B603602B78002B34D1854D00682A686B
:100B7000814F5EF82230DFF8FC81DFF824C2C0F13B
:100B8000000E46F822E05E42B04248DB7D4804F0A9
:100B9000FBFA08B9BDE8F0877A4804F02DFB00287D
:100BA000F8D12378714A002B47D172B6704AD360CE
:100BB00062B673490A68032A00F0C2806F480132A6
:100BC000052A037075D00A60BDE8F0870722CEF8C9
:100BD0000C20B6E76C4B6D491A688A421ADD196021
:100BE000D4E76B4FDFF8BCC1D7F80080DCF80070A9
:100BF000C7EB0807322F47D8DFF88C91D9F800707F
:100C0000D21A4FF0640A0AFB0277C9F80070CCF8D8
:100C100000809EE7002ADCBF01221A60B6E748F890
:100C2000223072B6C3EB83739B00CB6062B62B6835
:100C30005CF823305B423B60A8E74E4B554F504E6B
:100C4000554D564C50491070386030602860206017
:100C50000860186058609860D8601861BDE8F08737
:100C600072B60B6848681A780578487A0B7A05429C
:100C700002EA030229D08B7A03F003030AB143F09E
:100C8000040343F0080325E0B7F5C87F08D83E4FBA
:100C9000D21A02EB82093A6802EB49023A60B6E7DF
:100CA000DFF8E490D9F80070D21A1744C9F8007040
:100CB000ADE7304A0B6002F1140152F8043B002BFF
:100CC00049D19142F9D1BDE8F0878B7A03F0030353
:100CD000002A48D19A10013B8A720D2B3FF622AFB1
:100CE00001A252F823F000BF390D0000310D0000C1
:100CF000290D0000310D0000250B0000210D000022
:100D0000390D0000390D0000210D0000250B0000F9
:100D1000310D0000290D0000310D0000390D0000DB
:100D2000CB68023BCB60FEE6CB680233CB60FAE6D1
:100D3000CB68013BCB60F6E6CB680133CB60F2E6D3
:100D40000E4D2B785BB90B4BDB68012B07D90123C8
:100D50002B70BDE8F08701232370BDE8F0870023E6
:100D60002B7004222FE743F00403B3E7CCB3FF1F3B
:100D7000C4ABFF1F3CAEFF1F009CFF1F7CCDFF1FBD
:100D800064CBFF1FC0CCFF1F8C9DFF1F9F860100FF
:100D900074ABFF1F3CB3FF1F10B6FF1F04CEFF1F35
:100DA000AC9DFF1FACAEFF1F2DE9F04F6D4B1B78C4
:100DB00083B0002B7CD1DFF8E8A1DFF8E8B19846DA
:100DC0001F46694BCDF8048083FB08234FEAE87285
:100DD000C2EBA313654A03F5FA7382FB0326DB43D8
:100DE000DB0FC3EB6616BB00F6004FEAC709002510
:100DF00098460CE058F802305D48C3EBC3032B441F
:100E000001351BF8232004F05FF9072D2DD09AF847
:100E10000030584A09F1010138462944002BE9D035
:100E200009F056FB544C02460B46002053492468F7
:100E300006F00CFA09F062FE514B94FBF0F083FBD4
:100E40000034C317C3EBA40404EB8404A0EB4400F8
:100E5000C0EBC0002844711C1BF8202044482944E2
:100E6000013504F031F9072DD1D1DDF80480454B6F
:100E7000A8F51B48A8F1DC08984507F10107A0D1A7
:100E80000025414E2C46336839489C4229464FF094
:100E9000000203D19AF80030002B5FD004F014F95F
:100EA0000134052C05F10805EDD103B0BDE8F08F44
:100EB0000024214600222E48083404F005F9282C8D
:100EC000F7D1324B324A3348196813680068CB1A9D
:100ED0008342EAD34FF00008DFF8CCB0DFF8BC90D3
:100EE000DFF8C0A01160464647467C1C07F10805A4
:100EF000DFF8B880FF4308E098F80020013404F0E0
:100F0000E3F8AC4208F1040815D0DBF800301848CB
:100F1000B3422146F0D1D9F800300A33C3EBC30302
:100F200023443B4401341AF8232004F0CDF8AC42AA
:100F300008F10408E9D10136052E2746D5D1164A15
:100F4000D9F800301268154901339342C9F80030CE
:100F500004BF00230B6003B0BDE8F08F012204F052
:100F6000B3F89DE7CCB3FF1F699CDB281F85EB51CD
:100F7000E4B3FF1F3CAEFF1F8C9DFF1F0000244009
:100F800067666666B4F4FCFF64CBFF1F74ABFF1F9B
:100F900000ACFF1F909DFF1FA89DFF1F04CEFF1FE9
:100FA0007CCDFF1F049CFF1F10B6FF1F709DFF1F0D
:100FB0002DE9F041584C2368302B3EDC574A584904
:100FC000584D10680A682D68821AAA4233D3564DCC
:100FD00008602A78002A40F088805448DC1780FB9B
:100FE0000320C4EB600404EB44022146B3EB82040B
:100FF0006BD1CBB14E4B53F8210009F0B1FE00216B
:1010000006460AF09FF8002840F0818049493046A2
:101010000AF0B6F800287CD14749304609F0F4FEC2
:101020000AF0DEF8454BD861454802F028FD01235F
:101030002B70BDE8F081BDE8F081424C2368012BA4
:1010400010D0364A3649374D10680A682D68821A22
:10105000AA420DD23C4A1268023B3C4951F8233067
:101060009342E8DC3A4A136801331360BDE8F0812B
:101070002D4D08602E7876BB334F36483A68023BD8
:1010800003EB830102EB011150F82110D1B10139BA
:10109000274B53F8210009F063FE002180460AF037
:1010A00051F828B9234940460AF06AF838B32A4E65
:1010B000224B2348DE6102F0E2FC23683A680121FA
:1010C000023B297001323A60C7E7012CACD1012301
:1010D0002B70BDE8F0811A4802F0F7FC1A4A236829
:1010E00012680021023B2970B7E7154802F0EDFCB9
:1010F00023680022013323602A70BDE8F0810E4985
:10110000404609F081FE0AF06BF80646D0E720461B
:1011100088E7114886E700BF3CB3FF1F74ABFF1F91
:10112000D8ACFF1F949DFF1FD8ABFF1FABAAAA2A04
:1011300038C60000A655AC464B24BE4750ABFF1F37
:1011400060B6FF1F3CAEFF1F60B5FF1F54CB000011
:1011500010B6FF1F54C6000080FFFF7F2DE9F0414D
:10116000364F374A3C78374B002C41D014681B6807
:10117000E41A354B5D68012D0AD06B1F012B07D98E
:10118000022D42D0EB1F012B3FD9304B1E6823E0CC
:101190002E4B1E68B6F57A7F2FDC4FF47A7000FB79
:1011A00004F090FBF6F009F0DBFD294909F0E0FEC0
:1011B0002849804609F0E4FF002833D126494046FB
:1011C00009F0C0FF80BB4FF08F41404609F01CFE84
:1011D00009F0E0FF214BD861B44207D3042D03DCB2
:1011E0001F4A13680133136000233B70BDE8F08190
:1011F00012681A6001233B70BBE740F2E93000FB44
:1012000004F3701C93FBF0F0CDE7104A154B166801
:101210009E420BDB03FB04F3701C93FBF0F000F524
:101220007A70C0E71048D5E71048D3E7104800FBB4
:1012300004F090FBF6F000F57A70B4E76CCAFF1F7B
:1012400074ABFF1F24B4FF1F3CAEFF1F989DFF1F10
:1012500000007A4400FEFF4600FEFFC6C0CEFF1F1E
:1012600010B6FF1F19FCFFFF0000FF7F0000018088
:1012700018FCFFFFF8B53D4D2B78002B61D03C4E9C
:101280003C4C3D4B5B6823F00402032A0DD0052B38
:101290000BD023F00202042A3ED0082B3CD0326847
:1012A0002468364BA41A1E6822E0344A3368166854
:1012B0002468DC2EA4EB030426DCDC2000FB04F015
:1012C00090FBF6F0DC3009F04BFD0021074609F0F9
:1012D00039FF00283FD12A49384609F051FF70BB39
:1012E0002849384609F090FD09F07AFF264BD8616D
:1012F000B44208D3254802F0E8FB254A13680021D0
:10130000013313602970F8BDDD2000FB04F3701C6D
:1013100093FBF0F0DC30D6E7184A3368166824688F
:1013200016F1DB0FA4EB030417DB6FF0DA0000FB10
:1013300004F3701C93FBF0F000F5DC70C3E7154874
:10134000D4E70C4C0A4E23681048336002F097FB38
:1013500001232B7095E70020C8E76FF0DB0000FB4E
:1013600004F090FBF6F000F5DC70ACE7CDB3FF1FA6
:1013700080AAFF1F74ABFF1F3CAEFF1FA09DFF1F85
:10138000A655AC464B24BE4718B3FF1F8CABFF1FBE
:1013900010B6FF1F80FFFF7F08B50C4B5B685BB189
:1013A0005A1E012A0DD9033B012B01D9FFF7D6FEA6
:1013B000BDE80840FFF75EBF054A136801331360BC
:1013C00008BDBDE80840FFF7C9BE00BF3CAEFF1F27
:1013D00010B6FF1F2DE9F843A64AA74BA748196886
:1013E00013680068CB1A8342C0F09B80A44D116043
:1013F0002E78002E7DD1A34B9B68042B00F39380A5
:101400005C1E4FEA440808EB04029F4F9F4B57F8BD
:1014100022009E614FF48032DA6109F0A1FC0021C4
:10142000814609F08FFE002840F0E7809849484641
:1014300009F0A6FE002840F0E6809649484609F0EB
:10144000E3FC4FF07C5109F0D7FB09F0C9FE08EB33
:101450000403914A07EB83039062586809F080FC0B
:101460000021064609F06EFE002840F0D080884931
:10147000304609F085FE002840F0C380854930469B
:1014800009F0C2FC4FF07C5109F0B6FB09F0A8FE50
:1014900008EB0403814A07EB83039062986809F024
:1014A0005FFC0021044609F04DFE002840F0AD80AD
:1014B0007749204609F064FE002840F0A080754975
:1014C000204609F0A1FC4FF07C5109F095FB09F092
:1014D00087FE0246724B73489A6202F0D0FA724855
:1014E00002F0CDFA714802F0CAFA01232B70BDE870
:1014F000F8836F4802F0E9FA6E4802F0E6FA6E48A7
:1015000002F0E3FA674802F0E0FA674802F0DDFA19
:10151000664802F0DAFA694A136800210133136061
:101520002970BDE8F883052B75D09C1F4FEA44084D
:1015300008EB0402624F554B57F82200DE614FF46E
:1015400080329A6109F00CFC0021814609F0FAFD15
:10155000002840F08A804E49484609F011FE0028D4
:1015600057D15849484609F04FFC09F039FE08EBBD
:101570000403554A07EB8303D061586809F0F0FB78
:101580000021064609F0DEFD00286CD140493046B6
:1015900009F0F6FD002864D14A49304609F034FCD0
:1015A00009F01EFE08EB0403484A07EB8303D061F1
:1015B000986809F0D5FB0021044609F0C3FD002816
:1015C00055D13349204609F0DBFD002847D13D497C
:1015D000204609F019FC09F003FE02463C4B344852
:1015E000DA6102F04CFA334802F049FA324802F06C
:1015F00046FA01232B70BDE8F883304627E7354AC9
:1016000068E7344844E7334821E7002262E70020D6
:101610003EE73148ABE72049204A304F8F621B4BF1
:101620002F4F2B4997621E48274E284CDFF8C0E009
:101630002C4FC0F828E04BF233329A61DA612A4A23
:101640002A4BE261CB611A48F76102F018FA194897
:1016500002F015FA184802F012FA12483DE71E4A45
:10166000BCE71D489EE700209CE730467FE700224C
:10167000B4E700BF4CABFF1F74ABFF1FA49DFF1F5F
:1016800024AEFF1F3CAEFF1FC0C5000008CEFF1FE9
:10169000A655AC464B243E479CCBFF1FD0CBFF1F2B
:1016A00004CCFF1FC4ADFF1F40CEFF1F70CCFF1F37
:1016B00070CAFF1F30CFFF1F04ACFF1F10B6FF1F03
:1016C000FCC500004B24BE47E4CAFF1F08CBFF1F28
:1016D0002CCBFF1FC0FFFF3F80FFFF7FD72E6D0089
:1016E000D0FA81002599C2005A13F80092272301ED
:1016F000080FAD002DE9F0436C4C236885B03BB971
:10170000E3685A1E012A6AD923F00203042B66D02B
:10171000674B0A221968684604F050F86946654824
:1017200004F092F8684603F0E7FF23685F4A002B55
:101730004FD1D368012B00F09280063B012B4BD890
:101740005D4B5E4A5E48196813680068CB1A834295
:1017500042D3DFF8A481116098F80040002C40F0DB
:101760009980544F574EBB6825460BBB7CE04846DA
:1017700009F006FD5449554B28B9484609F044FB89
:1017800009F02EFD0346524AD3612146494804F030
:1017900063F80178684604F025F8684604F06AF8B2
:1017A0000544684603F0A8FFBB6801349C425BD245
:1017B0003368484AAB42E8DD52F8240009F0D0FA19
:1017C0000021814609F0BEFC43490028CFD0002308
:1017D000D9E7D368032BB3D005B0BDE8F0833F4D04
:1017E0002B68302B94DC344A3D493E4C10680A6823
:1017F0002468821AA242EFD33B4E08603278002A56
:101800003FD13A48DC1780FB0320C4EB600404EBB3
:1018100044022146B3EB820430D1C3B12D4B53F8BF
:10182000210009F09DFA0021054609F08BFC0028F3
:1018300039D12949284609F0A3FC002831D1224991
:10184000284609F0E1FA09F0CBFC214BD861284881
:1018500002F015F90123337005B0BDE8F083254A85
:10186000136801331360B7E7214802F008F93368C1
:1018700000220133336088F80020ADE7012CE9D065
:10188000E5E71B4802F021F92B68002201332B60A9
:101890003270A1E7164802F018F9012388F80030E9
:1018A0009AE70A48D1E72046CFE700BF3CAEFF1FCA
:1018B0008C9DFF1F50AEFF1F74ABFF1F1CAAFF1FA4
:1018C000C8CCFF1FBCCCFF1F4B24BE4780FFFF7F4F
:1018D00050ABFF1F38C60000A655AC463CB3FF1FF7
:1018E000D8ACFF1F949DFF1FD8ABFF1FABAAAA2A3D
:1018F00060B6FF1F10B6FF1F20B4FF1FFFFFFFFFE2
:101900005D4B70B5186809F027FA5C4909F07CFA5C
:101910005B4909F02DFB5B49044609F029FB08F0FF
:10192000E9FD05F011FC4AA3D3E9002308F036FED7
:1019300049A3D3E9002308F07FFC09F007F900214F
:10194000054609F0FFFB00286DD14FF07E51284677
:1019500009F016FC002872D04FF480304A4B4B49F6
:10196000D862204609F004FB08F0C4FD05F0ECFB4A
:101970000022474B08F012FE39A3D3E9002308F0F8
:101980005BFC09F0E3F84349054609F0DBFB00285E
:1019900042D14149284609F0F3FB30B33F4A404D5C
:1019A000404B41499D61DA61204609F0E1FA08F0B7
:1019B000A1FD05F0C9FB2CA3D3E9002308F0EEFD3F
:1019C0002BA3D3E9002308F037FC09F0BFF837490F
:1019D000044609F0D5FB10BB3549204609F0B2FB9F
:1019E00018B3344B3448986170BD2846334909F028
:1019F0000BFA4FF09E41064609F006FA09F0CAFBC1
:101A00000546304605F0E4FB4FF09E4109F0FCF935
:101A100009F0C0FB0246C3E7294A2A4DC0E7254B1F
:101A20002948986170BD002098E74FF08F4120460B
:101A300009F0EAF909F0AEFB1E4B986170BD4FF05A
:101A40008F41284609F0E0F909F0A4FB86E700BFC2
:101A5000000000809999C93F000000606666E63F7B
:101A60000000000000C07240000000A09999A93F4A
:101A7000000000403333C33F74ABFF1F00007A44C3
:101A800000D05F4700003041CCCCFF1F0000F04188
:101A9000000059400000A0411EDE8946008C3C4BEE
:101AA00000BE6C5040C8FF1F0000A04000FEFF4673
:101AB00000FEFFC6D8B5FF1F00000180465615384E
:101AC0007A5517007B5517000000FF7FFFFFFFFFCF
:101AD000674B70B5186809F03FF9664909F094F949
:101AE000654909F045FA6549064609F041FA08F0EA
:101AF00001FD05F029FB5CA3D3E9002308F04EFDAE
:101B000000225F4B08F098FB09F020F85D4B5E491E
:101B10001860044609F070F80021054609F012FB30
:101B2000002840F095805949284609F029FB0028F3
:101B30007BD15749284609F067F94FF07C5109F0ED
:101B40005BF809F04DFB534B53499862204609F06E
:101B500053F80021054609F0F5FA002876D14B49E3
:101B6000284609F00DFB002865D14949284609F0AF
:101B70004BF94FF07C5109F03FF809F031FB474B2E
:101B800000219862204609F0DDFA002864D13F491F
:101B9000204609F0F5FA00284BD13D49204609F0CE
:101BA00033F94FF07C5109F027F809F019FB3C4B51
:101BB0003C499862204609F01FF80021044609F0CC
:101BC000C1FA002846D13149204609F0D9FA70BB44
:101BD0002F49204609F018F94FF07C5109F00CF814
:101BE00009F0FEFA304B4FF074519862304609F01C
:101BF0000BF908F07FFC05F0A7FA00222B4B08F048
:101C0000CDFC00222A4B08F017FB08F09FFF0021B3
:101C1000044609F097FA08BB1C49204609F0B0FABF
:101C200058B1244B2448D86170BD24488BE7234821
:101C3000D8E72248BBE72148A1E72149204609F01F
:101C4000E3F809F0CDFA1B4BD86170BD002096E790
:101C5000002078E70020C5E70020A8E7154B00200A
:101C6000D86170BDAFF30080000000009A99154064
:101C700074ABFF1F00007A4400D05F470000204192
:101C8000008048409C9DFF1F6666EE41A655AC460D
:101C90004B243E4748C7FF1FCDCC2E427CC7FF1FB9
:101CA000B0C7FF1FCDCC0441E4C7FF1F00003E407A
:101CB00000708C40DCABFF1F80FFFF7FC0FFFF3F49
:101CC0004B24BE470E4B1B6913B90E4AD3617047B4
:101CD0000C4A10B5012B4FF48034D46108D0022B8C
:101CE00005D1FFF7F5FE084B0022DC619A6110BDBB
:101CF000FFF706FE044B00229C61DA6110BD00BFB5
:101D00003CAEFF1FF8CEFF1F74AEFF1F10B5384A60
:101D1000384B126882B00192019A1A60FEF7F6FE03
:101D2000FFF742F8344B1C78C4B1344C2368002BC5
:101D300007D1334B1B68002B39D10123236002B03C
:101D400010BDFCDDFFF7BEFF2368012B33D0022B53
:101D50003BD0032B3FD0032BEFDCF0E7294A2A4B83
:101D60002A48D461DC6101F0B0FE294B29481C707F
:101D700001F0ABFE284A294B294814701C7001F071
:101D8000A4FE284801F0A1FE274801F09EFE274846
:101D900001F09BFE264801F098FE264801F095FED2
:101DA000254B264A9C611470DC6102B010BDFFF720
:101DB000FFF82368CFE7124B5B6813B90223236057
:101DC000BDE7FFF7E9FA2368C5E70D4B9B6853B9F8
:101DD00003232360B3E70A4BDB68002BADD0FFF78A
:101DE00089FC2368B7E7FFF7F5FA2368B3E700BF7C
:101DF000D0D1FF1F74ABFF1FCCB3FF1F10B6FF1F66
:101E00003CAEFF1FC0CEFF1FF8CEFF1F60B6FF1F06
:101E1000D8ABFF1F8CABFF1F6CCAFF1FCDB3FF1FDA
:101E200070CAFF1F30CFFF1F04ACFF1FC4ADFF1FE0
:101E300040CEFF1F70CCFF1F08CEFF1F24AEFF1F38
:101E40002DE9F04F85B004230222009305210323DE
:101E50008E488F4C03F006F90221142003F012FF84
:101E60000221112003F00EFF8A4BD3F8A010D3F803
:101E70008820012001F5007702F5007600254FF457
:101E80007A4327606660E56020726072013BFDD195
:101E900091F8003292F800227F4D80492C65D207DC
:101EA00003EA000344BF43F00203DBB20422142020
:101EB000A37203F001FE0123042279496C6411200E
:101EC000237403F0F9FD237C7648774F774E784DE5
:101ED0000133237403F034F9764A774B126877485C
:101EE0001A60002103F048FC754A7649734809F0EE
:101EF0009FF9754B042103F128021846FEF740FBB9
:101F0000724B03F1280218466F4B4FF480340421C2
:101F10009C61DC611C625C621F60FEF731FB6C4BF4
:101F200003F128021846694B04219C61DC611C62A4
:101F30005C621F60FEF724FB654B06F1280204215A
:101F400030469C61DC611C625C621F60FEF718FB1E
:101F500005F1280204212846B461F46134627462F8
:101F60003760FEF70DFB5B4BAC6103F11802EC61CF
:101F70002C626C620220A2F11804002102F80F0CFE
:101F8000204622612172E160534C04600B462F60B1
:101F9000044600E0226942F823104E4A4D48527A26
:101FA00001339A42F6DC4D4B1A6812B901F0B2BA0D
:101FB0001A465369002BFBD1464B53614548484BA9
:101FC000484F0360002444618480C480847201F01F
:101FD0007DFF454B454A464D1A60214622460A265A
:101FE00038461E72FEF7CCFA4FF4804305F1180212
:101FF000012128463B623F4B3B60FEF7C1FA3A2283
:102000000E23DFF804816A85AB85C1224FF00053AF
:10201000EA852B6340F277621C23374EAA86EB8653
:102020002C85364B2B6040462C77C8F80450C8F8F6
:10203000007088F8084088F80940C8F80C4088F813
:10204000104003F0D3F91E4A2D49404609F0F0F83C
:102050001D4B73603046356034727472F4603474B2
:1020600003F0C4F9164A2649264D304609F0E0F837
:102070001A4B6C721A68184B2B602C612C72EC6036
:10208000164B002A43D101F048BA00BFE4B3FF1F4A
:10209000C4ABFF1F78D100000CD1FF1FFD0400006E
:1020A00079040000C0CCFF1FB8CB000010B7FF1FA1
:1020B00038CCFF1F949DFF1FC8CCFF1F50AEFF1FE1
:1020C000FC9BFF1FF9560000C0CEFF1FF8CEFF1F7C
:1020D00014B6FF1FFCCCFF1FBCC5000094D1FF1F2E
:1020E000C4CB000050ABFF1F78CEFF1F6CCB0000AD
:1020F00060B6FF1FF4CE000084CEFF1F94CB00001B
:102100006D04000028B4FF1FACCEFF1F1A465369B0
:10211000002BFBD15561DFF850E3BA4A2A60BA4A76
:10212000BEF80030B84FDFF844B3B84EDFF840A334
:10213000DFF84093DFF840830024343201336C61D0
:10214000AC80EC80AC72A2F134000221AEF8003019
:10215000EB61AC61FEF714FAAB4ADFF820C3AC4B7D
:10216000C7F81CC04FF4805EC7F820E09462214697
:102170002246C7F818B07B62A648A74BFC623C63B6
:102180003B60FEF7FDF9A34BA44F1F6006F1180258
:102190004FF48047012130461F62FEF7F1F9A04B52
:1021A00033604FF00E03B3854FF0C103F3854FF05A
:1021B0000053336340F277634FF03A0BB3864FF02E
:1021C0001C0350463485A6F82AB0F3868E4BCAF815
:1021D00004303477CAF800508AF808408AF8094079
:1021E000CAF80C408AF8104003F000F98D4A8E4975
:1021F0008A4D504609F01CF8834BC9F800308B4BD0
:10220000C9F8043048464FF0010389F8083089F8CE
:102210000930C9F80C4089F8104003F0E7F8814A0A
:102220008149DFF85CA2484609F002F8794B88F84A
:102230000840404688E8480088F80940C8F80C4043
:1022400088F8104003F0D2F8794B7749754A039328
:10225000404608F0EDFF7748744A42604FF00202B2
:1022600006600472C4600474427203F0BFF86D4AE1
:102270006D497048DFF80C92DFF80C8208F0D8FF47
:10228000224621466C48FEF77BF96C4B03F118029D
:102290001846694B01211D601F62FEF771F9674BFB
:1022A0005F4D1D604FF00E059D854FF0C105DD852A
:1022B0004FF000551D6340F277659D864FF01C0579
:1022C000224621461C85A3F82AB0DD865C481C778F
:1022D000FEF756F95B4B514D03F118021846584B67
:1022E00001211D601F62FEF74BF9564B4C4D1D60DE
:1022F0004FF00E059D854FF0C105DD854FF000556F
:102300001D6340F277659D864FF01C0522462146ED
:102310001C85A3F82AB0DD864B481C77FEF730F900
:102320004A4B3E4D03F118021846474B01211F62EC
:102330001D60FEF725F9454B394D1D604FF00E0528
:102340009D854FF0C105DD854FF000551D6340F2BE
:1023500077659D864FF01C05224621461C85A3F813
:102360002AB0DD863A481C77FEF70AF9394B3A4D18
:102370003A4F03F118021846354B01211C835C8348
:10238000DC611C629C629C85DC851C631D60FEF721
:10239000F7F8304B224D1D604FF00E059D854FF034
:1023A000C105DD854FF000551D6340F277659D86C0
:1023B0004FF01C05224621461C85A3F82AB0DD8675
:1023C00027481C77FEF7DCF8264B234D03F1180253
:1023D0001846234B01211D601C835C83DC611C6259
:1023E0009C629C85DC851C63FEF7CAF8039B0C4D40
:1023F00018461C4B1D604FF00E059D854FF0C10522
:1024000044E000BF0CCF000098B6FF1F8CABFF1F4D
:1024100080F9855A18B3FF1FACCB0000F4CE000042
:1024200094CB0000FC9BFF1F6D040000C0CEFF1F7B
:1024300004CCFF1F90C8FF1FE4CAFF1F70CAFF1F14
:1024400008CBFF1F30CFFF1F2CCBFF1F04ACFF1F9B
:102450009CCBFF1FC4ADFF1F00CF000018C8FF1F9B
:10246000D0CBFF1F40CEFF1F06D1FF1F00B28E044E
:102470000CB4FF1FA4C8FF1F60AEFF1FE8728E04DC
:1024800050ACFF1F7CC8FF1FC4ACFF1FDD854FF0A1
:1024900000551D6340F277659D864FF01C0522466E
:1024A00021461C85A3F82AB0DD861C77FEF768F864
:1024B000BC4BBD4D03F118021846039B01211D6062
:1024C0001C835C83DC611C629C629C85DC851C63D4
:1024D000FEF756F8B34BB54A1A604FF00E029A85D4
:1024E0004FF0C102DA854FF000521A6340F2776272
:1024F0009A864FF01C02A3F82AB01C85DA86AC49F4
:10250000AC481C77FEF764F8AB49AC48DFF818B369
:10251000AB4DFEF75DF8AB49AB48FEF759F8AB4958
:10252000AB48FEF755F8AB49AB48FEF751F89D496B
:10253000AA48FEF74DF8AA4B042103F128021846D9
:10254000FEF71EF8A64B4FF4803604210BF128024B
:1025500058461D609E61DE611E625E62FEF710F8E5
:10256000A04BCBF8005003F1280204211846CBF809
:102570001860CBF81C60CBF82060CBF82460FDF726
:10258000FFFF984B3C721D609E61DE611E625E62C1
:10259000954B3B603846864B7B607C72FC603C749C
:1025A00002F024FF914A9249924E934D384608F02A
:1025B0003FFE9248924B03607F4B4360047244722B
:1025C000C460047402F012FF884A89498B488D4F19
:1025D00008F02EFE8C4BCAF800305046794BCAF8F2
:1025E00004308AF808408AF80940CAF80C408AF892
:1025F000104002F0FBFE7D4A7D49504608F018FE6F
:10260000824BC9F800304846704BC9F8043089F84D
:10261000084089F80940C9F80C4089F8104002F0D8
:10262000E5FE724A7249DFF804A2484608F000FE4F
:10263000774BC8F800304046664BC8F8043088F83D
:10264000084088F80940C8F80C4088F8104002F0AB
:10265000CDFE664A6649DFF8D891404608F0E8FDAD
:10266000039B3B6038464F4B7B603C727C72FC6046
:102670003C7402F0BBFE5D4A5D49DFF8B881384624
:1026800008F0D6FD4A4B33603046554B73603472C8
:102690007472F460347402F0A9FE544A54495D4FD8
:1026A000304608F0C5FD444B2B604D4B6B6028460F
:1026B0004FF001036B722C72EC602C7402F096FEEA
:1026C0004B494A4A544E284608F0B2FD53483D4A09
:1026D0000260434A42604FF0020242720472C460D8
:1026E000047402F083FE4249404A4C484C4D08F0C5
:1026F0009FFD4C48354A047280E804084472C46067
:10270000047402F073FE394A3949464808F090FDD6
:10271000304B8AF8084050468AE808084FF0010319
:102720008AF80930CAF80C408AF8104002F05EFEC0
:102730002E4A2F49504608F07BFD1A4B89F8084075
:10274000484689E808084FF0020389F80930C9F8BB
:102750000C4089F8104002F049FE244A24494846BA
:1027600008F066FD1E4BC8F8003040461D4BC8F807
:10277000043088F8084088F80940C8F80C4088F808
:10278000104002F033FE194A1949404608F050FD46
:10279000144B7B6038464FF001037B723C72FC6047
:1027A0003C7449E070CCFF1F00CF000094CB0000C8
:1027B00070CAFF1F08C9FF1F30CFFF1F40C9FF1F8E
:1027C000B8CB000004ACFF1F78C9FF1FC4ADFF1FCA
:1027D000B0C9FF1F40CEFF1FE8C9FF1F20CAFF1F5F
:1027E000ACAAFF1F08CEFF1FE4CAFF1FFC9BFF1F00
:1027F0006D0400003CADFF1F64ADFF1F2CC8FF1F20
:1028000008CBFF1FB8C8FF1F2CCBFF1F9CCBFF1F9F
:10281000D0CBFF1FF0CDFF1F04B3FF1FB0ADFF1FD4
:1028200048AAFF1FFCADFF1FE4CFFF1F10AEFF1F24
:10283000C8CDFF1FDCCDFF1FC7F800B002F0D6FDEA
:102840004049414A384608F0F3FC404A32600323CD
:102850003F4A7372304672603472F460347402F02E
:10286000C5FD394A3749304608F0E2FC4FF0010116
:1028700005F1180269723749296023462C72EC6011
:1028800021462A612C4600E0226942F823106A7A28
:10289000314801339A42F7DC304B1A6812B900F024
:1028A0003FBE1A465369002BFBD155612C4C2D4F6E
:1028B0002D4A2E4B2C6000242A622B634FF0884156
:1028C00025486C61AC80EC80AC72294E01F0B8FEFA
:1028D0002246214647F6FF733846AB85EC85FDF767
:1028E0004FFE244B3B603046234B736035603C7693
:1028F00034727472F460347402F078FD124A114933
:102900001E4D304608F094FC1D4B042103F12802B3
:102910001846FDF735FE114B1A491A68184B6C72B0
:10292000196017492C614FF480338B61CB610B62C6
:102930004B62084B2B602C72EC60084B2ABB00F0FA
:10294000F2BD00BF6D040000FC9BFF1F08CEFF1FFF
:10295000C0CEFF1FBCC5000048AAFF1F94D1FF1FB7
:10296000E8CE0000B0AEFF1FE63C010082902C00D4
:1029700050ADFF1FD0CB0000F8CEFF1FCCCCFF1F07
:1029800074AEFF1FB8CB00001A465369002BFBD171
:102990005561DFF850E3B64BBEF90020B549296018
:1029A000002402F1010C13442146224640F6CC4794
:1029B0006C61AC80EC80AC72AF48AEF800C0AB612B
:1029C0006C6285F82840EF612F62FDF7D9FDAB4BB3
:1029D000AB4FAC4EDFF81093DFF81083DFF810B385
:1029E000DFF810A303F118021846A34B1F604FF441
:1029F00080471F620121A44B0393FDF7C1FD9F4B4C
:102A0000A24F1F60022106F1340230460F46596280
:102A1000FDF7B6FD9E4B33609E4BB361A3F57C532F
:102A2000183BF3614FF4805333629B4B736239461A
:102A300009F134024846B462F4623463FDF7A0FD44
:102A4000934BC9F80030934BC9F81830A3F57C5369
:102A5000183BC9F81C304FF48053C9F820308E4B16
:102A6000C9F8243008F1280204214046C9F828405A
:102A7000C9F82C40C9F83040FDF782FD039B874A16
:102A8000C8F800204FF48037184683E86000C8F883
:102A90001870C8F81C70C8F82070C8F824701C7230
:102AA0005C72DC601C7402F0A1FC039B7C4A7D49D3
:102AB000734D184608F0BCFB6F4B8BF80840584626
:102AC0008BE808028BF80940CBF80C408BF81040DB
:102AD00002F08CFC724A7349584608F0A9FB674B18
:102AE000CAF804305046CAF800908AF808408AF8BC
:102AF0000940CAF80C408AF8104002F077FC694996
:102B0000674ADFF8F4B1DFF8F491504608F090FB23
:102B100065485A4A047280E804014472C46004742F
:102B200002F064FC5F495E4A5F48DFF8D4A108F018
:102B30007FFB5E484FF0010280E840010472C460F0
:102B40000474427202F052FC5649554A5748584E96
:102B500008F06EFB5748584AC0F800804260047283
:102B60004472C460047402F041FC4D4A4D4951481E
:102B7000DFF8908108F05CFB224621464F48FDF7C4
:102B8000FFFC4F4B03F1340218464C4B02211D60F1
:102B90004FF480451D62FDF7F3FC4A4B3C4D03F1B9
:102BA00028021846464B1D603A4D9D61A5F57C559F
:102BB000183DDD614FF480551D62374D5D62042183
:102BC0009C62DC621C63FDF7DBFC3E4B334D3E48F0
:102BD0001D60224621469F61DF611F625F62FDF733
:102BE000CFFC394B394D3A481D60224621461C83A3
:102BF0005C83DC611C629C629C85DC851C63FDF748
:102C0000BFFC334B33481D60224621461C835C8346
:102C1000DC611C629C629C85DC851C63FDF7B0FC5A
:102C20002C4B2D481D60224621461C835C83DC61B1
:102C30001C629C629C85DC851C63FDF7A1FC274B14
:102C400003F118021846244B02211D601C835C838B
:102C5000DC611C629C629C85DC851C63FDF790FC3A
:102C60001F4B134D03F1180218461C4B02214BE079
:102C7000F541ED5EDCCB0000BCD0FF1F70B4FF1F40
:102C8000F4CE000040C8FF1F54CDFF1F88CB0000CA
:102C9000ACCB000000B28E0480F9855AB8CB00009E
:102CA000FC9BFF1F6D04000080CDFF1F98AAFF1F33
:102CB000A0CB000098CEFF1F74AEFF1FDCABFF1F40
:102CC00024B5FF1F78ADFF1F7CCFFF1F00CF000092
:102CD000B0CFFF1F94CDFF1F1CD0FF1F60B3FF1F9D
:102CE0002CABFF1F04D1FF1F00ADFF1FD8B5FF1F86
:102CF00068CDFF1F08AAFF1F58CAFF1FBCCAFF1FCD
:102D000078ABFF1FD0CAFF1F1D60FDF739FCA54B34
:102D100003F118021846A44B02211D60FDF730FC98
:102D2000A24B03F1280218469E4B04211D60FDF7BB
:102D300027FC9E4B9E4D9F481D60224621469F6169
:102D4000DF611F625F62FDF71BFC9A4B9A4D1D60AD
:102D5000224621464FF4804598481D62FDF710FC3D
:102D6000964B954D1D60224621464FF48045944870
:102D70001D62FDF705FC924B8F4D1D6022462146DA
:102D80004FF480458F481D62FDF7FAFB8E4B03F12F
:102D9000180218468B4B01211D62874D1D60FDF7FF
:102DA000EFFB8A4B8A4D03F128021846864B04211B
:102DB0001D6002255D62FDF7E3FB844B7C4D854879
:102DC0001D60224621469F61DF611F625F62FDF741
:102DD000D7FB804B804D81481D60224621461C83D5
:102DE0005C83DC611C629C629C85DC851C63FDF756
:102DF000C7FB7A4B7A481D60224621461C835C83C0
:102E0000DC611C629C629C85DC851C63FDF7B8FB61
:102E1000734B74481D60224621461C835C83DC6131
:102E20001C629C629C85DC851C63FDF7A9FB6E4BD4
:102E300003F1180218466B4B02211D601C835C8352
:102E4000DC611C629C629C85DC851C63FDF798FB41
:102E5000664B674D03F118021846634B02211D6053
:102E6000FDF78EFB634B644D03F1180218465F4B70
:102E700002211E60FDF784FB604B03F1340218460B
:102E80005C4B02211E60FDF77BFB5C4B5C4E1E60C1
:102E90005C4E9E61A6F57C56183EDE614FF480566E
:102EA0001E62594E5E6205F12802284604219C628A
:102EB000DC621C63FDF764FB3D4B2B60534BAF6141
:102EC00003F1340202211846EF612F626F62FDF7B1
:102ED00057FB4E4B4B4A9A614D4B494D4D4E03F1BA
:102EE00028021846494B1D604B4DDD614FF480555B
:102EF0001D62454D5D6204219C62DC621C63474B90
:102F00000393FDF73DFB424B294A1A609F61DF6145
:102F10001F625F62424B33603046424B424D7360EA
:102F200034727472F460347402F060FA3F4A4049BB
:102F3000404F304608F07CF93A4B2B6028463E4B18
:102F40006B602C726C72EC602C7402F04FFA384992
:102F5000364A3A4E284608F06BF9039B364A1A6007
:102F600018462B4A5A601C725C72DC601C7402F0BA
:102F70003DFA039B2D4A2E49314D1846314B0393A0
:102F800008F056F9304BCBF8003058462F4BCBF8B1
:102F900004308BF808408BF80940CBF80C408BF8D4
:102FA000104055E0ACB3FF1F2CABFF1FC4B4FF1F94
:102FB000B8CB000050D0FF1FF4CE000074D0FF1F2C
:102FC00098D0FF1FDCACFF1F80B3FF1F1CCDFF1F7D
:102FD00088CB000048C7FF1F00CF00007CC7FF1F41
:102FE000B0C7FF1FE4C7FF1FE4AAFF1F40B3FF1FC6
:102FF000A0CB000068CBFF1F78B5FF1FCCC8FF1F18
:10300000ACCB000000B28E0480F9855AD4B6FF1F05
:103010008CACFF1F3CACFF1FE8728E0478ACFF1F26
:10302000DCABFF1F24B5FF1F64ACFF1FFC9BFF1F21
:103030006D04000068CFFF1F78ADFF1FB0B4FF1F05
:1030400048B4FF1F10B5FF1F7CCFFF1F60B3FF1FE9
:1030500002F0CCF9BC4ABD49584608F0E9F8BC4B2F
:10306000CAF80030BB4BCAF8043050464FF0010399
:103070008AF809308AF80840CAF80C408AF81040EB
:1030800002F0B4F9B04AB149DFF840B3504608F055
:10309000CFF8B14BC9F80030B04BC9F804304846FE
:1030A0004FF0020389F8093089F80840C9F80C404C
:1030B00089F8104002F09AF9A34AA449DFF810A356
:1030C000484608F0B5F8A64BC8F80030A34BC8F83E
:1030D000043040464FF0030388F8093088F8084070
:1030E000C8F80C4088F8104002F080F9964A9749D9
:1030F000DFF8E092404608F09BF8964B3B6038467C
:10310000984B7B603C727C72FC603C7402F06EF900
:103110008D4A8E49DFF8C082384608F089F88F4B17
:103120003360904B736030464FF00103737234721A
:10313000F460347402F05AF9834A84498A4F304665
:1031400008F076F8874B2B60884B6B6028464FF071
:1031500001036B722C72EC602C7402F047F97B490E
:10316000794A834E284608F063F88248824A026012
:10317000824A426004724472C460047402F036F9F8
:103180007249714A7B487E4D08F052F8039B7D4A94
:103190001A607A4A5A6018464FF001021C725A723D
:1031A000DC601C7402F022F9039B6849664A1846E9
:1031B000754B039308F03CF87448754A02606F4AF7
:1031C00042604FF0020204724272C460047402F062
:1031D0000DF95D4A5D496D4808F02AF86D4BCBF852
:1031E0000030664BCBF8043058464FF003038BF8A1
:1031F00009308BF80840CBF80C408BF8104002F0F7
:10320000F5F85249504A584608F012F862485B4AAD
:103210000260624A426004724472C460047402F044
:10322000E5F8494A49495C4808F002F85B4BCAF89E
:1032300000304E4BCAF8043050464FF002038AF873
:1032400009308AF80840CAF80C408AF8104002F0A9
:10325000CDF83E493C4A504607F0EAFF5048514AF3
:103260000260514A426004724472C460047402F005
:10327000BDF8354A35494A4807F0DAFF4B4BC9F8E3
:103280000030494BC9F8043048464FF0010389F833
:10329000093089F80840C9F80C4089F8104002F05C
:1032A000A5F82A49284A484607F0C2FF4048414A43
:1032B0000260414A426004724472C460047402F0C5
:1032C00095F8214A21493A4807F0B2FF3B4BC8F82C
:1032D0000030394BC8F8043040464FF0010388F8FD
:1032E000093088F80840C8F80C4088F8104002F00F
:1032F0007DF8154A1549404607F09AFF2A4B3B6076
:1033000038462F4B7B603C727C72FC603C7402F050
:103310006DF80E490C4A384607F08AFF2948264ABC
:103320000260274A42604FF0010242720472C46098
:10333000047402F05BF80549034A224807F078FF5D
:1033400021481F4A026049E0FC9BFF1F6D040000FA
:10335000B0CFFF1F60B3FF1F94CDFF1F2CABFF1F2B
:103360001CD0FF1FACB3FF1FF4A9FF1F8CACFF1FC5
:10337000A8CCFF1FFCB4FF1F50D0FF1F1CCDFF1FA8
:1033800018ABFF1F74D0FF1F04ABFF1F9CB4FF1FBF
:1033900098D0FF1FDCACFF1F64B5FF1F80B3FF1F79
:1033A000B0B5FF1F48C7FF1FE4AAFF1F7CC7FF1F60
:1033B00050CBFF1FB0C7FF1F40B3FF1FE4C7FF1F65
:1033C00068CBFF1F88CBFF1F20AAFF1FF8B3FF1F8A
:1033D0005CB4FF1FC4B5FF1FA8CAFF1F534A426059
:1033E00004724472C460047402F000F85049514AF7
:1033F000514807F01DFF51484C4A0260504A426054
:103400004FF0030242720472C460047401F0EEFFD4
:103410004749484A494807F00BFF4A48484A026072
:10342000494A426004724472C460047401F0DEFFD1
:103430003F49404A434807F0FBFE4448424A026085
:10344000434A42604FF0010242720472C460047445
:1034500001F0CCFF3649374A3C4807F0E9FE3D48C9
:103460004FF0010242723A4A02603B4A42600472E3
:10347000C460047401F0BAFF2D492E4A354807F0A4
:10348000D7FE3648364A0260364A047242604472B9
:10349000C460047401F0AAFF264A25492F4807F0AA
:1034A000C7FE4FF0010373722B4B336030462D4B38
:1034B00073603472F460347401F098FF1C491D4A43
:1034C000304607F0B5FE039B264A1A601846264A86
:1034D0001C725A605C72DC601C7401F087FF039BF5
:1034E000144A1349184607F0A3FE4FF001036B720C
:1034F0001C4B2B6028461C4B6B602C72EC602C74B0
:1035000001F074FF0B4A0A49284605B0BDE8F04FA8
:1035100007F08EBE1860FEF751BD1D60FEF7FBBDC3
:103520001860FFF7C3B91D60FFF733BACCC8FF1F9F
:103530006D040000FC9BFF1F20AAFF1F34AAFF1F81
:103540008CACFF1F28AEFF1FD4B6FF1F84AAFF1F3D
:1035500074AEFF1F4CB6FF1FF8CEFF1FD0B3FF1F86
:10356000C0CEFF1F14B6FF1FFCCCFF1F002070470A
:103570000020704710B50368C9B21B68984710BD9A
:10358000F8B50F001600242900D1C280124C037A2E
:1035900022005B003B321370230001255E331D7057
:1035A0002300390A5D3320001D70FFF7E3FF390067
:1035B0002000FFF7DFFF310A2000FFF7DBFF3100BB
:1035C0002000FFF7D7FF2900200001F099FC4342BB
:1035D0005841C0B2F8BDC046C49DFF1F70B501255B
:1035E000040005712F4801F0FBFA052002F076FB7C
:1035F0002D4A30212000FFF7C3FF6C222621200036
:10360000FFF7BEFFF922282152002000FFF7B8FF84
:10361000264A2C212000FFF7B3FF254A3C21200039
:10362000FFF7AEFF38222421FF322000FFF7A8FF6A
:10363000204A30212000FFF7A3FF7322022120003F
:10364000FFF79EFFC820400002F048FB1A4A2E21D7
:103650002000FFF795FF042220001100FFF790FFE4
:103660009822062152002000FFF78AFF10220A212B
:103670002000FFF785FF00220E212000FFF780FFCA
:103680000E4A10212000FFF77BFF0D4A2221200067
:10369000FFF776FF362224212000FFF771FF280074
:1036A000657270BDC49DFF1F60400000220F0000C6
:1036B00046440000FF4000001D1D00003C3C00008F
:1036C0007F7F000010B5040000290BD15522203166
:1036D000FFF756FF002801D100201AE00422E388FA
:1036E0001A4312E00129F7D174222931FF32FFF782
:1036F00047FF0028F0D0882220212000FFF740FF5C
:103700000028E9D00423E2889A4324212000FFF70F
:1037100037FF10BD70B5040000290AD10123114AFA
:1037200003712231FFF72CFF1022E38824211A4372
:1037300013E00025802901D880356D1A2379002BEC
:1037400008D00023E288237110339A4324212000FB
:10375000FFF716FF22212A022A432000FFF710FF5D
:1037600070BDC0467F7F000010B50400081C0649EC
:1037700007F04AFB054907F03FFA07F031FD010069
:103780002000FFF7C7FF10BD00000143EE7CFF3EA5
:10379000F0B5C36985B00400002B67D0436A0021EF
:1037A000012B1CDC01F000FE051E5FD02900A66A7B
:1037B000E0692A1D8431238C01331BB22384B34278
:1037C00001DB002323840027D35F02329C4620279D
:1037D000E35F67465B001F529142ECD13EE001F08F
:1037E000E3FD051E42D0A36A676A1800791E0093A4
:1037F00006F004FD431E0393E3692E1D01932B0085
:1038000084330293238C009A01331BB29A4200DC6A
:10381000002323840023F25E2021635E01995B0074
:103820005A522022A35E0022944697420DDD019851
:103830005900095E8C44012F01D003995B1A002BBB
:1038400001DA00995B180132EFE73900604606F0B3
:10385000D5FC029B30800236B342D3D12000002237
:10386000290001F07BFD280001F04EFD05B0F0BD00
:1038700030B500240D00C46184620484A14209D0E3
:103880002500092A06DDA34204DD5210C1618262CF
:1038900043620135280030BDF0B500218DB0040031
:1038A00001F082FD0090002800D1E6E0237F002B8C
:1038B00000D1E0E0009B1F1D84330593059B9F42D0
:1038C00000D3D2E0E38B002B55D1227F022A0AD10C
:1038D000A28DE283002A08D0032222778022D2051B
:1038E00022626362EAE7032A08D10423C022237715
:1038F000E18D236B1206E183981838E0042A06D183
:1039000001322277063AE283226B22621BE0052A0B
:1039100003D101235B42E3832DE0062A0AD13A005A
:1039200023770599136053609360D36010329142FE
:10393000F7D89AE0072A12D1228D2362E283002A67
:1039400003D001222277636215E002238020618D7B
:103950002377E183C00506F051FC60620BE0012A89
:1039600009D102238020618D2377E183C00506F011
:1039700045FC6062A2E7236A9D13636A5E143B689C
:10398000AD1906937B6872190793BB680893FB68AF
:103990000993B3180A93F3180193F3180293F318D9
:1039A0000393F3180493069B1814C117D31707F059
:1039B00037FC030C1B040B936B4618229A5EE91725
:1039C000D317280007F02CFC0B9B000C03433B6033
:1039D000079B019A1814019BC117DB1707F020FC05
:1039E0000A9B050CD9176B461C229A5E0A98D317BE
:1039F00007F016FC089B000C2D0405431814039BCC
:103A00007D60039ADB17C11707F00AFC029B050CC7
:103A1000D9176B4620229A5E0298D31707F000FC54
:103A2000099B000C2D0405431814049BBD60F2187B
:103A3000D317C11707F0F4FB049B060CD9176B468C
:103A400024229A5E0498D31707F0EAFB3D0036045F
:103A5000000C0643FE60236A626A10359B182362DD
:103A6000E38B2F00013BE38328E72000002200992D
:103A700001F074FC009801F047FC0DB0F0BD10B5EA
:103A8000040072B6037F012B02D9C18E002910D128
:103A90000023228D2362E2839A4203D001226362D3
:103AA000227710E002238020618D2377E183C00517
:103AB00006E0072B07D007230377036AC183584228
:103AC00006F09CFB606262B610BD10B5040072B6D1
:103AD000037F002B0AD0072B08D00623818E0377A3
:103AE000036AC183584206F089FB606262B610BD6A
:103AF00010B50021040001F04BFC002801D001F0BA
:103B000003FC0121200001F043FC002801D001F05A
:103B1000FBFB10BD10B50021040001F039FC0028AA
:103B200001D001F0F1FB0121200001F031FC00285F
:103B300001D001F0E9FB10BD2DE9F8434FF000087A
:103B4000064600F11805474641463046002F4FD043
:103B500001F01EFCF0B12C68B4F5803F07F10401C0
:103B600000F1040E07F5827C27D05EF8042B34FBAD
:103B700002F334FB12F903F30F0209F30F03C2EA55
:103B800003430A6893FA12F341F8043B8C45ECD8DE
:103B900001F0BAFB08F10108B8F1040F05F10405C2
:103BA000D2D1002F40D030463946002201F0D6FB5A
:103BB0003846BDE8F84301F0A7BB07F10C0100F15E
:103BC0000C0451F8083C54F8082C93FA12F341F80D
:103BD000083C54F8042C51F8043C93FA12F38C4539
:103BE00041F8043C04F1080401F10801E9D8CFE7E9
:103BF00001F0DAFB07460028CCD02868B0F5803FFA
:103C0000C8D0391D07F582740B6830FB03F230FB16
:103C100013F302F30F0203F30F03C2EA034341F865
:103C2000043B8C42F0D8B5E7BDE8F8832DE9F84FA6
:103C3000344B35481A68354912681B790B7082423B
:103C400029D2334B1B784BBBDFF8D4A0DFF8D490DC
:103C5000DFF8D480DFF8D4B0DAF80060D9F800706B
:103C6000B8F80040BBF80050002E3CD0A7B33A1D76
:103C7000311D02EB450201EB440100F0DDFE403551
:103C800040347F2C1CD8A8F800407F2D0BD8ABF80F
:103C90000050BDE8F88FA0F58070D5E71D4B4FF0C0
:103CA00080421A60D0E700243846ABF8004001F0AB
:103CB0002BFB194B1A68C9F800201C60BDE8F88F6F
:103CC00000243046A8F8004001F01EFB134B1A6890
:103CD000CAF800201C60D8E7311D01EB440100F058
:103CE000CAFE4034CDE737B1391D01EB450100F084
:103CF000E2FE4035C5E739464FF48072BDE8F84F23
:103D000007F06CBEE4D0FF1F4093FF1F1F800040F0
:103D1000FCD0FF1F08E200E0F8D0FF1F00D1FF1F1A
:103D2000F4D0FF1FECD0FF1FE0D0FF1FF0D0FF1F2B
:103D300070B50021044601F02BFB80B172B61C4A1D
:103D40001368002B29D01B490D6805B31A4E156066
:103D500000220860328062B6184601F0D5FA20468B
:103D6000012101F015FB88B172B6144A1368CBB17A
:103D700013490C6874B1134D1460002208602A8046
:103D800062B61846BDE8704001F0BEBA70BD08606A
:103D900062B6E4E7086062B670BD074910600B8048
:103DA00062B6DCE7074910600B8062B670BD00BFE9
:103DB000F4D0FF1F00D1FF1FE0D0FF1FECD0FF1F8A
:103DC000F8D0FF1FF0D0FF1F10B5044601F030FC03
:103DD000204610BD284B29491A68294842F4004260
:103DE0001A600A6842F002020A601A6842F002028F
:103DF0001A600368002B3EDB224B1B68002B3ADB6A
:103E0000214A4FF0864313601368002BFCDBF0B5AA
:103E10001E4C1F48DFF8A8E01E491F4B1F4A204FC9
:103E2000204E214D41F2100CC4F800C00024046063
:103E30000120CEF80000DFF88CE0C1F800E04FF47C
:103E400080311960194B1360DFF87CE0184A3A6042
:103E50003460286000F18E40CEF80000154CB96740
:103E60001548164946F8503C4FF4C0632A61236058
:103E700003600B60F0BD70473C800440408004400C
:103E800000F0024080F0024000F1024004F10240E4
:103E900060F0024008F002400CF0024010F00240D6
:103EA00014F00240E0F0024084F002401B1F0100C9
:103EB000001F1F1F08B004400CB0044018B004409D
:103EC00004F002400100000788F00240F8B5274CDA
:103ED000274E2046012101F047FB264A264B0025AC
:103EE00015601D60FFF776FF244B254A25494FF4E6
:103EF000C0601860236802201A60988022791961D6
:103F000002F1804202F5043240F20117DF80DE60E8
:103F10004FF4807106278F26D9829D82D9839D61B7
:103F20009F8398601570167001F0C4FA2279164BC1
:103F30001649187053119B00174603F160430F7028
:103F4000134D144E144C02F11000012103F561438E
:103F500002F01F0201FA02F24FF080770F492F6042
:103F60002C6046F820101A60F8BD00BFE4D0FF1F97
:103F700000FEFFFFF4D0FF1FECD0FF1F04B0044091
:103F80004092FF1F22F00240FCD0FF1F1B80004028
:103F900000F002400096FF1F010000902D3C000041
:103FA000024A0349034807F043B900BFFC9BFF1FC7
:103FB000C93D0000E4D0FF1F037E002B41D0012B40
:103FC0002DE9F0413ED0044601F04AF905460028AB
:103FD0005DD0A28B82BB638B04EB4303B3F9223029
:103FE000291D05F5827647F6AE70002701E0A28B09
:103FF000734604EB4202B2F924E0734400FB03F37E
:104000001B1421F8023BA28BB4F81AC004EB42083F
:10401000013292B29445A8F82430A28398BFA783B6
:10402000B142E4D120462946002201F097F9284602
:10403000BDE8F04101F068B904EB4203B3F9223066
:10404000CEE77047134C428B2368E2B11132D0F8AF
:1040500020C000EB420E00F1220644F2A71717FB26
:1040600013F10D4D9AB2CB0B090407FB02330D403F
:104070002B4423F0004202EBD3733CFB03F226F8FF
:10408000022FB645EBD10222236002769BE7207611
:10409000BDE8F081C09DFF1F0000FF7F2DE9F04FBC
:1040A000C56A83B015B903B0BDE8F08F064601F0CC
:1040B000D7F8014601900028F5D006F11C0292E8DD
:1040C000041401F1040EB369F44FF54801F582714F
:1040D000009196F82810F34CDFF8CC9314F8018087
:1040E000DC1704EA090989EA430382EA0A0909EAB2
:1040F000080908EA040403F03F0862408AEA090A52
:10410000C3F3851457F8288050F82440CAEB0209FD
:10411000CC440131E04486F82810A04435FB08F86F
:10412000E149DC17214081EA430302F4006903F00E
:104130003F0104F400642AF4006A624049EA0A0A72
:10414000C3F3851B57F8214050F82B10CAEB020926
:10415000CC446444214435FB01F1C8EA0144D2490E
:10416000CEF80040DC17214081EA430302F4806866
:1041700003F03F0104F480642AF4806A624048EA54
:104180000A0AC3F38519CAEB020857F8214050F810
:104190002910C4440CEB0408884435FB08F8C249D4
:1041A000DC17214081EA430302F4006903F03F0178
:1041B00004F400642AF4006A624049EA0A0AC3F37C
:1041C000851B57F8214050F82B10CAEB0209CC444C
:1041D0006444214435FB01F1C8EA0144B249CEF8F8
:1041E0000440DC17214081EA430302F4007803F025
:1041F0003F0104F400742AF4007A624048EA0A0A93
:10420000C3F38519CAEB020857F8214050F829106A
:10421000C4440CEB0408884435FB08F8A249DC17B9
:10422000214081EA430302F4006903F03F012AF4CC
:10423000006A04F40064544049EA0A0AC3F3851290
:10424000CAEB040957F8211050F82220CC446144ED
:104250000A4435FB02F2C8EA0241934ACEF808103C
:10426000D9170A4082EA430304F4806803F03F024E
:1042700001F480612AF4806A4C4048EA0A0AC3F3D8
:104280008519CAEB040857F8221050F82920C444B5
:104290000CEB0108904435FB08F8834AD9170A4013
:1042A00082EA430304F4006903F03F022AF4006A3F
:1042B00001F40061614049EA0A0AC3F3851B57F81B
:1042C000224050F82B20CAEB0109CC44644422441C
:1042D00035FB02F2C8EA0242734CCEF80C20DA1722
:1042E000144084EA430301F4807802F4807203F0FE
:1042F0003F042AF4807A514048EA0A0AC3F385123F
:10430000CAEB010857F8244050F82220C4440CEBB3
:104310000408904435FB08F8634CDA17144084EA2B
:10432000430301F4006903F03F042AF4006A02F435
:1043300000624A4049EA0A0AC3F38511CAEB02093E
:1043400057F8244050F82110CC446444214435FBF4
:1043500001F1C8EA01445449CEF81040DC1721406D
:1043600081EA430302F4806803F03F0104F48064AF
:104370002AF4806A624048EA0A0AC3F38519CAEB44
:10438000020857F8214050F82910C4440CEB0408E7
:10439000884435FB08F84449DC17214081EA43038F
:1043A00002F4006903F03F012AF4006A04F4006497
:1043B000544049EA0A0AC3F38512CAEB040957F8C4
:1043C000211050F82220CC4461440A4435FB02F20B
:1043D000C8EA0241344ACEF81410D9170A4082EADA
:1043E000430304F4007803F03F0201F400712AF45F
:1043F000007A4C4048EA0A0AC3F38519CAEB04085C
:1044000057F8221050F82920C4440CEB01089044BE
:1044100035FB08F8244AD9170A4082EA430304F41A
:10442000006903F03F022AF4006A01F40061614070
:1044300049EA0A0AC3F3851B57F8224050F82B209B
:10444000CAEB0109CC446444224435FB02F2C8EAB9
:104450000242154CCEF81820DA17144084EA4303C0
:1044600001F4806802F4806203F03F042AF4806A59
:10447000514048EA0A0AC3F38512CAEB010857F80B
:10448000244050F82220C4440CEB0408904435FB2F
:1044900008F8054ADC17224008E000BFE0CC000025
:1044A000E0CD0000E0CB00000100004682EA4303BB
:1044B00001F4006904F400622AF4006A03F03F0486
:1044C0004A4049EA0A0AC3F38511CAEB020957F8C0
:1044D000244050F82110CC446444214435FB01F1C0
:1044E0000EF1200EC8EA01414EF8041C00997145F6
:1044F0003FF6EFAD019CF2613046C6F820A0C6F849
:1045000024C0B3610022214600F028FF204603B0FA
:10451000BDE8F04F00F0F8BE2DE9F04F83B006463D
:1045200000F09EFE0190002800F0848000F5827962
:10453000031DB6F92E100091994565D9871DDFF846
:10454000FCE008E04FF0000327F8023C3B469945A9
:1045500007F1020758D9F3694FF6FE729342F1DD75
:10456000326A9B1AF36113FB33F3716B306B4910A2
:1045700033FB01F18913C20032FB01F1726A02447C
:104580000A4422F000424FEAD25CC2F3CF147262B6
:10459000009A322A0CF1010A42DDB26A3EF91C503F
:1045A0003EF91AC0024402EB5000084400EB6101DE
:1045B00021F00041CA0D02F101083EF912003EF956
:1045C0001820B162121AC1F3CF1101FB02F2C5EB40
:1045D0000C0CB6F92E10B6F92C8004FB0CFC00EB89
:1045E000224205EB2C4C01FB02F208FB0CFCD2131F
:1045F00002EBEC3833FB08F3DB1327F8023C3B46B5
:10460000994507F10207A6D8019C304600222146B1
:1046100000F0A4FE204603B0BDE8F04F00F074BEE9
:104620003EF91C203EF91A10891A04FB01F802EB2E
:104630002848DFE703B0BDE8F08F00BF10CF0000CF
:1046400038B50D4604460021284606F07BFD48B9E2
:104650004FF07E51284606F093FD30B14BF6FD73C6
:10466000636338BD0D4B636338BD0D49284606F0C2
:10467000CBFB06F08FFDB0F5804F08DAC0F5804027
:1046800000EB400040F391035B42636338BDA0F54B
:10469000804000EB400040F31103E1E700D0FFFF52
:1046A00000FEFF46036A2DE9F04780464BB9D8F873
:1046B0001830D8F81C2003EBC213C8F81830BDE836
:1046C000F08700F0CDFD06460028F0D0D8F818900D
:1046D000D8F81C70D8F820C0134D4946841C00F54A
:1046E000817E0B0E5A1C35F9130035F91220C1F3E7
:1046F0000F2ACAF5803300FB03F30AFB023353FB96
:104700000CF324F8023FA6453944EAD109EBC71758
:104710004046C8F818703146002200F01FFE3046AF
:10472000BDE8F04700F0F0BD10CF00002DE9F84FD4
:10473000B0F918300BB9BDE8F88F044600F090FDD1
:1047400005460028F7D0B4F92C30061D072B32D8C7
:10475000DFE813F066009000A700B9000800D6005B
:10476000E9004C00D4F830C0BCF1000F39D0E0694A
:1047700005F58278B646C10D4A1CC0F3CF13D2B2FC
:104780003CF911A03CF91210B4F91820A76AC3F53E
:104790007F4909F1FF0909FB0AF903FB01931B1487
:1047A00002FB03F3DB132EF8023B3844C64520F02E
:1047B0000040E0D1E061B4F92E206AB105F58271C4
:1047C00001E0B4F92E20B6F90030134403F30F03CF
:1047D00026F8023BB142F4D820460022294600F0D8
:1047E000BDFD2846BDE8F84F00F08EBDE36900F539
:1047F0008278374608E0B4F92400A26A27F8020B51
:1048000013444745E361D6D0A26A9A42F3D9B4F97A
:104810001810484200F066FF00B2E369A084ECE79C
:104820004A4F00F5827E3046E369B4F91810D4F897
:1048300028804FEAD35CC3F3CF1B37F91C900CF1EF
:10484000010CCBF57F4A0AF1FF0A37F91CC009FBBE
:104850000AF20BFB0C22121401FB02F2D21320F815
:10486000022B13EB080348BF23F000437045E361BC
:10487000DAD1A0E7E26900F5827E3146B4F918701A
:10488000A06A42F3CF3303FB07F3DB1321F8023BAB
:1048900071450244F2D1E261B4F92E20002A8DD193
:1048A0009AE7E269831D00F5837051004ABF218BAE
:1048B000B4F91810494223F8021CA16A0233984245
:1048C0000A44F2D1E7E7E16900F5827E304600292B
:1048D000B7BF238BB4F918205B421AB24F004FEADE
:1048E000810348BF5B425B0C02FB03F3DB13A76A47
:1048F00020F8023B704501EB4701E8D1E1615AE73E
:10490000E269276A831D00F58370BA4236BF218BA6
:10491000B4F91810494223F8021CA16A02339842E4
:104920000A44F2D1B7E7E26900F5827E3146B4F974
:104930001870A06A42F3CF3303FB07F3DB1321F8AF
:10494000023B7145A2EB0002F1D1A4E710CF0000B9
:104950002DE9F84385690DB9BDE8F883064600F0F6
:104960007FFC04460028F7D0F369043004F5827711
:1049700044F2A71111FB13FEDFF8B8C09AB24FEA58
:10498000DE334FEA0E4E01FB02330EEA0C0C634499
:1049900023F0004202EBD37335FB03FE11FB13FC43
:1049A000244A4FEA0C4808EA020202EBDC329BB2CE
:1049B00001FB032323F0004202EBD37335FB03F228
:1049C000CEEA024E11FB13FC1A4A4FEA0C4808EAE1
:1049D00002029BB202EBDC3201FB032222F0004315
:1049E00003EBD27235FB02FC11FB12F8114B4FEABC
:1049F000084909EA030303EBD83392B201FB023200
:104A000022F0004303EBD27335FB03F2CCEA0242FF
:104A100040F808EB874240F8042CABD83046F361ED
:104A20002146002200F09AFC2046BDE8F84300F041
:104A30006BBC00BF0000FF7F2DE9F04F00F5807ECA
:104A4000B1E8A00AB2E84015C5EA0643C6EA254423
:104A5000C7EA0845C8EA2746C9EA0A47CAEA294810
:104A6000CBEA0C49CCEA2B4AA0E8F8078645E7D107
:104A7000BDE8F04F70474FF000022DE9F00F00F550
:104A8000807C00BFB1E8A00AC5EA0203C2EA25445F
:104A9000C7EA0205C2EA2746C9EA0207C2EA29486C
:104AA000CBEA0209C2EA2B4AA0E8F8078445E9D11B
:104AB000BDE8F00F70474FF000022DE9F00F00F550
:104AC000807C00BFB1E8A00AC2EA0543C2EA05043F
:104AD000C2EA0745C2EA0706C2EA0947C2EA09086C
:104AE000C2EA0B49C2EA0B0AA0E8F8078445E9D1FB
:104AF000BDE8F00F70472DE9F00F089C00F5007B32
:104B000051F8045B53F8046BC5EA0647C6EA254929
:104B100052F8045B54F8046BC5EA0648C6EA254A15
:104B2000A0E880078345EBD1BDE8F00F704700BFD8
:104B30000020704790F8392090F83800101A70471C
:104B400090F8383090F839209A4205D95A1C03441D
:104B500080F83820187E70474FF0FF30704700BF54
:104B600090F8383090F839209A4286BF1B18187E8A
:104B70004FF0FF30704700BF704700BF38B50546A3
:104B8000B0F85E0090B195F85D301446C3F1210293
:104B900094420CD805F13B001844224602F088F8F4
:104BA00095F85D30234485F85D30204638BD0120FE
:104BB00014462871EEE700BFB0F85E306BB190F894
:104BC0005D30202B07D8C218013380F85D300120FA
:104BD00082F83B107047012303710020704700BF2B
:104BE0000023426980F8383080F8393080F85C3032
:104BF00080F85D3080F85E3080F85F3006CA30B4EF
:104C00000D68046943662A4383660A60A37042699B
:104C100090F861301649146813441D7A5B7B01EBF0
:104C2000C5051B026D6803F4E06343F064032B6069
:104C300090F8623013449D7CDB7D01EBC5011B02C3
:104C4000496803F4E06343F064030B602168536830
:104C5000194205D0036927225A70036904229A7108
:104C6000036920225A71036980229A7030BC704710
:104C700078D1000010B50269D378DBB2D9060446BA
:104C80003DD510215806D17038D503F0040303F048
:104C9000FF02002B51D03D49626E00230B7084F857
:104CA0005D30002A5BD0904794F85D30002B56D0E1
:104CB0002369D0229A70236994F83B201A712369E2
:104CC000012284F85C200222DA7010BD304B84F897
:104CD00060009C424AD02F4B9C4252D094F839102D
:104CE00013791F29DBB207D82848007820B1601853
:104CF000013184F8391003760223D37010BD5906B0
:104D0000C3D4917801F0100101F0FF000029DDD03B
:104D100013F001031ED194F85C1094F85D008842F2
:104D200081BF4B1C091984F85C3091F83B3013713A
:104D30002369D0229A702269DEE7236984F839203A
:104D4000C0229A702369114A197901211170022237
:104D5000DA7010BDC023937022691379CCE7012269
:104D6000002384F85D2084F83B30A1E7626994F861
:104D70006130094913440322187A00F09DFE22692C
:104D8000ACE7626994F861300449F3E708D1FF1F8A
:104D9000C49DFF1F309EFF1FFD4D0000094E000007
:104DA0000369DB7803F0200373B190F860300133BE
:104DB000DBB2012B80F860301AD9426990F861307B
:104DC0001344187A00F0F4BE70B5426903F0FF0591
:104DD00090F8613013440446187A00F0E9FEA36E9F
:104DE0005BB184F8385094F83900BDE8704018473A
:104DF00090F85F30002BE0D0704770BD0148FFF79E
:104E0000CFBF00BFC49DFF1F0148FFF7C9BF00BF50
:104E1000309EFF1F2DE9F047374FDFF8E0903B68E9
:104E2000026982B006460093DDF800800021A025CB
:104E3000D3789B065BD53B680193019BC8EB0303CA
:104E40000F2BF5D949B1102BF2D0002090703369A7
:104E500080229A7002B0BDE8F087726996F86130DE
:104E600013440521187A00F00DFF726996F861303D
:104E70001344012193F812A0504600F003FF0924C7
:104E80000021504600F0EAFE2B46013BFDD10121F6
:104E9000504600F0E3FE2B46013BFDD1013CEFD133
:104EA000706996F8611001444FF4A0720C7A4B7B44
:104EB00009EBC4011B02496803F4E06343F0640397
:104EC0000B6096F862300344997CDB7D09EBC101ED
:104ED0001B02496803F4E06343F064030B60013A8A
:104EE000FDD13269D3789B064FF00101A3D4012094
:104EF00002B0BDE8F08700BFD0D1FF1F78D100001D
:104F0000F0B503691222DA700269937803F0200386
:104F100085B004460D46002B5ED0B42393703C4907
:104F200022690B680093009E05E00B680193019BCA
:104F30009B1B042B42D8D37803F0200303F0FF001F
:104F4000002BF2D094F85D30002B31D04FF0000EE2
:104F50004FF0020C04EB0E0393F83B3013710B6817
:104F60000393039F206907E09B060DD50B6802930E
:104F7000029BDB1B052B28D8C378DBB203F00202AF
:104F800002F0FF06002AEFD080F803C02669F3780C
:104F9000DBB2DF0632462DD49F062BD5DB0731D49A
:104FA0000EF1010E94F85D305FFA8EFE7345D1D894
:104FB00000201DBB002384F85E3004E0907023695C
:104FC00080229A70042005B0F0BD8670236980228B
:104FD00004209A7005B0F0BD03F0FF06FFF71AFF3A
:104FE00010B9042005B0F0BD236984F85F60B022D9
:104FF0009A7094E78023B3700420DAE7266980234F
:10500000B370D7E7BEF1000F0CBF02200320F6E714
:10501000D0D1FF1F0148FFF72DBE00BFC49DFF1F69
:105020000148FFF727BE00BF309EFF1F70B5046820
:10503000002C05460E46C8BF641807DD14F8012D84
:105040002979287A00F024FEA642F7D1287B2E6128
:10505000012100F003FE287B0021BDE8704000F034
:10506000FDBD00BF2DE9F04104465FFA83F8069DBF
:105070004360D6B221600F46826001214046E56060
:1050800000F000FEEDB23046012100F0FBFD2846A5
:10509000012100F0F7FD4046002100F0DFFD304621
:1050A000002100F0DBFD2846002100F0D7FD384646
:1050B000012106F0C7F8014620612046FFF7B6FF40
:1050C0002046BDE8F08100BF012A30B40A4615D061
:1050D0001A4B0569002903EA0103B8BFCA1D002B5A
:1050E0004FEAE2021FDBA95C012404FA03F321EA80
:1050F0000303AB54016930BCFFF798BF0F4B056940
:10510000002903EA0103B8BFCA1D002B4FEAE202DF
:105110000EDBA95C012404FA03F30B43AB540169D1
:1051200030BCFFF783BF013B63F007030133DAE7CD
:10513000013B63F007030133EBE700BF070000808A
:1051400000220A21818002608271C271704700BF13
:1051500030B5CDB283B00446C571284600F084FD59
:1051600000232846A37100F07FFD08B10323A3713B
:10517000034B1B680193019B236003B030BD00BF4C
:10518000D0D1FF1F81807047F0B5044685B0C0794B
:1051900000F06AFDA279003018BF0120C2F340017F
:1051A00002F0F7038842A3710BD0124A12680192F1
:1051B00083F00203019AA3712260C3F3C00005B01B
:1051C000F0BD0C4D2768296802910299A688C91B79
:1051D000B142F2D302F001029042EED02A6803926B
:1051E00083F00903039AA371C3F3C000226005B0E2
:1051F000F0BD00BFD0D1FF1F807900F001007047E3
:10520000C029F0B428BFC02172B6124B124E134A07
:1052100018600023138033607360B360F360336100
:105220007361012799B15D0903F01F0456F8252029
:1052300007FA04F4013322438B4246F82520F2D1C9
:105240000023438001338B4200F58270F9D162B6AE
:10525000F0BC70479CD1FF1FA4D1FF1FBED1FF1F20
:10526000F0B472B6234F244E3C8806F1180306EBC7
:105270008400984212D256F8241099B9021D06F102
:105280001B05631CAD1A03EB950503E052F8041BE4
:1052900041B90133AB421C461046F7D162B600203B
:1052A000F0BC7047B1FA81F34FF00042DA4021EAD6
:1052B0000201016001B9013410493C800A880132C1
:1052C00094B20C8062B6801B8010C3EB401000EBE0
:1052D000801083000A480B49006803F5FB531C3318
:1052E0000125C5540D88AA42184488BF0C80F0BC23
:1052F000704700BFBED1FF1FA4D1FF1FC0D1FF1F49
:105300009CD1FF1F98D1FF1F428872B60378012BF2
:1053100003D9013B037062B67047531170B40C4C53
:105320000C4D54F823102E88D2434FF0004002F069
:105330001F0220FA02F21143074A44F82310B34235
:1053400038BF2B801388013B138062B670BC704756
:10535000A4D1FF1FBED1FF1FC0D1FF1FC368B3B1CF
:1053600030B401E0DB688BB1187A9042FAD158680A
:105370005C7A006950F82450002DF3D140F82410D5
:10538000087801300870DB68002BEDD130BC704725
:10539000437A8B4206D90369002253F8210043F86F
:1053A000212070470020704738B5437A8B421AD9C4
:1053B000036953F82140002243F821209CB123784F
:1053C000012B0ED9FFF74CFF054628B14FF4807230
:1053D000211D043001F06CFC2378013B237028462A
:1053E00038BD204638BD002038BD00BF037C23BB3C
:1053F0004368427A5B7A9A421FD830B472B6046826
:10540000E3682BB3DA6832B119688C4216D01346C0
:10541000DA68002AF8D1D8600023C360A37A013388
:10542000A37202684168012313728A7A1A448A724D
:1054300042681372037462B630BC70475D6841689D
:105440008D42E4D1198903899942F4D01346DFE7EC
:10545000E060E1E7037C4BB34368427A5B7A9A42AF
:1054600024D872B60268D36803B3984202D11EE012
:10547000984202D0DB68002BFAD14368427A1B695C
:10548000002143F822100268937A013B937203686B
:105490009A7A02B91A724268937A013B937243680E
:1054A0009A7A02B91A720023037462B67047C3680D
:1054B000D360E2E7084B1A7862B930B4074808496C
:1054C000D02505704FF0804401220C6010461A7000
:1054D00030BC704700207047A0D1FF1F5EE400E0A1
:1054E00008E100E01A491B4A1B48F8B50B681B4D40
:1054F000046843F080730B60136843F0010313608A
:105500002E6814B915E064699CB1237A002BFAD097
:1055100023682F681B68204698472B68E188DB1BAF
:105520001B099AB28B42A28088BFE2806469002C7A
:10553000EBD10A4B0A4A1B6810880A4C9B1B1B09BB
:1055400099B28342218001D91180F8BDF8BD00BF16
:10555000FCED00E0001000E094D1FF1F041000E01B
:10556000BCD1FF1FC2D1FF1FF0B572B699B9026856
:105570008AB103790F2B0ED8274C218841FA03F505
:10558000ED070AD503F1007303F59063B2EB431FF7
:1055900003D162B6F0BD204C2188002341FA03F20A
:1055A00012F0010207D00133102BF7D162B60022AE
:1055B00003710260F0BD01259D402943218062B640
:1055C000164E174D174FDFF864E0D9B201713468F9
:1055D00044F0020434602C6844F002042C60A6F508
:1055E00080268224A5F5802503F100733C6003F535
:1055F0009063223E243D0C4C8EF800105B0131700C
:105600002970217003601A605A609A60DA601A612A
:105610005A619A61DA61F0BDC4D1FF1F4080044035
:105620003C800440008000401F8000401A80004001
:1056300003790F2B11D8094A10B4137072B60849B8
:1056400004790A880123A34022EA03030B8062B68F
:105650001022002310BC0271036070471A800040C2
:10566000C4D1FF1F08B5FAF7E3FFFCF74FFB00F0CA
:1056700007F9FAE7F0B5164D2A680AB31549164B33
:10568000DFF85CE082FB016781FB0214D617D119B9
:105690001444C6EB2141C6EB244403FB04F40EFB87
:1056A000112244F2A71303FB0243002B02DA03F199
:1056B0000043013BB3FBF0F22B6000FB1230F0BD66
:1056C000064B2B60B3FBF0F200FB1230F0BD00BFC5
:1056D000C8D1FF1F5F0B4E83ECF4FFFF42CE0C1FBF
:1056E0001DF30100884206DA10B50446081AFFF7D8
:1056F000C1FF204410BD704710B50446006805F096
:1057000033FE204610BD00BF38B543688B4201D33D
:10571000012038BD0D4604460131006806F0B0F99D
:105720000028F6D0A36884E82100002BF0D1037094
:10573000EEE700BFF8B50446154632B9036803B179
:105740001A700023A3602046F8BD0E461146FFF7ED
:10575000DBFF074648B9206810B105F005FE276059
:1057600000236360A3602046F8BDA5603146206831
:1057700006F090FBE7E700BF38B50023044603605E
:1057800043608360037341B108460D4606F0F8FBA1
:10579000294602462046FFF7CDFF204638BD00BF10
:1057A00038B5054608460C4606F0EAFB2146024697
:1057B0002846BDE83840FFF7BDBF00BF10B504461E
:1057C000002386B023606360A3602373084601A9A9
:1057D00005F0BCFD01A92046FFF7E2FF204606B018
:1057E00010BD00BF10B582B000238DF80410036017
:1057F000436083600373012201A904468DF80530DC
:10580000FFF798FF204602B010BD00BF38B505462F
:1058100000680C4628B16A688B689A420CD205F081
:10582000A3FD23686168A2682B6000236960AA60F9
:1058300023606360A36038BD096806F02BFBA36892
:10584000AB600023A36038BD884210B5044601D088
:10585000FFF7DCFF204610BD83688B4203D9006848
:1058600008B108447047024900230B70084670478E
:10587000CCD1FF1F006808B105F0E0BC704700BF45
:1058800038B5224C237803B138BD0123237001F0D1
:10589000DDF970BB00F0E0FA40BB00F073FB10BB19
:1058A00000F006FCE0B900232370EFF30583002B22
:1058B000EAD1EFF3108172B6154B1868E0B1154CC0
:1058C0002278CAB945691D6001232370C5B1AA6158
:1058D00001B962B600254577836898472570D3E7FC
:1058E00001F07CFBDFE701F077FBD9E701F072FB09
:1058F000D3E701F075FBCDE70029C5D162B638BD0D
:10590000054B1D600029E5D1E3E700BFCDD1FF1FA6
:1059100068D4FF1F6CD4FF1F64D4FF1F08B5104C60
:1059200008E0236859050DD423681A050FD42368AD
:10593000DB0411D423685803F3D500F0B9FC2368C5
:105940005905F1D500F098FA23681A05EFD500F053
:1059500029FB2368DB04EDD500F0BAFBEAE700BFC2
:105960003480044008B5FFF7D9FF00BF014B102277
:105970001A80704700200540704700BF094908B5EC
:105980000B6830B16A461844A2F58052904202D2A8
:105990000860184608BD05F093FC0C2303604FF027
:1059A000FF3008BD9C9EFF1FFEE700BFF0B44D1EF8
:1059B0002E46002400E00134B0FBF2F302FB13009A
:1059C000092800F130078ABF3730F8B2C0B206F8B4
:1059D000010F1846002BEED10A1953704CB1107804
:1059E00015F8016F28700133E01A834202F801694B
:1059F000F5DB0846F0BC7047704700BF10B40F4B92
:105A000053F8302092F880422CB1012369B182F81A
:105A1000803010BC704703EBC0035B681A6841B963
:105A200022F002021A6010BC704782F8003110BCEC
:105A3000704742F003021A6010BC704778D1000032
:105A40001C4A02EBC00301295B6811D004291BD05A
:105A500052F83000002280F8802229B1022920D09B
:105A6000032922D01A6070474FF480721A60704781
:105A700052F830004FF4A27280F880121A601A684F
:105A800022F020021A60704752F830104FF4A272D0
:105A9000012081F880021A601A6842F020021A6020
:105AA000704740F203121A6070474FF481721A6017
:105AB000704700BF78D10000212817D8F8B5042A14
:105AC00013D8DFE802F0494C4F1446002C4872B658
:105AD000236823F4702343F08072C4F384011643D7
