:1000000000800020BD010000955500004D55000006
:100010004D5500004D5500004D5500004D55000058
:100020004D5500004D5500004D5500009555000000
:10003000955500004D550000C96D0000CD6E0000C3
:100040009555000095550000955500009555000008
:1000500095550000955500009555000095550000F8
:1000600095550000955500009555000095550000E8
:1000700095550000955500009555000095550000D8
:1000800095550000955500009555000095550000C8
:1000900095550000955500009555000095550000B8
:1000A000F14C0000FD4C00009555000095550000F6
:1000B0009555000095550000955500009555000098
:1000C0009555000095550000955500009555000088
:1000D0009555000095550000955500009555000078
:1000E0009555000095550000955500009555000068
:1000F00095550000A95A000095550000D55B0000F9
:1001000095550000015D00009555000095550000D3
:100110009555000095550000955500009555000037
:100120009555000095550000955500009555000027
:100130009555000095550000955500009555000017
:100140009555000095550000955500009555000007
:1001500095550000955500009555000095550000F7
:1001600095550000495F0000955500009555000029
:1001700095550000955500009555000095550000D7
:1001800095550000955500009555000095550000C7
:1001900095550000955500009555000095550000B7
:1001A00095550000955500009555000095550000A7
:1001B0009555000095550000C1510000564B4CF27A
:1001C000205210B51A804DF628121A8000BF00BFC9
:1001D00005F0E4F9514B4FF010621A60504A9A60F2
:1001E000504ADA60504A136813F4807304D14F49BF
:1001F0000B604FF4A85313604D4B1A78110703D5C9
:100200001A7842F008021A704A4B4B492A221A7097
:100210004A4A4B4B8B4204D252F8040F43F8040B6A
:10022000F8E7484B484900228B4202D243F8042B9E
:10023000FAE74649464A002352F8230041F82300D2
:1002400001336F2BF8D1434B434A802103F8011B44
:100250009342FBD1414B3D4A1A60414B8A221A70AE
:10026000A3F5805324225A70A0221A709A7992071B
:10027000FCD59A79D406FCD43A4A937903F00C035E
:10028000082B384BF9D103221A7140225A719A79FE
:100290009006FCD5334A9179324B4906FBD5324A58
:1002A000324911600221516020221A709A7902F0BD
:1002B0000C020C2AFAD12E4B2E4A1A602E4B2F4AD2
:1002C0001A6000225A60072243F8042C2C4AC3F813
:1002D0000C2D62B605F068FB144B1B68DA0705D5D8
:1002E000284805F0C1FA284B284A1A60284B1B7889
:1002F0005B0609D5244C254B22689A4204D121483B
:1003000005F0B2FA002323600AF03CFF05F04CF937
:1003100005F016F8FEE700BF0E20054030800440CF
:10032000823F04000100002B10D0034014D0034092
:1003300002D0074000E007407CA8FF1F00CD00006E
:10034000209BFF1F7CA8FF1FDCCFFF1F0096FF1F15
:100350000000000000E400E05FE400E008ED00E0E1
:100360000050064000400640448004400000030165
:1003700004800440C010050014E000E0FF76010096
:10038000000020208F27DF5B1CE00340A5C3945AA8
:1003900000F00740FFFFFFFFFFFFFFFFFFFFFFFF32
:1003A000FFFFFFFFFFFFFFFFFFFFFFFFFFFFFFFF5D
:1003B000FFFFFFFFFFFFFFFFFFFFFFFFFFFFFFFF4D
:1003C000FFFFFFFFFFFFFFFFFFFFFFFFFFFFFFFF3D
:1003D000FFFFFFFFFFFFFFFFFFFFFFFFFFFFFFFF2D
:1003E000FFFFFFFFFFFFFFFFFFFFFFFFFFFFFFFF1D
:1003F000FFFFFFFFFFFFFFFFFFFFFFFFFFFFFFFF0D
:10040000FFFFFFFFFFFFFFFFFFFFFFFFDEF9FFFF23
:1004100010B5054C237833B9044B13B10448AFF33E
:1004200000800123237010BD7CA8FF1F0000000086
:1004300004CD0000084B10B51BB108490848AFF3C4
:1004400000800848036803B910BD074B002BFBD0A0
:10045000BDE81040184700BF0000000080A8FF1F43
:1004600004CD00007CA8FF1F0000000010B504466A
:1004700004F05EFE204610BD1F4B10B45A6C13688A
:10048000506819780478507A137A044201EA03011B
:100490001AD0937A03F0030309B143F0040343F045
:1004A00008039910013B91720D2B0BD8DFE803F084
:1004B0001E0719070A141E1E140A0719071ED368FF
:1004C000013BD36010BC7047937A03F0030300290B
:1004D000E7D043F00403E4E7D36810BC023BD360E9
:1004E0007047D36810BC0233D3607047D36810BC28
:1004F0000133D360704700BF20CCFF1F1F4B10B4E7
:100500001A6D1368506819780478507A137A044287
:1005100001EA03011AD0937A03F0030309B143F00F
:10052000040343F008039910013B91720D2B0BD883
:10053000DFE803F01E0719070A141E1E140A071924
:10054000071ED368013BD36010BC7047937A03F059
:1005500003030029E7D043F00403E4E7D36810BCA9
:10056000023BD3607047D36810BC0233D36070473E
:10057000D36810BC0133D360704700BF20CCFF1F8D
:10058000002310B4104C4172026104600372C36016
:1005900041B1194600E0026942F82310427A013362
:1005A0009A42F8DC094B1A680AB90BE01A465369FB
:1005B000002BFBD15061002343618380C380837291
:1005C00010BC70471860F6E77CBB0000A8CCFF1F8A
:1005D0002DE9F0411021AB48AB4CAC4EAC4DAD4FCA
:1005E00004F07CFCAC4802F0ADFC5A21AA4802F0B1
:1005F00045FDAA49AA4AAB4BE361DFF854E3F36136
:100600004FF080444FF48A73A74E0C6314634CF68A
:10061000CC444B858B85CB858B8653859385D38541
:100620009386A249A24ACEF81840A24BB161002499
:10063000F26173622868FC610AF0FAFA002106464A
:100640000AF0E8FC38B99C4930460AF001FD002860
:1006500000F03782994C9A4B6868DC610AF0E8FA3E
:10066000002104460AF0D6FC002840F0518292494D
:1006700020460AF0EDFC002840F0218291492046F6
:100680000AF02AFB0AF014FD02468F4BA868DA61D3
:100690000AF0CEFA002104460AF0BCFC002840F023
:1006A0003B82854920460AF0D3FC002840F01582A1
:1006B000844920460AF010FB0AF0FAFC0246834BFC
:1006C000834FDA613868834D0AF0B2FA47F6FF7358
:1006D00000212B8304460AF09DFC002840F01A827A
:1006E000754920460AF0B4FC002840F0F2817A49AE
:1006F00020460AF0F1FA4FF07C510AF0E5F90AF0D1
:10070000D7FC0346AB6200260123AB85EE61786817
:10071000724C0AF08DFA47F6FF73002123830546D9
:100720000AF078FC88B9644928460AF091FC002850
:1007300040F0D581684928460AF0CEFA4FF07C5146
:100740000AF0C2F90AF0B4FC0646A66201230026AC
:10075000A385E661B868624D0AF06AFA47F6FF734E
:1007600000212B8304460AF055FC88B952492046E3
:100770000AF06EFC002840F0AE81574920460AF08E
:10078000ABFA4FF07C510AF09FF90AF091FC064653
:10079000544AAE624FF4004700240126D762524902
:1007A000524F5348AE8508234FF40062EC6102F0CB
:1007B00035FD504D50485149B962DFF898E1504934
:1007C000C5F828E03346816247F6FF760321EC61E5
:1007D000A9852E834B4DFC61B9853E8346F2666741
:1007E0002F6207F15B7707F6E207474AC461068389
:1007F0008185EF614548464D918585614549DFF822
:1008000058E11683A5F5B735D4619162A5F5F87561
:10081000414A4249C5614FF00055CEF81820DFF833
:100820003CC14562A2F5DA724FF48030CEF81C204C
:100830008861C8611F4A3A49CCF81C10CEF82420C0
:100840003849394ADFF818E19161A1F57C5118392E
:10085000D16136495162364A364FCEF81C203648AF
:10086000364D3749F961A2F5B102A2F6E702354FDC
:10087000C2611D49EF614FF400623348334F02F00B
:10088000CDFC6FE00082FF1F20B1FF1FD8A9FF1F22
:10089000989DFF1FFCC9FF1FC8A9FF1F68B4FF1F59
:1008A0004CC6FF1FC09C8D02A0B4FF1F6804BC0291
:1008B000C8F6BB02D0CCCC0CA655AC4680FFFF7F5F
:1008C0003CC7FF1F4B24BE4730B4FF1F98C7FF1F14
:1008D000A49DFF1FECC7FF1F4B243E4720C8FF1FEE
:1008E00054C8FF1FC0C8FF1F18B5FF1F94CAFF1FC1
:1008F000A0B2FF1FC8CAFF1FFCCAFF1FCCD9280027
:10090000AF333D00D0CBFF1F30CBFF1F1CABFF1F11
:10091000400D3408586B3B0034025E01BCB3FF1F2E
:1009200080391B0500B28E0430B3FF1F00B76D5B2A
:10093000A011DA0088CBFF1FACCBFF1FF8AAFF1F66
:10094000825D03016F319A0088B1FF1F18C5FF1F38
:1009500038B2FF1FCF65330010C6FF1F1CAAFF1F50
:1009600064CBFF1F6E4B6F491D6828460AF0ACF838
:1009700000213E8380460AF04DFB002840F0C680EF
:10098000694940460AF064FB002840F0AE806749A0
:1009900040460AF0A1F94FF07C510AF095F80AF0B0
:1009A00087FB02230026B862BB856149FE612846A9
:1009B0000AF08AF85F4C47F6FF730021238307464D
:1009C0000AF028FB002840F09F80574938460AF07B
:1009D0003FFB002840F08780544938460AF07CF9F4
:1009E0004FF07C510AF070F80AF062FB524EA062A0
:1009F00047F6FF7200270223002128463283E76171
:100A0000A3850AF007FB00287CD1474928460AF055
:100A10001FFB002865D1454928460AF05DF94FF0D3
:100A20007C510AF051F80AF043FBB06202232846D9
:100A30000025B3854149F5610AF046F8404C47F678
:100A4000FF730021238306460AF0E4FA002865D1EB
:100A5000354930460AF0FCFA002848D039483A4A6D
:100A60003A4DDFF808E13A4B3A4EA062C2F818E07E
:100A7000394FDFF8FCE03948C5F818E00021D761AC
:100A800056626E624FF48032E86146F26667022673
:100A900010205F62E1619A61DA611A62A68504F052
:100AA00009FF0121102004F0F1FE10212C4804F070
:100AB000BDF90A212A48BDE8F04104F0D1B9294A1C
:100AC000E3E5294930460AF007F90AF0F1FA04464D
:100AD000C1E51C4B16E61B4E5AE6224AEFE5194EBD
:100AE00033E61848A1E7174880E7164859E730462B
:100AF0000E490AF0F1F84FF07C5109F0E5FF0AF0D9
:100B0000D7FAACE7384690E730466FE7204648E72B
:100B10000022BAE50023F5E50022D0E528469EE74D
:100B2000B49DFF1F6666EE41A655AC464B243E477A
:100B3000CDCC2E424CC5FF1F80C5FF1FCDCC04413C
:100B4000B4C5FF1FC0FFFF3FC0C6FF1FDCB4FF1FBF
:100B5000A8AAFF1F00B76D5B509D3208E43AA503B9
:100B6000B4C8FF1F80FFFF7F4B24BE47400D3408F1
:100B7000345BA5032DE9F843924D2B78002B33D13C
:100B8000914E337C012B40F2968072B6F46862B6C7
:100B90008E4FDFF84C823968002CB8BF0334A410A4
:100BA0008C4205D098F80030002B44D13C6021469F
:100BB000002904DD72B60023F36062B63B6098F84A
:100BC0000030002B30D1824C82482268396850F8BE
:100BD0002230814FDFF8F4C1C3F1000EC1F10008EB
:100BE000714547F8228046DB7C4804F03BF908B9A0
:100BF000BDE8F883794804F06DF90028F8D12B7826
:100C0000704A002B46D172B66F4AD36062B6704903
:100C10000A68032A00F0BC8071480132052A03707B
:100C200070D00A60BDE8F8836E4B6F491A688A423B
:100C30001CDD1960D8E76D4B6D4AD3F800E01368EE
:100C4000C3EB0E03322B4AD866480B1B9C46036845
:100C50004FF0640909FB0C3303606648C2F800E0FA
:100C600004F0C6FB634804F073FB9FE7002ABCBF97
:100C700000221A60B8E747F8223072B6C3EB8373DC
:100C80009B00F36062B6236850F823305B42CCF8D7
:100C90000030A9E7504B4E4E574D584C51491070FB
:100CA0003060286020600860186058609860D860E4
:100CB0001861BDE8F88372B6336871681A780878ED
:100CC000717A337A084202EA030227D0B37A03F03A
:100CD00003030AB143F0040343F0080323E0B3F530
:100CE000C87F08D83F4B081B00EB800C186800EB4E
:100CF0004C001860B1E73B480368C4EB010C634447
:100D00000360AAE7344A0B6002F1140152F8043B75
:100D1000002B4BD19142F9D1BDE8F883B37A03F0AF
:100D20000303002A4BD19A10013BB2720D2B3FF600
:100D30002DAF01A252F823F0890D0000810D0000B3
:100D4000790D0000810D00008D0B0000710D000079
:100D5000890D0000890D0000710D00008D0B000051
:100D6000810D0000790D0000810D0000890D00004B
:100D7000F468023CF4600AE7F4680234F46006E7C1
:100D8000F468013CF46002E7F4680134F460FEE6C4
:100D9000DFF84C8098F8003063B90F4BDB68012B0B
:100DA00008D9012388F80030BDE8F88301232B70AF
:100DB000BDE8F883002388F80030042231E743F0CF
:100DC0000403B0E7D4B1FF1F04AAFF1F009CFF1F5C
:100DD000C0C7FF1F80BB000044ACFF1FB4C8FF1F8B
:100DE00064C9FF1FFCA9FF1F9F86010000AAFF1F07
:100DF000C8ACFF1F9C9EFF1FF4B3FF1FA8C9FF1FB5
:100E00002DE9F04F6D4B1B7883B0002B7CD1DFF8C0
:100E1000E8A1DFF8E8B198461F46694BCDF8048099
:100E200083FB08234FEAE872C2EBA313654A03F57C
:100E3000FA7382FB0326DB43DB0FC3EB6616BB00B2
:100E4000F6004FEAC709002598460CE058F8023032
:100E50005D48C3EBC3032B4401351BF8232003F08B
:100E6000A1FF072D2DD09AF80030584A09F1010151
:100E700038462944002BE9D009F092FA544C024636
:100E80000B4600205349246806F062F909F09EFDE4
:100E9000514B94FBF0F083FB0034C317C3EBA40465
:100EA00004EB8404A0EB4400C0EBC0002844711C98
:100EB0001BF8202044482944013503F073FF072D17
:100EC000D1D1DDF80480454BA8F51B48A8F1DC081A
:100ED000984507F10107A0D10025414E2C46336803
:100EE00039489C4229464FF0000203D19AF800305D
:100EF000002B5FD003F056FF0134052C05F10805E7
:100F0000EDD103B0BDE8F08F0024214600222E4829
:100F1000083403F047FF282CF7D1324B324A3348CC
:100F2000196813680068CB1A8342EAD34FF00008AF
:100F3000DFF8CCB0DFF8BC90DFF8C0A01160464607
:100F400047467C1C07F10805DFF8B880FF4308E03E
:100F500098F80020013403F025FFAC4208F10408A2
:100F600015D0DBF800301848B3422146F0D1D9F84B
:100F700000300A33C3EBC30323443B4401341AF863
:100F8000232003F00FFFAC4208F10408E9D1013639
:100F9000052E2746D5D1164AD9F8003012681549D2
:100FA00001339342C9F8003004BF00230B6003B043
:100FB000BDE8F08F012203F0F5FE9DE7D4B1FF1FDD
:100FC000699CDB281F85EB51D8B1FF1F44ACFF1F84
:100FD000FCA9FF1F0000244067666666B4F4FCFFAE
:100FE000C0C7FF1F00AAFF1F40AAFF1F909DFF1F41
:100FF0008C9DFF1FA8C9FF1F64C9FF1F049CFF1F12
:10100000F4B3FF1F709DFF1F2DE9F0416E4E316854
:1010100048296ADC6D4B6E4A6E4C18681368246868
:10102000C31AA3427AD36C4D10602B78002B40F08A
:10103000A6806A486A4C04F0DBF9684804F088F935
:101040003268D31784FB0214C3EB640404EB44033B
:101050002146B2EB830438D1002A38D0614F57F8CB
:10106000210009F0E5FD0021804609F0D3FF68B9B1
:101070005D49404609F0ECFF002840F0A3805B4941
:10108000404609F029FE0AF013F80446584B594827
:10109000DC610F2105F08CFC514C33684F4884FB18
:1010A0000312DB17C3EB620357F8231004F0A0F917
:1010B0004A4804F04DF9326884FB0234D317C3EB7D
:1010C000640404EB4404A2EB8404012C09D04A48D4
:1010D00002F0D6F90921494805F06AFC3F4804F0BE
:1010E00037F901232B70BDE8F081454C2368012BB3
:1010F00010D0364A3649374D10680A682D68821A72
:10110000AA420DD23F4A1268023B3F4951F82330B0
:10111000934203DC3D4A136801331360BDE8F0815C
:101120002D4D08602F78002F3AD1364E384832685E
:10113000023BC3EBC30103EBC101114450F8211082
:10114000D1B10139274B53F8210009F071FD00217D
:10115000804609F05FFF28B92349404609F078FF2F
:1011600040B32C4F224B2448DF6102F089F92368F9
:1011700032680121023B297001323260C5E71E4806
:1011800002F0A6F9336824480133002208213360B5
:101190002A7005F00DFC1148BDE8F04104F0D8B804
:1011A000154802F095F9174A236812680021023B9E
:1011B0002970AAE70D49404609F08EFD09F078FF35
:1011C0000746CFE7134C61E744B1FF1F00AAFF1F9A
:1011D000F4AAFF1F949DFF1F18AAFF1F9C9EFF1FCC
:1011E000ABAAAA2A94BB0000A655AC464B24BE4726
:1011F000D8A9FF1F4CBF000068B4FF1F40BF00000C
:1012000044ACFF1F28ACFF1F68BF0000F4B3FF1FF2
:10121000B0BB000080FFFF7F5CBF00002DE9F04104
:10122000364F374A3C78374B002C41D014681B6846
:10123000E41A354B5D68012D0AD06B1F012B07D9CD
:10124000022D42D0EB1F012B3FD9304B1E6823E00B
:101250002E4B1E68B6F57A7F2FDC4FF47A7000FBB8
:1012600004F090FBF6F009F0E3FC294909F0E8FDF1
:101270002849804609F0ECFE002833D12649404633
:1012800009F0C8FE80BB4FF08F41404609F024FDB5
:1012900009F0E8FE214BD861B44207D3042D03DCEA
:1012A0001F4A13680133136000233B70BDE8F081CF
:1012B00012681A6001233B70BBE740F2E93000FB83
:1012C00004F3701C93FBF0F0CDE7104A154B166841
:1012D0009E420BDB03FB04F3701C93FBF0F000F564
:1012E0007A70C0E71048D5E71048D3E7104800FBF4
:1012F00004F090FBF6F000F57A70B4E7FCC6FF1F2F
:1013000000AAFF1F34B2FF1F44ACFF1FB09DFF1F98
:1013100000007A4400FEFF4600FEFFC6FCC9FF1F26
:10132000F4B3FF1F19FCFFFF0000FF7F00000180E6
:1013300018FCFFFFF8B53D4D2B78002B61D03C4EDB
:101340003C4C3D4B5B6823F00402032A0DD0052B77
:101350000BD023F00202042A3ED0082B3CD0326886
:101360002468364BA41A1E6822E0344A3368166893
:101370002468DC2EA4EB030426DCDC2000FB04F054
:1013800090FBF6F0DC3009F053FC0021074609F031
:1013900041FE00283FD12A49384609F059FE70BB6A
:1013A0002849384609F098FC09F082FE264BD8619E
:1013B000B44208D3254802F08BF8254A136800216F
:1013C000013313602970F8BDDD2000FB04F3701CAD
:1013D00093FBF0F0DC30D6E7184A336816682468CF
:1013E00016F1DB0FA4EB030417DB6FF0DA0000FB50
:1013F00004F3701C93FBF0F000F5DC70C3E71548B4
:10140000D4E70C4C0A4E23681048336002F038F8D9
:1014100001232B7095E70020C8E76FF0DB0000FB8D
:1014200004F090FBF6F000F5DC70ACE7D5B1FF1FDF
:1014300010A9FF1F00AAFF1F44ACFF1FB89DFF1F8C
:10144000A655AC464B24BE4720B1FF1F4CC6FF1F1C
:10145000F4B3FF1F80FFFF7F08B50C4B5B685BB1E7
:101460005A1E012A0DD9033B012B01D9FFF7D6FEE5
:10147000BDE80840FFF75EBF054A136801331360FB
:1014800008BDBDE80840FFF7C9BE00BF44ACFF1F60
:10149000F4B3FF1F284B9B6810B5C3B9274A1368E4
:1014A00001331360264B274A2748196813680068E0
:1014B000CB1A83420AD3254B11601A78002A33D005
:1014C0001E490A68002001320A60187010BD042B02
:1014D00020DC013B1E485B0080FB0320DB17C3EBD5
:1014E000600009F0A5FB1B49044609F0B1FDF0B905
:1014F0001949204609F08EFDD8B94FF08F4120469A
:1015000009F0EAFB09F0AEFD144B4FF4803298610C
:10151000DA61C7E7052B114B0CBF4FF400424FF4C3
:1015200080329A61DA61BDE701221A7010BD0C4861
:10153000EAE70C48E8E700BF44ACFF1FF4B3FF1F25
:1015400000AAFF1FD4A9FF1FBC9DFF1F2CACFF1FCB
:101550006766666600FEFF4600FEFFC660C7FF1FA7
:101560000000FF7F00000180284B294A29481968A4
:1015700013680068CB1A83421CD330B4264D116027
:101580002B68042B17DD254B1C68254B1A784ABBAA
:10159000244A012011681870002CB8BF1F34B1EB29
:1015A000641F06DB204803680021013303602960C3
:1015B000116030BC7047194A1C481468204000284C
:1015C0001FDB40FA03F2D207DFD4013340FA03F104
:1015D000C9071A4603F10103F8D5114B2A601A789E
:1015E000002AD5D029680C48002204291A700D4A17
:1015F00003DD116801311160CEE74B1C03601168F7
:10160000CAE7013860F01F000130DAE700AAFF1FC7
:10161000ACA8FF1FBCC8FF1FBCC7FF1FFCA9FF1F52
:10162000A4C9FF1F9CC8FF1FF4B3FF1F1F00008049
:101630005D4B70B5186809F0F7FA5C4909F04CFB8E
:101640005B4909F0FDFB5B49044609F0F9FB08F032
:10165000B9FE05F0FBFC4AA3D3E9002308F006FF1E
:1016600049A3D3E9002308F04FFD09F0D7F9002181
:10167000054609F0CFFC00286DD14FF07E51284679
:1016800009F0E6FC002872D04FF480304A4B4B49F9
:10169000D862204609F0D4FB08F094FE05F0D6FC91
:1016A0000022474B08F0E2FE39A3D3E9002308F0FB
:1016B0002BFD09F0B3F94349054609F0ABFC0028BE
:1016C00042D14149284609F0C3FC30B33F4A404D5E
:1016D000404B41499D61DA61204609F0B1FB08F0B9
:1016E00071FE05F0B3FC2CA3D3E9002308F0BEFE85
:1016F0002BA3D3E9002308F007FD09F08FF9374940
:10170000044609F0A5FC10BB3549204609F082FCCF
:1017100018B3344B3448986170BD2846334909F0FA
:10172000DBFA4FF09E41064609F0D6FA09F09AFC22
:101730000546304605F0CEFC4FF09E4109F0CCFA4C
:1017400009F090FC0246C3E7294A2A4DC0E7254B21
:101750002948986170BD002098E74FF08F412046DE
:1017600009F0BAFA09F07EFC1E4B986170BD4FF08B
:101770008F41284609F0B0FA09F074FC86E700BFF3
:10178000000000809999C93F000000606666E63F4E
:101790000000000000C07240000000A09999A93F1D
:1017A000000000403333C33F00AAFF1F00007A440B
:1017B00000D05F4700003041C0C8FF1F0000F0416B
:1017C000000059400000A0411EDE8946008C3C4BC1
:1017D00000BE6C5010C6FF1F0000A04000FEFF4678
:1017E00000FEFFC6BCB3FF1F00000180465615383F
:1017F0007A5517007B5517000000FF7FFFFFFFFFA2
:10180000674B70B5186809F00FFA664909F064FA79
:10181000654909F015FB6549064609F011FB08F01A
:10182000D1FD05F013FC5CA3D3E9002308F01EFEF4
:1018300000225F4B08F068FC09F0F0F85D4B5E4950
:101840001860044609F040F90021054609F0E2FB62
:10185000002840F095805949284609F0F9FB0028F6
:101860007BD15749284609F037FA4FF07C5109F0EF
:101870002BF909F01DFC534B53499862204609F09F
:1018800023F90021054609F0C5FB002876D14B4914
:10189000284609F0DDFB002865D14949284609F0B2
:1018A0001BFA4FF07C5109F00FF909F001FC474B8E
:1018B00000219862204609F0ADFB002864D13F4921
:1018C000204609F0C5FB00284BD13D49204609F0D0
:1018D00003FA4FF07C5109F0F7F809F0E9FB3C4BB3
:1018E0003C499862204609F0EFF80021044609F0CF
:1018F00091FB002846D13149204609F0A9FB70BB75
:101900002F49204609F0E8F94FF07C5109F0DCF846
:1019100009F0CEFB304B4FF074519862304609F01D
:10192000DBF908F04FFD05F091FB00222B4B08F08E
:101930009DFD00222A4B08F0E7FB09F06FF800211B
:10194000044609F067FB08BB1C49204609F080FBF0
:1019500058B1244B2448D86170BD24488BE72348F4
:10196000D8E72248BBE72148A1E72149204609F0F2
:10197000B3F909F09DFB1B4BD86170BD002096E7C1
:10198000002078E70020C5E70020A8E7154B0020DD
:10199000D86170BDAFF30080000000009A99154037
:1019A00000AAFF1F00007A4400D05F4700002041DA
:1019B00000804840B49DFF1F6666EE41A655AC46C8
:1019C0004B243E4718C5FF1FCDCC2E424CC5FF1FF0
:1019D00080C5FF1FCDCC0441B4C5FF1F00003E40B1
:1019E00000708C401CAAFF1F80FFFF7FC0FFFF3FDD
:1019F0004B24BE470E4B1B6913B90E4AD361704787
:101A00000C4A10B5012B4FF48034D46108D0022B5E
:101A100005D1FFF7F5FE084B0022DC619A6110BD8D
:101A2000FFF706FE044B00229C61DA6110BD00BF87
:101A300044ACFF1F34CAFF1F90ACFF1F10B5294AEA
:101A4000294B126882B00192019A1A60FFF792F84E
:101A5000FFF7D6F9254B1C78BCB1254C2368002B29
:101A600006D1244B1B68EBB90123236002B010BDE3
:101A7000FCDDFFF7BFFF2368012B17D0022B1FD01F
:101A8000032B23D0032BEFDCF0E71B4801F020FDF4
:101A90001A4B1B4A1B48DC615C62D46101F018FDE3
:101AA00002B010BDFFF7B0FA2368EBE7114B5B689B
:101AB00013B902232360D9E7FFF7CEFC2368E1E7DF
:101AC0000C4B9B6853B903232360CFE7094BDB68BA
:101AD000002BC9D0FFF748FD2368D3E7FFF7DAFCF6
:101AE0002368CFE7E4CCFF1F00AAFF1FD4B1FF1F7C
:101AF000F4B3FF1F44ACFF1F68B4FF1FFCC9FF1FF6
:101B000034CAFF1F4CC6FF1F2DE9F04F85B00423D8
:101B100002220093052103237D487E4C03F010F937
:101B20000221142003F0C6FE0221112003F0C2FEA0
:101B3000794BD3F8A010D3F88820012001F5007765
:101B400002F5007600254FF47A4327606660E56071
:101B500020726072013BFDD191F8003292F80022B0
:101B60006E4D6F492C65D20703EA000344BF43F072
:101B70000203DBB204221420A37203F0B5FD01239B
:101B8000042268496C641120237403F0ADFD237CAA
:101B90006548664D654E0133237403F03FF9644A8E
:101BA000644B12681A60644B042103F12802184642
:101BB000FEF7E6FC614B03F1280218465E4B4FF43A
:101BC000803404219C61DC611C625C621D60FEF754
:101BD000D7FC5B4B03F128021846584B04219C614B
:101BE000DC611C625C621D60FEF7CAFC554B544D03
:101BF00003F11802AC61EC612C626C620220A2F16C
:101C00001804002102F80F0C204622612172E160C5
:101C10004D4C04600B462E60044600E0226942F8F9
:101C20002310484A4748527A01339A42F6DC474B20
:101C30001A6812B901F02AB91A465369002BFBD170
:101C4000404B53613F48424B424F03600024446184
:101C50008480C480847201F0A7FF3F4B3F4A404D0F
:101C60001A602146224638460A261E72FEF788FC74
:101C70004FF480433B6201213A4B3B6005F118026F
:101C80002846FEF77DFC3A220E23DFF8F0806A85B5
:101C9000AB85C1224FF00053EA852B6340F2776297
:101CA0001C23314EAA864046EB862C852F4B2B6099
:101CB000C8F800702C77C8F8045088F8084088F8F5
:101CC0000940C8F80C4088F8104003F0FDF9284A94
:101CD0002849294F404609F00BFA174B73603046EC
:101CE000356034727472F460347403F0EDF9204A94
:101CF0002049304609F0FCF9144B7C721A68124BEB
:101D00003B603C613C72FC60104BD2BB01F0C1B83F
:101D1000D8B1FF1F04AAFF1FB8C5000020CCFF1FC9
:101D2000FD04000079040000B4C8FF1FCCBF000010
:101D3000949DFF1FBCC8FF1FFCC9FF1F34CAFF1FB3
:101D4000F8B3FF1F58B2FF1F7CBB0000A8CCFF1FD9
:101D5000D8BF0000D8A9FF1FC8A9FF1F80BF00007F
:101D600068B4FF1F08C30000D4C9FF1FA8BF00004C
:101D7000FC9BFF1F6D04000038B2FF1FC0C9FF1F8E
:101D80001A465369002BFBD15761DFF864E3C24E5A
:101D9000BEF80030C14ADFF85C933A60002401339A
:101DA00006F13402AEF80030FB617C61BC80FC803F
:101DB000BC72BB4BBC61304602210393FEF7E0FBD3
:101DC000DFF834E3B74AB849B84DC6F824E04FF419
:101DD0008050B261F161224621463062B44BB46258
:101DE0004846F46234633360FEF7CAFBB14BC9F86E
:101DF000003005F118024FF4804328460121C9F84C
:101E00002030FEF7BDFBAC4B2B603A21039B69856C
:101E10000E224FF0005E40F27761AA85C1201C229D
:101E2000C5F830E02C85E885A9861846EA862C7727
:101E30005E601F601C725C72DC601C7403F044F90D
:101E4000039BDFF8B8B29D4A9D49DFF8B4A2DFF8E2
:101E5000B4829C4F18469C4B039309F049F99B4B65
:101E6000CBF8043058464FF001038BF808308BF85C
:101E70000930CBF80060CBF80C408BF8104003F031
:101E800023F98E4A8E49924E584609F031F9504650
:101E9000CAF80090CAF804508AF808408AF8094045
:101EA000CAF80C408AF8104003F00EF9834A8449BE
:101EB000DFF854B2DFF85492504609F019F9834B19
:101EC000C8F8043040464FF0020388F80930C8F8DB
:101ED000005088F80840C8F80C4088F8104003F01B
:101EE000F3F84046754A7649724DDFF824A2DFF8D0
:101EF000248209F0FDF8224621467648FEF740FB91
:101F0000744B75481D60224621464FF480451D6282
:101F1000FEF736FB704B674D1D60224621464FF49D
:101F200080456E481D62FEF72BFB6C4B6C481D62B2
:101F3000224621465F4D1D60FEF722FB684B694D2E
:101F40001C832246214638465C83DC611C629C620D
:101F50009C85DC851C631D60FEF712FB039B3D60C6
:101F60002246214618463C837C83FC613C62BC626D
:101F7000BC85FC853C63FEF703FB039B06F128024E
:101F8000042130461D601C834FF480355C83DC6186
:101F90001C629C629C85DC851C63FEF7F1FA524B47
:101FA00033600BF1280204215846B561F5613562B2
:101FB0007562FEF7E5FA0AF1280204214A4BCBF8D4
:101FC00000305046CBF81850CBF81C50CBF82050BE
:101FD000CBF82450FEF7D4FA434BCAF800303D4BFF
:101FE00088F80840404688E8480088F80940C8F862
:101FF0000C4088F81040CAF81850CAF81C50CAF8AB
:102000002050CAF8245003F05FF82C4A2C49374D71
:10201000404609F06DF8304B89F80840484689E899
:1020200048004FF0010389F80930C9F80C4089F8DD
:10203000104003F049F8214A2149DFF8DC80484686
:1020400009F056F8254B88F80840404688E84800D3
:102050004FF0020388F80930C8F80C4088F81040A7
:1020600003F032F8154A1649DFF8B090404609F0FF
:102070003FF81B4B2C72284685E808086C72EC6010
:102080002C7403F021F80E490C4ADFF8948028469E
:1020900009F02EF846E000BFA0B4FF1F20C30000E7
:1020A00000B2FF1F00B28E04E8728E044CC6FF1F00
:1020B000C0BF000008C30000A8BF0000FC9BFF1FBA
:1020C0006D04000020C8FF1F54C8FF1FFCC9FF1F7C
:1020D0003CA9FF1F3CC7FF1F30B4FF1F98C7FF1F5D
:1020E000ECC7FF1F14C30000CCBF000094AAFF1F61
:1020F0001ACCFF1F20B1FF1F80F9855AF0C8FF1FBF
:102100007CC9FF1F90C9FF1F58ACFF1FFCC5FF1FF4
:1021100060C7FF1FE8C5FF1F6CAAFF1FACC6FF1FEB
:1021200014ACFF1F6348644D04724FF00102427209
:10213000C460047480E8800802F0C6FF5F49604A0A
:102140005C4808F0D5FF5F48039B03604FF0020234
:1021500004724272C4600474C0F804B002F0B4FFA8
:10216000574A5649574808F0C3FF5748047244720B
:10217000C460047480E8400402F0A6FF504A4F494E
:10218000514808F0B5FF4FF00103484689F809307F
:1021900089F80840C9F80C4089F81040C9F800B027
:1021A000C9F804A002F090FF4449454A484608F0A7
:1021B0009FFF0323454A88F809304046C8F80420A9
:1021C00088F80840C8F80C4088F81040C8F800A00B
:1021D00002F07AFF3A4A3949404608F089FF4FF049
:1021E000010105F1180269723949296023462C72F0
:1021F000EC6021462A612C4600E0226942F8231057
:102200006A7A2D4801339A42F7DC324B1A6812B9C8
:1022100000F042BE1A465369002BFBD155612E4C8B
:102220002E4F2F4A2F4B2C6000242A622B634FF035
:10223000884121486C61AC80EC80AC722A4E02F07F
:102240006DF82246214647F6FF733846AB85EC858C
:10225000FEF796F9254B3B603046254B73603560A1
:102260003C7634727472F460347402F02DFF144AB8
:102270001249204D304608F03BFF1F4B042103F16B
:1022800028021846FEF77CF9124B1C491A681A4BB3
:102290006C72196018492C614FF480338B61CB61EB
:1022A0000B624B620A4B2B602C72EC60094B42BBF9
:1022B00000F0F5BDE0AAFF1FD8A8FF1F6D040000C5
:1022C000FC9BFF1F84C6FF1F98C6FF1FFCC9FF1F92
:1022D0007CBB0000A8CCFF1FFCC20000CCACFF1FE1
:1022E000E63C010082902C0090ABFF1FE4BF000091
:1022F00034CAFF1FC0C8FF1F90ACFF1FCCBF000037
:102300001A465369002BFBD15561DFF850E3B64BF9
:10231000BEF90020B5492960002402F1010C1344E4
:102320002146224640F6CC476C61AC80EC80AC7212
:10233000AF48AEF800C0AB616C6285F82840EF6131
:102340002F62FEF71DF9AB4BAB4FAC4EDFF810938D
:10235000DFF81083DFF810B3DFF810A303F11802E1
:102360001846A34B1F604FF480471F620121A44B06
:102370000393FEF705F99F4BA24F1F60022106F160
:10238000340230460F465962FEF7FAF89E4B33602E
:102390009E4BB361A3F57C53183BF3614FF480531C
:1023A00033629B4B7362394609F134024846B4628A
:1023B000F4623463FEF7E4F8934BC9F80030934BB2
:1023C000C9F81830A3F57C53183BC9F81C304FF4FA
:1023D0008053C9F820308E4BC9F8243008F1280208
:1023E00004214046C9F82840C9F82C40C9F83040BB
:1023F000FEF7C6F8039B874AC8F800204FF48037E1
:10240000184683E86000C8F81870C8F81C70C8F84F
:102410002070C8F824701C725C72DC601C7402F0BE
:1024200053FE039B7C4A7D49734D184608F060FEBD
:102430006F4B8BF8084058468BE808028BF8094030
:10244000CBF80C408BF8104002F03EFE724A734904
:10245000584608F04DFE674BCAF804305046CAF89B
:1024600000908AF808408AF80940CAF80C408AF8B7
:10247000104002F029FE6949674ADFF8F4B1DFF83D
:10248000F491504608F034FE65485A4A047280E8D8
:1024900004014472C460047402F016FE5F495E4A8F
:1024A0005F48DFF8D4A108F023FE5E484FF0010238
:1024B00080E840010472C4600474427202F004FEB9
:1024C0005649554A5748584E08F012FE5748584A40
:1024D000C0F80080426004724472C460047402F068
:1024E000F3FD4D4A4D495148DFF8908108F000FE58
:1024F000224621464F48FEF743F84F4B03F1340282
:1025000018464C4B02211D604FF480451D62FEF7BA
:1025100037F84A4B3C4D03F128021846464B1D60E4
:102520003A4D9D61A5F57C55183DDD614FF4805510
:102530001D62374D5D6204219C62DC621C63FEF704
:102540001FF83E4B334D3E481D60224621469F6199
:10255000DF611F625F62FEF713F8394B394D3A486D
:102560001D60224621461C835C83DC611C629C62E8
:102570009C85DC851C63FEF703F8334B33481D60F4
:10258000224621461C835C83DC611C629C629C8524
:10259000DC851C63FDF7F4FF2C4B2D481D602246A3
:1025A00021461C835C83DC611C629C629C85DC850B
:1025B0001C63FDF7E5FF274B03F118021846244B77
:1025C00002211D601C835C83DC611C629C629C8513
:1025D000DC851C63FDF7D4FF1F4B134D03F118027C
:1025E00018461C4B02214BE0F541ED5EF0BF0000A8
:1025F000D0CBFF1FA0B2FF1F08C3000010C6FF1FF3
:102600003CC9FF1F9CBF0000C0BF000000B28E0489
:1026100080F9855ACCBF0000FC9BFF1F6D040000B1
:1026200068C9FF1F98A8FF1FB4BF0000E8C9FF1FBB
:1026300090ACFF1F1CAAFF1F30B3FF1FDCABFF1FB6
:1026400094CAFF1F14C30000C8CAFF1FFCCAFF1FA3
:1026500030CBFF1F68B1FF1FA8A9FF1F18CCFF1FB9
:102660001CABFF1FBCB3FF1F50C9FF1FACC9FF1F2E
:102670006CCAFF1F14C7FF1F00C7FF1F28C7FF1F1B
:102680001D60FDF77DFFA54B03F118021846A44B12
:1026900002211D60FDF774FFA24B03F128021846CA
:1026A0009E4B04211D60FDF76BFF9E4B9E4D9F4886
:1026B0001D60224621469F61DF611F625F62FDF758
:1026C0005FFF9A4B9A4D1D60224621464FF480458C
:1026D00098481D62FDF754FF964B954D1D602246AC
:1026E00021464FF4804594481D62FDF749FF924B07
:1026F0008F4D1D60224621464FF480458F481D6254
:10270000FDF73EFF8E4B03F1180218468B4B01215B
:102710001D62874D1D60FDF733FF8A4B8A4D03F123
:1027200028021846864B04211D6002255D62FDF7D4
:1027300027FF844B7C4D85481D60224621469F61C2
:10274000DF611F625F62FDF71BFF804B804D814898
:102750001D60224621461C835C83DC611C629C62F6
:102760009C85DC851C63FDF70BFF7A4B7A481D6066
:10277000224621461C835C83DC611C629C629C8532
:10278000DC851C63FDF7FCFE734B74481D6022461C
:1027900021461C835C83DC611C629C629C85DC8519
:1027A0001C63FDF7EDFE6E4B03F1180218466B4BF0
:1027B00002211D601C835C83DC611C629C629C8521
:1027C000DC851C63FDF7DCFE664B674D03F11802E8
:1027D0001846634B02211D60FDF7D2FE634B644D2A
:1027E00003F1180218465F4B02211E60FDF7C8FE78
:1027F000604B03F1340218465C4B02211E60FDF76A
:10280000BFFE5C4B5C4E1E605C4E9E61A6F57C5626
:10281000183EDE614FF480561E62594E5E6205F12D
:102820002802284604219C62DC621C63FDF7A8FE96
:102830003D4B2B60534BAF6103F13402022118462C
:10284000EF612F626F62FDF79BFE4E4B4B4A9A6120
:102850004D4B494D4D4E03F128021846494B1D6022
:102860004B4DDD614FF480551D62454D5D62042185
:102870009C62DC621C63474B0393FDF781FE424B75
:10288000294A1A609F61DF611F625F62424B3360B9
:102890003046424B424D736034727472F46034744B
:1028A00002F012FC3F4A4049404F304608F020FCFD
:1028B0003A4B2B6028463E4B6B602C726C72EC607E
:1028C0002C7402F001FC3849364A3A4E284608F08A
:1028D0000FFC039B364A1A6018462B4A5A601C723A
:1028E0005C72DC601C7402F0EFFB039B2D4A2E49E6
:1028F000314D1846314B039308F0FAFB304BCBF8BF
:10290000003058462F4BCBF804308BF808408BF83A
:102910000940CBF80C408BF8104055E0B4B1FF1FD4
:10292000A8A9FF1F58ABFF1FCCBF000064CBFF1F3F
:1029300008C3000088CBFF1FACCBFF1FF8AAFF1F06
:1029400088B1FF1F04C9FF1F9CBF000018C5FF1FEF
:1029500014C300004CC5FF1F80C5FF1FB4C5FF1F77
:1029600014B2FF1F48B1FF1FB4BF000074A9FF1FBE
:10297000A4ABFF1FC0C6FF1FC0BF000000B28E0483
:1029800080F9855ADCB4FF1FA8AAFF1F58AAFF1FB1
:10299000E8728E0494A9FF1F1CAAFF1F30B3FF1F0B
:1029A00080AAFF1FFC9BFF1F6D04000080CAFF1F51
:1029B000DCABFF1FE0B2FF1FF4B2FF1F1CB3FF1F11
:1029C00094CAFF1F68B1FF1F02F07EFBBC4ABD49DD
:1029D000584608F08DFBBC4BCAF80030BB4BCAF818
:1029E000043050464FF001038AF809308AF8084055
:1029F000CAF80C408AF8104002F066FBB04AB149B0
:102A0000DFF840B3504608F073FBB14BC9F8003013
:102A1000B04BC9F8043048464FF0020389F809303A
:102A200089F80840C9F80C4089F8104002F04CFBC6
:102A3000A34AA449DFF810A3484608F059FBA64B67
:102A4000C8F80030A34BC8F8043040464FF00303E9
:102A500088F8093088F80840C8F80C4088F8104019
:102A600002F032FB964A9749DFF8E092404608F0C0
:102A70003FFB964B3B603846984B7B603C727C72C8
:102A8000FC603C7402F020FB8D4A8E49DFF8C08266
:102A9000384608F02DFB8F4B3360904B7360304607
:102AA0004FF0010373723472F460347402F00CFB63
:102AB000834A84498A4F304608F01AFB874B2B60C3
:102AC000884B6B6028464FF001036B722C72EC60F0
:102AD0002C7402F0F9FA7B49794A834E284608F0B3
:102AE00007FB8248824A0260824A42600472447252
:102AF000C460047402F0E8FA7249714A7B487E4D62
:102B000008F0F6FA039B7D4A1A607A4A5A60184622
:102B10004FF001021C725A72DC601C7402F0D4FA8D
:102B2000039B6849664A1846754B039308F0E0FA20
:102B30007448754A02606F4A42604FF002020472A4
:102B40004272C460047402F0BFFA5D4A5D496D4888
:102B500008F0CEFA6D4BCBF80030664BCBF8043062
:102B600058464FF003038BF809308BF80840CBF838
:102B70000C408BF8104002F0A7FA5249504A5846D0
:102B800008F0B6FA62485B4A0260624A4260047228
:102B90004472C460047402F097FA494A49495C4897
:102BA00008F0A6FA5B4BCAF800304E4BCAF8043066
:102BB00050464FF002038AF809308AF80840CAF8F4
:102BC0000C408AF8104002F07FFA3E493C4A5046D9
:102BD00008F08EFA5048514A0260514A426004722D
:102BE0004472C460047402F06FFA354A35494A48A9
:102BF00008F07EFA4B4BC9F80030494BC9F8043055
:102C000048464FF0010389F8093089F80840C9F8AF
:102C10000C4089F8104002F057FA2A49284A4846E1
:102C200008F066FA4048414A0260414A4260047234
:102C30004472C460047402F047FA214A21493A48B8
:102C400008F056FA3B4BC8F80030394BC8F804304E
:102C500040464FF0010388F8093088F80840C8F86A
:102C60000C4088F8104002F02FFA154A15494046EA
:102C700008F03EFA2A4B3B6038462F4B7B603C7293
:102C80007C72FC603C7402F01FFA0E490C4A384614
:102C900008F02EFA2948264A0260274A42604FF07F
:102CA000010242720472C460047402F00DFA054914
:102CB000034A224808F01CFA21481F4A026049E0F2
:102CC000FC9BFF1F6D040000C8CAFF1F68B1FF1FF7
:102CD000FCCAFF1FA8A9FF1F30CBFF1FB4B1FF1F05
:102CE000C4C7FF1FA8AAFF1F28A9FF1F08B3FF1F03
:102CF00064CBFF1F04C9FF1FA0C8FF1F88CBFF1FA5
:102D0000ECB1FF1FCCB2FF1FACCBFF1FF8AAFF1F17
:102D100080B3FF1F88B1FF1F94B3FF1F18C5FF1FAB
:102D200014B2FF1F4CC5FF1F8CB2FF1F80C5FF1FD1
:102D300048B1FF1FB4C5FF1F74A9FF1FD8C7FF1FED
:102D4000B0A8FF1F6CB3FF1F78B2FF1FA8B3FF1F0F
:102D500044AAFF1F534A426004724472C460047460
:102D600002F0B2F95049514A514808F0C1F95148AE
:102D70004C4A0260504A42604FF0030242720472B1
:102D8000C460047402F0A0F94749484A494808F071
:102D9000AFF94A48484A0260494A426004724472A4
:102DA000C460047402F090F93F49404A434808F077
:102DB0009FF94448424A0260434A42604FF0010290
:102DC00042720472C460047402F07EF93649374AD4
:102DD0003C4808F08DF93D484FF0010242723A4AF2
:102DE00002603B4A42600472C460047402F06CF9F1
:102DF0002D492E4A354808F07BF93648364A02609C
:102E0000364A047242604472C460047402F05CF991
:102E1000264A25492F4808F06BF94FF001037372D9
:102E20002B4B336030462D4B73603472F460347436
:102E300002F04AF91C491D4A304608F059F9039B33
:102E4000264A1A601846264A1C725A605C72DC6078
:102E50001C7402F039F9039B144A1349184608F010
:102E600047F94FF001036B721C4B2B6028461C4B3B
:102E70006B602C72EC602C7402F026F90B4A0A4944
:102E8000284605B0BDE8F04F08F032B91860FEF7EB
:102E9000D9BE1F60FEF779BF1860FFF7C0B91D608B
:102EA000FFF733BAC0C6FF1F6D040000FC9BFF1F75
:102EB000B0A8FF1FC4A8FF1FA8AAFF1F30ACFF1FA8
:102EC000DCB4FF1F88C8FF1F90ACFF1F54B4FF1F66
:102ED00034CAFF1F14A9FF1FFCC9FF1FF8B3FF1F4F
:102EE00058B2FF1F0020704700207047F8B5144CFF
:102EF000037A242908BFC2805B0001250E462046C4
:102F0000C1F30721174684F83B3084F85E5084F8FB
:102F10005D5001F0BFFCF1B2204601F0BBFCC7F3ED
:102F20000721204601F0B6FCF9B2204601F0B2FCC0
:102F30002946204601F052FEB0FA80F04009F8BD63
:102F4000C49DFF1F38B5012504460571334801F0C3
:102F5000B5FC052002F0DAFC204644F26002302184
:102F6000FFF7C4FF20466C222621FFF7BFFF204653
:102F70004FF4F9722821FFF7B9FF204640F622727C
:102F80002C21FFF7B3FF204644F246423C21FFF7D5
:102F9000ADFF204640F237122421FFF7A7FF20465D
:102FA00044F2FF023021FFF7A1FF732202212046E5
:102FB000FFF79CFF4FF4C87002F0A8FC204641F6D2
:102FC0001D522E21FFF792FF042211462046FFF7E3
:102FD0008DFF20464FF498720621FFF787FF2046A9
:102FE00010220A21FFF782FF204600220E21FFF760
:102FF0007DFF204643F63C421021FFF777FF204635
:1030000047F67F722221FFF771FF204636222421E6
:10301000FFF76CFF6572284638BD00BFC49DFF1FD7
:1030200010B5044619B1012911D0002010BD552258
:103030002021FFF75BFF0028F7D0E28842F004026E
:10304000204692B22421BDE81040FFF74FBF40F266
:1030500073122A21FFF74AFF0028E6D08822202198
:103060002046FFF743FF0028DFD0E288204622F009
:1030700004022421BDE81040FFF738BF38B50546EB
:10308000F1B1802903799ABFC1F1800444EA042494
:10309000002433B9224628462221BDE83840FFF7F4
:1030A00025BFC288002322F0100203712421FFF7FC
:1030B0001DFF224628462221BDE83840FFF716BFF3
:1030C0000123037147F67F722221FFF70FFFEA8881
:1030D00042F01002284692B22421BDE83840FFF7A2
:1030E00005BF00BF0B4610B507490446184607F058
:1030F000F3FD064907F0E8FC07F0DAFF0146204639
:10310000BDE81040FFF7BABF00000143EE7CFF3E70
:10311000C369002B7ED0436A012B2DE9F0474FF0A5
:10312000000180464EDD01F0ADFF0746002872D059
:10313000D8F82400D8F81C50D8F828C0461E07F14B
:10314000040E9CFBF6F607F58279013E4FF0000A6B
:10315000B8F8203001331BB29C45CBBFA8F8203013
:10316000A8F820A05B000023BEF90020EA52002846
:10317000B8F920301EDD00221146012835F9134030
:1031800018BF9B1B002B02F10102B8BF63449042A1
:103190002144F2D191FBF0F12EF8021BCE45D7D19C
:1031A00040463946002201F047FF3846BDE8F04767
:1031B00001F018BF002191FBF0F12EF8021BCE4563
:1031C000C6D1EDE701F05EFF044620B3D8F82860D1
:1031D000D8F81C50021D002700F58270B8F8203086
:1031E00001331BB2B342B4BFA8F82030A8F8207056
:1031F00032F9021BB4BF5B0000238242E952EDD1D9
:1032000040462146002201F017FF2046BDE8F04766
:1032100001F0E8BE7047BDE8F08700BF10B400249D
:10322000C4618462048469B1092A08DDA34206DD11
:1032300052108262C161436210BC01207047204677
:1032400010BC7047084610BC704700BF2DE9F04F16
:10325000002183B0054601F015FF0090002800F022
:10326000FB802B7F002B00F08C80009A02F582738C
:1032700002F1040A9A4501937CD2DDF804E056E09D
:103280002B7F022B00F08280032B66D0042B00F0F2
:103290008880052B00F09680062B00F0E080072B3D
:1032A00000F0A180012B00F0B2806B6A2A6A5B14E7
:1032B00003EBA2329C1818191F1803EB070C03EB41
:1032C0000C0699190B444FF6FF7BDAF80090DAF8F8
:1032D000048032FB09F234FB19F4C2EA044230FBE9
:1032E00008F037FB18F7C0EA0747DAF808003CFB9C
:1032F00000F0DAF8084036FB14F6C0EA0646DAF8C1
:103300000C0031FB00F133FB10F3C1EA03438AE800
:103310008400CAF80860CAF80C302A6A6B6AA5F8FB
:103320001EB013440AF1100A2B62D64522D9E98B4C
:103330000029A5D06B6A2A6A5B1403EBA2329C18A1
:1033400018191F1803EB070C03EB0C0601F1FF3BE8
:1033500099191FFA8BFB0B44B7E72B6BEA8DEA83B5
:103360004FF00401D64503F14043297793FBF2F374
:103370006B62DCD8009C28460022214601F05CFEEE
:10338000204603B0BDE8F04F01F02CBEAB8DEB83BF
:10339000002BE2D003234FF080422A6269622B7730
:1033A000C3E72B6B69624FF005022A779A132B62F1
:1033B00011461346164694461746104614464FF6D5
:1033C000FE7B82E76B6A2A6A5B1403EBA2329C18CD
:1033D00018191F1803EB070C03EB0C0699190B4483
:1033E0004FF6FE7B71E72B8D2962EB83D3B103F19E
:1033F000FF3B4FF001022A770B461FFA8BFB6962F5
:103400000E468C460F4608460C460A465DE76B8D15
:10341000EB834FF002022A774FF0804292FBF3F3E6
:103420006B6282E7B5F82AB04FF0804393FBFBF361
:103430005A1454001019171802EB070C02EB0C0673
:103440000BF1FF3B91194FF002086B6285F81C806D
:103450001FFA8BFB531838E703B0BDE8F08F019BD0
:103460002977534586D9CAF80010CAF80410CAF85B
:1034700008100AF1100A53454AF8041CF3D879E7FA
:1034800072B6037F012B0DD9C28E5AB1072B07D01C
:10349000036AC28307215B42017793FBF2F2426227
:1034A00062B67047038DC3830022026223B10123F9
:1034B0004262037762B67047428DC28302214FF0A9
:1034C0008043017793FBF2F3436262B6704700BF1B
:1034D00072B6037F53B1072B08D0036A828EC28372
:1034E00006215B42017793FBF2F3436262B67047B9
:1034F0002DE9F8430021054601F0C4FD01210446F1
:10350000284601F0B3FD0646BCB3D0B304F5827E75
:10351000231D9E4524D90C3004F10C0111E90C0047
:1035200050F8089C50F8048C12FB39FC2CF3CF3C6B
:1035300012FB09F222F3CF32C2EA0C4213FB38FC31
:103540002CF3CF3C13FB08F323F3CF33C3EA0C4334
:103550008E4501E90C0000F1080001F10801DDD8F9
:1035600028460022214601F067FD204601F03AFD81
:103570003046BDE8F84301F035BD0028F9D1BDE87B
:10358000F8832046BDE8F84301F02CBD2DE9F04F4B
:1035900083B08846846A0190D0F81CC0D0F824A07B
:1035A000C16A076BDDF8309008F5807026468346C7
:1035B00038F902EB4FEA0E3E5CFB17F401EB840492
:1035C0005AFB17F57644C4EB6606A6EB85065CFB52
:1035D00016F007EB80005CFB10F104EB81015AFB55
:1035E00010F5C1EB0E07A7EB85055CFB15F700EBAB
:1035F00087070C4424F34F34384420F34F303544CC
:1036000025F34F35C34522F8024B764623F8020BCB
:1036100029F8025BCCD1019A1346C3F828E0D162A5
:10362000176303B0BDE8F08F2DE9F04F85B08846F1
:103630008169019101460C460390006A0290D1F81D
:1036400024B08F6A206BC96ADDF838A0DDF83C90A1
:1036500008F58074009432F9026B029C06FB04F6B4
:1036600026F0784505F10065ED0055FB15F5284C71
:1036700055FB14F5ED00013CF616C6F106062C4488
:103680003441019D55FB14F4224D38F902CBAC4274
:10369000A8BF2C4624024FEA0C3C54FB10F601EB69
:1036A00086065BFB10F107EB0C0EC6EB6E0EAEEB65
:1036B000810E54FB1EF500EB850554FB15F106EB5E
:1036C00081015BFB15F0C1EB0C07A7EB800754FBF6
:1036D00017F405EB84000E4426F34F36054425F31A
:1036E0004F35BE442EF34F3E009C23F8026B4445F9
:1036F0002AF8025B674629F802EBACD1039A13461D
:10370000C3F828C0D162106305B0BDE8F08F00BFD8
:10371000ABAAAA2AE71052002DE9F043002183B09A
:10372000044601F0A3FC01210546204601F09EFC61
:103730000646002D3CD001F001FC074600283CD095
:1037400001F0FCFB8046002842D001F0F7FB8146E7
:10375000002851D0002E45D0021D08F1040301922B
:10376000009320463B1D321D291DFFF75DFF3046AB
:1037700001F038FC284601F035FC0022394620468D
:1037800001F05AFC384601F02DFC0122414620464A
:1037900001F052FC404601F025FC20460222494639
:1037A00001F04AFC484603B0BDE8F04301F01ABC02
:1037B0000028F8D103B0BDE8F083284601F012FCE0
:1037C000002EF7D0304603B0BDE8F04301F00ABC4C
:1037D000284601F007FC384601F004FC002EE9D031
:1037E0003046F0E7031D00933A1D08F10403291D3C
:1037F0002046FFF7CBFEBDE7284601F0F3FB384635
:1038000001F0F0FB404601F0EDFB002ED2D0304637
:10381000D9E700BF2DE9F8434FF00008064600F154
:103820001805474641463046002F4FD001F01EFC98
:10383000F0B12C68B4F5803F07F1040100F1040EEB
:1038400007F5827C27D05EF8042B34FB02F334FBAF
:1038500012F903F30F0209F30F03C2EA03430A68E4
:1038600093FA12F341F8043B8C45ECD801F0BAFB13
:1038700008F10108B8F1040F05F10405D2D1002FB9
:1038800040D030463946002201F0D6FB3846BDE82C
:10389000F84301F0A7BB07F10C0100F10C0451F84B
:1038A000083C54F8082C93FA12F341F8083C54F8F9
:1038B000042C51F8043C93FA12F38C4541F8043C73
:1038C00004F1080401F10801E9D8CFE701F0DAFBBF
:1038D00007460028CCD02868B0F5803FC8D0391DF5
:1038E00007F582740B6830FB03F230FB13F302F32D
:1038F0000F0203F30F03C2EA034341F8043B8C4277
:10390000F0D8B5E7BDE8F8832DE9F84F344B3548DA
:103910001A68354912681B790B70824229D2334BE1
:103920001B784BBBDFF8D4A0DFF8D490DFF8D4804D
:10393000DFF8D4B0DAF80060D9F80070B8F80040C9
:10394000BBF80050002E3CD0A7B33A1D311D02EB4E
:10395000450201EB440100F0DDFE403540347F2C90
:103960001CD8A8F800407F2D0BD8ABF80050BDE85C
:10397000F88FA0F58070D5E71D4B4FF080421A609C
:10398000D0E700243846ABF8004001F02BFB194B80
:103990001A68C9F800201C60BDE8F88F0024304682
:1039A000A8F8004001F01EFB134B1A68CAF800206B
:1039B0001C60D8E7311D01EB440100F0CAFE403421
:1039C000CDE737B1391D01EB450100F0E2FE40358E
:1039D000C5E739464FF48072BDE8F84F07F0BABE2C
:1039E000F8CBFF1F4093FF1F1F80004010CCFF1F2C
:1039F00008E200E00CCCFF1F14CCFF1F08CCFF1F17
:103A000000CCFF1FF4CBFF1F04CCFF1F70B50021BB
:103A1000044601F02BFB80B172B61C4A1368002BE0
:103A200029D01B490D6805B31A4E156000220860A5
:103A3000328062B6184601F0D5FA2046012101F025
:103A400015FB88B172B6144A1368CBB113490C68E0
:103A500074B1134D1460002208602A8062B61846C3
:103A6000BDE8704001F0BEBA70BD086062B6E4E720
:103A7000086062B670BD074910600B8062B6DCE773
:103A8000074910600B8062B670BD00BF08CCFF1FF5
:103A900014CCFF1FF4CBFF1F00CCFF1F0CCCFF1F6B
:103AA00004CCFF1F10B5044601F030FC204610BDC9
:103AB000284B29491A68294842F400421A600A68CA
:103AC00042F002020A601A6842F002021A600368B9
:103AD000002B3EDB224B1B68002B3ADB214A4FF0C8
:103AE000864313601368002BFCDBF0B51E4C1F48A7
:103AF000DFF8A8E01E491F4B1F4A204F204E214DE2
:103B000041F2100CC4F800C0002404600120CEF87B
:103B10000000DFF88CE0C1F800E04FF4803119605C
:103B2000194B1360DFF87CE0184A3A603460286073
:103B300000F18E40CEF80000154CB96715481649C3
:103B400046F8503C4FF4C0632A61236003600B6069
:103B5000F0BD70473C8004404080044000F00240CB
:103B600080F0024000F1024004F1024060F00240A7
:103B700008F002400CF0024010F0024014F0024045
:103B8000E0F0024084F002401B1F0100001F1F1FD5
:103B900008B004400CB0044018B0044004F00240E7
:103BA0000100000788F00240F8B5274C274E204658
:103BB000012101F047FB264A264B002515601D60B8
:103BC000FFF776FF244B254A25494FF4C060186063
:103BD000236802201A6098802279196102F18042DC
:103BE00002F5043240F20117DF80DE604FF480718D
:103BF00006278F26D9829D82D9839D619F839860F5
:103C00001570167001F0C4FA2279164B1649187017
:103C100053119B00174603F160430F70134D144E70
:103C2000144C02F11000012103F5614302F01F0260
:103C300001FA02F24FF080770F492F602C6046F8AE
:103C400020101A60F8BD00BFF8CBFF1F00FEFFFF79
:103C500008CCFF1F00CCFF1F04B004404092FF1FA0
:103C600022F0024010CCFF1F1B80004000F00240F9
:103C70000096FF1F0100009009390000024A034925
:103C8000034807F035BA00BFFC9BFF1FA53A0000B0
:103C9000F8CBFF1F037E002B41D0012B2DE9F04113
:103CA0003ED0044601F04AF9054600285DD0A28BBB
:103CB00082BB638B04EB4303B3F92230291D05F566
:103CC000827647F6AE70002701E0A28B734604EBC4
:103CD0004202B2F924E0734400FB03F31B1421F801
:103CE000023BA28BB4F81AC004EB4208013292B234
:103CF0009445A8F82430A28398BFA783B142E4D1A9
:103D000020462946002201F097F92846BDE8F041F7
:103D100001F068B904EB4203B3F92230CEE77047F3
:103D2000134C428B2368E2B11132D0F820C000EB73
:103D3000420E00F1220644F2A71717FB13F10D4DB6
:103D40009AB2CB0B090407FB02330D402B4423F03E
:103D5000004202EBD3733CFB03F226F8022FB64578
:103D6000EBD10222236002769BE72076BDE8F0814A
:103D7000C09DFF1F0000FF7F2DE9F04FC56A83B093
:103D800015B903B0BDE8F08F064601F0D7F801463B
:103D900001900028F5D006F11C0292E8041401F10C
:103DA000040EB369F44FF54801F58271009196F85D
:103DB0002810F34CDFF8CC9314F80180DC1704EAE8
:103DC000090989EA430382EA0A0909EA080908EAB3
:103DD000040403F03F0862408AEA090AC3F3851429
:103DE00057F8288050F82440CAEB0209CC4401312E
:103DF000E04486F82810A04435FB08F8E149DC17B8
:103E0000214081EA430302F4006903F03F0104F416
:103E100000642AF4006A624049EA0A0AC3F3851B77
:103E200057F8214050F82B10CAEB0209CC446444E7
:103E3000214435FB01F1C8EA0144D249CEF80040E3
:103E4000DC17214081EA430302F4806803F03F015C
:103E500004F480642AF4806A624048EA0A0AC3F3E0
:103E60008519CAEB020857F8214050F82910C444BC
:103E70000CEB0408884435FB08F8C249DC172140E4
:103E800081EA430302F4006903F03F0104F4006493
:103E90002AF4006A624049EA0A0AC3F3851B57F80C
:103EA000214050F82B10CAEB0209CC446444214451
:103EB00035FB01F1C8EA0144B249CEF80440DC17F1
:103EC000214081EA430302F4007803F03F0104F447
:103ED00000742AF4007A624048EA0A0AC3F385199A
:103EE000CAEB020857F8214050F82910C4440CEBE3
:103EF0000408884435FB08F8A249DC17214081EA10
:103F0000430302F4006903F03F012AF4006A04F459
:103F10000064544049EA0A0AC3F38512CAEB040953
:103F200057F8211050F82220CC4461440A4435FB54
:103F300002F2C8EA0241934ACEF80810D9170A40A3
:103F400082EA430304F4806803F03F0201F48061D5
:103F50002AF4806A4C4048EA0A0AC3F38519CAEB7E
:103F6000040857F8221050F82920C4440CEB01082B
:103F7000904435FB08F8834AD9170A4082EA430384
:103F800004F4006903F03F022AF4006A01F40061BE
:103F9000614049EA0A0AC3F3851B57F8224050F8EA
:103FA0002B20CAEB0109CC446444224435FB02F2C5
:103FB000C8EA0242734CCEF80C20DA17144084EAA7
:103FC000430301F4807802F4807203F03F042AF482
:103FD000807A514048EA0A0AC3F38512CAEB010805
:103FE00057F8244050F82220C4440CEB04089044B5
:103FF00035FB08F8634CDA17144084EA430301F4F4
:10400000006903F03F042AF4006A02F400624A40A7
:1040100049EA0A0AC3F38511CAEB020957F824409A
:1040200050F82110CC446444214435FB01F1C8EA26
:1040300001445449CEF81040DC17214081EA430383
:1040400002F4806803F03F0104F480642AF4806A7B
:10405000624048EA0A0AC3F38519CAEB020857F816
:10406000214050F82910C4440CEB0408884435FB67
:1040700008F84449DC17214081EA430302F400694F
:1040800003F03F012AF4006A04F40064544049EA52
:104090000A0AC3F38512CAEB040957F8211050F835
:1040A0002220CC4461440A4435FB02F2C8EA0241B2
:1040B000344ACEF81410D9170A4082EA430304F4B4
:1040C000007803F03F0201F400712AF4007A4C40BA
:1040D00048EA0A0AC3F38519CAEB040857F8221004
:1040E00050F82920C4440CEB0108904435FB08F833
:1040F000244AD9170A4082EA430304F4006903F012
:104100003F022AF4006A01F40061614049EA0A0AA8
:10411000C3F3851B57F8224050F82B20CAEB010946
:10412000CC446444224435FB02F2C8EA0242154CF6
:10413000CEF81820DA17144084EA430301F48068AB
:1041400002F4806203F03F042AF4806A514048EA96
:104150000A0AC3F38512CAEB010857F8244050F845
:104160002220C4440CEB0408904435FB08F8054AAF
:10417000DC17224008E000BFF4C00000F4C10000DA
:10418000F4BF00000100004682EA430301F4006925
:1041900004F400622AF4006A03F03F044A4049EA4A
:1041A0000A0AC3F38511CAEB020957F8244050F8F4
:1041B0002110CC446444214435FB01F10EF1200E62
:1041C000C8EA01414EF8041C009971453FF6EFAD75
:1041D000019CF2613046C6F820A0C6F824C0B36145
:1041E0000022214600F028FF204603B0BDE8F04F32
:1041F00000F0F8BE2DE9F04F83B0064600F09EFEB9
:104200000190002800F0848000F58279031DB6F942
:104210002E100091994565D9871DDFF8FCE008E074
:104220004FF0000327F8023C3B46994507F102078F
:1042300058D9F3694FF6FE729342F1DD326A9B1A48
:10424000F36113FB33F3716B306B491033FB01F1F6
:104250008913C20032FB01F1726A02440A4422F05F
:1042600000424FEAD25CC2F3CF147262009A322A43
:104270000CF1010A42DDB26A3EF91C503EF91AC047
:10428000024402EB5000084400EB610121F00041C0
:10429000CA0D02F101083EF912003EF91820B16280
:1042A000121AC1F3CF1101FB02F2C5EB0C0CB6F9E7
:1042B0002E10B6F92C8004FB0CFC00EB224205EB1F
:1042C0002C4C01FB02F208FB0CFCD21302EBEC3885
:1042D00033FB08F3DB1327F8023C3B46994507F113
:1042E0000207A6D8019C30460022214600F0A4FE19
:1042F000204603B0BDE8F04F00F074BE3EF91C202C
:104300003EF91A10891A04FB01F802EB2848DFE78E
:1043100003B0BDE8F08F00BF24C3000038B50D46E0
:1043200004460021284606F075FE48B94FF07E513C
:10433000284606F08DFE30B14BF6FD73636338BD41
:104340000D4B636338BD0D49284606F0C5FC06F0E9
:1043500089FEB0F5804F08DAC0F5804000EB4000E0
:1043600040F391035B42636338BDA0F5804000EBEE
:10437000400040F31103E1E700D0FFFF00FEFF46DD
:10438000036A2DE9F04780464BB9D8F81830D8F8C1
:104390001C2003EBC213C8F81830BDE8F08700F00A
:1043A000CDFD06460028F0D0D8F81890D8F81C703B
:1043B000D8F820C0134D4946841C00F5817E0B0EB1
:1043C0005A1C35F9130035F91220C1F30F2ACAF52A
:1043D000803300FB03F30AFB023353FB0CF324F896
:1043E000023FA6453944EAD109EBC7174046C8F851
:1043F00018703146002200F01FFE3046BDE8F0473D
:1044000000F0F0BD24C300002DE9F84FB0F91830DA
:104410000BB9BDE8F88F044600F090FD0546002872
:10442000F7D0B4F92C30061D072B32D8DFE813F093
:1044300066009000A700B9000800D600E9004C0013
:10444000D4F830C0BCF1000F39D0E06905F58278AE
:10445000B646C10D4A1CC0F3CF13D2B23CF911A02D
:104460003CF91210B4F91820A76AC3F57F4909F185
:10447000FF0909FB0AF903FB01931B1402FB03F379
:10448000DB132EF8023B3844C64520F00040E0D153
:10449000E061B4F92E206AB105F5827101E0B4F94A
:1044A0002E20B6F90030134403F30F0326F8023B25
:1044B000B142F4D820460022294600F0BDFD28462E
:1044C000BDE8F84F00F08EBDE36900F5827837460D
:1044D00008E0B4F92400A26A27F8020B1344474508
:1044E000E361D6D0A26A9A42F3D9B4F918104842CF
:1044F00000F0D4FF00B2E369A084ECE74A4F00F576
:10450000827E3046E369B4F91810D4F828804FEA67
:10451000D35CC3F3CF1B37F91C900CF1010CCBF526
:104520007F4A0AF1FF0A37F91CC009FB0AF20BFBAC
:104530000C22121401FB02F2D21320F8022B13EB0F
:10454000080348BF23F000437045E361DAD1A0E7D8
:10455000E26900F5827E3146B4F91870A06A42F330
:10456000CF3303FB07F3DB1321F8023B7145024411
:10457000F2D1E261B4F92E20002A8DD19AE7E269E6
:10458000831D00F5837051004ABF218BB4F91810C8
:10459000494223F8021CA16A023398420A44F2D12C
:1045A000E7E7E16900F5827E30460029B7BF238B3B
:1045B000B4F918205B421AB24F004FEA810348BF9A
:1045C0005B425B0C02FB03F3DB13A76A20F8023BA0
:1045D000704501EB4701E8D1E1615AE7E269276ADA
:1045E000831D00F58370BA4236BF218BB4F91810D1
:1045F000494223F8021CA16A023398420A44F2D1CC
:10460000B7E7E26900F5827E3146B4F91870A06A16
:1046100042F3CF3303FB07F3DB1321F8023B714571
:10462000A2EB0002F1D1A4E724C300002DE9F84376
:1046300085690DB9BDE8F883064600F07FFC0446A5
:104640000028F7D0F369043004F5827744F2A7110B
:1046500011FB13FEDFF8B8C09AB24FEADE334FEA1F
:104660000E4E01FB02330EEA0C0C634423F00042B1
:1046700002EBD37335FB03FE11FB13FC244A4FEA14
:104680000C4808EA020202EBDC329BB201FB032376
:1046900023F0004202EBD37335FB03F2CEEA024E65
:1046A00011FB13FC1A4A4FEA0C4808EA02029BB2BB
:1046B00002EBDC3201FB032222F0004303EBD27257
:1046C00035FB02FC11FB12F8114B4FEA084909EACD
:1046D000030303EBD83392B201FB023222F0004312
:1046E00003EBD27335FB03F2CCEA024240F808EB4D
:1046F000874240F8042CABD83046F36121460022B3
:1047000000F09AFC2046BDE8F84300F06BBC00BF07
:104710000000FF7F2DE9F04F00F5807EB1E8A00A90
:10472000B2E84015C5EA0643C6EA2544C7EA08458B
:10473000C8EA2746C9EA0A47CAEA2948CBEA0C4927
:10474000CCEA2B4AA0E8F8078645E7D1BDE8F04F50
:1047500070474FF000022DE9F00F00F5807C00BF9C
:10476000B1E8A00AC5EA0203C2EA2544C7EA020585
:10477000C2EA2746C9EA0207C2EA2948CBEA020987
:10478000C2EA2B4AA0E8F8078445E9D1BDE8F00F5A
:1047900070474FF000022DE9F00F00F5807C00BF5C
:1047A000B1E8A00AC2EA0543C2EA0504C2EA074525
:1047B000C2EA0706C2EA0947C2EA0908C2EA0B4987
:1047C000C2EA0B0AA0E8F8078445E9D1BDE8F00F7A
:1047D00070472DE9F00F089C00F5007B51F8045B51
:1047E00053F8046BC5EA0647C6EA254952F8045B4C
:1047F00054F8046BC5EA0648C6EA254AA0E88007D3
:104800008345EBD1BDE8F00F704700BF0020704733
:1048100090F8392090F83800101A704790F8383026
:1048200090F839209A4205D95A1C034480F8382060
:10483000187E70474FF0FF30704700BF90F8383057
:1048400090F839209A4286BF1B18187E4FF0FF302F
:10485000704700BF704700BF38B50546B0F85E002E
:1048600090B195F85D301446C3F1210294420CD802
:1048700005F13B001844224602F09EF995F85D30A0
:10488000234485F85D30204638BD01201446287148
:10489000EEE700BFB0F85E306BB190F85D30202BD2
:1048A00007D8C218013380F85D30012082F83B1030
:1048B0007047012303710020704700BF0023426945
:1048C00080F8383080F8393080F85C3080F85D301E
:1048D00080F85E3080F85F3006CA30B40D68046935
:1048E00043662A4383660A60A370426990F8613088
:1048F0001649146813441D7A5B7B01EBC5051B0246
:104900006D6803F4E06343F064032B6090F8623059
:1049100013449D7CDB7D01EBC5011B02496803F458
:10492000E06343F064030B6021685368194205D0CB
:10493000036927225A70036904229A7103692022AD
:104940005A71036980229A7030BC7047B8C5000064
:1049500010B50269D378DBB2D90604463DD51021E3
:104960005806D17038D503F0040303F0FF02002B82
:1049700051D03D49626E00230B7084F85D30002AEF
:104980005BD0904794F85D30002B56D02369D0223D
:104990009A70236994F83B201A712369012284F8E4
:1049A0005C200222DA7010BD304B84F860009C421B
:1049B0004AD02F4B9C4252D094F8391013791F29BA
:1049C000DBB207D82848007820B16018013184F89C
:1049D000391003760223D37010BD5906C3D49178E1
:1049E00001F0100101F0FF000029DDD013F00103F8
:1049F0001ED194F85C1094F85D00884281BF4B1C76
:104A0000091984F85C3091F83B3013712369D02286
:104A10009A702269DEE7236984F83920C0229A70EF
:104A20002369114A1979012111700222DA7010BD2F
:104A3000C023937022691379CCE70122002384F804
:104A40005D2084F83B30A1E7626994F86130094940
:104A500013440322187A00F047FE2269ACE762692A
:104A600094F861300449F3E71CCCFF1FC49DFF1F7D
:104A7000309EFF1FD94A0000E54A00000369DB7839
:104A800003F0200373B190F860300133DBB2012BE7
:104A900080F860301AD9426990F861301344187A6E
:104AA00000F09EBE70B5426903F0FF0590F86130DA
:104AB00013440446187A00F093FEA36E5BB184F8A9
:104AC000385094F83900BDE87040184790F85F30CE
:104AD000002BE0D0704770BD0148FFF7CFBF00BF8B
:104AE000C49DFF1F0148FFF7C9BF00BF309EFF1FD5
:104AF0002DE9F047374FDFF8E0903B68026982B05C
:104B000006460093DDF800800021A025D3789B069F
:104B10005BD53B680193019BC8EB03030F2BF5D9D1
:104B200049B1102BF2D000209070336980229A7026
:104B300002B0BDE8F087726996F861301344052130
:104B4000187A00F0B7FE726996F8613013440121BB
:104B500093F812A0504600F0ADFE09240021504603
:104B600000F094FE2B46013BFDD10121504600F0A0
:104B70008DFE2B46013BFDD1013CEFD1706996F8CB
:104B8000611001444FF4A0720C7A4B7B09EBC40115
:104B90001B02496803F4E06343F064030B6096F87A
:104BA00062300344997CDB7D09EBC1011B0249683B
:104BB00003F4E06343F064030B60013AFDD1326912
:104BC000D3789B064FF00101A3D4012002B0BDE8C9
:104BD000F08700BFE4CCFF1FB8C50000F0B5036943
:104BE0001222DA700269937803F0200385B004463C
:104BF0000D46002B5ED0B42393703C4922690B68AC
:104C00000093009E05E00B680193019B9B1B042B06
:104C100042D8D37803F0200303F0FF00002BF2D03A
:104C200094F85D30002B31D04FF0000E4FF0020CA5
:104C300004EB0E0393F83B3013710B680393039F4F
:104C4000206907E09B060DD50B680293029BDB1BD6
:104C5000052B28D8C378DBB203F0020202F0FF066E
:104C6000002AEFD080F803C02669F378DBB2DF06B4
:104C700032462DD49F062BD5DB0731D40EF1010E21
:104C800094F85D305FFA8EFE7345D1D800201DBBCD
:104C9000002384F85E3004E09070236980229A70CB
:104CA000042005B0F0BD86702369802204209A702C
:104CB00005B0F0BD03F0FF06FFF71AFF10B904209E
:104CC00005B0F0BD236984F85F60B0229A7094E764
:104CD0008023B3700420DAE726698023B370D7E716
:104CE000BEF1000F0CBF02200320F6E7E4CCFF1F4B
:104CF0000148FFF72DBE00BFC49DFF1F0148FFF70D
:104D000027BE00BF309EFF1F70B50468002C05460B
:104D10000E46C8BF641807DD14F8012D2979287ADA
:104D200000F0CEFDA642F7D1287B2E61012100F0D4
:104D3000ADFD287B0021BDE8704000F0A7BD00BF9D
:104D40002DE9F04104465FFA83F8069D4360D6B230
:104D500021600F46826001214046E56000F0AAFD17
:104D6000EDB23046012100F0A5FD2846012100F0FA
:104D7000A1FD4046002100F089FD3046002100F0F1
:104D800085FD2846002100F081FD3846012106F00E
:104D9000B5F9014620612046FFF7B6FF2046BDE881
:104DA000F08100BF012A30B40A4615D01A4B0569BC
:104DB000002903EA0103B8BFCA1D002B4FEAE20233
:104DC0001FDBA95C012404FA03F321EA0303AB54BB
:104DD000016930BCFFF798BF0F4B0569002903EA52
:104DE0000103B8BFCA1D002B4FEAE2020EDBA95C2B
:104DF000012404FA03F30B43AB54016930BCFFF701
:104E000083BF013B63F007030133DAE7013B63F043
:104E100007030133EBE700BF0700008000220A21EF
:104E2000818002608271C271704700BF30B5CDB21F
:104E300083B00446C571284600F02EFD00232846A5
:104E4000A37100F029FD08B10323A371034B1B6874
:104E50000193019B236003B030BD00BFE4CCFF1F72
:104E600081807047F0B5044685B0C07900F014FD2C
:104E7000A279003018BF0120C2F3400102F0F7030D
:104E80008842A3710BD0124A1268019283F0020388
:104E9000019AA3712260C3F3C00005B0F0BD0C4DB0
:104EA0002768296802910299A688C91BB142F2D3EA
:104EB00002F001029042EED02A68039283F00903C7
:104EC000039AA371C3F3C000226005B0F0BD00BF18
:104ED000E4CCFF1F807900F001007047C029F0B4D6
:104EE00028BFC02172B6124B124E134A186000231D
:104EF000138033607360B360F360336173610127C3
:104F000099B15D0903F01F0456F8252007FA04F44F
:104F1000013322438B4246F82520F2D100234380FF
:104F200001338B4200F58270F9D162B6F0BC704754
:104F3000B0CCFF1FB8CCFF1FD2CCFF1FF0B472B6AD
:104F4000234F244E3C8806F1180306EB8400984258
:104F500012D256F8241099B9021D06F11B05631CE4
:104F6000AD1A03EB950503E052F8041B41B9013378
:104F7000AB421C461046F7D162B60020F0BC704729
:104F8000B1FA81F34FF00042DA4021EA02010160F8
:104F900001B9013410493C800A88013294B20C8076
:104FA00062B6801B8010C3EB401000EB80108300C2
:104FB0000A480B49006803F5FB531C330125C5540F
:104FC0000D88AA42184488BF0C80F0BC704700BF0F
:104FD000D2CCFF1FB8CCFF1FD4CCFF1FB0CCFF1F1B
:104FE000ACCCFF1F428872B60378012B03D9013B7A
:104FF000037062B67047531170B40C4C0C4D54F8EA
:1050000023102E88D2434FF0004002F01F0220FAF6
:1050100002F21143074A44F82310B34238BF2B80F1
:105020001388013B138062B670BC7047B8CCFF1F79
:10503000D2CCFF1FD4CCFF1FC368B3B130B401E0A2
:10504000DB688BB1187A9042FAD158685C7A0069B3
:1050500050F82450002DF3D140F824100878013086
:105060000870DB68002BEDD130BC7047437A8B426F
:1050700006D90369002253F8210043F82120704724
:105080000020704738B5437A8B421AD9036953F828
:105090002140002243F821209CB12378012B0ED916
:1050A000FFF74CFF054628B14FF48072211D0430F4
:1050B00001F082FD2378013B2370284638BD20464D
:1050C00038BD002038BD00BF037C23BB4368427A53
:1050D0005B7A9A421FD830B472B60468E3682BB387
:1050E000DA6832B119688C4216D01346DA68002AA1
:1050F000F8D1D8600023C360A37A0133A372026899
:105100004168012313728A7A1A448A7242681372C0
:10511000037462B630BC70475D6841688D42E4D16B
:10512000198903899942F4D01346DFE7E060E1E78B
:10513000037C4BB34368427A5B7A9A4224D872B6B6
:105140000268D36803B3984202D11EE0984202D0AD
:10515000DB68002BFAD14368427A1B69002143F8CF
:1051600022100268937A013B937203689A7A02B91B
:105170001A724268937A013B937243689A7A02B931
:105180001A720023037462B67047C368D360E2E703
:10519000084B1A7862B930B407480849D025057021
:1051A0004FF0804401220C6010461A7030BC7047EA
:1051B00000207047B4CCFF1F5EE400E008E100E08F
:1051C0001A491B4A1B48F8B50B681B4D046843F08D
:1051D00080730B60136843F0010313602E6814B9E9
:1051E00015E064699CB1237A002BFAD023682F68FC
:1051F0001B68204698472B68E188DB1B1B099AB285
:105200008B42A28088BFE2806469002CEBD10A4BFC
:105210000A4A1B6810880A4C9B1B1B0999B28342DF
:10522000218001D91180F8BDF8BD00BFFCED00E080
:10523000001000E0A8CCFF1F041000E0D0CCFF1F3E
:10524000D6CCFF1FF0B572B699B902688AB103795E
:105250000F2B0ED8274C218841FA03F5ED070AD50C
:1052600003F1007303F59063B2EB431F03D162B601
:10527000F0BD204C2188002341FA03F212F0010214
:1052800007D00133102BF7D162B600220371026000
:10529000F0BD01259D402943218062B6164E174D71
:1052A000174FDFF864E0D9B20171346844F00204AA
:1052B00034602C6844F002042C60A6F58026822419
:1052C000A5F5802503F100733C6003F59063223E51
:1052D000243D0C4C8EF800105B0131702970217058
:1052E00003601A605A609A60DA601A615A619A61C2
:1052F000DA61F0BDD8CCFF1F408004403C80044000
:10530000008000401F8000401A80004003790F2B6E
:1053100011D8094A10B4137072B6084904790A8882
:105320000123A34022EA03030B8062B6102200236C
:1053300010BC0271036070471A800040D8CCFF1F78
:1053400008B5FBF745F9FCF779FB00F0B1F8FAE78F
:1053500000B5064A036812885B6883B001A9ADF8FE
:1053600004200222984703B05DF804FB8CC50000BE
:10537000F0B507468BB0002A33D0012A08BF0A22B5
:1053800051B3212400E0F4B2B1FBF2F502FB151198
:10539000C8B2092900F1300198BFC8B20AA988BF74
:1053A0003730214488BFC0B201F8240C661E29465C
:1053B000002DE8D133B1013CE4B20AAB23442D22E5
:1053C00003F8242C3B6801AA11195B683846C4F124
:1053D000220298470BB0F0BD30228DF82520212401
:1053E000E8E70368C9B21B6898470BB0F0BD00BF7F
:1053F0000029BABF49422D2300230A22FFF7B8BF74
:1054000001F0BABA01F092BA01F06CBA01F0A6BA92
:1054100001F082BB01F05CBB0846114601F0C8BA3E
:10542000084601F049BB00BF704700BFF0B5164DFC
:105430002A680AB31549164BDFF85CE082FB016766
:1054400081FB0214D617D1191444C6EB2141C6EBD7
:10545000244403FB04F40EFB112244F2A71303FBC4
:105460000243002B02DA03F10043013BB3FBF0F2ED
:105470002B6000FB1230F0BD064B2B60B3FBF0F24B
:1054800000FB1230F0BD00BFDCCCFF1F5F0B4E8372
:10549000ECF4FFFF42CE0C1F1DF30100884206DA38
:1054A00010B50446081AFFF7C1FF204410BD70472D
:1054B00038B5224C237803B138BD0123237001F0A5
:1054C0004DFA70BB00F0E0FA40BB00F073FB10BB7C
:1054D00000F006FCE0B900232370EFF30583002BF6
:1054E000EAD1EFF3108172B6154B1868E0B1154C94
:1054F0002278CAB945691D6001232370C5B1AA612C
:1055000001B962B600254577836898472570D3E7CF
:1055100001F0E8FCDFE701F0E3FCD9E701F0DEFC95
:10552000D3E7FFF781FFCDE70029C5D162B638BDCB
:10553000054B1D600029E5D1E3E700BFE0CCFF1F6C
:1055400080CFFF1F84CFFF1F7CCFFF1F08B5104CFB
:1055500008E0236859050DD423681A050FD4236881
:10556000DB0411D423685803F3D500F0EDFC236865
:105570005905F1D500F098FA23681A05EFD500F027
:1055800029FB2368DB04EDD500F0BAFBEAE700BF96
:105590003480044008B5FFF7D9FF00BF014B10224B
:1055A0001A80704700200540704700BF094908B5C0
:1055B0000B6830B16A461844A2F58052904202D27C
:1055C0000860184608BD05F0D7FD0C2303604FF0B6
:1055D000FF3008BDAC9EFF1FFEE700BFF0B44D1EBC
:1055E0002E46002400E00134B0FBF2F302FB13006E
:1055F000092800F130078ABF3730F8B2C0B206F888
:10560000010F1846002BEED10A1953704CB11078D7
:1056100015F8016F28700133E01A834202F801691E
:10562000F5DB0846F0BC7047704700BF10B40F4B65
:1056300053F8302092F880422CB1012369B182F8EE
:10564000803010BC704703EBC0035B681A6841B937
:1056500022F002021A6010BC704782F8003110BCC0
:10566000704742F003021A6010BC7047B8C50000D2
:105670001C4A02EBC00301295B6811D004291BD02E
:1056800052F83000002280F8802229B1022920D06F
:10569000032922D01A6070474FF480721A60704755
:1056A00052F830004FF4A27280F880121A601A6823
:1056B00022F020021A60704752F830104FF4A272A4
:1056C000012081F880021A601A6842F020021A60F4
:1056D000704740F203121A6070474FF481721A60EB
:1056E000704700BFB8C50000212817D8F8B5042AB4
:1056F00013D8DFE802F0494C4F1446002C4872B62C
:10570000236823F4702343F08072C4F384011643AA
:10571000236040F82150266062B6F8BD70474FF410
:105720001026244B03EBC0030D465C68216811F47E
:10573000E06134D0204B214A2149C3F89C2104F177
:1057400040422048C3F8A411A2F592211E4FC3F88D
:10575000A0017C291D48C3F8A871C3F8AC01CDD9BC
:10576000A2F594237C2B18D9A2F596237C2B19D96A
:10577000A2F598237C2B17D9A2F59A227C2A15D959
:10578000F8BD4FF43026CCE74FF40026C9E74FF4BC
:105790004026C6E74FF42026C3E70D48AFE7FFF7E2
:1057A00067FFC7E70B48AAE70B48A8E70B48A6E73F
:1057B000B09EFF1FB8C500000096FF1FD19BFF1FC2
:1057C000799BFF1FA59BFF1F4D9BFF1F219BFF1F69
:1057D000E89EFF1F389FFF1F689FFF1F889FFF1FC6
:1057E0001A4B03EBC00010B4426802F14043A3F52A
:1057F00092217C2905D9A3F594217C2913D8144939
:1058000000E0144972B61368134C23F08773C2F397
:10581000840023F4803343F08073136041F8204008
:1058200062B610BC7047A3F596217C2909D9A3F56F
:1058300098217C2907D9A3F59A237C2BF1D8074915
:10584000E0E70749DEE70749DCE700BFB8C500002D
:10585000E89EFF1FB09EFF1F29560000889FFF1F74
:10586000389FFF1F689FFF1F30B4054B054D064C46
:10587000002210211A602A602060196030BC704735
:1058800014D0034004D0034000D00340212801D8A5
:10589000FFF7CCBE704700BF212806D8044B53F851
:1058A000303093F80002C0B270470020704700BF4C
:1058B000B8C50000212801D8FFF7DABE704700BF45
:1058C0002DE9F04107460E4690460824802505E064
:1058D000212E4FEA55050CD9013C14D0212FF7D8C1
:1058E00008EA05013846FFF7A1FE212E4FEA5505CB
:1058F000F2D801213046FFF799FE00213046FFF72C
:1059000095FE013CEAD1BDE8F08100BF2DE9F843E6
:10591000054672B6204F214B214A1B683C6812682D
:1059200062B6520102D5322B88BF013495B3C3F55C
:10593000BB331C4EDFF86490DFF86480FF334FF414
:105940007A72A6FB031302FB04F404EB931472B601
:10595000D9F800103A68D8F800E062B6C1F5BB3358
:10596000FF33A6FB03031EF0806FC4EB93134FF4C9
:105970007A7002D0322988BF013200FB0233B3F5BE
:105980007A7F04D3013D05D004F57A74DFE7FFF791
:105990008FFDDCE7BDE8F883E4CCFF1F18E000E0F2
:1059A00004ED00E0ABAAAAAAF8B52D4B2D49DFF80B
:1059B000D0E0DFF8D0C02C4E2C4D2D4C2D4A2E4F70
:1059C0004FF4000018604FF0807018604FF00070C6
:1059D00018604FF0806018604FF000601860002081
:1059E000086028234BF6FF71CCF80010CEF8003089
:1059F000336013602B6023603B60B36293620922C3
:105A000045F8242CC4F8D80F05F57F65C7F8D41FD6
:105A100007F5FF2707F5FA67C6F8F83F2B6006F58C
:105A2000FF26C4F8D42F05F5FD2504F5FF243860C2
:105A300006F2F4761148316005F5FF6504F5FD6462
:105A40002B602360026001F04FFA3220FFF75EFF07
:105A500000F0A6FE4FF4AF70BDE8F840FFF756BF68
:105A600008E100E0048003401480034024800340E8
:105A70002C8003401C8003403480034000800B4096
:105A80000C80034008800340054A064B10781B78C1
:105A9000C0B2DBB2984238BF4030C01A704700BF76
:105AA000ECCCFF1FEDCCFF1FF0B4384B1A7912F08D
:105AB000300F2CD072B6997D01F0FF0200293DD045
:105AC00062B6334F334938780D78334E1C46C0B236
:105AD000EDB2431C402BE17928BF0023AB4202F119
