:1000000000800020BD010000195A0000D1590000F5
:10001000D1590000D1590000D1590000D159000038
:10002000D1590000D1590000D1590000195A0000DF
:10003000195A0000D1590000296F00002D700000EE
:10004000195A0000195A0000195A0000195A0000E4
:10005000195A0000195A0000195A0000195A0000D4
:10006000195A0000195A0000195A0000195A0000C4
:10007000195A0000195A0000195A0000195A0000B4
:10008000195A0000195A0000195A0000195A0000A4
:10009000195A0000195A0000195A0000195A000094
:1000A000515200005D520000195A0000195A000018
:1000B000195A0000195A0000195A0000195A000074
:1000C000195A0000195A0000195A0000195A000064
:1000D000195A0000195A0000195A0000195A000054
:1000E000195A0000195A0000195A0000195A000044
:1000F000195A0000E15E0000195A00000D6000006E
:10010000195A000039610000195A0000195A0000FC
:10011000195A0000195A0000195A0000195A000013
:10012000195A0000195A0000195A0000195A000003
:10013000195A0000195A0000195A0000195A0000F3
:10014000195A0000195A0000195A0000195A0000E3
:10015000195A0000195A0000195A0000195A0000D3
:10016000195A000019630000195A0000195A0000BA
:10017000195A0000195A0000195A0000195A0000B3
:10018000195A0000195A0000195A0000195A0000A3
:10019000195A0000195A0000195A0000195A000093
:1001A000195A0000195A0000195A0000195A000083
:1001B000195A0000195A000021570000564B4CF202
:1001C000205210B51A804DF628121A8000BF00BFC9
:1001D00005F026FC514B4FF010621A60504A9A60AD
:1001E000504ADA60504A136813F4807304D14F49BF
:1001F0000B604FF4A85313604D4B1A78110703D5C9
:100200001A7842F008021A704A4B4B492A221A7097
:100210004A4A4B4B8B4204D252F8040F43F8040B6A
:10022000F8E7484B484900228B4202D243F8042B9E
:10023000FAE74649464A002352F8230041F82300D2
:1002400001336F2BF8D1434B434A802103F8011B44
:100250009342FBD1414B3D4A1A60414B8A221A70AE
:10026000A3F5805324225A70A0221A709A7992071B
:10027000FCD59A79D406FCD43A4A937903F00C035E
:10028000082B384BF9D103221A7140225A719A79FE
:100290009006FCD5334A9179324B4906FBD5324A58
:1002A000324911600221516020221A709A7902F0BD
:1002B0000C020C2AFAD12E4B2E4A1A602E4B2F4AD2
:1002C0001A6000225A60072243F8042C2C4AC3F813
:1002D0000C2D62B605F084FD144B1B68DA0705D5BA
:1002E000284805F0DDFC284B284A1A60284B1B786B
:1002F0005B0609D5244C254B22689A4204D121483B
:1003000005F0CEFC002323600BF014F805F08EFB03
:1003100005F0C6FAFEE700BF0E200540308004401D
:10032000823F04000100002B10D0034014D0034092
:1003300002D0074000E0074064A8FF1F20D0000063
:10034000209BFF1F64A8FF1F38D3FF1F0096FF1FCD
:100350000000000000E400E05FE400E008ED00E0E1
:100360000050064000400640448004400000030165
:1003700004800440C010050014E000E0FF76010096
:1003800000002020DC8FE05B1CE00340A5C3945AF2
:1003900000F00740FFFFFFFFFFFFFFFFFFFFFFFF32
:1003A000FFFFFFFFFFFFFFFFFFFFFFFFFFFFFFFF5D
:1003B000FFFFFFFFFFFFFFFFFFFFFFFFFFFFFFFF4D
:1003C000FFFFFFFFFFFFFFFFFFFFFFFFFFFFFFFF3D
:1003D000FFFFFFFFFFFFFFFFFFFFFFFFFFFFFFFF2D
:1003E000FFFFFFFFFFFFFFFFFFFFFFFFFFFFFFFF1D
:1003F000FFFFFFFFFFFFFFFFFFFFFFFFFFFFFFFF0D
:10040000FFFFFFFFFFFFFFFFFFFFFFFFDEF9FFFF23
:1004100010B5054C237833B9044B13B10448AFF33E
:1004200000800123237010BD64A8FF1F000000009E
:1004300024D00000084B10B51BB108490848AFF3A1
:1004400000800848036803B910BD074B002BFBD0A0
:10045000BDE81040184700BF0000000068A8FF1F5B
:1004600024D0000064A8FF1F0000000010B504465F
:1004700005F00EF9204610BD1F4B10B45A6C1368DE
:10048000506819780478507A137A044201EA03011B
:100490001AD0937A03F0030309B143F0040343F045
:1004A00008039910013B91720D2B0BD8DFE803F084
:1004B0001E0719070A141E1E140A0719071ED368FF
:1004C000013BD36010BC7047937A03F0030300290B
:1004D000E7D043F00403E4E7D36810BC023BD360E9
:1004E0007047D36810BC0233D3607047D36810BC28
:1004F0000133D360704700BF80CFFF1F1F4B10B484
:100500001A6D1368506819780478507A137A044287
:1005100001EA03011AD0937A03F0030309B143F00F
:10052000040343F008039910013B91720D2B0BD883
:10053000DFE803F01E0719070A141E1E140A071924
:10054000071ED368013BD36010BC7047937A03F059
:1005500003030029E7D043F00403E4E7D36810BCA9
:10056000023BD3607047D36810BC0233D36070473E
:10057000D36810BC0133D360704700BF80CFFF1F2A
:10058000002310B4104C4172026104600372C36016
:1005900041B1194600E0026942F82310427A013362
:1005A0009A42F8DC094B1A680AB90BE01A465369FB
:1005B000002BFBD15061002343618380C380837291
:1005C00010BC70471860F6E71CBD000008D0FF1F84
:1005D0000A7AF0B48D88CC88C480858002724A7A09
:1005E00042728A7A8272CF680E694D698A690F4CAD
:1005F000C76006614561046082610A7F0277CA8B29
:100600000F6A4E6A0D8D4C8DC2838A8D07624662D9
:1006100005854485CE8D0D6B8C8E8285CA8EC286F3
:10062000C68505638486F0BC704700BFF4C2000035
:100630002DE9F0411021AA48AA4EAB4DDFF898836E
:10064000AA4F04F0FBFEAA4802F02CFF5A21A8484A
:1006500002F0C4FFA749A84AA84BA948886243F6FC
:10066000FF740C8314831C83A648A74C90629C6281
:100670000024DFF868E3F4610326A4488E85CC618A
:10068000DC61A3499E85A34BEB61CEF81C304FF48F
:100690008A73DFF84CE343858385C38583864B8566
:1006A0008B85CB858B864CF6CC439B4DCEF8183092
:1006B0009A4B9685D4614FF080420263AB619848B3
:1006C0000A63A3F55A63EB61C5F824809549964DFA
:1006D000C561964B9648DFF80CC3964DC8619649A4
:1006E0009648D96142F25003ACF82A309449DFF8B9
:1006F000F8E26B852A63AB86924D4385026383865D
:100700009148CCF830204B850A638B86AEF82A30AE
:100710008E49CEF83020AEF834302A63DFF8CCE2D0
:100720008B4A6B85AB864FF480358561C561056268
:100730004FF40040ACF834308D61CD610D629561AD
:10074000D561CEF82C0008234FF40062814982481D
:1007500003F014F8814BDFF898E28148C3F818E001
:10076000AEF5DA7E7F49C3F81CE0C3F82480DFF8D9
:1007700084E2C0F828E047F6FF787B4AC4618685AA
:10078000A0F8188079488862CC618E857848A1F8F5
:1007900018807849916278498561C56146F2666042
:1007A000086200F15B7000F6E200A2F81880D461E4
:1007B0009685C861714A72499161A1F5B731714B53
:1007C000DFF834C29E85A1F5F871D1614FF0005178
:1007D00051626D4E6D4ACCF81C20A3F81880DC6184
:1007E0009E626B4A6B4B6C4E9A61A2F57C52183A32
:1007F000DA616A4ADFF804E25A626949694D6A4A75
:10080000F2616A4B6A486B4ECEF81C304FF40062BE
:10081000C8610123EE614F49674802F0AFFF674BA3
:1008200067491D6828460AF027FA0021A7F81880B2
:1008300006460AF0C7FC002840F04781614930466F
:100840000AF0DEFC002840F02F815F4930460AF0B4
:100850001BFB4FF07C510AF00FFA0AF001FD022356
:100860000026B862BB855949FE6128460AF004FAA1
:10087000574C47F6FF730021238307460AF0A2FC7A
:10088000002840F026814F4938460AF0B9FC00287C
:1008900040F00E814C4938460AF0F6FA4FF07C5190
:1008A0000AF0EAF90AF0DCFC4A4EA06247F6FF7251
:1008B00000270223002128463283E761A3850AF03E
:1008C00081FC002840F003813E4928460AF098FC4C
:1008D000002840F0EB803C4928460AF0D5FA8FE02A
:1008E0000082FF1F34CDFF1FACB1FF1FCCC5FF1F1F
:1008F000ECCCFF1F10CAFF1F44CAFF1F78CAFF1F9E
:10090000D72E6D00D0FA8100080FAD00E4B4FF1FB0
:1009100030AAFF1FC09C8D021CB5FF1F6804BC02DB
:1009200068C9FF1F8CC9FF1F2599C200B0C9FF1FEE
:100930005A13F800A4CDFF1F92272301A8AAFF1F76
:1009400068ACFF1FE4CAFF1F38A9FF1F58CEFF1F66
:100950007CCCFF1FCCB5FF1F2CB3FF1FC4C6FF1FED
:10096000F0CDFF1F24CEFF1F08CCFF1FCF65330043
:1009700094B4FF1FAF333D0030CFFF1FA4ABFF1F68
:10098000400D340890CEFF1F586B3B0080391B058B
:1009900000B28E04E0B3FF1FC4CEFF1F00B76D5B33
:1009A0000CCFFF1F80ABFF1FA011DA00825D030197
:1009B000B98881006F319A0014B2FF1F989DFF1F04
:1009C0006666EE41A655AC464B243E47CDCC2E4242
:1009D00000C6FF1F34C6FF1FD0CCCC0CDCA9FF1F04
:1009E000D0B2FF1FF4C8FF1FB4CCFF1F40CBFF1FC6
:1009F00034025E01CCD9280080AAFF1FE8CEFF1F79
:100A00004FF07C510AF038F90AF02AFCB062022358
:100A100028460025B3853149F5610AF02DF9304C9F
:100A200047F6FF730021238306460AF0CBFB00281C
:100A300051D12C4930460AF0E3FB00283AD02A482D
:100A40002A4E2B4F2B4DA0620022DFF8C4E02A482B
:100A50002A4BE2611146BA61FA61C6F818E0284AE9
:100A6000DFF8B0E0F0612748C5F818E072626A620A
:100A7000E8614FF4803246F26667022610205F621A
:100A80009A61DA611A62A68505F030F90121102019
:100A900005F018F910211C4804F078FC0A211A48C6
:100AA000BDE8F04104F08CBC0F48D8E60E48ADE735
:100AB0000D48F9E6304615490AF0E6F94FF07C5149
:100AC0000AF0DAF80AF0CCFBBAE72046C7E6384667
:100AD0009CE73046E8E62846B2E700BFCDCC0441AB
:100AE00068C6FF1FA655AC46C0FFFF3F50C7FF1F9B
:100AF00094B5FF1F58B5FF1F509D320830ABFF1F44
:100B000000B76D5BE43AA50334CBFF1F4B243E478F
:100B1000400D3408345BA5032DE9F047954C23784C
:100B2000002B39D194490B7C012B40F29D8072B689
:100B3000CB6862B6914EDFF86CE23268002BB8BF2A
:100B400003339B10002A47D00322CEF80C208C4898
:100B50008C4D0268934204D02F78002F47D1036058
:100B60001A46002A04DD72B60023CB6062B6036029
:100B70002B78002B34D1844D00682A68804F5EF8B2
:100B80002230DFF8F881DFF81CC2C0F1000E46F811
:100B900022E05E42B04248DB7C4804F013FC08B916
:100BA000BDE8F087794804F045FC0028F8D12378A7
:100BB000704A002B47D172B66F4AD36062B6724951
:100BC0000A68032A00F0C0806E480132052A0370CB
:100BD00073D00A60BDE8F0870722CEF80C20B6E794
:100BE0006B4B6C491A688A421ADD1960D4E76A4F68
:100BF000DFF8B4C1D7F80080DCF80070C7EB080755
:100C0000322F45D8DFF88891D9F80070D21A4FF00A
:100C1000640A0AFB0277C9F80070CCF800809EE7EE
:100C2000002ABCBF00221A60B6E748F8223072B62C
:100C3000C3EB83739B00CB6062B62B685CF82330F8
:100C40005B423B60A8E74D4B4F4E544D544C5049CE
:100C500010703060286020600860186058609860EC
:100C6000D8601861BDE8F08772B60B6848681A78DA
:100C70000578487A0B7A054202EA030229D08B7A7A
:100C800003F003030AB143F0040343F0080325E033
:100C9000B7F5C87F08D83E4FD21A02EB82093A68EE
:100CA00002EB49023A60B8E7DFF8E490D9F8007047
:100CB000D21A1744C9F80070AFE7304A0B6002F14E
:100CC000140152F8043B002B49D19142F9D1BDE8FF
:100CD000F0878B7A03F00303002A48D19A10013B76
:100CE0008A720D2B3FF624AF01A252F823F000BF09
:100CF000410D0000390D0000310D0000390D0000DC
:100D0000310B0000290D0000410D0000410D0000D5
:100D1000290D0000310B0000390D0000310D0000DD
:100D2000390D0000410D0000CB68023BCB6000E7AD
:100D3000CB680233CB60FCE6CB68013BCB60F8E6C6
:100D4000CB680133CB60F4E60E4D2B785BB90B4BCF
:100D5000DB68012B07D901232B70BDE8F087012345
:100D60002370BDE8F08700232B70042231E743F0A5
:100D70000403B3E760B2FF1F68AAFF1FE0ACFF1FC8
:100D8000009CFF1FF0CBFF1FD8C9FF1F34CBFF1FF4
:100D900000AAFF1F9F86010004AAFF1FCCB4FF1FFB
:100DA00078CCFF1FA89DFF1F40ADFF1F2DE9F04F1E
:100DB0006D4B1B7883B0002B7CD1DFF8E8A1DFF806
:100DC000E8B198461F46694BCDF8048083FB0823A1
:100DD0004FEAE872C2EBA313654A03F5FA7382FB8C
:100DE0000326DB43DB0FC3EB6616BB00F6004FEABE
:100DF000C709002598460CE058F802305D48C3EB5F
:100E0000C3032B4401351BF8232004F07BFA072D84
:100E10002DD09AF80030584A09F10101384629448A
:100E2000002BE9D009F094FB544C02460B460020FD
:100E30005349246806F064FA09F0A0FE514B94FB74
:100E4000F0F083FB0034C317C3EBA40404EB840469
:100E5000A0EB4400C0EBC0002844711C1BF820200C
:100E600044482944013504F04DFA072DD1D1DDF86D
:100E70000480454BA8F51B48A8F1DC08984507F10C
:100E80000107A0D10025414E2C46336839489C42C9
:100E900029464FF0000203D19AF80030002B5FD0B2
:100EA00004F030FA0134052C05F10805EDD103B04A
:100EB000BDE8F08F0024214600222E48083404F0BB
:100EC00021FA282CF7D1324B324A3348196813687B
:100ED0000068CB1A8342EAD34FF00008DFF8CCB0A9
:100EE000DFF8BC90DFF8C0A01160464647467C1C86
:100EF00007F10805DFF8B880FF4308E098F8002004
:100F0000013404F0FFF9AC4208F1040815D0DBF815
:100F100000301848B3422146F0D1D9F800300A33E6
:100F2000C3EBC30323443B4401341AF8232004F0E9
:100F3000E9F9AC4208F10408E9D10136052E27464B
:100F4000D5D1164AD9F800301268154901339342B9
:100F5000C9F8003004BF00230B6003B0BDE8F08F78
:100F6000012204F0CFF99DE760B2FF1F699CDB28E6
:100F70001F85EB5178B2FF1FE0ACFF1F00AAFF1FD7
:100F80000000244067666666B4F4FCFFD8C9FF1F02
:100F900004AAFF1FA4AAFF1F8C9DFF1FA49DFF1F73
:100FA00078CCFF1FF0CBFF1F049CFF1FCCB4FF1FAA
:100FB000709DFF1F2DE9F041584C2368302B3EDC1B
:100FC000574A5849584D10680A682D68821AAA4233
:100FD00033D3564D08602A78002A40F08880544860
:100FE000DC1780FB0320C4EB600404EB44022146C1
:100FF000B3EB82046BD1CBB14E4B53F8210009F017
:10100000EFFE002106460AF0DDF8002840F081805E
:10101000494930460AF0F4F800287CD14749304667
:1010200009F032FF0AF01CF9454BD861454802F03F
:10103000D7FC01232B70BDE8F081BDE8F081424C64
:101040002368012B10D0364A3649374D10680A689C
:101050002D68821AAA420DD23C4A1268023B3C49D2
:1010600051F823309342E8DC3A4A136801331360A5
:10107000BDE8F0812D4D08602E7876BB334F3648A1
:101080003A68023B03EB830102EB011150F8211097
:10109000D1B10139274B53F8210009F0A1FE0021FD
:1010A00080460AF08FF828B9234940460AF0A8F88C
:1010B00038B32A4E224B2348DE6102F091FC2368AC
:1010C0003A680121023B297001323A60C7E7012CDE
:1010D000ACD101232B70BDE8F0811A4802F0A8FCC6
:1010E0001A4A236812680021023B2970B7E71548A5
:1010F00002F09EFC23680022013323602A70BDE8C1
:10110000F0810E49404609F0BFFE0AF0A9F80646F4
:10111000D0E7204688E7114886E700BFD0B1FF1F1F
:1011200004AAFF1F7CABFF1F909DFF1F7CAAFF1F1F
:10113000ABAAAA2A98BD0000A655AC464B24BE47D0
:10114000DCA9FF1FE4B4FF1FE0ACFF1F1CB4FF1FAE
:10115000B4C20000CCB4FF1FB4BD000080FFFF7F0D
:101160002DE9F041364F374A3C78374B002C41D0BF
:1011700014681B68E41A354B5D68012D0AD06B1F9B
:10118000012B07D9022D42D0EB1F012B3FD9304B49
:101190001E6823E02E4B1E68B6F57A7F2FDC4FF4D5
:1011A0007A7000FB04F090FBF6F009F019FE294973
:1011B00009F01EFF284980460AF022F8002833D1A2
:1011C0002649404609F0FEFF80BB4FF08F41404664
:1011D00009F05AFE0AF01EF8214BD861B44207D339
:1011E000042D03DC1F4A13680133136000233B7096
:1011F000BDE8F08112681A6001233B70BBE740F242
:10120000E93000FB04F3701C93FBF0F0CDE7104ACB
:10121000154B16689E420BDB03FB04F3701C93FB1B
:10122000F0F000F57A70C0E71048D5E71048D3E732
:10123000104800FB04F090FBF6F000F57A70B4E77C
:10124000F0C8FF1F04AAFF1FCCB2FF1FE0ACFF1FB6
:10125000949DFF1F00007A4400FEFF4600FEFFC67B
:1012600034CDFF1FCCB4FF1F19FCFFFF0000FF7F30
:101270000000018018FCFFFFF8B53D4D2B78002BD6
:1012800061D03C4E3C4C3D4B5B6823F00402032A8A
:101290000DD0052B0BD023F00202042A3ED0082BE0
:1012A0003CD032682468364BA41A1E6822E0344AC7
:1012B000336816682468DC2EA4EB030426DCDC20EB
:1012C00000FB04F090FBF6F0DC3009F089FD002112
:1012D000074609F077FF00283FD12A49384609F030
:1012E0008FFF70BB2849384609F0CEFD09F0B8FFE2
:1012F000264BD861B44208D3254802F099FB254A11
:1013000013680021013313602970F8BDDD2000FB54
:1013100004F3701C93FBF0F0DC30D6E7184A336816
:101320001668246816F1DB0FA4EB030417DB6FF0DB
:10133000DA0000FB04F3701C93FBF0F000F5DC70A6
:10134000C3E71548D4E70C4C0A4E236810483360B5
:1013500002F046FB01232B7095E70020C8E76FF0F1
:10136000DB0000FB04F090FBF6F000F5DC70ACE76E
:1013700061B2FF1F0CA9FF1F04AAFF1FE0ACFF1FF3
:101380009C9DFF1FA655AC464B24BE47ACB1FF1F2A
:1013900030AAFF1FCCB4FF1F80FFFF7F08B50C4BA6
:1013A0005B685BB15A1E012A0DD9033B012B01D9A1
:1013B000FFF7D6FEBDE80840FFF75EBF054A136899
:1013C0000133136008BDBDE80840FFF7C9BE00BF88
:1013D000E0ACFF1FCCB4FF1F2DE9F843A64AA74B92
:1013E000A748196813680068CB1A8342C0F09B8035
:1013F000A44D11602E78002E7DD1A34B9B68042B49
:1014000000F393805C1E4FEA440808EB04029F4FF0
:101410009F4B57F822009E614FF48032DA6109F049
:10142000DFFC0021814609F0CDFE002840F0E78076
:101430009849484609F0E4FE002840F0E6809649C5
:10144000484609F021FD4FF07C5109F015FC09F0E8
:1014500007FF08EB0403914A07EB83039062586887
:1014600009F0BEFC0021064609F0ACFE002840F061
:10147000D0808849304609F0C3FE002840F0C38080
:101480008549304609F000FD4FF07C5109F0F4FB2E
:1014900009F0E6FE08EB0403814A07EB8303906240
:1014A000986809F09DFC0021044609F08BFE002895
:1014B00040F0AD807749204609F0A2FE002840F0B8
:1014C000A0807549204609F0DFFC4FF07C5109F0FF
:1014D000D3FB09F0C5FE0246724B73489A6202F0D4
:1014E0007FFA724802F07CFA714802F079FA01231F
:1014F0002B70BDE8F8836F4802F09AFA6E4802F04C
:1015000097FA6E4802F094FA674802F091FA674839
:1015100002F08EFA664802F08BFA694A13680021DD
:10152000013313602970BDE8F883052B75D09C1F2B
:101530004FEA440808EB0402624F554B57F822006B
:10154000DE614FF480329A6109F04AFC0021814645
:1015500009F038FE002840F08A804E49484609F0DC
:101560004FFE002857D15849484609F08DFC09F034
:1015700077FE08EB0403554A07EB8303D0615868F4
:1015800009F02EFC0021064609F01CFE00286CD153
:101590004049304609F034FE002864D14A493046BB
:1015A00009F072FC09F05CFE08EB0403484A07EB03
:1015B0008303D061986809F013FC0021044609F008
:1015C00001FE002855D13349204609F019FE0028B4
:1015D00047D13D49204609F057FC09F041FE02463B
:1015E0003C4B3448DA6102F0FBF9334802F0F8F979
:1015F000324802F0F5F901232B70BDE8F88330463C
:1016000027E7354A68E7344844E7334821E70022B2
:1016100062E700203EE73148ABE72049204A304FDF
:101620008F621B4B2F4F2B4997621E48274E284C29
:10163000DFF8C0E02C4FC0F828E04BF233329A615B
:10164000DA612A4A2A4BE261CB611A48F76102F05B
:10165000C7F9194802F0C4F9184802F0C1F9124854
:101660003DE71E4ABCE71D489EE700209CE7304648
:101670007FE70022B4E700BFD8A9FF1F04AAFF1F1D
:10168000A09DFF1FC8ACFF1FE0ACFF1F20BD0000E6
:101690007CCCFF1FA655AC464B243E4710CAFF1F0B
:1016A00044CAFF1F78CAFF1F68ACFF1FB4CCFF1FDE
:1016B000E4CAFF1FF4C8FF1FA4CDFF1FA8AAFF1F85
:1016C000CCB4FF1F5CBD00004B24BE4768C9FF1FA0
:1016D0008CC9FF1FB0C9FF1FC0FFFF3F80FFFF7F06
:1016E000D72E6D00D0FA81002599C2005A13F80058
:1016F00092272301080FAD00284B294A2948196871
:1017000013680068CB1A83421CD330B4264D116095
:101710002B68042B17DD254B1C68254B1A784ABB18
:10172000244A012011681870002CB8BF1F34B1EB97
:10173000641F06DB20480368002101330360296031
:10174000116030BC7047194A1C48146820400028BA
:101750001FDB40FA03F2D207DFD4013340FA03F172
:10176000C9071A4603F10103F8D5114B2A601A780C
:10177000002AD5D029680C48002204291A700D4A85
:1017800003DD116801311160CEE74B1C0360116865
:10179000CAE7013860F01F000130DAE704AAFF1F32
:1017A000A8A8FF1F3CCBFF1FD4C9FF1F00AAFF1F23
:1017B000C8B2FF1F1CCBFF1FCCB4FF1F1F0000804F
:1017C0005D4B70B5186809F007FB5C4909F05CFBDC
:1017D0005B4909F00DFC5B49044609F009FC08F07F
:1017E000C9FE05F00BFD4AA3D3E9002308F016FF5C
:1017F00049A3D3E9002308F05FFD09F0E7F90021D0
:10180000054609F0DFFC00286DD14FF07E512846D7
:1018100009F0F6FC002872D04FF480304A4B4B4957
:10182000D862204609F0E4FB08F0A4FE05F0E6FCCF
:101830000022474B08F0F2FE39A3D3E9002308F059
:101840003BFD09F0C3F94349054609F0BBFC0028FC
:1018500042D14149284609F0D3FC30B33F4A404DBC
:10186000404B41499D61DA61204609F0C1FB08F017
:1018700081FE05F0C3FC2CA3D3E9002308F0CEFEC3
:101880002BA3D3E9002308F017FD09F09FF937498E
:10189000044609F0B5FC10BB3549204609F092FC1E
:1018A00018B3344B3448986170BD2846334909F069
:1018B000EBFA4FF09E41064609F0E6FA09F0AAFC61
:1018C0000546304605F0DEFC4FF09E4109F0DCFA9B
:1018D00009F0A0FC0246C3E7294A2A4DC0E7254B80
:1018E0002948986170BD002098E74FF08F4120464D
:1018F00009F0CAFA09F08EFC1E4B986170BD4FF0DA
:101900008F41284609F0C0FA09F084FC86E700BF41
:10191000000000809999C93F000000606666E63FBC
:101920000000000000C07240000000A09999A93F8B
:10193000000000403333C33F04AAFF1F00007A4475
:1019400000D05F470000304140CBFF1F0000F04156
:10195000000059400000A0411EDE8946008C3C4B2F
:1019600000BE6C50C4C6FF1F0000A04000FEFF4632
:1019700000FEFFC694B4FF1F0000018046561538D4
:101980007A5517007B5517000000FF7FFFFFFFFF10
:10199000674B70B5186809F01FFA664909F074FAC8
:1019A000654909F025FB6549064609F021FB08F069
:1019B000E1FD05F023FC5CA3D3E9002308F02EFE33
:1019C00000225F4B08F078FC09F000F95D4B5E499E
:1019D0001860044609F050F90021054609F0F2FBB1
:1019E000002840F095805949284609F009FC002854
:1019F0007BD15749284609F047FA4FF07C5109F04E
:101A00003BF909F02DFC534B53499862204609F0ED
:101A100033F90021054609F0D5FB002876D14B4962
:101A2000284609F0EDFB002865D14949284609F010
:101A30002BFA4FF07C5109F01FF909F011FC474BCC
:101A400000219862204609F0BDFB002864D13F497F
:101A5000204609F0D5FB00284BD13D49204609F02E
:101A600013FA4FF07C5109F007F909F0F9FB3C4BF0
:101A70003C499862204609F0FFF80021044609F02D
:101A8000A1FB002846D13149204609F0B9FB70BBC3
:101A90002F49204609F0F8F94FF07C5109F0ECF895
:101AA00009F0DEFB304B4FF074519862304609F07C
:101AB000EBF908F05FFD05F0A1FB00222B4B08F0CD
:101AC000ADFD00222A4B08F0F7FB09F07FF800215A
:101AD000044609F077FB08BB1C49204609F090FB3F
:101AE00058B1244B2448D86170BD24488BE7234863
:101AF000D8E72248BBE72148A1E72149204609F061
:101B0000C3F909F0ADFB1B4BD86170BD002096E70F
:101B1000002078E70020C5E70020A8E7154B00204B
:101B2000D86170BDAFF30080000000009A991540A5
:101B300004AAFF1F00007A4400D05F470000204144
:101B400000804840989DFF1F6666EE41A655AC4652
:101B50004B243E47CCC5FF1FCDCC2E4200C6FF1FF5
:101B600034C6FF1FCDCC044168C6FF1F00003E40B5
:101B700000708C4080AAFF1F80FFFF7FC0FFFF3FE7
:101B80004B24BE470E4B1B6913B90E4AD3617047F5
:101B90000C4A10B5012B4FF48034D46108D0022BCD
:101BA00005D1FFF7F5FE084B0022DC619A6110BDFC
:101BB000FFF706FE044B00229C61DA6110BD00BFF6
:101BC000E0ACFF1F6CCDFF1F08ADFF1F10B5384AFA
:101BD000384B126882B00192019A1A60FEF79CFF9E
:101BE000FFF7E4F8344B1C78C4B1344C2368002B65
:101BF00007D1334B1B68002B39D10123236002B07E
:101C000010BDFCDDFFF7BEFF2368012B33D0022B94
:101C10003BD0032B3FD0032BEFDCF0E7294A2A4BC4
:101C20002A48D461DC6101F003FF294B29481C706C
:101C300001F0FEFE284A294B294814701C7001F05F
:101C4000F7FE284801F0F4FE274801F0F1FE27488E
:101C500001F0EEFE264801F0EBFE264801F0E8FE1A
:101C6000254B264A9C611470DC6102B010BDFFF761
:101C7000A1F92368CFE7124B5B6813B902232360F5
:101C8000BDE7FFF78BFB2368C5E70D4B9B6853B996
:101C900003232360B3E70A4BDB68002BADD0FFF7CB
:101CA0002BFD2368B7E7FFF797FB2368B3E700BF77
:101CB00044D0FF1F04AAFF1F60B2FF1FCCB4FF1F58
:101CC000E0ACFF1F34CDFF1F6CCDFF1FE4B4FF1F3E
:101CD0007CAAFF1F30AAFF1FF0C8FF1F61B2FF1FC1
:101CE000F4C8FF1FA4CDFF1FA8AAFF1F68ACFF1FE9
:101CF000B4CCFF1FE4CAFF1F7CCCFF1FC8ACFF1F82
:101D00002DE9F04F85B0042302220093052103231F
:101D10008448854C03F0C4FA0221142003F0E6FF46
:101D20000221112003F0E2FF804BD3F8A010D3F87A
:101D30008820012001F5007702F5007600254FF498
:101D40007A4327606660E56020726072013BFDD1D6
:101D500091F8003292F80022754D76492C65D20731
:101D600003EA000344BF43F00203DBB20422142061
:101D7000A37203F0D5FE012304226F496C64112085
:101D8000237403F0CDFE237C6C486D4D6C4E013303
:101D9000237403F0F3FA6B4A6B4B12681A606B4BB7
:101DA000042103F128021846FEF7EAFB684B03F111
:101DB00028021846654B4FF4803404219C61DC6195
:101DC0001C625C621D60FEF7DBFB624B03F12802C4
:101DD00018465F4B04219C61DC611C625C621D60E3
:101DE000FEF7CEFB5C4B03F128021846594B042149
:101DF0009C61DC611C625C621D60FEF7C1FB574B9D
:101E0000554D03F11802AC61EC612C626C6202204A
:101E1000A2F11804002102F80F0C20462261217261
:101E2000E1604F4C04600B462E60044600E02269DE
:101E300042F82310494A4948527A01339A42F6DC63
:101E4000484B1A6812B901F0CBBA1A465369002BF5
:101E5000FBD1424B53614148434B444F0360002444
:101E600044618480C480847202F04EF9404B414A40
:101E7000414D1A60214622460A2638461E72FEF758
:101E80007FFB4FF4804305F11802012128463B6295
:101E90003A4B3B60FEF774FB3A220E23DFF8F480E6
:101EA0006A85AB85C1224FF00053EA852B6340F26F
:101EB00077621C23324EAA86EB862C85314B2B6031
:101EC00040462C77C8F80450C8F8007088F80840DD
:101ED00088F80940C8F80C4088F8104003F0A4FBCB
:101EE000294A2A49404609F0DBF9184B736030460D
:101EF000356034727472F460347403F095FB224AD6
:101F00002249234D304609F0CBF9164B6C721A6802
:101F1000134B2B602C612C72EC60124B002A3CD1CD
:101F200001F061BA78B2FF1F68AAFF1FD8C800008D
:101F300080CFFF1FFD0400007904000034CBFF1F99
:101F400018C30000909DFF1F3CCBFF1F34CDFF1F27
:101F50006CCDFF1F94B5FF1FACCAFF1F70CBFF1FD6
:101F60001CBD000008D0FF1F24C30000DCA9FF1F18
:101F7000ECCCFF1FCCC20000E4B4FF1F54C600002D
:101F8000F8CCFF1FF4C20000FC9BFF1F6D04000093
:101F9000D0B2FF1F20CDFF1F1A465369002BFBD183
:101FA0005561DFF850E3BA4A2A60BA4ABEF80030F9
:101FB000B84FDFF844B3B84EDFF840A3DFF84093E2
:101FC000DFF840830024343201336C61AC80EC8054
:101FD000AC72A2F134000221AEF80030EB61AC61CA
:101FE000FEF7CEFAAB4ADFF820C3AC4BC7F81CC0F3
:101FF0004FF4805EC7F820E0946221462246C7F87D
:1020000018B07B62A648A74BFC623C633B60FEF7BE
:10201000B7FAA34BA44F1F6006F118024FF4804794
:10202000012130461F62FEF7ABFAA04B33604FF040
:102030000E03B3854FF0C103F3854FF000533363B4
:1020400040F277634FF03A0BB3864FF01C035046D3
:102050003485A6F82AB0F3868E4BCAF8043034775C
:10206000CAF800508AF808408AF80940CAF80C40BB
:102070008AF8104003F0D8FA8D4A8E498A4D5046AE
:1020800009F00EF9834BC9F800308B4BC9F80430C6
:1020900048464FF0010389F8083089F80930C9F83B
:1020A0000C4089F8104003F0BFFA814A8149DFF8FB
:1020B0005CA2484609F0F4F8794B88F8084040469D
:1020C00088E8480088F80940C8F80C4088F81040B3
:1020D00003F0AAFA794B7749754A0393404609F011
:1020E000DFF87748744A42604FF0020206600472DB
:1020F000C4600474427203F097FA6D4A6D497048E7
:10210000DFF80C92DFF80C8209F0CAF8224621466B
:102110006C48FEF735FA6C4B03F118021846694B10
:1021200001211D601F62FEF72BFA674B5F4D1D609A
:102130004FF00E059D854FF0C105DD854FF0005530
:102140001D6340F277659D864FF01C0522462146AF
:102150001C85A3F82AB0DD865C481C77FEF710FAD0
:102160005B4B514D03F118021846584B01211D607D
:102170001F62FEF705FA564B4C4D1D604FF00E05E1
:102180009D854FF0C105DD854FF000551D6340F280
:1021900077659D864FF01C05224621461C85A3F8D5
:1021A0002AB0DD864B481C77FEF7EAF94A4B3E4DD4
:1021B00003F118021846474B01211F621D60FEF70C
:1021C000DFF9454B394D1D604FF00E059D854FF0F1
:1021D000C105DD854FF000551D6340F277659D8692
:1021E0004FF01C05224621461C85A3F82AB0DD8647
:1021F0003A481C77FEF7C4F9394B3A4D3A4F03F190
:1022000018021846354B01211C835C83DC611C627B
:102210009C629C85DC851C631D60FEF7B1F9304B28
:10222000224D1D604FF00E059D854FF0C105DD85E7
:102230004FF000551D6340F277659D864FF01C05F9
:10224000224621461C85A3F82AB0DD8627481C7744
:10225000FEF796F9264B234D03F118021846234B3F
:1022600001211D601C835C83DC611C629C629C8577
:10227000DC851C63FEF784F9039B0C4D18461C4B50
:102280001D604FF00E059D854FF0C10544E000BF75
:102290006CC600001CB5FF1F30AAFF1F80F9855ACD
:1022A000ACB1FF1F0CC3000054C60000F4C2000014
:1022B000FC9BFF1F6D04000034CDFF1F78CAFF1F79
:1022C00014C7FF1F68C9FF1FF4C8FF1F8CC9FF1F79
:1022D000A4CDFF1FB0C9FF1FA8AAFF1F10CAFF1F70
:1022E00068ACFF1F60C600009CC6FF1F44CAFF1FEA
:1022F000B4CCFF1F7ACFFF1F00B28E04B4B2FF1F11
:1023000028C7FF1FF4ACFF1FE8728E04F4AAFF1F5A
:1023100000C7FF1F68ABFF1FDD854FF000551D6331
:1023200040F277659D864FF01C05224621461C85AC
:10233000A3F82AB0DD861C77FEF722F9BC4BBD4D11
:1023400003F118021846039B01211D601C835C8366
:10235000DC611C629C629C85DC851C63FEF710F9C5
:10236000B34BB54A1A604FF00E029A854FF0C10286
:10237000DA854FF000521A6340F277629A864FF086
:102380001C02A3F82AB01C85DA86AC49AC481C773D
:10239000FEF71EF9AB49AC48DFF818B3AB4DFEF7BA
:1023A00017F9AB49AB48FEF713F9AB49AB48FEF759
:1023B0000FF9AB49AB48FEF70BF99D49AA48FEF768
:1023C00007F9AA4B042103F128021846FEF7D8F8B2
:1023D000A64B4FF4803604210BF1280258461D60AD
:1023E0009E61DE611E625E62FEF7CAF8A04BCBF80A
:1023F000005003F1280204211846CBF81860CBF8EE
:102400001C60CBF82060CBF82460FEF7B9F8984B3D
:102410003C721D609E61DE611E625E62954B3B6098
:102420003846864B7B607C72FC603C7403F0FCF8A1
:10243000914A9249924E934D384608F031FF9248A6
:10244000924B03607F4B436004724472C460047417
:1024500003F0EAF8884A89498B488D4F08F020FF3D
:102460008C4BCAF800305046794BCAF804308AF8D1
:1024700008408AF80940CAF80C408AF8104003F076
:10248000D3F87D4A7D49504608F00AFF824BC9F8CF
:1024900000304846704BC9F8043089F8084089F884
:1024A0000940C9F80C4089F8104003F0BDF8724AA1
:1024B0007249DFF804A2484608F0F2FE774BC8F8EC
:1024C00000304046664BC8F8043088F8084088F869
:1024D0000940C8F80C4088F8104003F0A5F8664A97
:1024E0006649DFF8D891404608F0DAFE039B3B606E
:1024F00038464F4B7B603C727C72FC603C7403F04E
:1025000093F85D4A5D49DFF8B881384608F0C8FEA7
:102510004A4B33603046554B736034727472F460CA
:10252000347403F081F8544A54495D4F304608F042
:10253000B7FE444B2B604D4B6B6028464FF00103B8
:102540006B722C72EC602C7403F06EF84B494A4AA3
:10255000544E284608F0A4FE53483D4A0260434AC0
:1025600042604FF0020242720472C460047403F0CD
:102570005BF84249404A4C484C4D08F091FE4C48AB
:10258000354A047280E804084472C460047403F09D
:102590004BF8394A3949464808F082FE304B8AF8F0
:1025A000084050468AE808084FF001038AF80930CD
:1025B000CAF80C408AF8104003F036F82E4A2F492A
:1025C000504608F06DFE1A4B89F80840484689E8E5
:1025D00008084FF0020389F80930C9F80C4089F85F
:1025E000104003F021F8244A2449484608F058FED8
:1025F0001E4BC8F8003040461D4BC8F8043088F820
:10260000084088F80940C8F80C4088F8104003F0EA
:102610000BF8194A1949404608F042FE144B7B60FA
:1026200038464FF001037B723C72FC603C7449E019
:10263000E4CAFF1F60C60000F4C20000F4C8FF1F18
:102640008CC7FF1FA4CDFF1FC4C7FF1F18C3000006
:10265000A8AAFF1FFCC7FF1F68ACFF1F34C8FF1FDD
:10266000B4CCFF1F6CC8FF1FA4C8FF1F38A9FF1FF1
:102670007CCCFF1F68C9FF1FFC9BFF1F6D0400007F
:10268000E0ABFF1F08ACFF1FB0C6FF1F8CC9FF1FC8
:102690003CC7FF1FB0C9FF1F10CAFF1F44CAFF1F5E
:1026A00064CCFF1F98B1FF1F54ACFF1FD4A8FF1FBD
:1026B000A0ACFF1F58CEFF1FB4ACFF1F3CCCFF1FC8
:1026C00050CCFF1FC7F800B002F0AEFF4049414AAE
:1026D000384608F0E5FD404A326003233F4A7372F2
:1026E000304672603472F460347402F09DFF394AEF
:1026F0003749304608F0D4FD4FF0010105F11802CA
:1027000069723749296023462C72EC6021462A61A0
:102710002C4600E0226942F823106A7A31480133DE
:102720009A42F7DC304B1A6812B900F05FBE1A46C5
:102730005369002BFBD155612C4C2D4F2D4A2E4B4C
:102740002C6000242A622B634FF0884125486C617D
:10275000AC80EC80AC72294E02F090F82246214603
:1027600047F6FF733846AB85EC85FDF709FF244B30
:102770003B603046234B736035603C763472747234
:10278000F460347402F050FF124A11491E4D304675
:1027900008F086FD1D4B042103F128021846FDF7C1
:1027A000EFFE114B1A491A68184B6C7219601749E1
:1027B0002C614FF480338B61CB610B624B62084B11
:1027C0002B602C72EC60084B2ABB00F012BE00BFDD
:1027D0006D040000FC9BFF1F7CCCFF1F34CDFF1F4E
:1027E0001CBD0000D4A8FF1F08D0FF1F48C6000072
:1027F00044ADFF1FE63C010082902C00F4ABFF1FAC
:1028000030C300006CCDFF1F40CBFF1F08ADFF1F82
:1028100018C300001A465369002BFBD15561DFF83D
:1028200050E3B64BBEF90020B5492960002402F1FF
:10283000010C13442146224640F6CC476C61AC8023
:10284000EC80AC72AF48AEF800C0AB616C6285F84A
:102850002840EF612F62FDF793FEAB4BAB4FAC4EC0
:10286000DFF81093DFF81083DFF810B3DFF810A360
:1028700003F118021846A34B1F604FF480471F62F4
:102880000121A44B0393FDF77BFE9F4BA24F1F60DA
:10289000022106F1340230460F465962FDF770FE00
:1028A0009E4B33609E4BB361A3F57C53183BF361A1
:1028B0004FF4805333629B4B7362394609F1340203
:1028C0004846B462F4623463FDF75AFE934BC9F88C
:1028D0000030934BC9F81830A3F57C53183BC9F866
:1028E0001C304FF48053C9F820308E4BC9F8243087
:1028F00008F1280204214046C9F82840C9F82C40B4
:10290000C9F83040FDF73CFE039B874AC8F8002019
:102910004FF48037184683E86000C8F81870C8F88C
:102920001C70C8F82070C8F824701C725C72DC60DF
:102930001C7402F079FE039B7C4A7D49734D184656
:1029400008F0AEFC6F4B8BF8084058468BE8080245
:102950008BF80940CBF80C408BF8104002F064FE75
:10296000724A7349584608F09BFC674BCAF804301A
:102970005046CAF800908AF808408AF80940CAF818
:102980000C408AF8104002F04FFE6949674ADFF8B0
:10299000F4B1DFF8F491504608F082FC65485A4AD9
:1029A000047280E804014472C460047402F03CFEC6
:1029B0005F495E4A5F48DFF8D4A108F071FC5E48C9
:1029C0004FF0010280E840010472C4600474427256
:1029D00002F02AFE5649554A5748584E08F060FC06
:1029E0005748584AC0F80080426004724472C4607C
:1029F000047402F019FE4D4A4D495148DFF89081A8
:102A000008F04EFC224621464F48FDF7B9FD4F4BDA
:102A100003F1340218464C4B02211D604FF48045EF
:102A20001D62FDF7ADFD4A4B3C4D03F128021846EF
:102A3000464B1D603A4D9D61A5F57C55183DDD6105
:102A40004FF480551D62374D5D6204219C62DC624B
:102A50001C63FDF795FD3E4B334D3E481D602246FD
:102A600021469F61DF611F625F62FDF789FD394B7F
:102A7000394D3A481D60224621461C835C83DC6147
:102A80001C629C629C85DC851C63FDF779FD334BE1
:102A900033481D60224621461C835C83DC611C6236
:102AA0009C629C85DC851C63FDF76AFD2C4B2D48E0
:102AB0001D60224621461C835C83DC611C629C6293
:102AC0009C85DC851C63FDF75BFD274B03F1180239
:102AD0001846244B02211D601C835C83DC611C6250
:102AE0009C629C85DC851C63FDF74AFD1F4B134DE2
:102AF00003F1180218461C4B02214BE0F541ED5E34
:102B00003CC3000030CFFF1F2CB3FF1F54C6000092
:102B1000C4C6FF1FC8CBFF1FE8C200000CC30000E3
:102B200000B28E0480F9855A18C30000FC9BFF1F79
:102B30006D040000F4CBFF1F24A9FF1F00C3000099
:102B40000CCDFF1F08ADFF1F80AAFF1FE0B3FF1FC2
:102B50001CACFF1FF0CDFF1F60C6000024CEFF1F7E
:102B600008CCFF1F90CEFF1FF4B1FF1FB8A9FF1FB5
:102B700078CFFF1FA4ABFF1F94B4FF1FDCCBFF1F58
:102B800094A8FF1FDCC8FF1F40C9FF1F08AAFF1F32
:102B900054C9FF1F1D60FDF7F3FCA54B03F118029C
:102BA0001846A44B02211D60FDF7EAFCA24B03F17D
:102BB000280218469E4B04211D60FDF7E1FC9E4B48
:102BC0009E4D9F481D60224621469F61DF611F6226
:102BD0005F62FDF7D5FC9A4B9A4D1D602246214657
:102BE0004FF4804598481D62FDF7CAFC964B954D01
:102BF0001D60224621464FF4804594481D62FDF732
:102C0000BFFC924B8F4D1D60224621464FF48045FC
:102C10008F481D62FDF7B4FC8E4B03F11802184675
:102C20008B4B01211D62874D1D60FDF7A9FC8A4B6E
:102C30008A4D03F128021846864B04211D600225A7
:102C40005D62FDF79DFC844B7C4D85481D602246EE
:102C500021469F61DF611F625F62FDF791FC804B3F
:102C6000804D81481D60224621461C835C83DC61C7
:102C70001C629C629C85DC851C63FDF781FC7A4BA1
:102C80007A481D60224621461C835C83DC611C62FD
:102C90009C629C85DC851C63FDF772FC734B744859
:102CA0001D60224621461C835C83DC611C629C62A1
:102CB0009C85DC851C63FDF763FC6E4B03F11802F9
:102CC00018466B4B02211D601C835C83DC611C6217
:102CD0009C629C85DC851C63FDF752FC664B674D4E
:102CE00003F118021846634B02211D60FDF748FCF2
:102CF000634B644D03F1180218465F4B02211E60BE
:102D0000FDF73EFC604B03F1340218465C4B022198
:102D10001E60FDF735FC5C4B5C4E1E605C4E9E6198
:102D2000A6F57C56183EDE614FF480561E62594E61
:102D30005E6205F12802284604219C62DC621C6365
:102D4000FDF71EFC3D4B2B60534BAF6103F134028A
:102D500002211846EF612F626F62FDF711FC4E4BA6
:102D60004B4A9A614D4B494D4D4E03F1280218468E
:102D7000494B1D604B4DDD614FF480551D62454D43
:102D80005D6204219C62DC621C63474B0393FDF788
:102D9000F7FB424B294A1A609F61DF611F625F6245
:102DA000424B33603046424B424D73603472747212
:102DB000F460347402F038FC3F4A4049404F3046DA
:102DC00008F06EFA3A4B2B6028463E4B6B602C7233
:102DD0006C72EC602C7402F027FC3849364A3A4E8B
:102DE000284608F05DFA039B364A1A6018462B4ABB
:102DF0005A601C725C72DC601C7402F015FC039B50
:102E00002D4A2E49314D1846314B039308F048FAAC
:102E1000304BCBF8003058462F4BCBF804308BF8B2
:102E200008408BF80940CBF80C408BF8104055E077
:102E300040B2FF1FB8A9FF1F80B3FF1F18C30000D7
:102E4000C4CEFF1F54C60000E8CEFF1F0CCFFF1FEB
:102E500080ABFF1F14B2FF1F90CBFF1FE8C2000022
:102E6000CCC5FF1F60C6000000C6FF1F34C6FF1F91
:102E700068C6FF1F70A9FF1FD4B1FF1F00C3000069
:102E8000DCC9FF1F34B4FF1F50C7FF1F0CC3000075
:102E900000B28E0480F9855A58B5FF1F30ABFF1F72
:102EA000E0AAFF1FE8728E041CABFF1F80AAFF1F61
:102EB000E0B3FF1F08ABFF1FFC9BFF1F6D0400006A
:102EC000DCCDFF1F1CACFF1F6CB3FF1FF0B2FF1F58
:102ED000CCB3FF1FF0CDFF1FF4B1FF1F02F0A4FB26
:102EE000BC4ABD49584608F0DBF9BC4BCAF8003073
:102EF000BB4BCAF8043050464FF001038AF8093042
:102F00008AF80840CAF80C408AF8104002F08CFB9E
:102F1000B04AB149DFF83CB3504608F0C1F9B14BB3
:102F2000C9F80030B04BC9F8043048464FF00203EE
:102F300089F8093089F80840C9F80C4089F8104030
:102F400002F072FBA34AA449DFF80CA3484608F03C
:102F5000A7F9A64BC8F80030A34BC8F80430404688
:102F60004FF0030388F8093088F80840C8F80C408F
:102F700088F8104002F058FB964A9749DFF8DC9237
:102F8000404608F08DF9964B3B603846984B7B6085
:102F90003C727C72FC603C7402F046FB8D4A8E49A8
:102FA000DFF8BC82384608F07BF98F4B3360904BDA
:102FB000736030464FF0010373723472F4603474FE
:102FC00002F032FB834A84498A4F304608F068F9A0
:102FD000874B2B60884B6B6028464FF001036B7268
:102FE0002C72EC602C7402F01FFB7B49794A834EF3
:102FF000284608F055F98248824A0260824A4260B7
:1030000004724472C460047402F00EFB7249714A87
:103010007B487E4D08F044F9039B7D4A1A607A4A4A
:103020005A6018464FF001021C725A72DC601C7420
:1030300002F0FAFA039B6849664A184608F030F92C
:103040007448754A0260704A42604FF0020204728E
:103050004272C460047402F0E7FA5E4A5E496F4B44
:103060006C48039308F01CF96D4BCBF80030664BAD
:10307000CBF8043058464FF003038BF809308BF837
:103080000840CBF80C408BF8104002F0CDFA5249C2
:10309000504A584608F004F962485B4A0260624AA6
:1030A000426004724472C460047402F0BDFA494A7A
:1030B00049495C4808F0F4F85B4BCAF800304E4BC5
:1030C000CAF8043050464FF002038AF809308AF8F3
:1030D0000840CAF80C408AF8104002F0A5FA3E49B0
:1030E0003C4A504608F0DCF85048514A0260514AC8
:1030F000426004724472C460047402F095FA354A66
:1031000035494A4808F0CCF84B4BC9F80030494BD8
:10311000C9F8043048464FF0010389F8093089F8AE
:103120000840C9F80C4089F8104002F07DFA2A499D
:10313000284A484608F0B4F84048414A0260414AEB
:10314000426004724472C460047402F06DFA214A51
:1031500021493A4808F0A4F83B4BC8F80030394BF5
:10316000C8F8043040464FF0010388F8093088F869
:103170000840C8F80C4088F8104002F055FA154A8B
:103180001549404608F08CF82A4B3B6038462F4BD7
:103190007B603C727C72FC603C7402F045FA0E4924
:1031A0000C4A384608F07CF82948264A0260274A2B
:1031B00042604FF0010242720472C460047402F073
:1031C00033FA044A0449224808F06AF81F4B336076
:1031D000304647E0FC9BFF1F6D04000024CEFF1F1C
:1031E000F4B1FF1F08CCFF1FB8A9FF1F90CEFF1F2F
:1031F00040B2FF1F80A8FF1F30ABFF1FACA8FF1F0E
:10320000B8B3FF1FC4CEFF1F90CBFF1FA4A9FF1FA1
:10321000E8CEFF1F58B3FF1F0CCFFF1F20CBFF1FAF
:1032200080ABFF1F20B4FF1F14B2FF1F6CB4FF1F41
:10323000CCC5FF1F70A9FF1F00C6FF1F18B3FF1FDB
:1032400034C6FF1FD4B1FF1F68C6FF1FDCC9FF1FB4
:10325000FCC9FF1F8CB2FF1F04B3FF1F80B4FF1F08
:103260002CC9FF1F644B736034727472F460347441
:1032700002F0DAF96149624A304608F011F8614813
:103280005D4A0260604A42604FF00302427204727B
:10329000C460047402F0C8F95849594A594807F003
:1032A000FFFF5A48584A0260594A42600472447209
:1032B000C460047402F0B8F95049514A534807F009
:1032C000EFFF5448524A0260534A42604FF00102F5
:1032D00042720472C460047402F0A6F94749484A75
:1032E0004C4807F0DDFF4D484FF0010242724A4A58
:1032F00002604B4A42600472C460047402F094F9A4
:103300003E493F4A454807F0CBFF4648464A0260DF
:10331000464A047242604472C460047402F084F944
:103320003649374A3F4807F0BBFF41484FF001029A
:1033300042723B4A02603D4A42600472C4600474B7
:1033400002F072F92D492E4A394807F0A9FF394891
:10335000354A0260384A047242604472C4600474A0
:1033600002F062F92549264A324807F099FF039B8B
:103370004FF001025A722A4A1A6018462E4A5A60C1
:103380001C72DC601C7402F04FF9039B1B491C4A41
:10339000184607F085FF2948244A0260284A04722B
:1033A00042604472C460047402F03EF9144A134946
:1033B000224807F075FF4FF001036B721E4B2B6024
:1033C00028461F4B6B602C72EC602C7402F02CF9B9
:1033D0000B4A0A49284605B0BDE8F04F07F060BF28
:1033E0001860FEF738BD1D60FEF7DBBD1860FFF703
:1033F000A3B91D60FFF713BA50C7FF1F6D0400008B
:10340000FC9BFF1FC0A8FF1F30ABFF1FCCACFF1FF2
:1034100058B5FF1F10A9FF1F08ADFF1FD0B4FF1F35
:103420006CCDFF1F64B2FF1F34CDFF1F94B5FF1F8B
:103430001CAAFF1FA0B2FF1FACCAFF1F90A9FF1F4D
:1034400070CBFF1F0020704700207047F8B5144C68
:10345000037A242908BFC2805B0001250E4620465E
:10346000C1F30721174684F83B3084F85E5084F896
:103470005D5001F0BFFCF1B2204601F0BBFCC7F388
:103480000721204601F0B6FCF9B2204601F0B2FC5B
:103490002946204601F052FEB0FA80F04009F8BDFE
:1034A000C09DFF1F38B5012504460571334801F062
:1034B000B5FC052002F046FC204644F260023021B3
:1034C000FFF7C4FF20466C222621FFF7BFFF2046EE
:1034D0004FF4F9722821FFF7B9FF204640F6227217
:1034E0002C21FFF7B3FF204644F246423C21FFF770
:1034F000ADFF204640F237122421FFF7A7FF2046F8
:1035000044F2FF023021FFF7A1FF7322022120467F
:10351000FFF79CFF4FF4C87002F014FC204641F600
:103520001D522E21FFF792FF042211462046FFF77D
:103530008DFF20464FF498720621FFF787FF204643
:1035400010220A21FFF782FF204600220E21FFF7FA
:103550007DFF204643F63C421021FFF777FF2046CF
:1035600047F67F722221FFF771FF20463622242181
:10357000FFF76CFF6572284638BD00BFC09DFF1F76
:1035800010B5044619B1012911D0002010BD5522F3
:103590002021FFF75BFF0028F7D0E28842F0040209
:1035A000204692B22421BDE81040FFF74FBF40F201
:1035B00073122A21FFF74AFF0028E6D08822202133
:1035C0002046FFF743FF0028DFD0E288204622F0A4
:1035D00004022421BDE81040FFF738BF38B5054686
:1035E000F1B1802903799ABFC1F1800444EA04242F
:1035F000002433B9224628462221BDE83840FFF78F
:1036000025BFC288002322F0100203712421FFF796
:103610001DFF224628462221BDE83840FFF716BF8D
:103620000123037147F67F722221FFF70FFFEA881B
:1036300042F01002284692B22421BDE83840FFF73C
:1036400005BF00BF0B4610B507490446184607F0F2
:103650001BFC064907F010FB07F002FE014620465E
:10366000BDE81040FFF7BABF00000143EE7CFF3E0B
:10367000C369002B7ED0436A012B2DE9F0474FF040
:10368000000180464EDD01F0ADFF0746002872D0F4
:10369000D8F82400D8F81C50D8F828C0461E07F1E6
:1036A000040E9CFBF6F607F58279013E4FF0000A06
:1036B000B8F8203001331BB29C45CBBFA8F82030AE
:1036C000A8F820A05B000023BEF90020EA520028E1
:1036D000B8F920301EDD00221146012835F91340CB
:1036E00018BF9B1B002B02F10102B8BF634490423C
:1036F0002144F2D191FBF0F12EF8021BCE45D7D137
:1037000040463946002201F047FF3846BDE8F04701
:1037100001F018BF002191FBF0F12EF8021BCE45FD
:10372000C6D1EDE701F05EFF044620B3D8F828606B
:10373000D8F81C50021D002700F58270B8F8203020
:1037400001331BB2B342B4BFA8F82030A8F82070F0
:1037500032F9021BB4BF5B0000238242E952EDD173
:1037600040462146002201F017FF2046BDE8F04701
:1037700001F0E8BE7047BDE8F08700BF10B4002438
:10378000C4618462048469B1092A08DDA34206DDAC
:1037900052108262C161436210BC01207047204612
:1037A00010BC7047084610BC704700BF2DE9F04FB1
:1037B000002183B0054601F015FF0090002800F0BD
:1037C000FB802B7F002B00F08C80009A02F5827327
:1037D00002F1040A9A4501937CD2DDF804E056E038
:1037E0002B7F022B00F08280032B66D0042B00F08D
:1037F0008880052B00F09680062B00F0E080072BD8
:1038000000F0A180012B00F0B2806B6A2A6A5B1481
:1038100003EBA2329C1818191F1803EB070C03EBDB
:103820000C0699190B444FF6FF7BDAF80090DAF892
:10383000048032FB09F234FB19F4C2EA044230FB83
:1038400008F037FB18F7C0EA0747DAF808003CFB36
:1038500000F0DAF8084036FB14F6C0EA0646DAF85B
:103860000C0031FB00F133FB10F3C1EA03438AE89B
:103870008400CAF80860CAF80C302A6A6B6AA5F896
:103880001EB013440AF1100A2B62D64522D9E98BE7
:103890000029A5D06B6A2A6A5B1403EBA2329C183C
:1038A00018191F1803EB070C03EB0C0601F1FF3B83
:1038B00099191FFA8BFB0B44B7E72B6BEA8DEA8350
:1038C0004FF00401D64503F14043297793FBF2F30F
:1038D0006B62DCD8009C28460022214601F05CFE89
:1038E000204603B0BDE8F04F01F02CBEAB8DEB835A
:1038F000002BE2D003234FF080422A6269622B77CB
:10390000C3E72B6B69624FF005022A779A132B628B
:1039100011461346164694461746104614464FF66F
:10392000FE7B82E76B6A2A6A5B1403EBA2329C1867
:1039300018191F1803EB070C03EB0C0699190B441D
:103940004FF6FE7B71E72B8D2962EB83D3B103F138
:10395000FF3B4FF001022A770B461FFA8BFB69628F
:103960000E468C460F4608460C460A465DE76B8DB0
:10397000EB834FF002022A774FF0804292FBF3F381
:103980006B6282E7B5F82AB04FF0804393FBFBF3FC
:103990005A1454001019171802EB070C02EB0C060E
:1039A0000BF1FF3B91194FF002086B6285F81C8008
:1039B0001FFA8BFB531838E703B0BDE8F08F019B6B
:1039C0002977534586D9CAF80010CAF80410CAF8F6
:1039D00008100AF1100A53454AF8041CF3D879E795
:1039E00072B6037F012B0DD9C28E5AB1072B07D0B7
:1039F000036AC28307215B42017793FBF2F24262C2
:103A000062B67047038DC3830022026223B1012393
:103A10004262037762B67047428DC28302214FF043
:103A20008043017793FBF2F3436262B6704700BFB5
:103A300072B6037F53B1072B08D0036A828EC2830C
:103A400006215B42017793FBF2F3436262B6704753
:103A50002DE9F8430021054601F0C4FD012104468B
:103A6000284601F0B3FD0646BCB3D0B304F5827E10
:103A7000231D9E4524D90C3004F10C0111E90C00E2
:103A800050F8089C50F8048C12FB39FC2CF3CF3C06
:103A900012FB09F222F3CF32C2EA0C4213FB38FCCC
:103AA0002CF3CF3C13FB08F323F3CF33C3EA0C43CF
:103AB0008E4501E90C0000F1080001F10801DDD894
:103AC00028460022214601F067FD204601F03AFD1C
:103AD0003046BDE8F84301F035BD0028F9D1BDE816
:103AE000F8832046BDE8F84301F02CBD2DE9F04FE6
:103AF00083B08846846A0190D0F81CC0D0F824A016
:103B0000C16A076BDDF8309008F580702646834661
:103B100038F902EB4FEA0E3E5CFB17F401EB84042C
:103B20005AFB17F57644C4EB6606A6EB85065CFBEC
:103B300016F007EB80005CFB10F104EB81015AFBEF
:103B400010F5C1EB0E07A7EB85055CFB15F700EB45
:103B500087070C4424F34F34384420F34F30354466
:103B600025F34F35C34522F8024B764623F8020B66
:103B700029F8025BCCD1019A1346C3F828E0D16240
:103B8000176303B0BDE8F08F2DE9F04F85B088468C
:103B90008169019101460C460390006A0290D1F8B8
:103BA00024B08F6A206BC96ADDF838A0DDF83C903C
:103BB00008F58074009432F9026B029C06FB04F64F
:103BC00026F0784505F10065ED0055FB15F5284C0C
:103BD00055FB14F5ED00013CF616C6F106062C4423
:103BE0003441019D55FB14F4224D38F902CBAC420F
:103BF000A8BF2C4624024FEA0C3C54FB10F601EB04
:103C000086065BFB10F107EB0C0EC6EB6E0EAEEBFF
:103C1000810E54FB1EF500EB850554FB15F106EBF8
:103C200081015BFB15F0C1EB0C07A7EB800754FB90
:103C300017F405EB84000E4426F34F36054425F3B4
:103C40004F35BE442EF34F3E009C23F8026B444593
:103C50002AF8025B674629F802EBACD1039A1346B7
:103C6000C3F828C0D162106305B0BDE8F08F00BF73
:103C7000ABAAAA2AE71052002DE9F043002183B035
:103C8000044601F0A3FC01210546204601F09EFCFC
:103C90000646002D3CD001F001FC074600283CD030
:103CA00001F0FCFB8046002842D001F0F7FB814682
:103CB000002851D0002E45D0021D08F104030192C6
:103CC000009320463B1D321D291DFFF75DFF304646
:103CD00001F038FC284601F035FC00223946204628
:103CE00001F05AFC384601F02DFC012241462046E5
:103CF00001F052FC404601F025FC204602224946D4
:103D000001F04AFC484603B0BDE8F04301F01ABC9C
:103D10000028F8D103B0BDE8F083284601F012FC7A
:103D2000002EF7D0304603B0BDE8F04301F00ABCE6
:103D3000284601F007FC384601F004FC002EE9D0CB
:103D40003046F0E7031D00933A1D08F10403291DD6
:103D50002046FFF7CBFEBDE7284601F0F3FB3846CF
:103D600001F0F0FB404601F0EDFB002ED2D03046D2
:103D7000D9E700BF2DE9F8434FF00008064600F1EF
:103D80001805474641463046002F4FD001F01EFC33
:103D9000F0B12C68B4F5803F07F1040100F1040E86
:103DA00007F5827C27D05EF8042B34FB02F334FB4A
:103DB00012F903F30F0209F30F03C2EA03430A687F
:103DC00093FA12F341F8043B8C45ECD801F0BAFBAE
:103DD00008F10108B8F1040F05F10405D2D1002F54
:103DE00040D030463946002201F0D6FB3846BDE8C7
:103DF000F84301F0A7BB07F10C0100F10C0451F8E6
:103E0000083C54F8082C93FA12F341F8083C54F893
:103E1000042C51F8043C93FA12F38C4541F8043C0D
:103E200004F1080401F10801E9D8CFE701F0DAFB59
:103E300007460028CCD02868B0F5803FC8D0391D8F
:103E400007F582740B6830FB03F230FB13F302F3C7
:103E50000F0203F30F03C2EA034341F8043B8C4211
:103E6000F0D8B5E7BDE8F8832DE9F84F344B354875
:103E70001A68354912681B790B70824229D2334B7C
:103E80001B784BBBDFF8D4A0DFF8D490DFF8D480E8
:103E9000DFF8D4B0DAF80060D9F80070B8F8004064
:103EA000BBF80050002E3CD0A7B33A1D311D02EBE9
:103EB000450201EB440100F0DDFE403540347F2C2B
:103EC0001CD8A8F800407F2D0BD8ABF80050BDE8F7
:103ED000F88FA0F58070D5E71D4B4FF080421A6037
:103EE000D0E700243846ABF8004001F02BFB194B1B
:103EF0001A68C9F800201C60BDE8F88F002430461D
:103F0000A8F8004001F01EFB134B1A68CAF8002005
:103F10001C60D8E7311D01EB440100F0CAFE4034BB
:103F2000CDE737B1391D01EB450100F0E2FE403528
:103F3000C5E739464FF48072BDE8F84F07F0DABCA8
:103F400058CFFF1F4093FF1F1F80004070CFFF1FFF
:103F500008E200E06CCFFF1F74CFFF1F68CFFF1F88
:103F600060CFFF1F54CFFF1F64CFFF1F70B500212C
:103F7000044601F02BFB80B172B61C4A1368002B7B
:103F800029D01B490D6805B31A4E15600022086040
:103F9000328062B6184601F0D5FA2046012101F0C0
:103FA00015FB88B172B6144A1368CBB113490C687B
:103FB00074B1134D1460002208602A8062B618465E
:103FC000BDE8704001F0BEBA70BD086062B6E4E7BB
:103FD000086062B670BD074910600B8062B6DCE70E
:103FE000074910600B8062B670BD00BF68CFFF1F2D
:103FF00074CFFF1F54CFFF1F60CFFF1F6CCFFF1F79
:1040000064CFFF1F10B5044601F030FC204610BD00
:10401000284B29491A68294842F400421A600A6864
:1040200042F002020A601A6842F002021A60036853
:10403000002B3EDB224B1B68002B3ADB214A4FF062
:10404000864313601368002BFCDBF0B51E4C1F4841
:10405000DFF8A8E01E491F4B1F4A204F204E214D7C
:1040600041F2100CC4F800C0002404600120CEF816
:104070000000DFF88CE0C1F800E04FF480311960F7
:10408000194B1360DFF87CE0184A3A60346028600E
:1040900000F18E40CEF80000154CB967154816495E
:1040A00046F8503C4FF4C0632A61236003600B6004
:1040B000F0BD70473C8004404080044000F0024066
:1040C00080F0024000F1024004F1024060F0024042
:1040D00008F002400CF0024010F0024014F00240E0
:1040E000E0F0024084F002401B1F0100001F1F1F70
:1040F00008B004400CB0044018B0044004F0024082
:104100000100000788F00240F8B5274C274E2046F2
:10411000012101F047FB264A264B002515601D6052
:10412000FFF776FF244B254A25494FF4C0601860FD
:10413000236802201A6098802279196102F1804276
:1041400002F5043240F20117DF80DE604FF4807127
:1041500006278F26D9829D82D9839D619F8398608F
:104160001570167001F0C4FA2279164B16491870B2
:1041700053119B00174603F160430F70134D144E0B
:10418000144C02F11000012103F5614302F01F02FB
:1041900001FA02F24FF080770F492F602C6046F849
:1041A00020101A60F8BD00BF58CFFF1F00FEFFFFB0
:1041B00068CFFF1F60CFFF1F04B004404092FF1F75
:1041C00022F0024070CFFF1F1B80004000F0024031
:1041D0000096FF1F01000090693E0000024A03495B
:1041E000034807F05DB800BFFC9BFF1F05400000BF
:1041F00058CFFF1F037E002B41D0012B2DE9F0414A
:104200003ED0044601F04AF9054600285DD0A28B55
:1042100082BB638B04EB4303B3F92230291D05F500
:10422000827647F6AE70002701E0A28B734604EB5E
:104230004202B2F924E0734400FB03F31B1421F89B
:10424000023BA28BB4F81AC004EB4208013292B2CE
:104250009445A8F82430A28398BFA783B142E4D143
:1042600020462946002201F097F92846BDE8F04192
:1042700001F068B904EB4203B3F92230CEE770478E
:10428000134C428B2368E2B11132D0F820C000EB0E
:10429000420E00F1220644F2A71717FB13F10D4D51
:1042A0009AB2CB0B090407FB02330D402B4423F0D9
:1042B000004202EBD3733CFB03F226F8022FB64513
:1042C000EBD10222236002769BE72076BDE8F081E5
:1042D000BC9DFF1F0000FF7F2DE9F04FC56A83B032
:1042E00015B903B0BDE8F08F064601F0D7F80146D6
:1042F00001900028F5D006F11C0292E8041401F1A7
:10430000040EB369F44FF54801F58271009196F8F7
:104310002810F34CDFF8CC9314F80180DC1704EA82
:10432000090989EA430382EA0A0909EA080908EA4D
:10433000040403F03F0862408AEA090AC3F38514C3
:1043400057F8288050F82440CAEB0209CC440131C8
:10435000E04486F82810A04435FB08F8E149DC1752
:10436000214081EA430302F4006903F03F0104F4B1
:1043700000642AF4006A624049EA0A0AC3F3851B12
:1043800057F8214050F82B10CAEB0209CC44644482
:10439000214435FB01F1C8EA0144D249CEF800407E
:1043A000DC17214081EA430302F4806803F03F01F7
:1043B00004F480642AF4806A624048EA0A0AC3F37B
:1043C0008519CAEB020857F8214050F82910C44457
:1043D0000CEB0408884435FB08F8C249DC1721407F
:1043E00081EA430302F4006903F03F0104F400642E
:1043F0002AF4006A624049EA0A0AC3F3851B57F8A7
:10440000214050F82B10CAEB0209CC4464442144EB
:1044100035FB01F1C8EA0144B249CEF80440DC178B
:10442000214081EA430302F4007803F03F0104F4E1
:1044300000742AF4007A624048EA0A0AC3F3851934
:10444000CAEB020857F8214050F82910C4440CEB7D
:104450000408884435FB08F8A249DC17214081EAAA
:10446000430302F4006903F03F012AF4006A04F4F4
:104470000064544049EA0A0AC3F38512CAEB0409EE
:1044800057F8211050F82220CC4461440A4435FBEF
:1044900002F2C8EA0241934ACEF80810D9170A403E
:1044A00082EA430304F4806803F03F0201F4806170
:1044B0002AF4806A4C4048EA0A0AC3F38519CAEB19
:1044C000040857F8221050F82920C4440CEB0108C6
:1044D000904435FB08F8834AD9170A4082EA43031F
:1044E00004F4006903F03F022AF4006A01F4006159
:1044F000614049EA0A0AC3F3851B57F8224050F885
:104500002B20CAEB0109CC446444224435FB02F25F
:10451000C8EA0242734CCEF80C20DA17144084EA41
:10452000430301F4807802F4807203F03F042AF41C
:10453000807A514048EA0A0AC3F38512CAEB01089F
:1045400057F8244050F82220C4440CEB040890444F
:1045500035FB08F8634CDA17144084EA430301F48E
:10456000006903F03F042AF4006A02F400624A4042
:1045700049EA0A0AC3F38511CAEB020957F8244035
:1045800050F82110CC446444214435FB01F1C8EAC1
:1045900001445449CEF81040DC17214081EA43031E
:1045A00002F4806803F03F0104F480642AF4806A16
:1045B000624048EA0A0AC3F38519CAEB020857F8B1
:1045C000214050F82910C4440CEB0408884435FB02
:1045D00008F84449DC17214081EA430302F40069EA
:1045E00003F03F012AF4006A04F40064544049EAED
:1045F0000A0AC3F38512CAEB040957F8211050F8D0
:104600002220CC4461440A4435FB02F2C8EA02414C
:10461000344ACEF81410D9170A4082EA430304F44E
:10462000007803F03F0201F400712AF4007A4C4054
:1046300048EA0A0AC3F38519CAEB040857F822109E
:1046400050F82920C4440CEB0108904435FB08F8CD
:10465000244AD9170A4082EA430304F4006903F0AC
:104660003F022AF4006A01F40061614049EA0A0A43
:10467000C3F3851B57F8224050F82B20CAEB0109E1
:10468000CC446444224435FB02F2C8EA0242154C91
:10469000CEF81820DA17144084EA430301F4806846
:1046A00002F4806203F03F042AF4806A514048EA31
:1046B0000A0AC3F38512CAEB010857F8244050F8E0
:1046C0002220C4440CEB0408904435FB08F8054A4A
:1046D000DC17224008E000BF40C4000040C50000D5
:1046E00040C300000100004682EA430301F4006970
:1046F00004F400622AF4006A03F03F044A4049EAE5
:104700000A0AC3F38511CAEB020957F8244050F88E
:104710002110CC446444214435FB01F10EF1200EFC
:10472000C8EA01414EF8041C009971453FF6EFAD0F
:10473000019CF2613046C6F820A0C6F824C0B361DF
:104740000022214600F028FF204603B0BDE8F04FCC
:1047500000F0F8BE2DE9F04F83B0064600F09EFE53
:104760000190002800F0848000F58279031DB6F9DD
:104770002E100091994565D9871DDFF8FCE008E00F
:104780004FF0000327F8023C3B46994507F102072A
:1047900058D9F3694FF6FE729342F1DD326A9B1AE3
:1047A000F36113FB33F3716B306B491033FB01F191
:1047B0008913C20032FB01F1726A02440A4422F0FA
:1047C00000424FEAD25CC2F3CF147262009A322ADE
:1047D0000CF1010A42DDB26A3EF91C503EF91AC0E2
:1047E000024402EB5000084400EB610121F000415B
:1047F000CA0D02F101083EF912003EF91820B1621B
:10480000121AC1F3CF1101FB02F2C5EB0C0CB6F981
:104810002E10B6F92C8004FB0CFC00EB224205EBB9
:104820002C4C01FB02F208FB0CFCD21302EBEC381F
:1048300033FB08F3DB1327F8023C3B46994507F1AD
:104840000207A6D8019C30460022214600F0A4FEB3
:10485000204603B0BDE8F04F00F074BE3EF91C20C6
:104860003EF91A10891A04FB01F802EB2848DFE729
:1048700003B0BDE8F08F00BF70C6000038B50D462C
:1048800004460021284606F09DFC48B94FF07E51B1
:10489000284606F0B5FC30B14BF6FD73636338BDB6
:1048A0000D4B636338BD0D49284606F0EDFA06F05E
:1048B000B1FCB0F5804F08DAC0F5804000EB400055
:1048C00040F391035B42636338BDA0F5804000EB89
:1048D000400040F31103E1E700D0FFFF00FEFF4678
:1048E000036A2DE9F04780464BB9D8F81830D8F85C
:1048F0001C2003EBC213C8F81830BDE8F08700F0A5
:10490000CDFD06460028F0D0D8F81890D8F81C70D5
:10491000D8F820C0134D4946841C00F5817E0B0E4B
:104920005A1C35F9130035F91220C1F30F2ACAF5C4
:10493000803300FB03F30AFB023353FB0CF324F830
:10494000023FA6453944EAD109EBC7174046C8F8EB
:1049500018703146002200F01FFE3046BDE8F047D7
:1049600000F0F0BD70C600002DE9F84FB0F9183026
:104970000BB9BDE8F88F044600F090FD054600280D
:10498000F7D0B4F92C30061D072B32D8DFE813F02E
:1049900066009000A700B9000800D600E9004C00AE
:1049A000D4F830C0BCF1000F39D0E06905F5827849
:1049B000B646C10D4A1CC0F3CF13D2B23CF911A0C8
:1049C0003CF91210B4F91820A76AC3F57F4909F120
:1049D000FF0909FB0AF903FB01931B1402FB03F314
:1049E000DB132EF8023B3844C64520F00040E0D1EE
:1049F000E061B4F92E206AB105F5827101E0B4F9E5
:104A00002E20B6F90030134403F30F0326F8023BBF
:104A1000B142F4D820460022294600F0BDFD2846C8
:104A2000BDE8F84F00F08EBDE36900F582783746A7
:104A300008E0B4F92400A26A27F8020B13444745A2
:104A4000E361D6D0A26A9A42F3D9B4F91810484269
:104A500000F066FF00B2E369A084ECE74A4F00F57E
:104A6000827E3046E369B4F91810D4F828804FEA02
:104A7000D35CC3F3CF1B37F91C900CF1010CCBF5C1
:104A80007F4A0AF1FF0A37F91CC009FB0AF20BFB47
:104A90000C22121401FB02F2D21320F8022B13EBAA
:104AA000080348BF23F000437045E361DAD1A0E773
:104AB000E26900F5827E3146B4F91870A06A42F3CB
:104AC000CF3303FB07F3DB1321F8023B71450244AC
:104AD000F2D1E261B4F92E20002A8DD19AE7E26981
:104AE000831D00F5837051004ABF218BB4F9181063
:104AF000494223F8021CA16A023398420A44F2D1C7
:104B0000E7E7E16900F5827E30460029B7BF238BD5
:104B1000B4F918205B421AB24F004FEA810348BF34
:104B20005B425B0C02FB03F3DB13A76A20F8023B3A
:104B3000704501EB4701E8D1E1615AE7E269276A74
:104B4000831D00F58370BA4236BF218BB4F918106B
:104B5000494223F8021CA16A023398420A44F2D166
:104B6000B7E7E26900F5827E3146B4F91870A06AB1
:104B700042F3CF3303FB07F3DB1321F8023B71450C
:104B8000A2EB0002F1D1A4E770C600002DE9F843C2
:104B900085690DB9BDE8F883064600F07FFC044640
:104BA0000028F7D0F369043004F5827744F2A711A6
:104BB00011FB13FEDFF8B8C09AB24FEADE334FEABA
:104BC0000E4E01FB02330EEA0C0C634423F000424C
:104BD00002EBD37335FB03FE11FB13FC244A4FEAAF
:104BE0000C4808EA020202EBDC329BB201FB032311
:104BF00023F0004202EBD37335FB03F2CEEA024E00
:104C000011FB13FC1A4A4FEA0C4808EA02029BB255
:104C100002EBDC3201FB032222F0004303EBD272F1
:104C200035FB02FC11FB12F8114B4FEA084909EA67
:104C3000030303EBD83392B201FB023222F00043AC
:104C400003EBD27335FB03F2CCEA024240F808EBE7
:104C5000874240F8042CABD83046F361214600224D
:104C600000F09AFC2046BDE8F84300F06BBC00BFA2
:104C70000000FF7F2DE9F04F00F5807EB1E8A00A2B
:104C8000B2E84015C5EA0643C6EA2544C7EA084526
:104C9000C8EA2746C9EA0A47CAEA2948CBEA0C49C2
:104CA000CCEA2B4AA0E8F8078645E7D1BDE8F04FEB
:104CB00070474FF000022DE9F00F00F5807C00BF37
:104CC000B1E8A00AC5EA0203C2EA2544C7EA020520
:104CD000C2EA2746C9EA0207C2EA2948CBEA020922
:104CE000C2EA2B4AA0E8F8078445E9D1BDE8F00FF5
:104CF00070474FF000022DE9F00F00F5807C00BFF7
:104D0000B1E8A00AC2EA0543C2EA0504C2EA0745BF
:104D1000C2EA0706C2EA0947C2EA0908C2EA0B4921
:104D2000C2EA0B0AA0E8F8078445E9D1BDE8F00F14
:104D300070472DE9F00F089C00F5007B51F8045BEB
:104D400053F8046BC5EA0647C6EA254952F8045BE6
:104D500054F8046BC5EA0648C6EA254AA0E880076D
:104D60008345EBD1BDE8F00F704700BF00207047CE
:104D700090F8392090F83800101A704790F83830C1
:104D800090F839209A4205D95A1C034480F83820FB
:104D9000187E70474FF0FF30704700BF90F83830F2
:104DA00090F839209A4286BF1B18187E4FF0FF30CA
:104DB000704700BF704700BF38B50546B0F85E00C9
:104DC00090B195F85D301446C3F1210294420CD89D
:104DD00005F13B001844224601F09EFF95F85D3036
:104DE000234485F85D30204638BD012014462871E3
:104DF000EEE700BFB0F85E306BB190F85D30202B6D
:104E000007D8C218013380F85D30012082F83B10CA
:104E10007047012303710020704700BF00234269DF
:104E200080F8383080F8393080F85C3080F85D30B8
:104E300080F85E3080F85F3006CA30B40D680469CF
:104E400043662A4383660A60A370426990F8613022
:104E50001649146813441D7A5B7B01EBC5051B02E0
:104E60006D6803F4E06343F064032B6090F86230F4
:104E700013449D7CDB7D01EBC5011B02496803F4F3
:104E8000E06343F064030B6021685368194205D066
:104E9000036927225A70036904229A710369202248
:104EA0005A71036980229A7030BC7047D8C80000DC
:104EB00010B50269D378DBB2D90604463DD510217E
:104EC0005806D17038D503F0040303F0FF02002B1D
:104ED00051D03D49626E00230B7084F85D30002A8A
:104EE0005BD0904794F85D30002B56D02369D022D8
:104EF0009A70236994F83B201A712369012284F87F
:104F00005C200222DA7010BD304B84F860009C42B5
:104F10004AD02F4B9C4252D094F8391013791F2954
:104F2000DBB207D82848007820B16018013184F836
:104F3000391003760223D37010BD5906C3D491787B
:104F400001F0100101F0FF000029DDD013F0010392
:104F50001ED194F85C1094F85D00884281BF4B1C10
:104F6000091984F85C3091F83B3013712369D02221
:104F70009A702269DEE7236984F83920C0229A708A
:104F80002369114A1979012111700222DA7010BDCA
:104F9000C023937022691379CCE70122002384F89F
:104FA0005D2084F83B30A1E7626994F861300949DB
:104FB00013440322187A00F0B3FD2269ACE762695A
:104FC00094F861300449F3E77CCFFF1FC09DFF1FB9
:104FD0002C9EFF1F39500000455000000369DB780C
:104FE00003F0200373B190F860300133DBB2012B82
:104FF00080F860301AD9426990F861301344187A09
:1050000000F00ABE70B5426903F0FF0590F8613008
:1050100013440446187A00F0FFFDA36E5BB184F8D8
:10502000385094F83900BDE87040184790F85F3068
:10503000002BE0D0704770BD0148FFF7CFBF00BF25
:10504000C09DFF1F0148FFF7C9BF00BF2C9EFF1F77
:105050002DE9F047374FDFF8E0903B68026982B0F6
:1050600006460093DDF800800021A025D3789B063A
:105070005BD53B680193019BC8EB03030F2BF5D96C
:1050800049B1102BF2D000209070336980229A70C1
:1050900002B0BDE8F087726996F8613013440521CB
:1050A000187A00F023FE726996F8613013440121EA
:1050B00093F812A0504600F019FE09240021504632
:1050C00000F000FE2B46013BFDD10121504600F0CF
:1050D000F9FD2B46013BFDD1013CEFD1706996F8FB
:1050E000611001444FF4A0720C7A4B7B09EBC401B0
:1050F0001B02496803F4E06343F064030B6096F815
:1051000062300344997CDB7D09EBC1011B024968D5
:1051100003F4E06343F064030B60013AFDD13269AC
:10512000D3789B064FF00101A3D4012002B0BDE863
:10513000F08700BF44D0FF1FD8C80000F0B5036956
:105140001222DA700269937803F0200385B00446D6
:105150000D46002B5ED0B42393703C4922690B6846
:105160000093009E05E00B680193019B9B1B042BA1
:1051700042D8D37803F0200303F0FF00002BF2D0D5
:1051800094F85D30002B31D04FF0000E4FF0020C40
:1051900004EB0E0393F83B3013710B680393039FEA
:1051A000206907E09B060DD50B680293029BDB1B71
:1051B000052B28D8C378DBB203F0020202F0FF0609
:1051C000002AEFD080F803C02669F378DBB2DF064F
:1051D00032462DD49F062BD5DB0731D40EF1010EBC
:1051E00094F85D305FFA8EFE7345D1D800201DBB68
:1051F000002384F85E3004E09070236980229A7066
:10520000042005B0F0BD86702369802204209A70C6
:1052100005B0F0BD03F0FF06FFF71AFF10B9042038
:1052200005B0F0BD236984F85F60B0229A7094E7FE
:105230008023B3700420DAE726698023B370D7E7B0
:10524000BEF1000F0CBF02200320F6E744D0FF1F81
:105250000148FFF72DBE00BFC09DFF1F0148FFF7AB
:1052600027BE00BF2C9EFF1F70B50468002C0546AA
:105270000E46C8BF641807DD14F8012D2979287A75
:1052800000F03AFDA642F7D1287B2E61012100F003
:1052900019FD287B0021BDE8704000F013BD00BF60
:1052A0002DE9F04104465FFA83F8069D4360D6B2CB
:1052B00021600F46826001214046E56000F016FD46
:1052C000EDB23046012100F011FD2846012100F029
:1052D0000DFD4046002100F0F5FC3046002100F0B5
:1052E000F1FC2846002100F0EDFC3846012105F0D4
:1052F000DDFF014620612046FFF7B6FF2046BDE8EE
:10530000F08100BF012A30B40A4615D01A4B056956
:10531000002903EA0103B8BFCA1D002B4FEAE202CD
:105320001FDBA95C012404FA03F321EA0303AB5455
:10533000016930BCFFF798BF0F4B0569002903EAEC
:105340000103B8BFCA1D002B4FEAE2020EDBA95CC5
:10535000012404FA03F30B43AB54016930BCFFF79B
:1053600083BF013B63F007030133DAE7013B63F0DE
:1053700007030133EBE700BF0700008000220A218A
:10538000818002608271C271704700BF30B5CDB2BA
:1053900083B00446C571284600F09AFC00232846D5
:1053A000A37100F095FC08B10323A371034B1B68A4
:1053B0000193019B236003B030BD00BF44D0FF1FA9
:1053C00081807047F0B5044685B0C07900F080FC5C
:1053D000A279003018BF0120C2F3400102F0F703A8
:1053E0008842A3710BD0124A1268019283F0020323
:1053F000019AA3712260C3F3C00005B0F0BD0C4D4B
:105400002768296802910299A688C91BB142F2D384
:1054100002F001029042EED02A68039283F0090361
:10542000039AA371C3F3C000226005B0F0BD00BFB2
:1054300044D0FF1F807900F001007047C029F0B40C
:1054400028BFC02172B6124B124E134A18600023B7
:10545000138033607360B360F3603361736101275D
:1054600099B15D0903F01F0456F8252007FA04F4EA
:10547000013322438B4246F82520F2D1002343809A
:1054800001338B4200F58270F9D162B6F0BC7047EF
:1054900010D0FF1F18D0FF1F32D0FF1FF0B472B61C
:1054A000234F244E3C8806F1180306EB84009842F3
:1054B00012D256F8241099B9021D06F11B05631C7F
:1054C000AD1A03EB950503E052F8041B41B9013313
:1054D000AB421C461046F7D162B60020F0BC7047C4
:1054E000B1FA81F34FF00042DA4021EA0201016093
:1054F00001B9013410493C800A88013294B20C8011
:1055000062B6801B8010C3EB401000EB801083005C
:105510000A480B49006803F5FB531C330125C554A9
:105520000D88AA42184488BF0C80F0BC704700BFA9
:1055300032D0FF1F18D0FF1F34D0FF1F10D0FF1F25
:105540000CD0FF1F428872B60378012B03D9013BB0
:10555000037062B67047531170B40C4C0C4D54F884
:1055600023102E88D2434FF0004002F01F0220FA91
:1055700002F21143074A44F82310B34238BF2B808C
:105580001388013B138062B670BC704718D0FF1FB0
:1055900032D0FF1F34D0FF1FC368B3B130B401E075
:1055A000DB688BB1187A9042FAD158685C7A00694E
:1055B00050F82450002DF3D140F824100878013021
:1055C0000870DB68002BEDD130BC7047437A8B420A
:1055D00006D90369002253F8210043F821207047BF
:1055E0000020704738B5437A8B421AD9036953F8C3
:1055F0002140002243F821209CB12378012B0ED9B1
:10560000FFF74CFF054628B14FF48072211D04308E
:1056100001F082FB2378013B2370284638BD2046E9
:1056200038BD002038BD00BF037C23BB4368427AED
:105630005B7A9A421FD830B472B60468E3682BB321
:10564000DA6832B119688C4216D01346DA68002A3B
:10565000F8D1D8600023C360A37A0133A372026833
:105660004168012313728A7A1A448A72426813725B
:10567000037462B630BC70475D6841688D42E4D106
:10568000198903899942F4D01346DFE7E060E1E726
:10569000037C4BB34368427A5B7A9A4224D872B651
:1056A0000268D36803B3984202D11EE0984202D048
:1056B000DB68002BFAD14368427A1B69002143F86A
:1056C00022100268937A013B937203689A7A02B9B6
:1056D0001A724268937A013B937243689A7A02B9CC
:1056E0001A720023037462B67047C368D360E2E79E
:1056F000084B1A7862B930B407480849D0250570BC
:105700004FF0804401220C6010461A7030BC704784
:105710000020704714D0FF1F5EE400E008E100E0C5
:105720001A491B4A1B48F8B50B681B4D046843F027
:1057300080730B60136843F0010313602E6814B983
:1057400015E064699CB1237A002BFAD023682F6896
:105750001B68204698472B68E188DB1B1B099AB21F
:105760008B42A28088BFE2806469002CEBD10A4B97
:105770000A4A1B6810880A4C9B1B1B0999B283427A
:10578000218001D91180F8BDF8BD00BFFCED00E01B
:10579000001000E008D0FF1F041000E030D0FF1F11
:1057A00036D0FF1FF0B572B699B902688AB1037995
:1057B0000F2B0ED8274C218841FA03F5ED070AD5A7
:1057C00003F1007303F59063B2EB431F03D162B69C
:1057D000F0BD204C2188002341FA03F212F00102AF
:1057E00007D00133102BF7D162B60022037102609B
:1057F000F0BD01259D402943218062B6164E174D0C
:10580000174FDFF864E0D9B20171346844F0020444
:1058100034602C6844F002042C60A6F580268224B3
:10582000A5F5802503F100733C6003F59063223EEB
:10583000243D0C4C8EF800105B01317029702170F2
:1058400003601A605A609A60DA601A615A619A615C
:10585000DA61F0BD38D0FF1F408004403C80044036
:10586000008000401F8000401A80004003790F2B09
:1058700011D8094A10B4137072B6084904790A881D
:105880000123A34022EA03030B8062B61022002307
:1058900010BC0271036070471A80004038D0FF1FAF
:1058A00008B5FAF7C5FEFCF791F900F043F8FAE7FE
:1058B000F0B5164D2A680AB31549164BDFF85CE0BF
:1058C00082FB016781FB0214D617D1191444C6EB81
:1058D0002141C6EB244403FB04F40EFB112244F2E5
:1058E000A71303FB0243002B02DA03F10043013B41
:1058F000B3FBF0F22B6000FB1230F0BD064B2B60C7
:10590000B3FBF0F200FB1230F0BD00BF3CD0FF1F34
:105910005F0B4E83ECF4FFFF42CE0C1F1DF3010022
:10592000884206DA10B50446081AFFF7C1FF204482
:1059300010BD704738B5224C237803B138BD012320
:10594000237001F0B7F970BB00F0BAFA40BB00F069
:105950004DFB10BB00F0E0FBE0B900232370EFF338
:105960000583002BEAD1EFF3108172B6154B18684E
:10597000E0B1154C2278CAB945691D600123237036
:10598000C5B1AA6101B962B6002545778368984719
:105990002570D3E701F056FBDFE701F051FBD9E7B3
:1059A00001F04CFBD3E701F04FFBCDE70029C5D157
:1059B00062B638BD054B1D600029E5D1E3E700BFA5
:1059C00040D0FF1FDCD2FF1FE0D2FF1FD8D2FF1F45
:1059D00008B5104C08E0236859050DD423681A0552
:1059E0000FD42368DB0411D423685803F3D500F0E7
:1059F00093FC23685905F1D500F072FA23681A0563
:105A0000EFD500F003FB2368DB04EDD500F094FB39
:105A1000EAE700BF3480044008B5FFF7D9FF00BFB4
:105A2000014B10221A80704700200540704700BFCC
:105A3000094908B50B6830B16A461844A2F580528E
:105A4000904202D20860184608BD05F06DFC0C2398
:105A500003604FF0FF3008BD989EFF1FFEE700BFB8
:105A6000704700BF10B40F4B53F8302092F88042BB
:105A70002CB1012369B182F8803010BC704703EB70
:105A8000C0035B681A6841B922F002021A6010BCB8
:105A9000704782F8003110BC704742F003021A6070
:105AA00010BC7047D8C800001C4A02EBC003012993
:105AB0005B6811D004291BD052F83000002280F816
:105AC000802229B1022920D0032922D01A607047F0
:105AD0004FF480721A60704752F830004FF4A2728F
