:1000000000800020BD010000F5590000AD5900003E
:10001000AD590000AD590000AD590000AD590000C8
:10002000AD590000AD590000AD590000F559000070
:10003000F5590000AD590000297200002D73000031
:10004000F5590000F5590000F5590000F559000078
:10005000F5590000F5590000F5590000F559000068
:10006000F5590000F5590000F5590000F559000058
:10007000F5590000F5590000F5590000F559000048
:10008000F5590000F5590000F5590000F559000038
:10009000F5590000F5590000F5590000F559000028
:1000A000515100005D510000F5590000F559000064
:1000B000F5590000F5590000F5590000F559000008
:1000C000F5590000F5590000F5590000F5590000F8
:1000D000F5590000F5590000F5590000F5590000E8
:1000E000F5590000F5590000F5590000F5590000D8
:1000F000F5590000095F0000F55900003560000067
:10010000F559000061610000F5590000F559000043
:10011000F5590000F5590000F5590000F5590000A7
:10012000F5590000F5590000F5590000F559000097
:10013000F5590000F5590000F5590000F559000087
:10014000F5590000F5590000F5590000F559000077
:10015000F5590000F5590000F5590000F559000067
:10016000F5590000A9630000F5590000F559000099
:10017000F5590000F5590000F5590000F559000047
:10018000F5590000F5590000F5590000F559000037
:10019000F5590000F5590000F5590000F559000027
:1001A000F5590000F5590000F5590000F559000017
:1001B000F5590000F559000021560000564B4CF24D
:1001C000205210B51A804DF628121A8000BF00BFC9
:1001D00005F014FC514B4FF010621A60504A9A60BF
:1001E000504ADA60504A136813F4807304D14F49BF
:1001F0000B604FF4A85313604D4B1A78110703D5C9
:100200001A7842F008021A704A4B4B492A221A7097
:100210004A4A4B4B8B4204D252F8040F43F8040B6A
:10022000F8E7484B484900228B4202D243F8042B9E
:10023000FAE74649464A002352F8230041F82300D2
:1002400001336F2BF8D1434B434A802103F8011B44
:100250009342FBD1414B3D4A1A60414B8A221A70AE
:10026000A3F5805324225A70A0221A709A7992071B
:10027000FCD59A79D406FCD43A4A937903F00C035E
:10028000082B384BF9D103221A7140225A719A79FE
:100290009006FCD5334A9179324B4906FBD5324A58
:1002A000324911600221516020221A709A7902F0BD
:1002B0000C020C2AFAD12E4B2E4A1A602E4B2F4AD2
:1002C0001A6000225A60072243F8042C2C4AC3F813
:1002D0000C2D62B605F098FD144B1B68DA0705D5A6
:1002E000284805F0F1FC284B284A1A60284B1B7857
:1002F0005B0609D5244C254B22689A4204D121483B
:1003000005F0E2FC002323600BF06CF905F07CFBA8
:1003100005F046FAFEE700BF0E200540308004409D
:10032000823F04000100002B10D0034014D0034092
:1003300002D0074000E007407CA8FF1F38D1000032
:10034000209BFF1F7CA8FF1FF4D2FF1F0096FF1FFA
:100350000000000000E400E05FE400E008ED00E0E1
:100360000050064000400640448004400000030165
:1003700004800440C010050014E000E0FF76010096
:10038000000020207A88DF5B1CE00340A5C3945A5C
:1003900000F00740FFFFFFFFFFFFFFFFFFFFFFFF32
:1003A000FFFFFFFFFFFFFFFFFFFFFFFFFFFFFFFF5D
:1003B000FFFFFFFFFFFFFFFFFFFFFFFFFFFFFFFF4D
:1003C000FFFFFFFFFFFFFFFFFFFFFFFFFFFFFFFF3D
:1003D000FFFFFFFFFFFFFFFFFFFFFFFFFFFFFFFF2D
:1003E000FFFFFFFFFFFFFFFFFFFFFFFFFFFFFFFF1D
:1003F000FFFFFFFFFFFFFFFFFFFFFFFFFFFFFFFF0D
:10040000FFFFFFFFFFFFFFFFFFFFFFFFDEF9FFFF23
:1004100010B5054C237833B9044B13B10448AFF33E
:1004200000800123237010BD7CA8FF1F0000000086
:100430003CD10000084B10B51BB108490848AFF388
:1004400000800848036803B910BD074B002BFBD0A0
:10045000BDE81040184700BF0000000080A8FF1F43
:100460003CD100007CA8FF1F0000000010B504462E
:1004700005F08EF8204610BD1F4B10B45A6C13685F
:10048000506819780478507A137A044201EA03011B
:100490001AD0937A03F0030309B143F0040343F045
:1004A00008039910013B91720D2B0BD8DFE803F084
:1004B0001E0719070A141E1E140A0719071ED368FF
:1004C000013BD36010BC7047937A03F0030300290B
:1004D000E7D043F00403E4E7D36810BC023BD360E9
:1004E0007047D36810BC0233D3607047D36810BC28
:1004F0000133D360704700BF38CFFF1F1F4B10B4CC
:100500001A6D1368506819780478507A137A044287
:1005100001EA03011AD0937A03F0030309B143F00F
:10052000040343F008039910013B91720D2B0BD883
:10053000DFE803F01E0719070A141E1E140A071924
:10054000071ED368013BD36010BC7047937A03F059
:1005500003030029E7D043F00403E4E7D36810BCA9
:10056000023BD3607047D36810BC0233D36070473E
:10057000D36810BC0133D360704700BF38CFFF1F72
:10058000002310B4104C4172026104600372C36016
:1005900041B1194600E0026942F82310427A013362
:1005A0009A42F8DC094B1A680AB90BE01A465369FB
:1005B000002BFBD15061002343618380C380837291
:1005C00010BC70471860F6E7DCBF0000C0CFFF1F0B
:1005D0000A7AF0B48D88CC88C480858002724A7A09
:1005E00042728A7A8272CF680E694D698A690F4CAD
:1005F000C76006614561046082610A7F0277CA8B29
:100600000F6A4E6A0D8D4C8DC2838A8D07624662D9
:1006100005854485CE8D0D6B8C8E8285CA8EC286F3
:10062000C68505638486F0BC704700BFE0C3000048
:100630002DE9F0411021B048B04CB14EB14DB24F50
:1006400004F07CFEB14802F0ADFE5A21AF4802F042
:1006500045FFAF49AF4AB04BE361DFF85CE3F361BC
:100660004FF080444FF48A73AC4E0C6314634CF625
:10067000CC444B858B85CB858B8653859385D385E1
:100680009386A749A74ACEF81840A74BB16100242A
:10069000F26173622868FC610AF0FAFC00210646E8
:1006A0000AF0E8FE38B9A14930460AF001FF0028F7
:1006B00000F059829E4C9F4B6868DC610AF0E8FCB0
:1006C000002104460AF0D6FE002840F06F829749C8
:1006D00020460AF0EDFE002840F04382964920466D
:1006E0000AF02AFD0AF014FF0246944BA868DA616A
:1006F0000AF0CEFC002104460AF0BCFE002840F0BF
:1007000053828A4920460AF0D3FE002840F03F82F7
:10071000894920460AF010FD0AF0FAFE0246884B8D
:10072000884FDA613868884D0AF0B2FC43F6FF73EF
:1007300000212B8304460AF09DFE002840F04282EF
:100740007A4920460AF0B4FE002840F01E827F4914
:1007500020460AF0F1FC4FF07C510AF0E5FB0AF06C
:10076000D7FE0346AB6200260123AB85EE617868B5
:10077000774C0AF08DFC43F6FF7300212383054676
:100780000AF078FE002840F01B82684928460AF0EB
:100790008FFE002840F0F7816C4928460AF0CCFC17
:1007A0004FF07C510AF0C0FB0AF0B2FE0346A36290
:1007B00000250123A385E561B868664E0AF068FC50
:1007C00043F6FF730021338304460AF053FE0028EA
:1007D00040F0F481554920460AF06AFE002840F0B6
:1007E000D0815A4920460AF0A7FC4FF07C510AF00C
:1007F0009BFB0AF08DFE5849584A594FDFF8BCE17F
:10080000584CB06242F250034B8553855649574AC3
:1008100057487B85574D584FAEF82A3063854FF4C3
:10082000004E4FF480346B858C610025CC610C62E6
:100830004FF001089461D46114628461C461C7F807
:100840002CE008234FF400624C494D48A6F82C8058
:10085000F56102F013FFDFF868E14A4ACEF828207C
:10086000494F4A484A49DFF85CC1CC6102F5282269
:1008700002F60342BA6202F51C2202F55E6282624F
:10088000444A8C61032147F6FF76AEF82C10B985F7
:100890008185918540491683D56191623F4ACCF8A4
:1008A0001820A2F5DA723E4CCCF81C201E4ACCF877
:1008B000242046F2666CC4F820C00CF15B7C0CF678
:1008C000E20CC4F81CC0C5610683364C3648374A72
:1008D0008461A4F5B734A4F5F874C4614FF00054F2
:1008E0004462334C9461A4F57C54183CD461314C7F
:1008F000CEF81C50FD6167E00082FF1F98B1FF1F1A
:10090000C8A9FF1F8C9DFF1FECCCFF1FA4CCFF1FAD
:10091000F4B4FF1F1CAAFF1FC09C8D022CB5FF1F43
:100920006804BC02C8F6BB02D0CCCC0CA655AC46C1
:1009300080FFFF7F2CC9FF1F4B24BE4750C9FF1FFC
:1009400074C9FF1FA09DFF1FECC9FF1F4B243E472A
:1009500020CAFF1F54CAFF1FB8C8FF1F5CCDFF1F6E
:1009600054ACFF1F6CCCFF1FA8B4FF1F10CEFF1F9D
:1009700034CCFF1F9CCAFF1FF8CAFF1FA4B5FF1F7E
:1009800004B3FF1FCCD92800DCCDFF1FC0CBFF1F55
:1009900034B4FF1F48CEFF1F586B3B0034025E018A
:1009A000E8CEFF1F400D340890ABFF1FB8B3FF1F08
:1009B00000B28E0400B76D5BA8B2FF1F94AAFF1FA0
:1009C000A8CDFF1F9CC6FF1F5462AEF818603E837F
:1009D000DFF870E27D4F7E4A7E497F48CEF81C00EA
:1009E000FA617E487E4C7F4FCF61A2F5B102A2F63C
:1009F000E7027D4FC2614346E7617C497C487D4FF9
:100A00004FF4006202F03AFE7B4B7C491C682046A2
:100A10000AF08AFA00213E8380460AF02BFD002866
:100A200040F0CA80764940460AF042FD002840F076
:100A3000A680744940460AF07FFB4FF07C510AF0D3
:100A400073FA0AF065FD02230026B862BB856E4981
:100A5000FE6120460AF068FA6C4D47F6FF730021EC
:100A60002B8307460AF006FD002840F0A380644966
:100A700038460AF01DFD00287FD1624938460AF049
:100A80005BFB4FF07C510AF04FFA0AF041FD604EDB
:100A9000A86247F6FF720027022300212046328316
:100AA000EF61AB850AF0E6FC002840F081805449F4
:100AB00020460AF0FDFC00285DD1524920460AF08C
:100AC0003BFB4FF07C510AF02FFA0AF021FDB06297
:100AD000022320460024B3854E49F4610AF024FA2B
:100AE0004D4D47F6FF7300212B8306460AF0C2FCEA
:100AF000002869D1424930460AF0DAFC002848D083
:100B00004648474A474CDFF840E1474B474EA8620A
:100B1000C2F818E0464FDFF834E14648C4F818E060
:100B20000021D761566266624FF48032E06146F27E
:100B30006667022610205F62E9619A61DA611A62D3
:100B4000AE8505F0E7F80121102005F0CFF810215F
:100B5000394804F09BFB0A213748BDE8F04104F016
:100B6000AFBB364AC1E5364930460AF0E5FA0AF02D
:100B7000CFFC04469FE52948A9E7284887E727488E
:100B800061E7264837E6254B11E6244BEAE52B4A78
:100B9000C5E530461B490AF0CFFA4FF07C510AF008
:100BA000C3F90AF0B5FCACE70022B8E500229CE5E9
:100BB00038468CE730466AE7284644E728461AE676
:100BC0003346F4E50023CDE520469AE77CCEFF1FAF
:100BD000A011DA00A0CEFF1F80391B05C4CEFF1F75
:100BE0006CABFF1F825D03016F319A00A4B5FF1F3C
:100BF00000B2FF1FA4C5FF1FAC9DFF1F6666EE413C
:100C0000A655AC464B243E47CDCC2E42D8C5FF1F3F
:100C10000CC6FF1FCDCC044140C6FF1FC0FFFF3FE5
:100C200014C7FF1F68B5FF1F1CABFF1F00B76D5B2C
:100C3000509D3208E43AA503ECCAFF1F80FFFF7FF6
:100C40004B24BE476CAAFF1F400D3408345BA5033C
:100C50002DE9F0418D4C2378002B33D18C490B7C4E
:100C6000012B40F28F8072B6CB6862B68948DFF8FC
:100C700038E20268002BB8BF03339B10934205D0C3
:100C80009EF80050002D44D103601A46002A04DD6E
:100C900072B60023CB6062B603609EF80030002B72
:100CA00030D17D4E7D4D3268006855F822307C4F42
:100CB000DFF8E0C1C3F1000EC0F10008704547F84D
:100CC00022803FDB774804F0FDFA08B9BDE8F081E7
:100CD000744804F02FFB0028F8D123786B4A002BCE
:100CE0003FD172B66A4AD36062B66B490A68032A7A
:100CF00000F0B2806C480132052A037066D00A60A9
:100D0000BDE8F081694B6A491A688A4215DD1960AD
:100D1000D8E7684DDFF8A8C12E68DCF80050634FB3
:100D2000751B322D42D8D51A3A684FF0640808FB7B
:100D300005223A60CCF80060A6E7002ABCBF00227A
:100D40001A60BFE747F8223072B6C3EB83739B008B
:100D5000CB6062B6336855F823305B42CCF8003084
:100D6000B0E74F4B4C4E544D544C504910703060CE
:100D7000286020600860186058609860D86018612A
:100D8000BDE8F08172B60B6848681A780578487A31
:100D90000B7A054202EA030224D08B7A03F00303A4
:100DA0000AB143F0040343F0080320E0B5F5C87F1F
:100DB00007D83D68D21A02EB820205EB42023A6084
:100DC000B8E73D68D21A15443D60B3E7344A0B607A
:100DD00002F1140152F8043B002B4BD19142F9D19E
:100DE000BDE8F0818B7A03F00303002A4BD19A10FF
:100DF000013B8A720D2B3FF637AF01A252F823F068
:100E0000510E0000490E0000410E0000490E000086
:100E1000690C0000390E0000510E0000510E000058
:100E2000390E0000690C0000490E0000410E000060
:100E3000490E0000510E0000CB68023BCB6014E766
:100E4000CB680233CB6010E7CB68013BCB600CE78B
:100E5000CB680133CB6008E7DFF84CE09EF8003048
:100E600063B90F4BDB68012B08D901238EF80030E2
:100E7000BDE8F08101232370BDE8F08100238EF8E6
:100E8000003004223BE743F00403B0E74CB2FF1FFD
:100E900054AAFF1F009CFF1F9CC9FF1FE0BF00005A
:100EA000CCACFF1FECCAFF1FA8CBFF1FECA9FF1F94
:100EB0009F860100F0A9FF1F6CB4FF1F30CCFF1FFD
:100EC0002CADFF1F2DE9F04F6D4B1B7883B0002B2D
:100ED0007CD1DFF8E8A1DFF8E8B198461F46694BFE
:100EE000CDF8048083FB08234FEAE872C2EBA3131A
:100EF000654A03F5FA7382FB0326DB43DB0FC3EB82
:100F00006616BB00F6004FEAC709002598460CE0BC
:100F100058F802305D48C3EBC3032B4401351BF87E
:100F2000232004F06FF9072D2DD09AF80030584A8D
:100F300009F1010138462944002BE9D009F060FC91
:100F4000544C02460B4600205349246806F030FBFF
:100F500009F06CFF514B94FBF0F083FB0034C31796
:100F6000C3EBA40404EB8404A0EB4400C0EBC0007A
:100F70002844711C1BF8202044482944013504F002
:100F800041F9072DD1D1DDF80480454BA8F51B4868
:100F9000A8F1DC08984507F10107A0D10025414ED2
:100FA0002C46336839489C4229464FF0000203D151
:100FB0009AF80030002B5FD004F024F90134052C9E
:100FC00005F10805EDD103B0BDE8F08F00242146FE
:100FD00000222E48083404F015F9282CF7D1324BA2
:100FE000324A3348196813680068CB1A8342EAD33F
:100FF0004FF00008DFF8CCB0DFF8BC90DFF8C0A0FD
:101000001160464647467C1C07F10805DFF8B880AA
:10101000FF4308E098F80020013404F0F3F8AC42F4
:1010200008F1040815D0DBF800301848B342214617
:10103000F0D1D9F800300A33C3EBC30323443B4457
:1010400001341AF8232004F0DDF8AC4208F104085A
:10105000E9D10136052E2746D5D1164AD9F80030F8
:101060001268154901339342C9F8003004BF0023C8
:101070000B6003B0BDE8F08F012204F0C3F89DE7D8
:101080004CB2FF1F699CDB281F85EB5150B2FF1F3C
:10109000CCACFF1FECA9FF1F00002440676666660A
:1010A000B4F4FCFF9CC9FF1FF0A9FF1F90AAFF1F0B
:1010B000989DFF1FBC9DFF1F30CCFF1FA8CBFF1FBB
:1010C000049CFF1F6CB4FF1F709DFF1F2DE9F041B2
:1010D000624E3168482958DC614B624A624C18689C
:1010E00013682468C31AA34268D3604D10602B783C
:1010F000002B40F094805E485E4C04F0A9FB5C48F5
:1011000004F056FB3268D31784FB0214C3EB64046B
:1011100004EB44032146B2EB83042DD172B3564B4A
:1011200053F82170384609F0B3FF002180460AF0D9
:10113000A1F968B9514940460AF0BAF9002840F0CF
:101140008A804F49404609F0F7FF0AF0E1F904466A
:101150004C4B4748DC61394604F07AFB4448454C27
:1011600004F026FB3268D31784FB0214C3EB64043B
:1011700004EB4404A2EB8404012C02D0424802F0A8
:10118000AFFB01232B70BDE8F081404C2368012B9D
:1011900010D0334A3349344D10680A682D68821ADA
:1011A000AA420DD23A4A1268023B3A4951F823301A
:1011B000934203DC384A136801331360BDE8F081C1
:1011C0002A4D08602F78002F33D1314E33483268D2
:1011D000023BC3EBC30103EBC101114450F82110E2
:1011E000D1B10139244B53F8210009F051FF0021FE
:1011F00080460AF03FF928B9204940460AF058F9DC
:1012000008B3274F1F4B2048DF6102F069FB2368BA
:1012100032680121023B297001323260C5E71A4869
:1012200002F086FB33680022013333602A70BDE888
:10123000F081154802F07CFB154A236812680021F2
:10124000023B2970B1E70E49404609F075FF0AF0EC
:101250005FF90746D6E7124C7AE700BFBCB1FF1F23
:10126000F0A9FF1F68ABFF1F9C9DFF1F68AAFF1F0F
:101270009C9EFF1FABAAAA2AF4BF0000A655AC464D
:101280004B24BE47C8A9FF1FF4B4FF1FCCACFF1FFF
:10129000F4B3FF1FA0C300006CB4FF1F10C0000018
:1012A00080FFFF7F2DE9F041364F374A3C78374BBE
:1012B000002C41D014681B68E41A354B5D68012D81
:1012C0000AD06B1F012B07D9022D42D0EB1F012B37
:1012D0003FD9304B1E6823E02E4B1E68B6F57A7F4F
:1012E0002FDC4FF47A7000FB04F090FBF6F009F06D
:1012F000CFFE294909F0D4FF284980460AF0D8F8E2
:10130000002833D1264940460AF0B4F880BB4FF09C
:101310008F41404609F010FF0AF0D4F8214BD86104
:10132000B44207D3042D03DC1F4A13680133136052
:1013300000233B70BDE8F08112681A6001233B7006
:10134000BBE740F2E93000FB04F3701C93FBF0F0C4
:10135000CDE7104A154B16689E420BDB03FB04F3E6
:10136000701C93FBF0F000F57A70C0E71048D5E7E9
:101370001048D3E7104800FB04F090FBF6F000F5AE
:101380007A70B4E7B4C8FF1FF0A9FF1FA4B2FF1F13
:10139000CCACFF1FB09DFF1F00007A4400FEFF464B
:1013A00000FEFFC6ECCCFF1F6CB4FF1F19FCFFFF53
:1013B0000000FF7F0000018018FCFFFFF8B53D4DE5
:1013C0002B78002B61D03C4E3C4C3D4B5B6823F0AE
:1013D0000402032A0DD0052B0BD023F00202042AAD
:1013E0003ED0082B3CD032682468364BA41A1E68C5
:1013F00022E0344A336816682468DC2EA4EB030428
:1014000026DCDC2000FB04F090FBF6F0DC3009F079
:101410003FFE002107460AF02DF800283FD12A4957
:1014200038460AF045F870BB2849384609F084FE72
:101430000AF06EF8264BD861B44208D3254802F072
:1014400077FA254A13680021013313602970F8BD2B
:10145000DD2000FB04F3701C93FBF0F0DC30D6E7DA
:10146000184A33681668246816F1DB0FA4EB0304EE
:1014700017DB6FF0DA0000FB04F3701C93FBF0F055
:1014800000F5DC70C3E71548D4E70C4C0A4E23681E
:101490001048336002F024FA01232B7095E70020F6
:1014A000C8E76FF0DB0000FB04F090FBF6F000F5FE
:1014B000DC70ACE74DB2FF1F24A9FF1FF0A9FF1F8E
:1014C000CCACFF1FB49DFF1FA655AC464B24BE47B6
:1014D00098B1FF1F1CAAFF1F6CB4FF1F80FFFF7F86
:1014E00008B50C4B5B685BB15A1E012A0DD9033B52
:1014F000012B01D9FFF7D6FEBDE80840FFF75EBF1C
:10150000054A13680133136008BDBDE80840FFF7C2
:10151000C9BE00BFCCACFF1F6CB4FF1F38B5494B30
:10152000986800282AD1484A136801331360474B52
:10153000474A4848196813680068CB1A83421CD38D
:10154000454C116023784548002B58D002F0F0F943
:10155000434802F0EDF9434802F0EAF9424802F04C
:10156000E7F9424802F0E4F9414802F0E1F9364A6D
:101570001368002101331360217038BD04281EDC7C
:10158000013809F085FD3B4909F08AFE3A490446D5
:1015900009F08EFF002846D13849204609F06AFF3D
:1015A000002848D14FF08F41204609F0C5FD09F0D1
:1015B00089FF334B4FF480329861DA61B7E7052831
:1015C00033D02F4C4FF48033A361C0F1090009F0F0
:1015D0005FFD284909F064FE2749054609F068FFC8
:1015E00058BB2649284609F045FF40BB4FF08F41C4
:1015F000284609F0A1FD09F065FFE06197E702F0D8
:101600006FF9174802F06CF9164802F069F91648AC
:1016100002F066F9154802F063F9154802F060F926
:101620000123237038BD1748C3E7154B4BF2333203
:101630009A61DA617BE71448BBE71248DDE712489C
:10164000DBE700BFCCACFF1F6CB4FF1FF0A9FF1F8E
:10165000C4A9FF1FB89DFF1FB4ACFF1FB8C8FF1F70
:101660005CCDFF1F94AAFF1F54ACFF1F6CCCFF1F63
:101670009CCAFF1F0000A04000FEFF4600FEFFC600
:1016800034CCFF1F0000FF7F00000180284B294A57
:101690002948196813680068CB1A83421CD330B4F8
:1016A000264D11602B68042B17DD254B1C68254B3C
:1016B0001A784ABB244A012011681870002CB8BF60
:1016C0001F34B1EB641F06DB20480368002101339F
:1016D00003602960116030BC7047194A1C481468C7
:1016E000204000281FDB40FA03F2D207DFD4013389
:1016F00040FA03F1C9071A4603F10103F8D5114B6B
:101700002A601A78002AD5D029680C4800220429BA
:101710001A700D4A03DD116801311160CEE74B1CD0
:1017200003601168CAE7013860F01F000130DAE792
:10173000F0A9FF1FC0A8FF1FF4CAFF1F98C9FF1F11
:10174000ECA9FF1FA0B2FF1FD4CAFF1F6CB4FF1F7C
:101750001F000080FFFFFFFF5D4B70B5186809F0A8
:1017600093FC5C4909F0E8FC5B4909F099FD5B4991
:10177000044609F095FD09F055F805F097FE4AA3D7
:10178000D3E9002309F0A2F849A3D3E9002308F024
:10179000EBFE09F073FB0021054609F06BFE002803
:1017A0006DD14FF07E51284609F082FE002872D09C
:1017B0004FF480304A4B4B49D862204609F070FD07
:1017C00009F030F805F072FE0022474B09F07EF870
:1017D00039A3D3E9002308F0C7FE09F04FFB4349C2
:1017E000054609F047FE002842D14149284609F044
:1017F0005FFE30B33F4A404D404B41499D61DA6145
:10180000204609F04DFD09F00DF805F04FFE2CA320
:10181000D3E9002309F05AF82BA3D3E9002308F0F9
:10182000A3FE09F02BFB3749044609F041FE10BB2B
:101830003549204609F01EFE18B3344B34489861F0
:1018400070BD2846334909F077FC4FF09E410646AB
:1018500009F072FC09F036FE0546304605F06AFED6
:101860004FF09E4109F068FC09F02CFE0246C3E7E8
:10187000294A2A4DC0E7254B2948986170BD0020B0
:1018800098E74FF08F41204609F056FC09F01AFE08
:101890001E4B986170BD4FF08F41284609F04CFCFB
:1018A00009F010FE86E700BF000000809999C93F4B
:1018B000000000606666E63F0000000000C0724065
:1018C000000000A09999A93F000000403333C33FB6
:1018D000F0A9FF1F00007A4400D05F4700003041AC
:1018E000F8CAFF1F0000F041000059400000A0416D
:1018F0001EDE8946008C3C4B00BE6C509CC6FF1F10
:101900000000A04000FEFF4600FEFFC634B4FF1FEB
:1019100000000180465615387A5517007B55170090
:101920000000FF7FFFFFFFFF674B70B5186809F0ED
:10193000ABFB664909F000FC654909F0B1FC65495B
:10194000064609F0ADFC08F06DFF05F0AFFD5CA3A5
:10195000D3E9002308F0BAFF00225F4B08F004FE31
:1019600009F08CFA5D4B5E491860044609F0DCFA18
:101970000021054609F07EFD002840F09580594978
:10198000284609F095FD00287BD15749284609F0E3
:10199000D3FB4FF07C5109F0C7FA09F0B9FD534B66
:1019A00053499862204609F0BFFA0021054609F024
:1019B00061FD002876D14B49284609F079FD0028C1
:1019C00065D14949284609F0B7FB4FF07C5109F031
:1019D000ABFA09F09DFD474B00219862204609F0C3
:1019E00049FD002864D13F49204609F061FD0028E7
:1019F0004BD13D49204609F09FFB4FF07C5109F047
:101A000093FA09F085FD3C4B3C499862204609F069
:101A10008BFA0021044609F02DFD002846D13149FA
:101A2000204609F045FD70BB2F49204609F084FB94
:101A30004FF07C5109F078FA09F06AFD304B4FF015
:101A400074519862304609F077FB08F0EBFE05F020
:101A50002DFD00222B4B08F039FF00222A4B08F005
:101A600083FD09F00BFA0021044609F003FD08BBD1
:101A70001C49204609F01CFD58B1244B2448D8616C
:101A800070BD24488BE72348D8E72248BBE72148AC
:101A9000A1E72149204609F04FFB09F039FD1B4B16
:101AA000D86170BD002096E7002078E70020C5E7E8
:101AB0000020A8E7154B0020D86170BDAFF300806F
:101AC000000000009A991540F0A9FF1F00007A4419
:101AD00000D05F470000204100804840AC9DFF1FC0
:101AE0006666EE41A655AC464B243E47A4C5FF1F93
:101AF000CDCC2E42D8C5FF1F0CC6FF1FCDCC044154
:101B000040C6FF1F00003E4000708C406CAAFF1FC3
:101B100080FFFF7FC0FFFF3F4B24BE470E4B1B697A
:101B200013B90E4AD36170470C4A10B5012B4FF41C
:101B30008034D46108D0022B05D1FFF7F5FE084BA5
:101B40000022DC619A6110BDFFF706FE044B002203
:101B50009C61DA6110BD00BFCCACFF1F24CDFF1F1C
:101B6000F4ACFF1F10B5324A324B126882B00192BA
:101B7000019A1A60FFF76CF8FFF7A4F92E4B1C7856
:101B8000C4B12E4C2368002B07D12D4B1B68002BB2
:101B90002ED10123236002B010BDFCDDFFF7BEFF94
:101BA0002368012B28D0022B30D0032B34D0032BF9
:101BB000EFDCF0E7234801F0BBFE234A234B244827
:101BC000D461DC6101F0B4FE224801F0B1FE22488C
:101BD00001F0AEFE214801F0ABFE214801F0A8FE65
:101BE000204801F0A5FE204801F0A2FE02B010BD81
:101BF000FFF76CFA2368DAE7114B5B6813B902232D
:101C00002360C8E7FFF76CFC2368D0E70C4B9B68A8
:101C100053B903232360BEE7094BDB68002BB8D020
:101C2000FFF734FD2368C2E7FFF778FC2368BEE7BF
:101C3000FCCFFF1FF0A9FF1F4CB2FF1F6CB4FF1FAA
:101C4000CCACFF1FF4B4FF1FECCCFF1F24CDFF1F53
:101C50001CAAFF1FB8C8FF1F5CCDFF1F94AAFF1F5F
:101C600054ACFF1F6CCCFF1F9CCAFF1F2DE9F04F27
:101C700085B0042302220093052103237D487E4C76
:101C800003F08EFA0221142004F044F802211120FE
:101C900004F040F8794BD3F8A010D3F88820012045
:101CA00001F5007702F5007600254FF47A432760AE
:101CB0006660E56020726072013BFDD191F80032F0
:101CC00092F800226E4D6F492C65D20703EA00039B
:101CD00044BF43F00203DBB204221420A37203F0DA
:101CE00033FF0123042268496C641120237403F03C
:101CF0002BFF237C6548664D654E0133237403F04A
:101D0000BDFA644A644B12681A60644B042103F103
:101D100028021846FEF734FC614B03F128021846EE
:101D20005E4B4FF4803404219C61DC611C625C6278
:101D30001D60FEF725FC5B4B03F128021846584B4B
:101D400004219C61DC611C625C621D60FEF718FC72
:101D5000554B544D03F11802AC61EC612C626C627E
:101D60000220A2F11804002102F80F0C2046226183
:101D70002172E1604D4C04600B462E60044600E089
:101D8000226942F82310484A4748527A01339A425E
:101D9000F6DC474B1A6812B901F0A8BA1A46536923
:101DA000002BFBD1404B53613F48424B424F0360F5
:101DB000002444618480C480847202F025F93F4B82
:101DC0003F4A404D1A60214622460A2638461E7276
:101DD000FEF7D6FB4FF4804305F118020121284697
:101DE0003B62394B3B60FEF7CBFB3A220E23DFF818
:101DF000F0806A85AB85C1224FF00053EA852B63E2
:101E000040F277621C23314EAA86EB862C85304B3C
:101E10002B6040462C77C8F80450C8F8007088F84A
:101E2000084088F80940C8F80C4088F8104003F0D2
:101E30007BFB284A2849404609F08AFB174B736010
:101E40003046356034727472F460347403F06CFBA5
:101E5000204A2149214D304609F07AFB144B6C721F
:101E60001A68124B2B602C612C72EC60104BD2BBA9
:101E700001F03FBA50B2FF1F54AAFF1FF0C9000083
:101E800038CFFF1FFD04000079040000ECCAFF1FDB
:101E900004C400009C9DFF1FF4CAFF1FECCCFF1F71
:101EA00024CDFF1F70B4FF1F28CBFF1FDCBF000035
:101EB000C0CFFF1F10C40000C8A9FF1FA4CCFF1F84
:101EC000B8C30000F4B4FF1F40C70000B0CCFF1F30
:101ED000E0C30000FC9BFF1F6D040000A8B2FF1FC1
:101EE000D8CCFF1F1A465369002BFBD15561DFF890
:101EF00050E3BA4A2A60BA4ABEF80030B84FDFF859
:101F000044B3B84EDFF840A3DFF84093DFF84083D6
:101F10000024343201336C61AC80EC80AC72A2F1ED
:101F200034000221AEF80030EB61AC61FEF728FB13
:101F3000AB4ADFF820C3AC4BC7F81CC04FF4805E3F
:101F4000C7F820E0946221462246C7F818B07B62A9
:101F5000A648A74BFC623C633B60FEF711FBA34B1A
:101F6000A44F1F6006F118024FF48047012130464C
:101F70001F62FEF705FBA04B33604FF00E03B385E5
:101F80004FF0C103F3854FF00053336340F27763A2
:101F90004FF03A0BB3864FF01C0350463485A6F839
:101FA0002AB0F3868E4BCAF804303477CAF8005052
:101FB0008AF808408AF80940CAF80C408AF81040AC
:101FC00003F0B2FA8D4A8E498A4D504609F0C0FAA4
:101FD000834BC9F800308B4BC9F8043048464FF0AA
:101FE000010389F8083089F80930C9F80C4089F8EC
:101FF000104003F099FA814A8149DFF85CA2484613
:1020000009F0A6FA794B88F80840404688E848006D
:1020100088F80940C8F80C4088F8104003F084FAAA
:10202000794B7749754A0393404609F091FA77480E
:10203000744A42604FF0020206600472C460047485
:10204000427203F071FA6D4A6D497048DFF80C92E4
:10205000DFF80C8209F07CFA224621466C48FEF734
:102060008FFA6C4B03F118021846694B01211D6071
:102070001F62FEF785FA674B5F4D1D604FF00E053E
:102080009D854FF0C105DD854FF000551D6340F281
:1020900077659D864FF01C05224621461C85A3F8D6
:1020A0002AB0DD865C481C77FEF76AFA5B4B514D1F
:1020B00003F118021846584B01211D601F62FEF7FC
:1020C0005FFA564B4C4D1D604FF00E059D854FF04D
:1020D000C105DD854FF000551D6340F277659D8693
:1020E0004FF01C05224621461C85A3F82AB0DD8648
:1020F0004B481C77FEF744FA4A4B3E4D03F1180259
:102100001846474B01211F621D60FEF739FA454B07
:10211000394D1D604FF00E059D854FF0C105DD85E1
:102120004FF000551D6340F277659D864FF01C050A
:10213000224621461C85A3F82AB0DD863A481C7742
:10214000FEF71EFA394B3A4D3A4F03F11802184682
:10215000354B01211C835C83DC611C629C629C8585
:10216000DC851C631D60FEF70BFA304B224D1D60B1
:102170004FF00E059D854FF0C105DD854FF00055F0
:102180001D6340F277659D864FF01C05224621466F
:102190001C85A3F82AB0DD8627481C77FEF7F0F9E6
:1021A000264B234D03F118021846234B01211D60D5
:1021B0001C835C83DC611C629C629C85DC851C63E7
:1021C000FEF7DEF9039B0C4D18461C4B1D604FF0CB
:1021D0000E059D854FF0C10544E000BF58C70000C3
:1021E0002CB5FF1F1CAAFF1F80F9855A98B1FF1F4D
:1021F000F8C3000040C70000E0C30000FC9BFF1FC5
:102200006D040000ECCCFF1F54CAFF1FD8C6FF1F8F
:102210002CC9FF1FB8C8FF1F50C9FF1F5CCDFF1F8F
:1022200074C9FF1F94AAFF1FECC9FF1F54ACFF1F06
:102230004CC7000074C6FF1F20CAFF1F6CCCFF1FD5
:1022400032CFFF1F00B28E048CB2FF1FECC6FF1FFF
:10225000E0ACFF1FE8728E04E0AAFF1F08ABFF1F6F
:1022600054ABFF1FDD854FF000551D6340F27765CD
:102270009D864FF01C05224621461C85A3F82AB0F6
:10228000DD861C77FEF77CF9BC4BBD4D03F11802CF
:102290001846039B01211D601C835C83DC611C626A
:1022A0009C629C85DC851C63FEF76AF9B34BB54ADA
:1022B0001A604FF00E029A854FF0C102DA854FF096
:1022C00000521A6340F277629A864FF01C02A3F81C
:1022D0002AB01C85DA86AC49AC481C77FEF778F941
:1022E000AB49AC48DFF818B3AB4DFEF771F9AB4919
:1022F000AB48FEF76DF9AB49AB48FEF769F9AB495E
:10230000AB48FEF765F99D49AA48FEF761F9AA4B6B
:10231000042103F128021846FEF732F9A64B4FF4C8
:10232000803604210BF1280258461D609E61DE6153
:102330001E625E62FEF724F9A04BCBF8005003F159
:10234000280204211846CBF81860CBF81C60CBF8A3
:102350002060CBF82460FEF713F9984B3C721D60A7
:102360009E61DE611E625E62954B3B603846864B25
:102370007B607C72FC603C7403F0D6F8914A924911
:10238000924E934D384609F0E3F89248924B036021
:102390007F4B436004724472C460047403F0C4F859
:1023A000884A89498B488D4F09F0D2F88C4BCAF87E
:1023B00000305046794BCAF804308AF808408AF851
:1023C0000940CAF80C408AF8104003F0ADF87D4A85
:1023D0007D49504609F0BCF8824BC9F800304846A8
:1023E000704BC9F8043089F8084089F80940C9F8E9
:1023F0000C4089F8104003F097F8724A7249DFF8F0
:1024000004A2484609F0A4F8774BC8F800304046CB
:10241000664BC8F8043088F8084088F80940C8F8C6
:102420000C4088F8104003F07FF8664A6649DFF8F0
:10243000D891404609F08CF8039B3B6038464F4BDF
:102440007B603C727C72FC603C7403F06DF85D4A0A
:102450005D49DFF8B881384609F07AF84A4B3360B5
:102460003046554B736034727472F460347403F008
:102470005BF8544A54495D4F304609F069F8444BC3
:102480002B604D4B6B6028464FF001036B722C7232
:10249000EC602C7403F048F84B494A4A544E2846E5
:1024A00009F056F853483D4A0260434A42604FF0F3
:1024B000020242720472C460047403F035F84249A7
:1024C000404A4C484C4D09F043F84C48354A047298
:1024D00080E804084472C460047403F025F8394AA3
:1024E0003949464809F034F8304B8AF808405046DC
:1024F0008AE808084FF001038AF80930CAF80C404E
:102500008AF8104003F010F82E4A2F49504609F07F
:102510001FF81A4B89F80840484689E808084FF028
:10252000020389F80930C9F80C4089F8104002F01C
:10253000FBFF244A2449484609F00AF81E4BC8F814
:10254000003040461D4BC8F8043088F8084088F831
:102550000940C8F80C4088F8104002F0E5FF194A1D
:102560001949404608F0F4FF144B7B6038464FF0A1
:1025700001037B723C72FC603C7449E09CCAFF1F03
:102580004CC70000E0C30000B8C8FF1F50C7FF1FC2
:102590005CCDFF1F88C7FF1F04C4000094AAFF1F63
:1025A000C0C7FF1F54ACFF1FF8C7FF1F6CCCFF1F35
:1025B00030C8FF1F68C8FF1FA8B4FF1F34CCFF1F1F
:1025C0002CC9FF1FFC9BFF1F6D040000CCABFF1F3D
:1025D000F4ABFF1F88C6FF1F50C9FF1F00C7FF1FB6
:1025E00074C9FF1FECC9FF1F20CAFF1F1CCCFF1FAF
:1025F00084B1FF1F40ACFF1FECA8FF1F8CACFF1F76
:1026000010CEFF1FA0ACFF1FF4CBFF1F08CCFF1F95
:10261000C7F800B002F088FF4049414A384608F048
:1026200097FF404A326003233F4A7372304672601C
:102630003472F460347402F077FF394A3749304617
:1026400008F086FF4FF0010105F118026972374961
:10265000296023462C72EC6021462A612C4600E05A
:10266000226942F823106A7A314801339A42F7DC32
:10267000304B1A6812B900F03FBE1A465369002B5E
:10268000FBD155612C4C2D4F2D4A2E4B2C60002434
:102690002A622B634FF0884125486C61AC80EC8046
:1026A000AC72294E02F06AF82246214647F6FF73C3
:1026B0003846AB85EC85FDF763FF244B3B60304625
:1026C000234B736035603C7634727472F4603474FA
:1026D00002F02AFF124A11491E4D304608F038FF19
:1026E0001D4B042103F128021846FDF749FF114B49
:1026F0001A491A68184B6C72196017492C614FF40B
:1027000080338B61CB610B624B62084B2B602C7268
:10271000EC60084B2ABB00F0F2BD00BF6D04000066
:10272000FC9BFF1F34CCFF1FECCCFF1FDCBF000065
:10273000ECA8FF1FC0CFFF1F34C7000030ADFF1F44
:10274000E63C010082902C00E0ABFF1F1CC400009F
:1027500024CDFF1FF8CAFF1FF4ACFF1F04C4000004
:102760001A465369002BFBD15561DFF850E3B64B95
:10277000BEF90020B5492960002402F1010C134480
:102780002146224640F6CC476C61AC80EC80AC72AE
:10279000AF48AEF800C0AB616C6285F82840EF61CD
:1027A0002F62FDF7EDFEAB4BAB4FAC4EDFF8109355
:1027B000DFF81083DFF810B3DFF810A303F118027D
:1027C0001846A34B1F604FF480471F620121A44BA2
:1027D0000393FDF7D5FE9F4BA24F1F60022106F128
:1027E000340230460F465962FDF7CAFE9E4B3360F5
:1027F0009E4BB361A3F57C53183BF3614FF48053B8
:1028000033629B4B7362394609F134024846B46225
:10281000F4623463FDF7B4FE934BC9F80030934B78
:10282000C9F81830A3F57C53183BC9F81C304FF495
:102830008053C9F820308E4BC9F8243008F12802A3
:1028400004214046C9F82840C9F82C40C9F8304056
:10285000FDF796FE039B874AC8F800204FF48037A7
:10286000184683E86000C8F81870C8F81C70C8F8EB
:102870002070C8F824701C725C72DC601C7402F05A
:1028800053FE039B7C4A7D49734D184608F060FE59
:102890006F4B8BF8084058468BE808028BF80940CC
:1028A000CBF80C408BF8104002F03EFE724A7349A0
:1028B000584608F04DFE674BCAF804305046CAF837
:1028C00000908AF808408AF80940CAF80C408AF853
:1028D000104002F029FE6949674ADFF8F4B1DFF8D9
:1028E000F491504608F034FE65485A4A047280E874
:1028F00004014472C460047402F016FE5F495E4A2B
:102900005F48DFF8D4A108F023FE5E484FF00102D3
:1029100080E840010472C4600474427202F004FE54
:102920005649554A5748584E08F012FE5748584ADB
:10293000C0F80080426004724472C460047402F003
:10294000F3FD4D4A4D495148DFF8908108F000FEF3
:10295000224621464F48FDF713FE4F4B03F1340248
:1029600018464C4B02211D604FF480451D62FDF757
:1029700007FE4A4B3C4D03F128021846464B1D60AA
:102980003A4D9D61A5F57C55183DDD614FF48055AC
:102990001D62374D5D6204219C62DC621C63FDF7A1
:1029A000EFFD3E4B334D3E481D60224621469F6160
:1029B000DF611F625F62FDF7E3FD394B394D3A4835
:1029C0001D60224621461C835C83DC611C629C6284
:1029D0009C85DC851C63FDF7D3FD334B33481D60BC
:1029E000224621461C835C83DC611C629C629C85C0
:1029F000DC851C63FDF7C4FD2C4B2D481D60224671
:102A000021461C835C83DC611C629C629C85DC85A6
:102A10001C63FDF7B5FD274B03F118021846244B44
:102A200002211D601C835C83DC611C629C629C85AE
:102A3000DC851C63FDF7A4FD1F4B134D03F1180249
:102A400018461C4B02214BE0F541ED5E28C4000006
:102A5000E8CEFF1F04B3FF1F40C700009CC6FF1F46
:102A600080CBFF1FD4C30000F8C3000000B28E0467
:102A700080F9855A04C40000FC9BFF1F6D04000010
:102A8000ACCBFF1F3CA9FF1FECC30000C4CCFF1F51
:102A9000F4ACFF1F6CAAFF1FB8B3FF1F08ACFF1FE9
:102AA000A8CDFF1F4CC70000DCCDFF1FC0CBFF1F10
:102AB00048CEFF1FE0B1FF1FA4A9FF1F30CFFF1FAB
:102AC00090ABFF1F34B4FF1F94CBFF1FACA8FF1FB8
:102AD000A0C8FF1F04C9FF1FF4A9FF1F18C9FF1FCB
:102AE0001D60FDF74DFDA54B03F118021846A44BE0
:102AF00002211D60FDF744FDA24B03F12802184698
:102B00009E4B04211D60FDF73BFD9E4B9E4D9F4853
:102B10001D60224621469F61DF611F625F62FDF7F3
:102B20002FFD9A4B9A4D1D60224621464FF4804559
:102B300098481D62FDF724FD964B954D1D60224679
:102B400021464FF4804594481D62FDF719FD924BD4
:102B50008F4D1D60224621464FF480458F481D62EF
:102B6000FDF70EFD8E4B03F1180218468B4B012129
:102B70001D62874D1D60FDF703FD8A4B8A4D03F1F1
:102B800028021846864B04211D6002255D62FDF770
:102B9000F7FC844B7C4D85481D60224621469F6191
:102BA000DF611F625F62FDF7EBFC804B804D814867
:102BB0001D60224621461C835C83DC611C629C6292
:102BC0009C85DC851C63FDF7DBFC7A4B7A481D6035
:102BD000224621461C835C83DC611C629C629C85CE
:102BE000DC851C63FDF7CCFC734B74481D602246EA
:102BF00021461C835C83DC611C629C629C85DC85B5
:102C00001C63FDF7BDFC6E4B03F1180218466B4BBD
:102C100002211D601C835C83DC611C629C629C85BC
:102C2000DC851C63FDF7ACFC664B674D03F11802B5
:102C30001846634B02211D60FDF7A2FC634B644DF7
:102C400003F1180218465F4B02211E60FDF798FC45
:102C5000604B03F1340218465C4B02211E60FDF705
:102C60008FFC5C4B5C4E1E605C4E9E61A6F57C56F4
:102C7000183EDE614FF480561E62594E5E6205F1C9
:102C80002802284604219C62DC621C63FDF778FC64
:102C90003D4B2B60534BAF6103F1340202211846C8
:102CA000EF612F626F62FDF76BFC4E4B4B4A9A61EE
:102CB0004D4B494D4D4E03F128021846494B1D60BE
:102CC0004B4DDD614FF480551D62454D5D62042121
:102CD0009C62DC621C63474B0393FDF751FC424B43
:102CE000294A1A609F61DF611F625F62424B336055
:102CF0003046424B424D736034727472F4603474E7
:102D000002F012FC3F4A4049404F304608F020FC98
:102D10003A4B2B6028463E4B6B602C726C72EC6019
:102D20002C7402F001FC3849364A3A4E284608F025
:102D30000FFC039B364A1A6018462B4A5A601C72D5
:102D40005C72DC601C7402F0EFFB039B2D4A2E4981
:102D5000314D1846314B039308F0FAFB304BCBF85A
:102D6000003058462F4BCBF804308BF808408BF8D6
:102D70000940CBF80C408BF8104055E02CB2FF1FF7
:102D8000A4A9FF1F58B3FF1F04C400007CCEFF1F7F
:102D900040C70000A0CEFF1FC4CEFF1F6CABFF1FBB
:102DA00000B2FF1F48CBFF1FD4C30000A4C5FF1F04
:102DB0004CC70000D8C5FF1F0CC6FF1F40C6FF1F31
:102DC00050A9FF1FC0B1FF1FECC3000070A9FF1F77
:102DD000A0C9FF1F14C7FF1FF8C3000000B28E0474
:102DE00080F9855A68B5FF1F1CABFF1FCCAAFF1FD7
:102DF000E8728E0490A9FF1F6CAAFF1FB8B3FF1FD3
:102E0000F4AAFF1FFC9BFF1F6D04000094CDFF1F61
:102E100008ACFF1F44B3FF1FC8B2FF1FA4B3FF1FBE
:102E2000A8CDFF1FE0B1FF1F02F07EFBBC4ABD49E9
:102E3000584608F08DFBBC4BCAF80030BB4BCAF8B3
:102E4000043050464FF001038AF809308AF80840F0
:102E5000CAF80C408AF8104002F066FBB04AB1494B
:102E6000DFF840B3504608F073FBB14BC9F80030AF
:102E7000B04BC9F8043048464FF0020389F80930D6
:102E800089F80840C9F80C4089F8104002F04CFB62
:102E9000A34AA449DFF810A3484608F059FBA64B03
:102EA000C8F80030A34BC8F8043040464FF0030385
:102EB00088F8093088F80840C8F80C4088F81040B5
:102EC00002F032FB964A9749DFF8E092404608F05C
:102ED0003FFB964B3B603846984B7B603C727C7264
:102EE000FC603C7402F020FB8D4A8E49DFF8C08202
:102EF000384608F02DFB8F4B3360904B73603046A3
:102F00004FF0010373723472F460347402F00CFBFE
:102F1000834A84498A4F304608F01AFB874B2B605E
:102F2000884B6B6028464FF001036B722C72EC608B
:102F30002C7402F0F9FA7B49794A834E284608F04E
:102F400007FB8248824A0260824A426004724472ED
:102F5000C460047402F0E8FA7249714A7B487E4DFD
:102F600008F0F6FA039B7D4A1A607A4A5A601846BE
:102F70004FF001021C725A72DC601C7402F0D4FA29
:102F8000039B6849664A1846754B039308F0E0FABC
:102F90007448754A02606F4A42604FF00202047240
:102FA0004272C460047402F0BFFA5D4A5D496D4824
:102FB00008F0CEFA6D4BCBF80030664BCBF80430FE
:102FC00058464FF003038BF809308BF80840CBF8D4
:102FD0000C408BF8104002F0A7FA5249504A58466C
:102FE00008F0B6FA62485B4A0260624A42600472C4
:102FF0004472C460047402F097FA494A49495C4833
:1030000008F0A6FA5B4BCAF800304E4BCAF8043001
:1030100050464FF002038AF809308AF80840CAF88F
:103020000C408AF8104002F07FFA3E493C4A504674
:1030300008F08EFA5048514A0260514A42600472C8
:103040004472C460047402F06FFA354A35494A4844
:1030500008F07EFA4B4BC9F80030494BC9F80430F0
:1030600048464FF0010389F8093089F80840C9F84B
:103070000C4089F8104002F057FA2A49284A48467D
:1030800008F066FA4048414A0260414A42600472D0
:103090004472C460047402F047FA214A21493A4854
:1030A00008F056FA3B4BC8F80030394BC8F80430EA
:1030B00040464FF0010388F8093088F80840C8F806
:1030C0000C4088F8104002F02FFA154A1549404686
:1030D00008F03EFA2A4B3B6038462F4B7B603C722F
:1030E0007C72FC603C7402F01FFA0E490C4A3846B0
:1030F00008F02EFA2948264A0260274A42604FF01B
:10310000010242720472C460047402F00DFA0549AF
:10311000034A224808F01CFA21481F4A026049E08D
:10312000FC9BFF1F6D040000DCCDFF1FE0B1FF1F03
:10313000C0CBFF1FA4A9FF1F48CEFF1F2CB2FF1F4B
:1031400098A8FF1F1CABFF1F08AAFF1F90B3FF1F0B
:103150007CCEFF1F48CBFF1FD8CAFF1FA0CEFF1F8A
:1031600078B2FF1F30B3FF1FC4CEFF1F6CABFF1F31
:10317000F8B3FF1F00B2FF1F0CB4FF1FA4C5FF1F51
:1031800050A9FF1FD8C5FF1FF0B2FF1F0CC6FF1FBD
:10319000C0B1FF1F40C6FF1F70A9FF1FD8C9FF1F86
:1031A000C4A8FF1F64B2FF1FDCB2FF1F20B4FF1FC3
:1031B000F0C8FF1F534A426004724472C460047432
:1031C00002F0B2F95049514A514808F0C1F951484A
:1031D0004C4A0260504A42604FF00302427204724D
:1031E000C460047402F0A0F94749484A494808F00D
:1031F000AFF94A48484A0260494A42600472447240
:10320000C460047402F090F93F49404A434808F012
:103210009FF94448424A0260434A42604FF001022B
:1032200042720472C460047402F07EF93649374A6F
:103230003C4808F08DF93D484FF0010242723A4A8D
:1032400002603B4A42600472C460047402F06CF98C
:103250002D492E4A354808F07BF93648364A026037
:10326000364A047242604472C460047402F05CF92D
:10327000264A25492F4808F06BF94FF00103737275
:103280002B4B336030462D4B73603472F4603474D2
:1032900002F04AF91C491D4A304608F059F9039BCF
:1032A000264A1A601846264A1C725A605C72DC6014
:1032B0001C7402F039F9039B144A1349184608F0AC
:1032C00047F94FF001036B721C4B2B6028461C4BD7
:1032D0006B602C72EC602C7402F026F90B4A0A49E0
:1032E000284605B0BDE8F04F08F032B91860FEF787
:1032F0005BBD1D60FEF7FBBD1860FFF7C3B91D6025
:10330000FFF733BA14C7FF1F6D040000FC9BFF1FBB
:10331000C4A8FF1FD8A8FF1F1CABFF1FB8ACFF1F1E
:1033200068B5FF1F88CAFF1FF4ACFF1FE0B4FF1F82
:1033300024CDFF1F28A9FF1FECCCFF1F70B4FF1F77
:1033400028CBFF1F0020704700207047F8B5144CB1
:10335000037A242908BFC2805B0001250E4620465F
:10336000C1F30721174684F83B3084F85E5084F897
:103370005D5001F0BFFCF1B2204601F0BBFCC7F389
:103380000721204601F0B6FCF9B2204601F0B2FC5C
:103390002946204601F052FEB0FA80F04009F8BDFF
:1033A000C49DFF1F38B5012504460571334801F05F
:1033B000B5FC052002F0DAFC204644F26002302120
:1033C000FFF7C4FF20466C222621FFF7BFFF2046EF
:1033D0004FF4F9722821FFF7B9FF204640F6227218
:1033E0002C21FFF7B3FF204644F246423C21FFF771
:1033F000ADFF204640F237122421FFF7A7FF2046F9
:1034000044F2FF023021FFF7A1FF73220221204680
:10341000FFF79CFF4FF4C87002F0A8FC204641F66D
:103420001D522E21FFF792FF042211462046FFF77E
:103430008DFF20464FF498720621FFF787FF204644
:1034400010220A21FFF782FF204600220E21FFF7FB
:103450007DFF204643F63C421021FFF777FF2046D0
:1034600047F67F722221FFF771FF20463622242182
:10347000FFF76CFF6572284638BD00BFC49DFF1F73
:1034800010B5044619B1012911D0002010BD5522F4
:103490002021FFF75BFF0028F7D0E28842F004020A
:1034A000204692B22421BDE81040FFF74FBF40F202
:1034B00073122A21FFF74AFF0028E6D08822202134
:1034C0002046FFF743FF0028DFD0E288204622F0A5
:1034D00004022421BDE81040FFF738BF38B5054687
:1034E000F1B1802903799ABFC1F1800444EA042430
:1034F000002433B9224628462221BDE83840FFF790
:1035000025BFC288002322F0100203712421FFF797
:103510001DFF224628462221BDE83840FFF716BF8E
:103520000123037147F67F722221FFF70FFFEA881C
:1035300042F01002284692B22421BDE83840FFF73D
:1035400005BF00BF0B4610B507490446184607F0F3
:10355000F3FD064907F0E8FC07F0DAFF01462046D4
:10356000BDE81040FFF7BABF00000143EE7CFF3E0C
:10357000C369002B7ED0436A012B2DE9F0474FF041
:10358000000180464EDD01F0ADFF0746002872D0F5
:10359000D8F82400D8F81C50D8F828C0461E07F1E7
:1035A000040E9CFBF6F607F58279013E4FF0000A07
:1035B000B8F8203001331BB29C45CBBFA8F82030AF
:1035C000A8F820A05B000023BEF90020EA520028E2
:1035D000B8F920301EDD00221146012835F91340CC
:1035E00018BF9B1B002B02F10102B8BF634490423D
:1035F0002144F2D191FBF0F12EF8021BCE45D7D138
:1036000040463946002201F047FF3846BDE8F04702
:1036100001F018BF002191FBF0F12EF8021BCE45FE
:10362000C6D1EDE701F05EFF044620B3D8F828606C
:10363000D8F81C50021D002700F58270B8F8203021
:1036400001331BB2B342B4BFA8F82030A8F82070F1
:1036500032F9021BB4BF5B0000238242E952EDD174
:1036600040462146002201F017FF2046BDE8F04702
:1036700001F0E8BE7047BDE8F08700BF10B4002439
:10368000C4618462048469B1092A08DDA34206DDAD
:1036900052108262C161436210BC01207047204613
:1036A00010BC7047084610BC704700BF2DE9F04FB2
:1036B000002183B0054601F015FF0090002800F0BE
:1036C000FB802B7F002B00F08C80009A02F5827328
:1036D00002F1040A9A4501937CD2DDF804E056E039
:1036E0002B7F022B00F08280032B66D0042B00F08E
:1036F0008880052B00F09680062B00F0E080072BD9
:1037000000F0A180012B00F0B2806B6A2A6A5B1482
:1037100003EBA2329C1818191F1803EB070C03EBDC
:103720000C0699190B444FF6FF7BDAF80090DAF893
:10373000048032FB09F234FB19F4C2EA044230FB84
:1037400008F037FB18F7C0EA0747DAF808003CFB37
:1037500000F0DAF8084036FB14F6C0EA0646DAF85C
:103760000C0031FB00F133FB10F3C1EA03438AE89C
:103770008400CAF80860CAF80C302A6A6B6AA5F897
:103780001EB013440AF1100A2B62D64522D9E98BE8
:103790000029A5D06B6A2A6A5B1403EBA2329C183D
:1037A00018191F1803EB070C03EB0C0601F1FF3B84
:1037B00099191FFA8BFB0B44B7E72B6BEA8DEA8351
:1037C0004FF00401D64503F14043297793FBF2F310
:1037D0006B62DCD8009C28460022214601F05CFE8A
:1037E000204603B0BDE8F04F01F02CBEAB8DEB835B
:1037F000002BE2D003234FF080422A6269622B77CC
:10380000C3E72B6B69624FF005022A779A132B628C
:1038100011461346164694461746104614464FF670
:10382000FE7B82E76B6A2A6A5B1403EBA2329C1868
:1038300018191F1803EB070C03EB0C0699190B441E
:103840004FF6FE7B71E72B8D2962EB83D3B103F139
:10385000FF3B4FF001022A770B461FFA8BFB696290
:103860000E468C460F4608460C460A465DE76B8DB1
:10387000EB834FF002022A774FF0804292FBF3F382
:103880006B6282E7B5F82AB04FF0804393FBFBF3FD
:103890005A1454001019171802EB070C02EB0C060F
:1038A0000BF1FF3B91194FF002086B6285F81C8009
:1038B0001FFA8BFB531838E703B0BDE8F08F019B6C
:1038C0002977534586D9CAF80010CAF80410CAF8F7
:1038D00008100AF1100A53454AF8041CF3D879E796
:1038E00072B6037F012B0DD9C28E5AB1072B07D0B8
:1038F000036AC28307215B42017793FBF2F24262C3
:1039000062B67047038DC3830022026223B1012394
:103910004262037762B67047428DC28302214FF044
:103920008043017793FBF2F3436262B6704700BFB6
:1039300072B6037F53B1072B08D0036A828EC2830D
:1039400006215B42017793FBF2F3436262B6704754
:103950002DE9F8430021054601F0C4FD012104468C
:10396000284601F0B3FD0646BCB3D0B304F5827E11
:10397000231D9E4524D90C3004F10C0111E90C00E3
:1039800050F8089C50F8048C12FB39FC2CF3CF3C07
:1039900012FB09F222F3CF32C2EA0C4213FB38FCCD
:1039A0002CF3CF3C13FB08F323F3CF33C3EA0C43D0
:1039B0008E4501E90C0000F1080001F10801DDD895
:1039C00028460022214601F067FD204601F03AFD1D
:1039D0003046BDE8F84301F035BD0028F9D1BDE817
:1039E000F8832046BDE8F84301F02CBD2DE9F04FE7
:1039F00083B08846846A0190D0F81CC0D0F824A017
:103A0000C16A076BDDF8309008F580702646834662
:103A100038F902EB4FEA0E3E5CFB17F401EB84042D
:103A20005AFB17F57644C4EB6606A6EB85065CFBED
:103A300016F007EB80005CFB10F104EB81015AFBF0
:103A400010F5C1EB0E07A7EB85055CFB15F700EB46
:103A500087070C4424F34F34384420F34F30354467
:103A600025F34F35C34522F8024B764623F8020B67
:103A700029F8025BCCD1019A1346C3F828E0D16241
:103A8000176303B0BDE8F08F2DE9F04F85B088468D
:103A90008169019101460C460390006A0290D1F8B9
:103AA00024B08F6A206BC96ADDF838A0DDF83C903D
:103AB00008F58074009432F9026B029C06FB04F650
:103AC00026F0784505F10065ED0055FB15F5284C0D
:103AD00055FB14F5ED00013CF616C6F106062C4424
:103AE0003441019D55FB14F4224D38F902CBAC4210
:103AF000A8BF2C4624024FEA0C3C54FB10F601EB05
:103B000086065BFB10F107EB0C0EC6EB6E0EAEEB00
:103B1000810E54FB1EF500EB850554FB15F106EBF9
:103B200081015BFB15F0C1EB0C07A7EB800754FB91
:103B300017F405EB84000E4426F34F36054425F3B5
:103B40004F35BE442EF34F3E009C23F8026B444594
:103B50002AF8025B674629F802EBACD1039A1346B8
:103B6000C3F828C0D162106305B0BDE8F08F00BF74
:103B7000ABAAAA2AE71052002DE9F043002183B036
:103B8000044601F0A3FC01210546204601F09EFCFD
:103B90000646002D3CD001F001FC074600283CD031
:103BA00001F0FCFB8046002842D001F0F7FB814683
:103BB000002851D0002E45D0021D08F104030192C7
:103BC000009320463B1D321D291DFFF75DFF304647
:103BD00001F038FC284601F035FC00223946204629
:103BE00001F05AFC384601F02DFC012241462046E6
:103BF00001F052FC404601F025FC204602224946D5
:103C000001F04AFC484603B0BDE8F04301F01ABC9D
:103C10000028F8D103B0BDE8F083284601F012FC7B
:103C2000002EF7D0304603B0BDE8F04301F00ABCE7
:103C3000284601F007FC384601F004FC002EE9D0CC
:103C40003046F0E7031D00933A1D08F10403291DD7
:103C50002046FFF7CBFEBDE7284601F0F3FB3846D0
:103C600001F0F0FB404601F0EDFB002ED2D03046D3
:103C7000D9E700BF2DE9F8434FF00008064600F1F0
:103C80001805474641463046002F4FD001F01EFC34
:103C9000F0B12C68B4F5803F07F1040100F1040E87
:103CA00007F5827C27D05EF8042B34FB02F334FB4B
:103CB00012F903F30F0209F30F03C2EA03430A6880
:103CC00093FA12F341F8043B8C45ECD801F0BAFBAF
:103CD00008F10108B8F1040F05F10405D2D1002F55
:103CE00040D030463946002201F0D6FB3846BDE8C8
:103CF000F84301F0A7BB07F10C0100F10C0451F8E7
:103D0000083C54F8082C93FA12F341F8083C54F894
:103D1000042C51F8043C93FA12F38C4541F8043C0E
:103D200004F1080401F10801E9D8CFE701F0DAFB5A
:103D300007460028CCD02868B0F5803FC8D0391D90
:103D400007F582740B6830FB03F230FB13F302F3C8
:103D50000F0203F30F03C2EA034341F8043B8C4212
:103D6000F0D8B5E7BDE8F8832DE9F84F344B354876
:103D70001A68354912681B790B70824229D2334B7D
:103D80001B784BBBDFF8D4A0DFF8D490DFF8D480E9
:103D9000DFF8D4B0DAF80060D9F80070B8F8004065
:103DA000BBF80050002E3CD0A7B33A1D311D02EBEA
:103DB000450201EB440100F0DDFE403540347F2C2C
:103DC0001CD8A8F800407F2D0BD8ABF80050BDE8F8
:103DD000F88FA0F58070D5E71D4B4FF080421A6038
:103DE000D0E700243846ABF8004001F02BFB194B1C
:103DF0001A68C9F800201C60BDE8F88F002430461E
:103E0000A8F8004001F01EFB134B1A68CAF8002006
:103E10001C60D8E7311D01EB440100F0CAFE4034BC
:103E2000CDE737B1391D01EB450100F0E2FE403529
:103E3000C5E739464FF48072BDE8F84F07F0BABEC7
:103E400010CFFF1F4093FF1F1F80004028CFFF1F90
:103E500008E200E024CFFF1F2CCFFF1F20CFFF1F61
:103E600018CFFF1F0CCFFF1F1CCFFF1F70B5002105
:103E7000044601F02BFB80B172B61C4A1368002B7C
:103E800029D01B490D6805B31A4E15600022086041
:103E9000328062B6184601F0D5FA2046012101F0C1
:103EA00015FB88B172B6144A1368CBB113490C687C
:103EB00074B1134D1460002208602A8062B618465F
:103EC000BDE8704001F0BEBA70BD086062B6E4E7BC
:103ED000086062B670BD074910600B8062B6DCE70F
:103EE000074910600B8062B670BD00BF20CFFF1F76
:103EF0002CCFFF1F0CCFFF1F18CFFF1F24CFFF1F9A
:103F00001CCFFF1F10B5044601F030FC204610BD49
:103F1000284B29491A68294842F400421A600A6865
:103F200042F002020A601A6842F002021A60036854
:103F3000002B3EDB224B1B68002B3ADB214A4FF063
:103F4000864313601368002BFCDBF0B51E4C1F4842
:103F5000DFF8A8E01E491F4B1F4A204F204E214D7D
:103F600041F2100CC4F800C0002404600120CEF817
:103F70000000DFF88CE0C1F800E04FF480311960F8
:103F8000194B1360DFF87CE0184A3A60346028600F
:103F900000F18E40CEF80000154CB967154816495F
:103FA00046F8503C4FF4C0632A61236003600B6005
:103FB000F0BD70473C8004404080044000F0024067
:103FC00080F0024000F1024004F1024060F0024043
:103FD00008F002400CF0024010F0024014F00240E1
:103FE000E0F0024084F002401B1F0100001F1F1F71
:103FF00008B004400CB0044018B0044004F0024083
:104000000100000788F00240F8B5274C274E2046F3
:10401000012101F047FB264A264B002515601D6053
:10402000FFF776FF244B254A25494FF4C0601860FE
:10403000236802201A6098802279196102F1804277
:1040400002F5043240F20117DF80DE604FF4807128
:1040500006278F26D9829D82D9839D619F83986090
:104060001570167001F0C4FA2279164B16491870B3
:1040700053119B00174603F160430F70134D144E0C
:10408000144C02F11000012103F5614302F01F02FC
:1040900001FA02F24FF080770F492F602C6046F84A
:1040A00020101A60F8BD00BF10CFFF1F00FEFFFFF9
:1040B00020CFFF1F18CFFF1F04B004404092FF1F06
:1040C00022F0024028CFFF1F1B80004000F002407A
:1040D0000096FF1F01000090693D0000024A03495D
:1040E000034807F035BA00BFFC9BFF1F053F0000E7
:1040F00010CFFF1F037E002B41D0012B2DE9F04193
:104100003ED0044601F04AF9054600285DD0A28B56
:1041100082BB638B04EB4303B3F92230291D05F501
:10412000827647F6AE70002701E0A28B734604EB5F
:104130004202B2F924E0734400FB03F31B1421F89C
:10414000023BA28BB4F81AC004EB4208013292B2CF
:104150009445A8F82430A28398BFA783B142E4D144
:1041600020462946002201F097F92846BDE8F04193
:1041700001F068B904EB4203B3F92230CEE770478F
:10418000134C428B2368E2B11132D0F820C000EB0F
:10419000420E00F1220644F2A71717FB13F10D4D52
:1041A0009AB2CB0B090407FB02330D402B4423F0DA
:1041B000004202EBD3733CFB03F226F8022FB64514
:1041C000EBD10222236002769BE72076BDE8F081E6
:1041D000C09DFF1F0000FF7F2DE9F04FC56A83B02F
:1041E00015B903B0BDE8F08F064601F0D7F80146D7
:1041F00001900028F5D006F11C0292E8041401F1A8
:10420000040EB369F44FF54801F58271009196F8F8
:104210002810F34CDFF8CC9314F80180DC1704EA83
:10422000090989EA430382EA0A0909EA080908EA4E
:10423000040403F03F0862408AEA090AC3F38514C4
:1042400057F8288050F82440CAEB0209CC440131C9
:10425000E04486F82810A04435FB08F8E149DC1753
:10426000214081EA430302F4006903F03F0104F4B2
:1042700000642AF4006A624049EA0A0AC3F3851B13
:1042800057F8214050F82B10CAEB0209CC44644483
:10429000214435FB01F1C8EA0144D249CEF800407F
:1042A000DC17214081EA430302F4806803F03F01F8
:1042B00004F480642AF4806A624048EA0A0AC3F37C
:1042C0008519CAEB020857F8214050F82910C44458
:1042D0000CEB0408884435FB08F8C249DC17214080
:1042E00081EA430302F4006903F03F0104F400642F
:1042F0002AF4006A624049EA0A0AC3F3851B57F8A8
:10430000214050F82B10CAEB0209CC4464442144EC
:1043100035FB01F1C8EA0144B249CEF80440DC178C
:10432000214081EA430302F4007803F03F0104F4E2
:1043300000742AF4007A624048EA0A0AC3F3851935
:10434000CAEB020857F8214050F82910C4440CEB7E
:104350000408884435FB08F8A249DC17214081EAAB
:10436000430302F4006903F03F012AF4006A04F4F5
:104370000064544049EA0A0AC3F38512CAEB0409EF
:1043800057F8211050F82220CC4461440A4435FBF0
:1043900002F2C8EA0241934ACEF80810D9170A403F
:1043A00082EA430304F4806803F03F0201F4806171
:1043B0002AF4806A4C4048EA0A0AC3F38519CAEB1A
:1043C000040857F8221050F82920C4440CEB0108C7
:1043D000904435FB08F8834AD9170A4082EA430320
:1043E00004F4006903F03F022AF4006A01F400615A
:1043F000614049EA0A0AC3F3851B57F8224050F886
:104400002B20CAEB0109CC446444224435FB02F260
:10441000C8EA0242734CCEF80C20DA17144084EA42
:10442000430301F4807802F4807203F03F042AF41D
:10443000807A514048EA0A0AC3F38512CAEB0108A0
:1044400057F8244050F82220C4440CEB0408904450
:1044500035FB08F8634CDA17144084EA430301F48F
:10446000006903F03F042AF4006A02F400624A4043
:1044700049EA0A0AC3F38511CAEB020957F8244036
:1044800050F82110CC446444214435FB01F1C8EAC2
:1044900001445449CEF81040DC17214081EA43031F
:1044A00002F4806803F03F0104F480642AF4806A17
:1044B000624048EA0A0AC3F38519CAEB020857F8B2
:1044C000214050F82910C4440CEB0408884435FB03
:1044D00008F84449DC17214081EA430302F40069EB
:1044E00003F03F012AF4006A04F40064544049EAEE
:1044F0000A0AC3F38512CAEB040957F8211050F8D1
:104500002220CC4461440A4435FB02F2C8EA02414D
:10451000344ACEF81410D9170A4082EA430304F44F
:10452000007803F03F0201F400712AF4007A4C4055
:1045300048EA0A0AC3F38519CAEB040857F822109F
:1045400050F82920C4440CEB0108904435FB08F8CE
:10455000244AD9170A4082EA430304F4006903F0AD
:104560003F022AF4006A01F40061614049EA0A0A44
:10457000C3F3851B57F8224050F82B20CAEB0109E2
:10458000CC446444224435FB02F2C8EA0242154C92
:10459000CEF81820DA17144084EA430301F4806847
:1045A00002F4806203F03F042AF4806A514048EA32
:1045B0000A0AC3F38512CAEB010857F8244050F8E1
:1045C0002220C4440CEB0408904435FB08F8054A4B
:1045D000DC17224008E000BF2CC500002CC60000FC
:1045E0002CC400000100004682EA430301F4006984
:1045F00004F400622AF4006A03F03F044A4049EAE6
:104600000A0AC3F38511CAEB020957F8244050F88F
:104610002110CC446444214435FB01F10EF1200EFD
:10462000C8EA01414EF8041C009971453FF6EFAD10
:10463000019CF2613046C6F820A0C6F824C0B361E0
:104640000022214600F028FF204603B0BDE8F04FCD
:1046500000F0F8BE2DE9F04F83B0064600F09EFE54
:104660000190002800F0848000F58279031DB6F9DE
:104670002E100091994565D9871DDFF8FCE008E010
:104680004FF0000327F8023C3B46994507F102072B
:1046900058D9F3694FF6FE729342F1DD326A9B1AE4
:1046A000F36113FB33F3716B306B491033FB01F192
:1046B0008913C20032FB01F1726A02440A4422F0FB
:1046C00000424FEAD25CC2F3CF147262009A322ADF
:1046D0000CF1010A42DDB26A3EF91C503EF91AC0E3
:1046E000024402EB5000084400EB610121F000415C
:1046F000CA0D02F101083EF912003EF91820B1621C
:10470000121AC1F3CF1101FB02F2C5EB0C0CB6F982
:104710002E10B6F92C8004FB0CFC00EB224205EBBA
:104720002C4C01FB02F208FB0CFCD21302EBEC3820
:1047300033FB08F3DB1327F8023C3B46994507F1AE
:104740000207A6D8019C30460022214600F0A4FEB4
:10475000204603B0BDE8F04F00F074BE3EF91C20C7
:104760003EF91A10891A04FB01F802EB2848DFE72A
:1047700003B0BDE8F08F00BF5CC7000038B50D4640
:1047800004460021284606F075FE48B94FF07E51D8
:10479000284606F08DFE30B14BF6FD73636338BDDD
:1047A0000D4B636338BD0D49284606F0C5FC06F085
:1047B00089FEB0F5804F08DAC0F5804000EB40007C
:1047C00040F391035B42636338BDA0F5804000EB8A
:1047D000400040F31103E1E700D0FFFF00FEFF4679
:1047E000036A2DE9F04780464BB9D8F81830D8F85D
:1047F0001C2003EBC213C8F81830BDE8F08700F0A6
:10480000CDFD06460028F0D0D8F81890D8F81C70D6
:10481000D8F820C0134D4946841C00F5817E0B0E4C
:104820005A1C35F9130035F91220C1F30F2ACAF5C5
:10483000803300FB03F30AFB023353FB0CF324F831
:10484000023FA6453944EAD109EBC7174046C8F8EC
:1048500018703146002200F01FFE3046BDE8F047D8
:1048600000F0F0BD5CC700002DE9F84FB0F918303A
:104870000BB9BDE8F88F044600F090FD054600280E
:10488000F7D0B4F92C30061D072B32D8DFE813F02F
:1048900066009000A700B9000800D600E9004C00AF
:1048A000D4F830C0BCF1000F39D0E06905F582784A
:1048B000B646C10D4A1CC0F3CF13D2B23CF911A0C9
:1048C0003CF91210B4F91820A76AC3F57F4909F121
:1048D000FF0909FB0AF903FB01931B1402FB03F315
:1048E000DB132EF8023B3844C64520F00040E0D1EF
:1048F000E061B4F92E206AB105F5827101E0B4F9E6
:104900002E20B6F90030134403F30F0326F8023BC0
:10491000B142F4D820460022294600F0BDFD2846C9
:10492000BDE8F84F00F08EBDE36900F582783746A8
:1049300008E0B4F92400A26A27F8020B13444745A3
:10494000E361D6D0A26A9A42F3D9B4F9181048426A
:1049500000F0D4FF00B2E369A084ECE74A4F00F511
:10496000827E3046E369B4F91810D4F828804FEA03
:10497000D35CC3F3CF1B37F91C900CF1010CCBF5C2
:104980007F4A0AF1FF0A37F91CC009FB0AF20BFB48
:104990000C22121401FB02F2D21320F8022B13EBAB
:1049A000080348BF23F000437045E361DAD1A0E774
:1049B000E26900F5827E3146B4F91870A06A42F3CC
:1049C000CF3303FB07F3DB1321F8023B71450244AD
:1049D000F2D1E261B4F92E20002A8DD19AE7E26982
:1049E000831D00F5837051004ABF218BB4F9181064
:1049F000494223F8021CA16A023398420A44F2D1C8
:104A0000E7E7E16900F5827E30460029B7BF238BD6
:104A1000B4F918205B421AB24F004FEA810348BF35
:104A20005B425B0C02FB03F3DB13A76A20F8023B3B
:104A3000704501EB4701E8D1E1615AE7E269276A75
:104A4000831D00F58370BA4236BF218BB4F918106C
:104A5000494223F8021CA16A023398420A44F2D167
:104A6000B7E7E26900F5827E3146B4F91870A06AB2
:104A700042F3CF3303FB07F3DB1321F8023B71450D
:104A8000A2EB0002F1D1A4E75CC700002DE9F843D6
:104A900085690DB9BDE8F883064600F07FFC044641
:104AA0000028F7D0F369043004F5827744F2A711A7
:104AB00011FB13FEDFF8B8C09AB24FEADE334FEABB
:104AC0000E4E01FB02330EEA0C0C634423F000424D
:104AD00002EBD37335FB03FE11FB13FC244A4FEAB0
:104AE0000C4808EA020202EBDC329BB201FB032312
:104AF00023F0004202EBD37335FB03F2CEEA024E01
:104B000011FB13FC1A4A4FEA0C4808EA02029BB256
:104B100002EBDC3201FB032222F0004303EBD272F2
:104B200035FB02FC11FB12F8114B4FEA084909EA68
:104B3000030303EBD83392B201FB023222F00043AD
:104B400003EBD27335FB03F2CCEA024240F808EBE8
:104B5000874240F8042CABD83046F361214600224E
:104B600000F09AFC2046BDE8F84300F06BBC00BFA3
:104B70000000FF7F2DE9F04F00F5807EB1E8A00A2C
:104B8000B2E84015C5EA0643C6EA2544C7EA084527
:104B9000C8EA2746C9EA0A47CAEA2948CBEA0C49C3
:104BA000CCEA2B4AA0E8F8078645E7D1BDE8F04FEC
:104BB00070474FF000022DE9F00F00F5807C00BF38
:104BC000B1E8A00AC5EA0203C2EA2544C7EA020521
:104BD000C2EA2746C9EA0207C2EA2948CBEA020923
:104BE000C2EA2B4AA0E8F8078445E9D1BDE8F00FF6
:104BF00070474FF000022DE9F00F00F5807C00BFF8
:104C0000B1E8A00AC2EA0543C2EA0504C2EA0745C0
:104C1000C2EA0706C2EA0947C2EA0908C2EA0B4922
:104C2000C2EA0B0AA0E8F8078445E9D1BDE8F00F15
:104C300070472DE9F00F089C00F5007B51F8045BEC
:104C400053F8046BC5EA0647C6EA254952F8045BE7
:104C500054F8046BC5EA0648C6EA254AA0E880076E
:104C60008345EBD1BDE8F00F704700BF00207047CF
:104C700090F8392090F83800101A704790F83830C2
:104C800090F839209A4205D95A1C034480F83820FC
:104C9000187E70474FF0FF30704700BF90F83830F3
:104CA00090F839209A4286BF1B18187E4FF0FF30CB
:104CB000704700BF704700BF38B50546B0F85E00CA
:104CC00090B195F85D301446C3F1210294420CD89E
:104CD00005F13B001844224602F09EF995F85D303C
:104CE000234485F85D30204638BD012014462871E4
:104CF000EEE700BFB0F85E306BB190F85D30202B6E
:104D000007D8C218013380F85D30012082F83B10CB
:104D10007047012303710020704700BF00234269E0
:104D200080F8383080F8393080F85C3080F85D30B9
:104D300080F85E3080F85F3006CA30B40D680469D0
:104D400043662A4383660A60A370426990F8613023
:104D50001649146813441D7A5B7B01EBC5051B02E1
:104D60006D6803F4E06343F064032B6090F86230F5
:104D700013449D7CDB7D01EBC5011B02496803F4F4
:104D8000E06343F064030B6021685368194205D067
:104D9000036927225A70036904229A710369202249
:104DA0005A71036980229A7030BC7047F0C90000C4
:104DB00010B50269D378DBB2D90604463DD510217F
:104DC0005806D17038D503F0040303F0FF02002B1E
:104DD00051D03D49626E00230B7084F85D30002A8B
:104DE0005BD0904794F85D30002B56D02369D022D9
:104DF0009A70236994F83B201A712369012284F880
:104E00005C200222DA7010BD304B84F860009C42B6
:104E10004AD02F4B9C4252D094F8391013791F2955
:104E2000DBB207D82848007820B16018013184F837
:104E3000391003760223D37010BD5906C3D491787C
:104E400001F0100101F0FF000029DDD013F0010393
:104E50001ED194F85C1094F85D00884281BF4B1C11
:104E6000091984F85C3091F83B3013712369D02222
:104E70009A702269DEE7236984F83920C0229A708B
:104E80002369114A1979012111700222DA7010BDCB
:104E9000C023937022691379CCE70122002384F8A0
:104EA0005D2084F83B30A1E7626994F861300949DC
:104EB00013440322187A00F047FE2269ACE76269C6
:104EC00094F861300449F3E734CFFF1FC49DFF1FFE
:104ED000309EFF1F394F0000454F00000369DB780B
:104EE00003F0200373B190F860300133DBB2012B83
:104EF00080F860301AD9426990F861301344187A0A
:104F000000F09EBE70B5426903F0FF0590F8613075
:104F100013440446187A00F093FEA36E5BB184F844
:104F2000385094F83900BDE87040184790F85F3069
:104F3000002BE0D0704770BD0148FFF7CFBF00BF26
:104F4000C49DFF1F0148FFF7C9BF00BF309EFF1F70
:104F50002DE9F047374FDFF8E0903B68026982B0F7
:104F600006460093DDF800800021A025D3789B063B
:104F70005BD53B680193019BC8EB03030F2BF5D96D
:104F800049B1102BF2D000209070336980229A70C2
:104F900002B0BDE8F087726996F8613013440521CC
:104FA000187A00F0B7FE726996F861301344012157
:104FB00093F812A0504600F0ADFE0924002150469F
:104FC00000F094FE2B46013BFDD10121504600F03C
:104FD0008DFE2B46013BFDD1013CEFD1706996F867
:104FE000611001444FF4A0720C7A4B7B09EBC401B1
:104FF0001B02496803F4E06343F064030B6096F816
:1050000062300344997CDB7D09EBC1011B024968D6
:1050100003F4E06343F064030B60013AFDD13269AD
:10502000D3789B064FF00101A3D4012002B0BDE864
:10503000F08700BFFCCFFF1FF0C90000F0B5036987
:105040001222DA700269937803F0200385B00446D7
:105050000D46002B5ED0B42393703C4922690B6847
:105060000093009E05E00B680193019B9B1B042BA2
:1050700042D8D37803F0200303F0FF00002BF2D0D6
:1050800094F85D30002B31D04FF0000E4FF0020C41
:1050900004EB0E0393F83B3013710B680393039FEB
:1050A000206907E09B060DD50B680293029BDB1B72
:1050B000052B28D8C378DBB203F0020202F0FF060A
:1050C000002AEFD080F803C02669F378DBB2DF0650
:1050D00032462DD49F062BD5DB0731D40EF1010EBD
:1050E00094F85D305FFA8EFE7345D1D800201DBB69
:1050F000002384F85E3004E09070236980229A7067
:10510000042005B0F0BD86702369802204209A70C7
:1051100005B0F0BD03F0FF06FFF71AFF10B9042039
:1051200005B0F0BD236984F85F60B0229A7094E7FF
:105130008023B3700420DAE726698023B370D7E7B1
:10514000BEF1000F0CBF02200320F6E7FCCFFF1FCB
:105150000148FFF72DBE00BFC49DFF1F0148FFF7A8
:1051600027BE00BF309EFF1F70B50468002C0546A7
:105170000E46C8BF641807DD14F8012D2979287A76
:1051800000F0CEFDA642F7D1287B2E61012100F070
:10519000ADFD287B0021BDE8704000F0A7BD00BF39
:1051A0002DE9F04104465FFA83F8069D4360D6B2CC
:1051B00021600F46826001214046E56000F0AAFDB3
:1051C000EDB23046012100F0A5FD2846012100F096
:1051D000A1FD4046002100F089FD3046002100F08D
:1051E00085FD2846002100F081FD3846012106F0AA
:1051F000B5F9014620612046FFF7B6FF2046BDE81D
:10520000F08100BF012A30B40A4615D01A4B056957
:10521000002903EA0103B8BFCA1D002B4FEAE202CE
:105220001FDBA95C012404FA03F321EA0303AB5456
:10523000016930BCFFF798BF0F4B0569002903EAED
:105240000103B8BFCA1D002B4FEAE2020EDBA95CC6
:10525000012404FA03F30B43AB54016930BCFFF79C
:1052600083BF013B63F007030133DAE7013B63F0DF
:1052700007030133EBE700BF0700008000220A218B
:10528000818002608271C271704700BF30B5CDB2BB
:1052900083B00446C571284600F02EFD0023284641
:1052A000A37100F029FD08B10323A371034B1B6810
:1052B0000193019B236003B030BD00BFFCCFFF1FF3
:1052C00081807047F0B5044685B0C07900F014FDC8
:1052D000A279003018BF0120C2F3400102F0F703A9
:1052E0008842A3710BD0124A1268019283F0020324
:1052F000019AA3712260C3F3C00005B0F0BD0C4D4C
:105300002768296802910299A688C91BB142F2D385
:1053100002F001029042EED02A68039283F0090362
:10532000039AA371C3F3C000226005B0F0BD00BFB3
:10533000FCCFFF1F807900F001007047C029F0B456
:1053400028BFC02172B6124B124E134A18600023B8
:10535000138033607360B360F3603361736101275E
:1053600099B15D0903F01F0456F8252007FA04F4EB
:10537000013322438B4246F82520F2D1002343809B
:1053800001338B4200F58270F9D162B6F0BC7047F0
:10539000C8CFFF1FD0CFFF1FEACFFF1FF0B472B6F8
:1053A000234F244E3C8806F1180306EB84009842F4
:1053B00012D256F8241099B9021D06F11B05631C80
:1053C000AD1A03EB950503E052F8041B41B9013314
:1053D000AB421C461046F7D162B60020F0BC7047C5
:1053E000B1FA81F34FF00042DA4021EA0201016094
:1053F00001B9013410493C800A88013294B20C8012
:1054000062B6801B8010C3EB401000EB801083005D
:105410000A480B49006803F5FB531C330125C554AA
:105420000D88AA42184488BF0C80F0BC704700BFAA
:10543000EACFFF1FD0CFFF1FECCFFF1FC8CFFF1F4A
:10544000C4CFFF1F428872B60378012B03D9013BFA
:10545000037062B67047531170B40C4C0C4D54F885
:1054600023102E88D2434FF0004002F01F0220FA92
:1054700002F21143074A44F82310B34238BF2B808D
:105480001388013B138062B670BC7047D0CFFF1FFA
:10549000EACFFF1FECCFFF1FC368B3B130B401E008
:1054A000DB688BB1187A9042FAD158685C7A00694F
:1054B00050F82450002DF3D140F824100878013022
:1054C0000870DB68002BEDD130BC7047437A8B420B
:1054D00006D90369002253F8210043F821207047C0
:1054E0000020704738B5437A8B421AD9036953F8C4
:1054F0002140002243F821209CB12378012B0ED9B2
:10550000FFF74CFF054628B14FF48072211D04308F
:1055100001F082FD2378013B2370284638BD2046E8
:1055200038BD002038BD00BF037C23BB4368427AEE
:105530005B7A9A421FD830B472B60468E3682BB322
:10554000DA6832B119688C4216D01346DA68002A3C
:10555000F8D1D8600023C360A37A0133A372026834
:105560004168012313728A7A1A448A72426813725C
:10557000037462B630BC70475D6841688D42E4D107
:10558000198903899942F4D01346DFE7E060E1E727
:10559000037C4BB34368427A5B7A9A4224D872B652
:1055A0000268D36803B3984202D11EE0984202D049
:1055B000DB68002BFAD14368427A1B69002143F86B
:1055C00022100268937A013B937203689A7A02B9B7
:1055D0001A724268937A013B937243689A7A02B9CD
:1055E0001A720023037462B67047C368D360E2E79F
:1055F000084B1A7862B930B407480849D0250570BD
:105600004FF0804401220C6010461A7030BC704785
:1056100000207047CCCFFF1F5EE400E008E100E00F
:105620001A491B4A1B48F8B50B681B4D046843F028
:1056300080730B60136843F0010313602E6814B984
:1056400015E064699CB1237A002BFAD023682F6897
:105650001B68204698472B68E188DB1B1B099AB220
:105660008B42A28088BFE2806469002CEBD10A4B98
:105670000A4A1B6810880A4C9B1B1B0999B283427B
:10568000218001D91180F8BDF8BD00BFFCED00E01C
:10569000001000E0C0CFFF1F041000E0E8CFFF1FA4
:1056A000EECFFF1FF0B572B699B902688AB10379DF
:1056B0000F2B0ED8274C218841FA03F5ED070AD5A8
:1056C00003F1007303F59063B2EB431F03D162B69D
:1056D000F0BD204C2188002341FA03F212F00102B0
:1056E00007D00133102BF7D162B60022037102609C
:1056F000F0BD01259D402943218062B6164E174D0D
:10570000174FDFF864E0D9B20171346844F0020445
:1057100034602C6844F002042C60A6F580268224B4
:10572000A5F5802503F100733C6003F59063223EEC
:10573000243D0C4C8EF800105B01317029702170F3
:1057400003601A605A609A60DA601A615A619A615D
:10575000DA61F0BDF0CFFF1F408004403C80044080
:10576000008000401F8000401A80004003790F2B0A
:1057700011D8094A10B4137072B6084904790A881E
:105780000123A34022EA03030B8062B61022002308
:1057900010BC0271036070471A800040F0CFFF1FF9
:1057A00008B5FAF745FFFCF7DDF900F0B1F8FAE7C4
:1057B00000B5064A036812885B6883B001A9ADF89A
:1057C00004200222984703B05DF804FBC4C900001E
:1057D000F0B507468BB0002A33D0012A08BF0A2251
:1057E00051B3212400E0F4B2B1FBF2F502FB151134
:1057F000C8B2092900F1300198BFC8B20AA988BF10
:105800003730214488BFC0B201F8240C661E2946F7
:10581000002DE8D133B1013CE4B20AAB23442D2280
:1058200003F8242C3B6801AA11195B683846C4F1BF
:10583000220298470BB0F0BD30228DF8252021249C
:10584000E8E70368C9B21B6898470BB0F0BD00BF1A
:105850000029BABF49422D2300230A22FFF7B8BF0F
:1058600001F0BABA01F092BA01F06CBA01F0A6BA2E
:1058700001F082BB01F05CBB0846114601F0C8BADA
:10588000084601F049BB00BF704700BFF0B5164D98
:105890002A680AB31549164BDFF85CE082FB016702
:1058A00081FB0214D617D1191444C6EB2141C6EB73
:1058B000244403FB04F40EFB112244F2A71303FB60
:1058C0000243002B02DA03F10043013BB3FBF0F289
:1058D0002B6000FB1230F0BD064B2B60B3FBF0F2E7
:1058E00000FB1230F0BD00BFF4CFFF1F5F0B4E83F3
:1058F000ECF4FFFF42CE0C1F1DF30100884206DAD4
:1059000010B50446081AFFF7C1FF204410BD7047C8
:1059100038B5224C237803B138BD0123237001F040
:105920004DFA70BB00F0E0FA40BB00F073FB10BB17
:1059300000F006FCE0B900232370EFF30583002B91
:10594000EAD1EFF3108172B6154B1868E0B1154C2F
:105950002278CAB945691D6001232370C5B1AA61C7
:1059600001B962B600254577836898472570D3E76B
:1059700001F0E8FCDFE701F0E3FCD9E701F0DEFC31
:10598000D3E7FFF781FFCDE70029C5D162B638BD67
:10599000054B1D600029E5D1E3E700BFF8CFFF1FED
:1059A00098D2FF1F9CD2FF1F94D2FF1F08B5104C46
:1059B00008E0236859050DD423681A050FD423681D
:1059C000DB0411D423685803F3D500F0EDFC236801
:1059D0005905F1D500F098FA23681A05EFD500F0C3
:1059E00029FB2368DB04EDD500F0BAFBEAE700BF32
:1059F0003480044008B5FFF7D9FF00BF014B1022E7
:105A00001A80704700200540704700BF094908B55B
:105A10000B6830B16A461844A2F58052904202D217
:105A20000860184608BD05F0D7FD0C2303604FF051
:105A3000FF3008BDAC9EFF1FFEE700BFF0B44D1E57
:105A40002E46002400E00134B0FBF2F302FB130009
:105A5000092800F130078ABF3730F8B2C0B206F823
:105A6000010F1846002BEED10A1953704CB1107873
:105A700015F8016F28700133E01A834202F80169BA
:105A8000F5DB0846F0BC7047704700BF10B40F4B01
:105A900053F8302092F880422CB1012369B182F88A
:105AA000803010BC704703EBC0035B681A6841B9D3
:105AB00022F002021A6010BC704782F8003110BC5C
:105AC000704742F003021A6010BC7047F0C9000032
:105AD0001C4A02EBC00301295B6811D004291BD0CA
